:04200000DFEF11F00D
:08200800F76A180FF66E200EB6
:10201000F7220900F5501200280C0106F76A2C0F70
:10202000F66E200EF7220900F55012000C424C55B6
:1020300045544F4F54480A00F76A480FF66E200E79
:10204000F7220900F5501200254C752020200D00C4
:10205000EA6A140EE96EEF500EE00F0E016E006A90
:10206000002EFED7012EFBD78F0E006E002EFED75E
:102070000000EF2EF2D7000C1B38F00B006E0F0E95
:102080008A1400108A6E00008A80070E006E002EEF
:10209000FED700D08A90000C8150006E00380F0BE4
:1020A000016E000C0F0E9314F009936E8A840000E9
:1020B0008A800000F1DF01C01BF08A9000008A8056
:1020C000030E006E002EFED700D0E6DF01C01AF02E
:1020D0008A900F0E9314936E1B38006EF00E00164C
:1020E00000501A10016E77EF10F08A92DBD701C012
:1020F0001AF001BEFBD78A9218B08A8200008A9437
:1021000000008A9019381A6E0F0E1A161AC01BF0AA
:10211000B3DF19500F0B1A6E1B6EAEDF000C0F0EE3
:102120009314936E9390939293948A928A948A9044
:102130000F0E146E8DDF010E0A6E0A50030808E3BD
:10214000030E1B6E99DF050E146E82DF0A2AF5D787
:10215000020E1B6E91DF0A6A0A5003080EE3036A3F
:102160000A50F2CF0BF0F29E4FDF0BBEF28E0B6ED9
:10217000186A196EBADF0A2AEFD7FFEF11F0152C93
:1021800001D003D0400E166E01D0166A010E145C09
:10219000162616508009176E186A196EA6DF000CF5
:1021A00013500C0A05E0060A0BE0020A0FE013D0F8
:1021B000186A010E196E99DF020E146E49DF11D0F4
:1021C000010E146E020E156EDADF0BD0186A100EB7
:1021D000196E8BDF06D0010E186E13C019F085DF63
:1021E00000D0000C9EAAFED7ABCF05F0AECF01F019
:1021F00005A202D0AB98AB880CEF12F092CF0AF098
:10220000C1CF0BF09280C080C082C084C08EC280DB
:10221000C150C00B0E09C16E000E016EC250C30B3F
:102220000110C26E270E006E002EFED700D00BC02C
:10223000C1FF0AC092FFC282C2B2FED7C4CF03F070
:10224000C3CF01F0C4CF02F030EF12F0EACF12F0AA
:10225000E9CF11F00B38F0090D6E0D26E20F0E6E6E
:10226000320F106E0B500F0B0E260E261026E90FA4
:102270000F6E0F260F260A380F0B0F2610260F366B
:102280001036101E10360A500F0B10260D36070E92
:102290000C6E0A0E0F061026FDE30E060F26FDE358
:1022A0000D060E26FDE30C060D26FDE3EA6A0C0E74
:1022B000E96E070E1114119CE926100EE95CD8B4E2
:1022C000118CEF50006E08E111BC06D011B813D08C
:1022D00011B602D0200E03D011861198300E0026C0
:1022E000EACF0BF0E9CF0AF000C013F059DF0BC0C2
:1022F000EAFF0AC0E9FFEE5011ACDFD73EEF12F063
:102300009EA8FED713C0ADFF000CEACF12F0E9CFB4
:1023100011F00B38F0090D6E0D26E20F0E6E320F24
:10232000106E0B500F0B0E260E261026E90F0F6EA7
:102330000F260F260A380F0B0F2610260F361036E1
:10234000101E10360A500F0B10260D36070E0C6E9D
:102350000A0E0F061026FDE30E060F26FDE30D06FE
:102360000E26FDE30C060D26FDE3EA6A0C0EE96E6F
:10237000070E1114119CE926100EE95CD8B4118CDB
:10238000EF50006E08E111BC06D011B813D011B6A1
:1023900002D0200E03D011861198300E0026EACF0D
:1023A0000BF0E9CF0AF000C013F0AADF0BC0EAFF80
:1023B0000AC0E9FFEE5011ACDFD74EEF12F0F86A19
:1023C000D09EEA6AE96AB886E10EAF6E040EB06E7E
:1023D000A60EAC6E900EAB6EC150C00B0F09C16E55
:1023E000070EB46E056A94908B90040E0A6EFA0E76
:1023F000146E2EDE0A2EFBD794908B8090D60A6A3C
:102400000A500CDE0A2A006E136ECADE0B0E0A5C3E
:10241000F7E19EAA24D0E6D6076A01C006F006506E
:102420000D0806E1075204E1096A010E086E17D093
:10243000082C05D0095203E10C0E136EB1DE09C061
:1024400003F00850082AD8B4092A0A6E03C00BF01A
:10245000146E010E156E93DE06C013F0A1DECED60B
:1024600002C007F001C006F00A0E136E99DE100ECE
:10247000E96E07C00BF006C00AF0E8D6200E136E16
:102480008FDE200E136E8CDE200E136E89DE100E92
:10249000E96E07C00BF006C00AF037D7030E0A6ECC
:1024A0000A50CADD0A2A006E136E2ADF070E0A5C84
:0C24B000F7E1640E146ECCDDACD7030025
:020000040030CA
:0E000000210E3E1E008181000FC00FE00F4058
:00000001FF
;PIC18F2550
;CRC=1A21  CREATED="18-feb-11 19:10"
