:0420000074EF10F079
:08200800F76A180FF66E200EB6
:10201000F7220900F5501200416C61726D612023B6
:102020003125630A0D00F76A360FF66E200EF7228F
:102030000900F5501200416C61726D612023322558
:10204000630A0D00F76A540FF66E200EF72209009E
:10205000F5501200416C61726D6120233325630AD3
:102060000D00F76A720FF66E200EF7220900F55088
:102070001200416C61726D6120233425630A0D00EA
:10208000F76A900FF66E200EF7220900F550120045
:10209000416C61726D6120233525630A0D00EA6A87
:1020A000090EE96EEF500EE00F0E016E006A002E71
:1020B000FED7012EFBD78F0E006E002EFED700003C
:1020C000EF2EF2D7000C9EAAFED7ABCF05F0AECF15
:1020D00001F005A202D0AB98AB8899EF10F09EA852
:1020E000FED709C0ADFF000CF86AD09EEA6AE96A23
:1020F000B886E10EAF6E040EB06EA60EAC6E900EFA
:10210000AB6EC150C00B0F09C16E070EB46E056AED
:1021100094908B90080E086EFA0E096EC0DF082EA0
:10212000FBD794908B80000E936E8A6A9EAA3AD059
:10213000CAD701C007F0310E075CF80F33E2080F71
:1021400065EF11F081B002D0818001D081902AD05A
:1021500081B202D0818201D0819224D081B402D098
:10216000818401D081941ED081B602D0818601D0B5
:10217000819618D081B802D0818801D0819812D080
:1021800081BA02D0818A01D0819A0CD081BC02D060
:10219000818C01D0819C06D081BE02D0818E01D07D
:1021A000819E00D080B21BD0086A08502DDF082A1B
:1021B000006E00C009F093DF090E085CF6E1070E1F
:1021C000096E8DDF0A0E096E8ADF0D0E096E87DF3C
:1021D000040E086EFA0E096E62DF082EFBD780B47B
:1021E0001BD0086A08501FDF082A006E00C009F0E3
:1021F00076DF090E085CF6E1070E096E70DF0A0E45
:10220000096E6DDF0D0E096E6ADF040E086EFA0EA0
:10221000096E45DF082EFBD780B61BD0086A085030
:1022200011DF082A006E00C009F059DF090E085CB2
:10223000F6E1070E096E53DF0A0E096E50DF0D0E30
:10224000096E4DDF040E086EFA0E096E28DF082EA7
:10225000FBD780B81BD0086A085003DF082A006E3D
:1022600000C009F03CDF090E085CF6E1070E096EBC
:1022700036DF0A0E096E33DF0D0E096E30DF040EF5
:10228000086EFA0E096E0BDF082EFBD780BA1BD042
:10229000086A0850F5DE082A006E00C009F01FDF4A
:1022A000090E085CF6E1070E096E19DF0A0E096EC9
:1022B00016DF0D0E096E13DF040E086EFA0E096E9E
:1022C000EEDE082EFBD732D70300E824F76AF73694
:1022D000E50FF66E220EF7220A00F550FA6E08009E
:1022E000F550F96E442150215C2168217421802130
:0422F0008C21982184
:020000040030CA
:0E000000210E3E1E008181000FC00FE00F4058
:00000001FF
;PIC18F2550
;CRC=8B7E  CREATED="18-feb-11 18:24"
