:0420000036EF1EF0A9
:08200800046ED8CF05F0E0CF13
:1020100006F00001E9CF0CF0EACF07F0E1CF08F0BD
:10202000E2CF09F0D9CF0AF0DACF0BF0F3CF12F0FC
:10203000F4CF13F0FACF14F0F5CF15F0F6CF16F079
:10204000F7CF17F000C00EF001C00FF002C010F083
:1020500003C011F0A0AA30EF10F0A1BABCEF17F046
:102060000EC000F00FC001F010C002F011C003F06C
:102070000CC0E9FF07C0EAFF078E08C0E1FF09C0F6
:10208000E2FF0AC0D9FF0BC0DAFF12C0F3FF13C092
:10209000F4FF14C0FAFF15C0F5FF16C0F6FF17C015
:1020A000F7FF045006C0E0FF05C0D8FF1000F76A34
:1020B000BE0FF66E200EF7220900F5501200280C14
:1020C0000106F76AD20FF66E200EF7220900F550CE
:1020D0001200000302FFFFFFFFFFFFFFFFFFFFFFF4
:1020E000FFFFF76AF20FF66E200EF7220900F55097
:1020F000120000FF02FFFFFFFFFFFFFFFFFFFFFFD8
:10210000FFFFF76A120FF66E210EF7220900F55055
:10211000120008000800400000000000000000005D
:1021200000000000000000000000000000000000AF
:102130000000F76A420FF66E210EF7220900F550F3
:102140001200080000004000000000000000000035
:10215000000000000000000000000000000000007F
:102160000000F76A720FF66E210EF7220900F55093
:10217000120009024300020100803209040000013C
:1021800002020100052400100104240202052406B5
:1021900000010524010001070581030800FA090474
:1021A0000100020A000000070502024000010705C5
:1021B000820240000100F76AC60FF66E210EF72278
:1021C0000900F55012000200F76AD80FF66E210ED2
:1021D000F7220900F550120012171B20FFFFFFFF26
:1021E000F76AF00FF66E210EF7220900F550120083
:1021F0001201100102000008610433000001010215
:102200000001F76A120FF66E220EF7220900F55050
:102210001200040309040803430043005300180399
:10222000530045005200490041004C00200044008A
:1022300045004D004F006D92699468A402D06894E7
:10224000FCD7C8EF17F0080E0401016F040E036FEE
:10225000180E026F880E006F046B040E076F200EBD
:10226000066F0001000C70A002D0EDDF7090689A3C
:10227000D1EF17F06A6A6892D7EF17F00201DC918C
:10228000DBBFDC81DB9FDB51100803E2000E016E37
:102290001BD0DCA10DD0036ADB51000112DFFF0867
:1022A00002E1000E01D0010E016E02010DD00CD032
:1022B000036ADB51000115DFFF0802E1000E01D0C7
:1022C000010E016E020100D00001000C036A020140
:1022D000DA51700FE96E0F0E0320EA6EEF6ADAC270
:1022E000DBF20001CBDF015219E00201DA51080DE7
:1022F000F350DC6BE96E040EDC25EA6EEF6ADA510E
:10230000080DF350DC6BDB6F040EDB27000EDC23C3
:10231000DBC2E9FF040EDC25EA6EEF6A0001000C67
:10232000010E0201D96FD9510F0807E3D9C2DAF2C1
:102330000001CCDF0201D92BF6D70001000C376A6F
:10234000366A250E356E800E346E386A396A080E8C
:102350003A6E896B88913C6A3B6A846B8591000C6C
:102360000201CF6BCF5101080AE3036ACF51320F4C
:10237000E96E000E0320EA6EEF6ACF2BF3D700015F
:10238000DEDF276A010E286E266A000C6896000CB4
:102390006A6A686A9F0E6B6E3D0E696E6E6AC0DF78
:1023A000DFDF160E706E68A602D0F0DFFCD76D98E6
:1023B0004ADF030E2D6EDDEF17F0698468986D8299
:1023C000E3EF17F0689CE9EF17F0D4C22EF0000C91
:1023D000FF0E2E6E000C0201D26B31522CE0D25156
:1023E000070829E32950000A000105E0020A09E074
:1023F000010A0DE012D0036A3050B3DEE8CFD3F209
:102400000CD0036A3050FDDEE8CFD3F206D0036A69
:102410003050E6DEE8CFD3F200D0302A3106020198
:10242000D251D22B036A200FE96E040E0320EA6E0C
:10243000D3C2EFFFD2D7315204E1D251080801E0F4
:10244000266AD2C2D4F20001C0DF000C306A296AC9
:1024500004011B51010A000107E0030A0AE0010A16
:102460000BE0220A1BE02BD0120E316E030E296EF8
:1024700028D0430E316E25D0020E296E036A040166
:102480001A512A0FE96E000E0320EA6EEFCF30F0EA
:10249000036A30500001B5DE316E13D0036A0401C7
:1024A0001A51000191DE306E303C01D006D0036A33
:1024B000305057DE316E05D002D08ADF0ED088DF73
:1024C0000CD004011F5305E131501E5D02E21EC411
:1024D00031F0010E266E00017EDF99EF13F002014C
:1024E000D15306E1040E2D6E00011ADFC5D00201A2
:1024F000050E2D6E040ED46F280ED36F010ED26F11
:10250000D2510F08D8A0B8D0D2C2DAF20001DEDE74
:102510000201D56B036AD2510001E3DDFF0853E0ED
:10252000040E0201D56FD890D235036A000101DE96
:102530000900F5CF03F00201D66F03C0D7F2D251E4
:10254000080DF350DA6BD96F010ED925016E000E1C
:10255000DA21036E01C0E9FF040E0324EA6ED6C23D
:10256000EFFFD251080DF350DA6BD96F020ED92567
:10257000016E000EDA21036E01C0E9FF040E032490
:10258000EA6ED4C2ECFFED52D3C2EFFFD890D23541
:10259000036A0001CEDD0900F5CF03F00201D32765
:1025A0000350D423880ED86FD7B1D881D7B3D8833E
:1025B000D251080DF350DA6BE96E040EDA25EA6E9B
:1025C000D8C2EFFF0001036A0201D251000179DD98
:1025D000FF0837E00201D583D251080DF350DA6BC2
:1025E000D96F040ED927000EDA23020ED925016E09
:1025F000000EDA21036E01C0E9FF040E0324EA6E27
:10260000D4C2ECFFED52D3C2EFFFD890D235036AAB
:10261000000177DD0900F5CF03F00201D327035055
:10262000D423D251080DF350DA6BD96F040ED92799
:10263000000EDA23D9C2E9FF040EDA25EA6E400E55
:10264000EF6E0201D551060802E10E0ED56F036A46
:10265000D251000136DD010803E00201D5890001F5
:10266000036A0201D251700FE96E0F0E0320EA6E69
:10267000D5C2EFFFD22B44D7000191EF13F0040134
:102680001951000A00010DE0010A15E0020A20E0DC
:10269000060A2AE0030A31E00E0A31E0010A37E0B7
:1026A00046D028C020F40401216B020E0201D46F31
:1026B00000018BDE3ED004011A2D07D0010E281632
:1026C0000201D46B000181DE02D0000181DE31D035
:1026D00004011A2D06D028820201D46B000175DE98
:1026E00002D0000175DE25D0020E266E1AC42FF02E
:1026F0000201D46B000169DE1CD0A8D61AD027C015
:1027000020F4010E0201D46F00015FDE12D004013B
:102710001A5101080AE31AC427F01AC4D1F20001C1
:10272000DED60201D46B000150DE000102D050DE83
:1027300000D008EF15F027C0D1F204011951000AAA
:10274000000105E00A0A0CE0010A2BE03FD0040179
:10275000206B216B020E0201D46F000136DE38D0EF
:102760000201D1531BE0010ED15D036A000123DD9C
:10277000016E04011C5DD8A002D002010FD0036AD3
:102780001C51320FE96E000E0320EA6EEFCF20F4E9
:10279000010E0201D46F000118DE02D0000118DE24
:1027A00017D00201D1530FE0036A04011C51320F0C
:1027B000E96E000E0320EA6E1AC4EFFF0201D46B2B
:1027C000000103DE02D0000103DE02D001DE00D0F2
:1027D00008EF15F00201D291D1BFD281D19FD2A1D1
:1027E00011D0D151080DF350D46BD36F040ED32701
:1027F000000ED423D3C2E9FF040ED425EA6E880E5E
:10280000EF6E09D0D151080DF350D46BE96E040E70
:10281000D425EA6EEF6A000172EF14F00201D29142
:10282000D1BFD281D19FD2A111D0D151080DF35087
:10283000D46BD36F040ED327000ED423D3C2E9FF89
:10284000040ED425EA6E840EEF6E0AD0D151080D25
:10285000F350D46BE96E040ED425EA6E840EEF6E4D
:1028600000017AEF14F00201D291D1BFD281D19F41
:10287000D2A111D0D151080DF350D56BD46F040EF5
:10288000D427000ED523D4C2E9FF040ED525EA6E65
:10289000EFCFD3F20AD0D151080DF350D56BE96ECA
:1028A000040ED525EA6EEFCFD3F2D3AF02D0D3B565
:1028B00002D0000E01D0010E016E000186EF14F06F
:1028C0001CC4DBF2DBDC01522EE004011951010AC9
:1028D000000105E0020A0BE0030A11E022D01CC44B
:1028E000D1F278D70201D46B00016FDD1CD01CC47B
:1028F000D1F294D70201D46B000167DD14D004013A
:10290000206B216B1CC4D1F20001ADD7015203E052
:10291000010E0401206F020E0201D46F000155DD8B
:1029200002D056DD00D008EF15F0FE0E2E6E000C22
:1029300004011C2D01D002D01C534FE11951000A93
:1029400000010BE0010A0DE0210A1CE0010A1FE072
:10295000030A30E0010A35E03DD0010E8B6FE5DF60
:102960003BD0040EEA6E200EE96EE26A3D0EE16E87
:10297000080E016EE6CFEEFF012EFCD71EC4D4F286
:1029800024DD2AD0020E8B6F8881CFDF25D0040E84
:10299000EA6E200EE96EE26A340EE16E070E016EF9
:1029A000E6CFEEFF012EFCD7070E0201D46F000127
:1029B0000CDD12D01AC489F00201D46B000105DDD0
:1029C0000BD01AC43CF01BC43BF00201D46B0001D5
:1029D000FCDC02D0FDDC00D00401000108EF15F0A2
:1029E000266A040118517F0B000A000107E0010A62
:1029F00007E0030A07E0230A07E008D040D608D022
:102A00009AD606D05DD704D093D702D0E1DC00D0AF
:102A10001BEF17F00201D251080DF350D86BE96E8D
:102A2000040ED825EA6EEFCFD4F2D351020806E1A6
:102A3000D4AD02D0D36B02D0010ED36FD3510308B3
:102A400013E1840ED46FD251080DF350D86BD76FB9
:102A5000040ED727000ED823D7C2E9FF040ED825CD
:102A6000EA6E840EEF6E07D0D32D03D0C80ED46F5C
:102A700002D0880ED46FD890D235036A000199EC49
:102A800010F00900F5CF03F00201D56F03C0D6F2B4
:102A9000D251080DF350D86BD76F010ED725016EB8
:102AA000000ED821036E01C0E9FF040E0324EA6E74
:102AB000D5C2EFFFD6B1D481D6B3D483D251080D9D
:102AC000F350D86BE96E040ED825EA6ED4C2EFFF3E
:102AD0000001000C036A0201E151700FE96E0F0E54
:102AE0000320EA6EEF5212E0E151080DF350E36B60
:102AF000E26F040EE227000EE323E2C2E9FF040EB8
:102B0000E325EA6EEFCFE2F2E2AF02D0000E01D091
:102B1000010E016E0001000CDCC2E1F2DBDF0152AC
:102B200064E00201DC51080DF350E26BE16F040E2A
:102B3000E127000EE223010EE125016E000EE221E5
:102B4000036E01C0E9FF040E0324EA6EDDC2EFFF4D
:102B5000DF51020817E1DC51080DF350E26BE16F21
:102B6000040EE127000EE223E1C2E9FF040EE22594
:102B7000EA6EEFCFE0F2E0AD02D0DF6B02D0010EE3
:102B8000DF6F13D0DF51040810E1DC51080DF35062
:102B9000E26BE96E040EE225EA6EEFCFE0F2E0AD03
:102BA00003D0010EDF6F01D0DF6BDF2D03D0C80E25
:102BB000E06F02D0880EE06FDEB1E081DEB3E0832B
:102BC000DC51080DF350E26BE16F040EE127000EBB
:102BD000E223E1C2E9FF040EE225EA6EE0C2EFFF64
:102BE000010E016E05D000D00001000E016E020141
:102BF0000001000C8B51010A05E0020A14E0010AF1
:102C000019E02CD0EA6A3D0EE96E040EE26E180E51
:102C1000E16E080E016EE6CFEEFF012EFCD7030E2B
:102C20008B6F83DE1DD00201D46B0001E5EC11F047
:102C30008B6B16D0EA6A340EE96E040EE26E180E43
:102C4000E16E070E016EE6CFEEFF012EFCD78B6B17
:102C50000201D46B0001E5EC11F002D08B6B00D0C7
:102C600066EF16F00201D251080DF350D46BD36F0A
:102C7000010ED325016E000ED421036E01C0E9FFC1
:102C8000040E0324EA6E036AEFCF01F003C002F0E2
:102C900000015AEF16F08591020E0201D26FD36F38
:102CA0000001B8DE000C8581876B020E0201D26F35
:102CB0000001D8D701C086F0865301E1ECDF6DEF4B
:102CC00016F00201D15304E1000194D706D00201AD
:102CD000D151020803E10001E6D702010001000C16
:102CE000D2C26EFF0201D25303E0040E2D6E02D059
:102CF000020E2D6E000182EF16F0276A266A2FC0A1
:102D0000D2F2EED7F5EF16F0D4C2E1F2E3DE0152D3
:102D100041E00201D451080DF350DD6BDC6F040E6D
:102D2000DC27000EDD23020EDC25016E000EDD2106
:102D3000036E01C0E9FF040E0324EA6EECCF03F03A
:102D4000ED52EFCFDAF203C0DBF2DBC2EAFFDAC208
:102D5000E9FFD6C2E2FFD5C2E1FFD8C202F0D7C276
:102D600001F0015202E0022A02D0025206E0E6CF50
:102D7000EEFF012EFCD7022EFAD7D4C2DCF2D8C265
:102D8000DEF2D7C2DDF2D9C2DFF20001C5DE0150AA
:102D900003D000D0000E016E000C0201D36B450E73
:102DA000D26F020ED46FD3C2D6F2D2C2D5F2D86B94
:102DB00084C0D7F2D96F0001A7DF84C08AF0846B8A
:102DC000000C845301E0E9DFFCEF16F00201D1535F
:102DD0000EE1262C05D00001EBEC11F006D002012B
:102DE0002650020803E1000188D7020106D0D15124
:102DF000020803E10001E5D702010001000C2430C4
:102E00000201CF6FCF33CF331F0ECF1724524FE1C4
:102E1000040100513C0B0201D06F430E0401001766
:102E20000201D051340825E104010451800B01E076
:102E3000046B0001D5D56D982E3C07D00201D26BF2
:102E4000030ED36F0001E6DD12D00201D26B020E39
:102E5000D36F0001DFDD2E50FE0809E00201DC6BBC
:102E6000DE6B2EC0DDF2040EDF6F000155DE1DD0DB
:102E70000201D05104081AE1D16B000122DF0201E6
:102E8000D26B020ED36F0001C5DD2E50FE080CE0A0
:102E90002E3C01D009D00201DC6BDE6B2EC0DDF2CE
:102EA000010EDF6F000138DE00D0020162D0245035
:102EB000040818E1430E04010417FF0E2E6E0201F0
:102EC000D16B000183DF2E3C01D00AD00201DC6B04
:102ED000DE6B2EC0DDF2020EDF6F00011DDE00D0C2
:102EE00047D0020124B41DD0CF51080DF350D26B4E
:102EF000016E040ED225036ECF51080DF350D46B32
:102F0000E96E040ED425EA6EEF50430B03C0EAFFCE
:102F100001C0E9FFEF6ECFC2D1F20001D2DE28D0AE
:102F20000201CF51080DF350D26BD16F040ED1279F
:102F3000000ED223D1C201F0040ED225036ECF5170
:102F4000080DF350D46BD36F040ED327000ED42397
:102F5000D3C2E9FF040ED425EA6EEF50430B03C041
:102F6000EAFFD1C2E9FFEF6ECFC2D1F200012EDF3E
:102F700002010001F5EF17F0A19A2D5201E13ED0B8
:102F800068523CE068A404D069A402D01BEF11F0A1
:102F90006DA201D033D068AA04D069AA02D033EF61
:102FA00011F068A204D069A202D03AEF11F068A033
:102FB00004D069A002D0C8EF11F068A804D069A8B5
:102FC00002D0DDEF11F068AC04D069AC02D0E2EFC2
:102FD00011F00201CE6B68A60AD069A608D06CCFAA
:102FE00024F00001C6EC11F00AD702D0020105D08E
:102FF0000201CE51CE2B0308EEE2000130EF10F0BB
:10300000434C462025730D000C6D656E752064657C
:1030100020636F6E666967000A413320616C7578C2
:1030200020204131205043000A20202020202573F9
:103030000000484F4C41322E545854000A202020A2
:1030400020202020202020202020202020000D0AC9
:1030500000000A20202020202020202020202020C6
:10306000202020000C202020202056445249564584
:1030700000000A202020434F4E45435441444F0056
:103080000C4E4F20534520454E434F4E54524F0057
:103090000A202020202056445249564500006D6ADF
:1030A000696A080E6F6E945030090201946E2D6AA1
:1030B000196AF2BE198EF29E0001B0EC11F019BE31
:1030C000F28E000CECDFB3EF1FF0020EEA6EC50EBD
:1030D000E96EEF500EE00F0E016E006A002EFED773
:1030E000012EFBD78F0E006E002EFED70000EF2EB4
:1030F000F2D7000C0201CC39F00B006E0F0E8A14CF
:1031000000108A6E00008A80070E006E002EFED727
:1031100000D08A900001000C8150006E00380F0B27
:10312000016E000C0F0E9314F009936E8A84000058
:103130008A800000F1DF01C0CCF28A9000008A8012
:10314000030E006E002EFED700D0E6DF01C0CBF2EA
:103150008A900F0E9314936E0201CC39006EF00E1C
:1031600000160050CB11016E0001BCEF18F09390D7
:10317000939293948A92D6D701C0CBF2020101AE0A
:1031800002D00001F8D78A92C9B18A8200008A94DD
:1031900000008A90CA39CB6F0F0ECB17CBC2CCF28E
:1031A0000001A8DF0201CA510F0BCB6FCC6F0001E9
:1031B000A1DF000C0F0E9314936E9390939293944F
:1031C0008A928A948A900F0E0201C56F00017DDFFA
:1031D000010E0201B36FB35103080CE3030ECC6F71
:1031E000000188DF050E0201C56F00016EDF0201DC
:1031F000B32BF1D7020ECC6F00017CDF0201B36B61
:10320000B35103080EE3036AB351000157EC10F009
:103210000201B46FC96BCA6F0001A9DF0201B32BB1
:10322000EFD70001B5EF1FF0010E0201B95F0DE30A
:10323000020EEA6EB90EE96EEF5007E0020E006E64
:10324000002EFED700D0EF2EF9D70001000C0201AE
:10325000B551080DF350400FB96FC96BCA6F00012B
:1032600086DF640E0201B96F0001DEDF0201B86B78
:10327000B85107081AE3036AB851B625E96EB75189
:103280000320EA6EECCFBAF2ED52EFCFB9F2010EA5
:10329000C96FB9C2CAF200016ADF640E0201B96FD8
:1032A0000001C2DF0201B82BE3D7C96B800ECA6FE1
:1032B00000015DDF640E0201B96F0001B5DFBFEFF1
:1032C0001FF09EA8FED70201BBC2ADFF0001000C9B
:1032D000100E0201BB6F0001F4DF0D0E0201BB6F87
:1032E0000001EFDF000C910E0201BB6F0001E9DF6E
:1032F0000D0E0201BB6F0001E4DF000C9EAAFED799
:10330000ABCF8CF0AECF01F08CA302D0AB98AB88E2
:10331000000C0101906B010E8F6F8E6B8D6B8C6BAF
:103320008B6B8F5302E1905340E09EBA14D08F2BE9
:10333000D8B4902B9F0E006E002EFED700D0905177
:10334000C20808E2FF0A03E18F514F0803E2906BC5
:103350008F6B01D0EAD78F5302E1905325E0000133
:10336000CDDF01C087F1010187510D081DE08D0EF1
:103370008B25E96E000E8C21EA6E87C1EFFF010EEE
:103380008B27D8B08C2BD8B48D2BD8B48E2B8D0E28
:103390008B25E96E000E8C21EA6EEF6A00018883AE
:1033A0000101906B010E8F6FBCD70001000C020170
:1033B000C62D01D003D0400EC76F01D0C76B010EE0
:1033C000C55DC727C7518009C86FC96BCA6F0001A7
:1033D000CEDE000C0201C451070A000107E00B0A0F
:1033E0000CE0060A16E0020A1CE022D0010E0201DF
:1033F000C56FC66F0001DBDF23D00201C96B010E70
:10340000CA6F0001B4DE020E0201C56F00015DDE6D
:1034100017D0010E0201C56F020EC66F0001C7DF93
:103420000FD00201C96B100ECA6F0001A0DE08D0D8
:10343000010E0201C96FC4C2CAF2000198DE00D0B9
:10344000000C0900F5520CE0F6CFB5F2F7CFB6F25A
:10345000F5CFC4F2BFDFB5C2F6FFB6C2F7FFF1D7B2
:10346000000C130E0201BB6F00012BDF0D0E0201D9
:10347000BB6F000126DF000CC3C2C5F2C2C2C4F29A
:10348000C5C203F00201C4C2E9FFC5C2EAFFEF52A0
:1034900006E0C42BD8B4C52B0001F2D70201C251FB
:1034A000C45D006EC351C559036E00C001F0000138
:1034B00075EF1AF0EF520FE0EACFC3F2E9CFC2F294
:1034C000EFCFC4F287DFC3C2EAFFC2C2E9FFE92A35
:1034D000D8B4EA2AEFD7000C0C0E0201BF6FB8C2B5
:1034E000C3F2B7C2C2F20001C7D701C0C1F2036A7A
:1034F0000201C151B725016EB851032201C0BDF2CE
:1035000003C0BEF2B8C2BCF2B7C2BBF2BC51BE5DD2
:1035100043E303E1BB51BD5D3FE3100EBB25E96E04
:10352000000EBC21EA6EEFCFC0F2100EBB25E96E93
:10353000000EBC21EA6EEF6ABFC2C4F200014ADF8E
:10354000BCC2EAFFBBC2E9FFB5DF100E0201BB251A
:10355000E96E000EBC21EA6EC0C2EFFFBF510A083F
:1035600003E10C0EBF6F02D00A0EBF6FBAC2C2F2E7
:10357000C22BC207D8B406D0FF0EC56F0001A5DD6F
:103580000201F7D7B9C2C5F200019FDD100E02019A
:10359000BB27000EBC23BAD70001000C040E0201A9
:1035A000BB6F00018EDE200E0201BB6F000189DEC1
:1035B000480E0201BB6F000184DE4F0E0201BB6F9B
:1035C00000017FDE4C0E0201BB6F00017ADE410E6E
:1035D0000201BB6F000175DE2E0E0201BB6F000100
:1035E00070DE540E0201BB6F00016BDE580E02014B
:1035F000BB6F000166DE540E0201BB6F000161DE8D
:103600000D0E0201BB6F00015CDE1FEF20F0020116
:10361000B551B703F3CF01F0F4CF00F0B803F35086
:103620000026B651B703F3500020026E000196EF5A
:103630001CF00900F6CFB6F2F7CFB7F2F5CFC4F21F
:10364000C9DEB6C2F6FFB7C2F7FF0201B52F01D03F
:1036500002D00001EED70001ABEF1CF0110E020109
:10366000BB6F00012EDE0D0E0201BB6F000129DED3
:10367000D3EF1CF0900E0201BB6F000122DE0D0E95
:103680000201BB6F00011DDEECEF1CF0450E0201D4
:10369000BB6F000116DE0D0E0201BB6F000111DED3
:1036A00037EF1DF0650E0201BB6F00010ADE0D0E43
:1036B0000201BB6F000105DE50EF1DF0010E02019B
:1036C000BB6F0001FEDD0D0E0201BB6F0001F9DDD5
:1036D00069EF1DF00900F6CFB9F2F7CFBAF2F5CFD6
:1036E000BBF2EFDDB9C2F6FFBAC2F7FF0201B82F95
:1036F00001D002D00001EED700019BEF1BF0EF528A
:103700000FE0EACFB9F2E9CFB8F2EFCFBBF2D9DDE3
:10371000B9C2EAFFB8C2E9FFE92AD8B4EA2AEFD76A
:103720009FEF1BF0000EF66E300EF76E040E0201D6
:10373000B86F0001CFD7EA6AB7C2E9FFE0D70D0E34
:103740000201BB6F0001BDDDB0EF1BF00900F552B7
:103750000CE0F6CFB5F2F7CFB6F2F5CFB7F2E2D77D
:10376000B5C2F6FFB6C2F7FFF1D786EF1DF0196AB2
:10377000F2BE198EF29EB0EC11F019BEF28E6D6A97
:10378000140E6F6E696A6D86010E2D6ECBEF1BF005
:103790006DB601D0ECD72D2C0BD06DBA09D0686A6C
:1037A000696AA08AC00EF212110E696E020E2D6EA9
:1037B000C6EF1DF00201BA91F2BEBA81F29E00017D
:1037C00084513E0802E23E0E846F8451842B036ACA
:1037D000450FE96E000E0320EA6EB9C2EFFFF29EBC
:1037E0000201BAB1F28E0001F9EF1BF0B8C2B9F2D2
:1037F000E1D7196AF2BE198EF29E020E0201E16F44
:1038000000016AEC15F019BEF28E015208E0196A47
:10381000F2BE198EF29ECDEC16F019BEF28E2EEF8E
:103820001CF084513E0817E2196AF2BE198EF29E0E
:10383000020E0201E16F00016AEC15F019BEF28E72
:10384000015208E0196AF2BE198EF29ECDEC16F014
:1038500019BEF28EE6D7B7C2B8F2C8D7000C09007D
:10386000F5520CE0F6CFB5F2F7CFB6F2F5CFB7F2DE
:10387000D8DFB5C2F6FFB6C2F7FFF1D7D6EF1DF01D
:1038800085B101D0FDD78751872B036A300FE96ED0
:10389000040E0320EA6EEFCFB5F20201000186515B
:1038A000875D08E3196AF2BE198EF29E4BEC16F0A2
:1038B00019BEF28E0201B5C201F0000101EF1EF047
:1038C000010E0201B36FB46F080EF66E300EF76E84
:1038D0000001B7DD180EF66E300EF76EB2DD020E87
:1038E0000201B56FFA0EC56F000165EC18F0020118
:1038F000B52FF8D7928280A204D0928680A601D0FC
:10390000F9D7928280B201D039D101018A6B9282BB
:1039100080B203D0928680A62FD10201B66B8AC1F5
:10392000B5F2B86B180EB76F000171D602C003F084
:103930000150930F016E010E032201C091F10101AC
:1039400003C092F1280EF66E300EF76E060E0201DD
:10395000B56F00016ED692C1EAFF91C1E9FFAADD01
:10396000928A80BA15D001018A53D8B402D00001DE
:103970000FD00001ADDCCDDC0201B66B8D0EB6C2FE
:10398000B8F2B76F010EBA6F2C0EB96F0001A4DD4B
:10399000928A80BA15D001018A2D01D002D000018F
:1039A0000FD000015BD6B5DC0201B66B8D0EB6C23E
:1039B000B8F2B76F010EBA6F2C0EB96F00018CDD33
:1039C000928A80BA16D001018A510208D8B402D076
:1039D00000010FD000014ED69CDC0201B66B8D0EAB
:1039E000B6C2B8F2B76F010EBA6F2C0EB96F0001F4
:1039F00073DD928A80BA16D001018A510308D8B4C7
:103A000002D000010FD000016EDC83DC0201B66B36
:103A10008D0EB6C2B8F2B76F010EBA6F2C0EB96F29
:103A200000015ADD928A80BA16D001018A51050838
:103A3000D8B402D000010FD0000113DD6ADC02010E
:103A4000B66B8D0EB6C2B8F2B76F010EBA6F2C0E00
:103A5000B96F000141DD928A80BA16D001018A5106
:103A60000608D8B402D000010FD000010FD651DCF7
:103A70000201B66B8D0EB6C2B8F2B76F010EBA6F07
:103A80002C0EB96F000128DD928A80BA16D0010190
:103A90008A510708D8B402D000010FD0000102D625
:103AA00038DC0201B66B8D0EB6C2B8F2B76F010EEC
:103AB000BA6F2C0EB96F00010FDD928A80BA16D052
:103AC00001018A510808D8B402D000010FD00001CA
:103AD000F5D51FDC0201B66B8D0EB6C2B8F2B76F1A
:103AE000010EBA6F2C0EB96F0001F6DC928A80BA13
:103AF0001AD001018A510908D8B402D0000113D0AC
:103B0000320EF66E300EF76E000120D602DC020196
:103B1000B66B8D0EB6C2B8F2B76F010EBA6F2C0E2F
:103B2000B96F0001D9DC928A80BA09D001018A51AB
:103B30000A08D8B402D0000102D01ED0000192823F
:103B400080B218D0020E0201B56F960EC56F00014B
:103B500065EC18F00201B52FF8D701018A51090868
:103B600002E28A6B01D08A2B3C0EF66E300EF76EA5
:103B7000000167DC0101CBD676D00201928280B2CF
:103B800003D0928680A66BD0000102D69EAA34D0C4
:103B90007EEC19F001C087F1010187510D080BE19E
:103BA0004E0EF66E300EF76E000159D6010E020170
:103BB000B46F23D0010187C1B7F2000132DE0201E8
:103BC000B42D07D0520EF66E300EF76E000139DCC0
:103BD0000201B451B42BB56FC56F020EC66F000160
:103BE000D7EC19F0010187515C08D8B4876B87C105
:103BF000C4F20001EAEC19F00201000185A12BD00A
:103C00003FD601C087F1010187510A0826E087C12C
:103C1000BBF2000161EC19F0010187510D0805E1CB
:103C2000010E0201B36F18D001010201B32D06D0BD
:103C30000C0EC46F0001EAEC19F00201B351B32B72
:103C4000B56FC56F010EC66F0001D7EC19F087C1C3
:103C5000C4F2EAEC19F00201010102018FD7000160
:103C60004FEC18F00101000141EF20F0F86AD09EFE
:103C7000078EEA6AE96A2D6A316A846B8B6B8C6BFA
:103C8000B886E10EAF6E040EB06EA60EAC6E900E4E
:103C9000AB6E88930101906B010E8F6FC150C00B0A
:103CA0000F09C16E070EB46E1A6A1B6A1C6A100EE9
:103CB0001D6E080E1E6E040E1F6E020E206E010E8B
:103CC000216E226A236A2A6A040E2B6E0C0E2C6E59
:103CD000530E936F430E946F530E956F966B976BC5
:103CE000986B996B9A6B9B6B9C6B9D6B9E6B9F6BA0
:103CF000A06BA16BA26BA36BA46BA56BA66BA76B50
:103D0000A86BA96BAA6B450EAB6F430EAC6F530E3D
:103D1000AD6FAE6BAF6BB06BB16BB26BB36BB46BC3
:103D2000B56BB66BB76BB86BB96BBA6BBB6BBC6B77
:103D3000BD6BBE6BBF6BC06BC16BC26B490EC36FFB
:103D4000500EC46F410EC56FC66BC76BC86BC96B95
:103D5000CA6BCB6BCC6BCD6BCE6BCF6BD06BD16B9F
:103D6000D26BD36BD46BD56BD66BD76BD86BD96B4F
:103D7000DA6B490EDB6F500EDC6F480EDD6FDE6BC9
:103D8000DF6BE06BE16BE26BE36BE46BE56BE66BC7
:103D9000E76BE86BE96BEA6BEB6BEC6BED6BEE6B77
:103DA000EF6BF06BF16BF26B530EF36F420EF46F2F
:103DB000440EF56F2D0EF66F440EF76F490EF86F37
:103DC000560EF96F490EFA6F530EFB6F4F0EFC6FD4
:103DD000520EFD6FFE6BFF6B0201006B016B026BFD
:103DE000036B046B056B066B076B086B096B0A6B47
:103DF000460E0B6F570E0C6F560E0D6F0E6B0F6B42
:103E0000106B116B126B136B146B156B166B176BBE
:103E1000186B196B1A6B1B6B1C6B1D6B1E6B1F6B6E
:103E2000206B216B226B450E236F246B256B266B59
:103E3000276B286B296B2A6B2B6B2C6B2D6B2E6BD6
:103E40002F6B306B316B326B336B346B356B366B86
:103E5000376B386B396B3A6B650E3B6F3C6B3D6B68
:103E60003E6B3F6B406B416B426B436B446B456BEE
:103E7000466B476B486B496B4A6B4B6B4C6B4D6B9E
:103E80004E6B4F6B506B516B526B440E536F490E20
:103E9000546F520E556F566B576B586B596B5A6B6C
:103EA0005B6B5C6B5D6B5E6B5F6B606B616B626BC6
:103EB000636B646B656B666B676B686B696B6A6B76
:103EC000430E6B6F4C0E6C6F460E6D6F6E6B6F6BAF
:103ED000706B716B726B736B746B756B766B776BEE
:103EE000786B796B7A6B7B6B7C6B7D6B7E6B7F6B9E
:103EF000806B816B826B730E836F610E846F6C0EAF
:103F0000856F690E866F720E876F886B896B8A6BFF
:103F10008B6B8C6B8D6B8E6B8F6B906B916B926BD5
:103F2000936B946B956B966B976B986B996B9A6B85
:103F30009B6B9C6B9D6B9E6B9F6BA06BA16BA26B35
:103F4000A36BA46BA56BA66BA76BA86BA96BAA6BE5
:103F5000AB6BAC6BAD6BAE6BAF6BB06BB16BB26B95
:103F6000000162EF18F0DAEF18F00201B46B1C0EDA
:103F7000B56BB4C2B7F2B66F000127EF19F068EC69
:103F800019F073EC19F089EC19F088A31CD0640EB9
:103F9000F66E300EF76E21EC1AF0720EF66E300EE1
:103FA000F76E21EC1AF0889394928B82020E020134
:103FB000B36FFA0EC56F000165EC18F00201B32F64
:103FC000F8D71DD000010101895304E00001D7D7C3
:103FD00015D00101800EF66E300EF76E000121EC57
:103FE0001AF0900EF66E300EF76E21EC1AF0010EFC
:103FF0000101896F94928B920001C1D702010001E7
:1040000031EC1AF089EC19F00201B46B8D0EB4C2D8
:10401000B8F2B76F010EBA6F2C0EB96F00016CECDD
:104020001AF0020E0201B36F960EC56F000165EC27
:1040300018F00201B32FF8D70001CEEF1AF089EC87
:1040400019F00201B46B8D0EB4C2B8F2B76F020E54
:10405000BA6FBC0EB96F00016CEC1AF0020E0201CF
:10406000B36FFA0EC56F000165EC18F00201B32FB3
:10407000F8D7928880B806D0928480B403D000012B
:084080001FD40201BCD70300AC
:020000040030CA
:0E00000021CE3E1E0085810007C007E00740AC
:00000001FF
;PIC18F2455
;CRC=E1FC  CREATED="10-feb-11 22:12"
