:060000008EEF35F0000C4C
:08000800056ED8CF06F0E0CF31
:1000100007F00001E9CF0DF0EACF08F0E1CF09F0D9
:10002000E2CF0AF0D9CF0BF0DACF0CF0F3CF14F017
:10003000F4CF15F0FACF16F000C00FF001C010F0A9
:1000400002C011F003C012F004C013F0F2AA2CEFAA
:1000500000F0F2B4D7EF00F00FC000F010C001F0D4
:1000600011C002F012C003F013C004F00DC0E9FF8C
:1000700008C0EAFF088E09C0E1FF0AC0E2FF0BC01A
:10008000D9FF0CC0DAFF14C0F3FF15C0F4FF16C08F
:10009000FAFF055007C0E0FF06C0D8FF1000F2CFFE
:1000A0000EF0F29EF76AB80FF66E000EF722090006
:1000B000F5500EBEF28E1200485454502F312E309F
:1000C00020254C552000F2CF0EF0F29EF76AE00F8B
:1000D000F66E000EF7220900F5500EBEF28E1200E9
:1000E0004E6F7420666F756E6400F2CF0EF0F29E54
:1000F000F76A040FF66E010EF7220900F5500EBEE6
:10010000F28E1200536572766572204572726F72BC
:100110000000F2CF0EF0F29EF76A2C0FF66E010E81
:10012000F7220900F5500EBEF28E12000D0A436F41
:100130006E74656E742D547970653A200000F2CFAC
:100140000EF0F29EF76A580FF66E010EF7220900C4
:10015000F5500EBEF28E1200746578742F68746DBF
:100160006C00F2CF0EF0F29EF76A7C0FF66E010E75
:10017000F7220900F5500EBEF28E12000D0A0D0A8C
:100180000000F2CF0EF0F29EF76A9C0FF66E010EA1
:10019000F7220900F5500EBEF28E12003C423E419D
:1001A0004E30203D203C2F423E3078255800502ACA
:1001B000D8B4512A532A5350090802E2522A536AEA
:1001C0003C0ED76EAF0ED66EF2942CEF00F03C488A
:1001D000544D4C3E3C424F44593E3C48313E3430F5
:1001E00034204572726F723C2F48313E3C48523E7B
:1001F0003C503E46696C65204E6F7420666F756E8C
:10020000642E3C2F424F44593E3C2F48544D4C3EA7
:1002100000003C48544D4C3E3C424F44593E3C4803
:10022000313E353030204572726F723C2F48313E7E
:100230003C48523E3C503E496E7465726E616C2083
:10024000536572766572204572726F723C2F424F11
:1002500044593E3C2F48544D4C3E0000200A3C4837
:10026000544D4C3E3C424F4459204247434F4C4F23
:10027000523D2346464646464620544558543D2363
:100280003030303030303E200A3C494D4720535208
:10029000433D22433A5C5049432045746865726E81
:1002A0006574205765625365727665725C63696335
:1002B000792E676966223E3C503E202020200A3C71
:1002C00048313E4349435920485454502F434749ED
:1002D000204558414D504C453C2F48313E200A3C6A
:1002E000464F524D204D4554484F443D4745543E9E
:1002F000200A3C503E4C43443A203C494E50555411
:1003000020545950453D227465787422204E414D49
:10031000453D226C6364222073697A653D3230204A
:100320006D61786C656E6774683D31363E200A3CBD
:1003300042523E4C4544313A3C494E50555420744B
:100340007970653D22726164696F22206E616D650E
:100350003D226C656431222076616C75653D313ECD
:100360004F4E20266E6273703B20266E6273703B88
:1003700020266E6273703B200A3C494E5055542033
:10038000747970653D22726164696F22206E616DBF
:10039000653D226C656431222076616C75653D3067
:1003A00020636865636B65643E4F4646200A3C42A5
:1003B000523E4C4544323A3C494E50555420747993
:1003C00070653D22726164696F22206E616D653DCA
:1003D000226C656432222076616C75653D313E4F3A
:1003E0004E20266E6273703B20266E6273703B2037
:1003F000266E6273703B200A3C494E50555420745F
:100400007970653D22726164696F22206E616D654D
:100410003D226C656432222076616C75653D30202A
:10042000636865636B65643E4F4646200A3C4252F2
:100430003E3C494E50555420545950453D22737509
:10044000626D6974223E3C2F464F524D3E200A3C5D
:10045000503E3C4120485245463D222F616E616C22
:100460006F67223E416E616C6F67205265616469FF
:100470006E67733C2F413E200A3C2F424F44593E49
:100480003C2F48544D4C3E200A00200A3C48544D15
:100490004C3E3C424F4459204247434F4C4F523D03
:1004A0002346464646464620544558543D23303060
:1004B000303030303E200A3C494D47205352433DB6
:1004C00022687474703A2F2F7777772E636373697D
:1004D0006E666F2E636F6D2F7069782F4343536C78
:1004E0006F676F74696E792E676966223E200A3CD9
:1004F00048313E5049434E455420414443205245E3
:100500004144494E47533C2F48313E200A3C503E1F
:100510002530200A3C42523E2531200A3C503E3CC8
:100520004120485245463D222F223E4368616E6776
:1005300065204C43442F4C4544733C2F413E200AD8
:100540003C2F424F44593E3C2F48544D4C3E200ACC
:1005500000001C6A020E1D6E030E1E6E040E1F6E3E
:10056000050E206E060E216ECCEF37F0C00E186E11
:10057000A80E196E1A6A6E0E1B6EC00E266EA80E9D
:10058000276E286A010E296EFF0E226E236E246EDE
:10059000256ACEEF37F0C080C082C084C09EC28082
:1005A000C150C00B0E09C16E92501109926E93504A
:1005B0001D0B0509936E7C0E94168A8A8A8C8A8E8E
:1005C000D0EF37F0830ED56E3C0ED76EAF0ED66EE1
:1005D000F28AC00EF2125BEF07F09350FD0B050993
:1005E000936E7C0E9416C69A200EC66E400EC76E91
:1005F0008B828B8073EF04F0C950BBC3C9FFC73037
:10060000FEE3C9CF01F0000C8B92B0C3B2F3B0C3CC
:10061000BBF30001F1DF0301BB6B0001EDDF01C0A3
:10062000B1F38B820301B1C301F00001000C8B9286
:10063000FF0E0301BB6F0001DFDF8B8288EF04F048
:10064000030EEA6EE96EEF500DE00A0E016E006ACD
:10065000002EFED7012EFBD75F0E006E002EFED7B8
:10066000EF2EF3D78DEF04F08B920301B6514009C2
:10067000B86FBB6F0001C0DFB7C3BBF3BDDF8B82B8
:10068000000C8B920301B551A009B76FBB6F00013D
:10069000B3DFB6C3BBF3B0DF8B82000C8B920301D8
:1006A000B8518009BA6FBB6F0001A6DFB9C3BBF3B5
:1006B000A3DF8B82000C1F0E0301B56F030EB66F14
:1006C0000001DFDF030E0301B66FB30EB56F010E3D
:1006D000B525E96E000EB621EA6EEFCFB7F31F0E17
:1006E000B86FB7C3B9F30001D9DF000C8B920AC30E
:1006F0000CF30AC3BBF300017FDF0301BB6B0001F6
:100700007BDF0301BB6B000177DF01C00BF38B8242
:1007100003010BC301F00001000C020E0301B46FD2
:10072000140EB36F0001C7DF140E0301B66F07C3C9
:10073000B7F3000199DF030E03010B6F080EE96E9A
:100740000BC3EAFFEFCF0CF3160EB66F0CC3B7F373
:1007500000018ADF030E03010B6F080E0A6F010E02
:100760000A25E96E000E0B21EA6EEFCF0CF3170E8F
:10077000B66F0CC3B7F3000177DF030E0301B46F4C
:100780000A0EB36F000197DF0A0E03010A6F000122
:10079000ADDF01C00AF3000E030101B0010E000A33
:1007A000D8B402D00001F0D70001000C020E030102
:1007B000B46F140EB36F00017EDF140E0301B66F29
:1007C00007C3B7F3000150DF120E0301B66F010E2D
:1007D000B76F000149DF030E0301B46F0A0EB36F58
:1007E000000169DF0A0E03010A6F00017FDF01C00B
:1007F0000AF3000E030101B0010E000AD8B402D0C2
:100800000001F0D7020EB46F140EB36F000153DF76
:10081000120E0301B66FB76B000126DF180E03013D
:100820000A6F000163DF01C008F3190E03010A6FAC
:1008300000015CDF01C009F3030108C301F009C333
:1008400002F000012FEF04F01F0E0301B56F0C0E34
:10085000B66F000116DF0301076B0001A7D702C0C6
:1008600006F301C005F303010351020804E1036B21
:1008700006B1032B0BD0069103B10681076B06C3AB
:1008800009F305C308F3000148DF0301020EB46F4A
:10089000B36F000110DF020E03010A6F000126DFB3
:1008A00001C004F30301049103B10481020EB66F89
:1008B00004C3B7F30001D8DE0301035302E0150EB1
:1008C00001D0120E076F040EB66F07C3B7F3000115
:1008D000CBDE1F0E0301B86F040EB96F0001DEDE20
:1008E00050EF05F07AD61D0E0301B06F00018CDECB
:1008F00001C002F3030102A702D00001F4D70251A4
:10090000FF0A010BD8B402D00001EDD700018FD649
:10091000010E0301036F000193D64F6A5880556A98
:10092000546A080E0301B66FB76B00019DDE090E15
:100930000301B66FB76B000197DE0C0E0301B66FB3
:10094000F70EB76F000190DE0D0E0301B66F1B0EA0
:10095000B76F000189DE0A0E0301B66FF70EB76F9D
:10096000000182DE0B0E0301B66F1B0EB76F000194
:100970007BDE040E0301B66FF80EB76F000174DE64
:10098000050E0301B66F1B0EB76F00016DDE020E80
:100990000301B46FB36B00018EDE0301B66B0D0E65
:1009A000B76F000161DE020E0301B66F320EB76F42
:1009B00000015ADE030E0301B66F400EB76F00014F
:1009C00053DE090E0301B66F3F0EB76F00014CDE18
:1009D000060E0301B66F120EB76F000145DE070E5B
:1009E0000301B66F0C0EB76F00013EDE0A0E030165
:1009F000B66FEE0EB76F000137DE0B0E0301B66F58
:100A0000050EB76F000130DE030E0301B46F040E54
:100A1000B36F000150DE040E0301B66F1CC0B7F3C4
:100A2000000122DE050E0301B66F1DC0B7F3000101
:100A30001BDE020E0301B66F1EC0B7F3000114DE09
:100A4000030E0301B66F1FC0B7F300010DDE0301F3
:100A5000B66B20C0B7F3000107DE010E0301B66FCD
:100A600021C0B7F3000100DE120E0301B06F0001D8
:100A7000CBDD01C059F0100E0301076F010E096FA5
:100A8000086B00014ADE140E0301076F040E096FA4
:100A9000720E086F000141DE0301036B0001D4D622
:100AA0001F0E0301B86F040EB96F0001F7DD5CEF94
:100AB00007F05892FF0E0101156F166F176F186F30
:100AC000196F1A6F1E6B1D6B1C6B1B6B00015DEFAA
:100AD00007F008C34EF007C34DF006C34CF005C342
:100AE0004BF088EF06F003010D6B0E6B010E0F6FDC
:100AF000DA6AD96A030E126F050E116F030EEA6EE1
:100B0000090EE96E12C3E2FF11C3E1FF0FC310F338
:100B1000D890E550EE02F3500D23F4500E23102F21
:100B2000F7D70DC3DEFF0EC30DF30E6BD8B00E2B3F
:100B3000112BD8B4122B0F2B0F510508DFE1000148
:100B4000D9EF05F0016A026A006A036A03010B51DA
:100B500002E10A5118E0100E0C6FD89008370937DF
:100B6000003603360B51035C02E10A51005C07E3D7
:100B70000A51005ED8A003060B51035ED8800136EF
:100B800002360C2FEAD70001FAEF05F04EC008F349
:100B90004DC007F34CC006F34BC005F3410E0301F3
:100BA0000C6FC60E0B6F4E0E0A6F6D0E096F0001B3
:100BB0009AD7390E030100244B6E300E01204C6E83
:100BC000000E02204D6E000E03204E6E4DC000F050
:100BD0004EC001F0026A036A4EC007F34DC006F32F
:100BE0004EC009F34DC008F37F0E0B6FFF0E0A6F66
:100BF0000001A8D700C001F003C002F089EF06F0A1
:100C00000301026B0251040869E30251240DF35001
:100C1000036A5F0F016E000E032201C003F303C0DD
:100C200004F303C3E9FF04C3EAFF0A0EEF6E230EC9
:100C30000325E96E000E0421EA6EEF90230E0325D2
:100C4000E96E000E0421EA6EEF82230E0325E96EA1
:100C5000000E0421EA6EEF84230E0325E96E000ED8
:100C60000421EA6EEF98230E0325E96E000E04219D
:100C7000EA6EEF960F0E0325E96E000E0421EA6E70
:100C8000EF3C01D016D00F0E0325E96E000E0421B3
:100C9000EA6EEFCF05F305C355F3000102EC00F057
:100CA0000F0E03010325E96E000E0421EA6EFF0E0C
:100CB000EF6E210E0325E96E000E0421EA6EEC6A48
:100CC000ED521E0EEF6E100E0325E96E000E04218C
:100CD000EA6EEC6AED52EF6A022B94D7D65001010E
:100CE0001327D7501423CE501327CF501423CC50A2
:100CF0001327000E1423B2501327B35014230301FB
:100D0000086B076B14C106F313C105F30001E1D6AC
:100D10003DD702C05EF001C05DF0040E5E265E505D
:100D200012080AE2FF0A03E15D50870805E2880E17
:100D30005D5E130E5E5AF3D75E50030802E3040EA5
:100D40005E265EEF07F00301076B0751040874E3AA
:100D50000751240DF350036A5F0F016E000E03224A
:100D600001C008F303C009F308C3E9FF09C3EAFFA0
:100D7000EF500A085FE108C3E9FF09C3EAFFEF6A21
:100D80000B0E0825E96E000E0921EA6E06C3ECFF82
:100D9000ED5205C3EFFF0D0E0825E96E000E092187
:100DA000EA6EEC6AED52EF6A070E0825E96E000E56
:100DB0000921EA6EEE52EE52EC6AED52EF6AED5204
:100DC000EF6AED52EF6A230E0825E96E000E092145
:100DD000EA6EEF80230E0825E96E000E0921EA6E07
:100DE000EF960F0E0825E96E000E0921EA6EEF3C22
:100DF00001D016D00F0E0825E96E000E0921EA6E0B
:100E0000EFCF0AF30AC355F3000102EC00F00F0E16
:100E100003010825E96E000E0921EA6EFF0EEF6E50
:100E2000230E0825E96E000E0921EA6EEF8207C342
:100E300001F004D0072B89D7FE0E016E000134EFBC
:100E400007F00301026B02532EE1036A02511F0FE8
:100E5000016E010E032201C003F303C004F3066B0D
:100E6000500E056F00016FD704C3EAFF03C3E9FF0B
:100E700001C0EFFF036A030102511F0FE96E010E6B
:100E80000320EA6EEF50FE080CE0D8900235036AAA
:100E9000200FE96E010E0320EA6E010EEC6EED529A
:100EA000EF6E022BD0D700015FEF07F00201776BE6
:100EB0000001E2EF02F016D5FCD5A2D6C2D7D8EFDA
:100EC00037F058A001D032D05880010E545C030195
:100ED000546F000E5558556F55511A0809E2FF0A14
:100EE00003E15451F70804E21B0E556FF70E546FDF
:100EF0001E0EB86F400EB96F00014EEC03F00301F7
:100F0000B46B0C0EB36F00015BEC03F00C0E03012D
:100F1000B66F54C3B7F3000134EC03F00D0E0301B8
:100F2000B66F55C3B7F3000134EC03F0000C0301B6
:100F3000A36BA46B8B923A0EBB6F0001FCEC02F02A
:100F40000301A451A25D1CE303E1A151A35D18E2DA
:100F5000A0C303F09FC3A5F3A0C3A6F3BB6B00011E
:100F6000FCEC02F0A6C3EAFFA5C3E9FF01C0EFFF56
:100F700003019F2BD8B4A02BA32BD8B4A42BE1D76B
:100F80008B82A3C301F0A4C302F00001000CB1C323
:100F9000B2F3B0C3B3F30301B2C301F0B3C302F0C1
:100FA0000001000C010E0301B46F190EB36F0001B4
:100FB0005BEC03F0190E0301B06F000104EC03F0C9
:100FC00001C020F30301205303E1000E016E82D023
:100FD00058B006D0000175DF000E016E03017AD013
:100FE00055C057F054C056F0B46BB36B00015BECC6
:100FF00003F00301B66B54C0B7F3000134EC03F007
:10100000010E0301B66F55C0B7F3000134EC03F0D5
:10101000030E0301216F0C0E21C3A0F39F6FA26B7F
:10102000140EA16F000183DF1FC3B1F31EC3B0F321
:10103000AEDF02C01FF301C01EF303010D511A08F9
:1010400005E2FF0A19E10C51F70816E3030E216FC0
:101050000C0EE96E21C3EAFFEFB00ED011BF0CD029
:1010600010B90AD00F51040805E2FF0A05E10E513C
:10107000EE0802E310BF01D0FF000DC355F00CC312
:1010800054F008C320F309C321F309C3EAFF08C3DE
:10109000E9FF030EE26E180EE16E060E016EE6CF5A
:1010A000EEFF012EFCD70AC3E9FF0BC3EAFFFF0ED8
:1010B000EF6E1F5108080BE11E5303E01E51060896
:1010C00006E10AC3E9FF0BC3EAFF1EC3EFFF589016
:1010D000010E016E0001AAEF34F0030133C301F0E9
:1010E00034C303F033C335F334C336F333C3E9FFFA
:1010F00034C3EAFFECCF38F3ED52EFCF37F338C308
:10110000B1F337C3B0F3000142DF36C3EAFF35C3A2
:10111000E9FF02C0ECFFED5201C0EFFF020E030138
:101120003325016E000E3421036E01C035F3366F96
:10113000020E3325E96E000E3421EA6EECCF38F34F
:10114000ED52EFCF37F338C3B1F337C3B0F300013B
:101150001EDF36C3EAFF35C3E9FF02C0ECFFED52E4
:1011600001C0EFFF060E03013325016E000E34218E
:10117000036E01C035F3366F060E3325E96E000E9F
:101180003421EA6EECCF38F3ED52EFCF37F338C3AA
:10119000B1F337C3B0F30001FADE36C3EAFF35C35B
:1011A000E9FF02C0ECFFED5201C0EFFF000C030E9F
:1011B0000301A06F170E9F6FA26B1C0EA16F0001A1
:1011C000B6DE7FDE030E0301346F170E336F0001AE
:1011D00084DF0301172D08D0185306E11B510608C0
:1011E00003E11C51040803E0000E016E4ED01D51B6
:1011F000020808E11E5306E115C3E9FF16C3EAFF22
:10120000EF6A14D01D2D09D01E5307E115C3E9FF65
:1012100016C3EAFF010EEF6E09D015C3E9FF16C32E
:10122000EAFF020EEF6E000E016E2FD018502F5DF8
:1012300029E11950305D26E11A50315D23E11B5040
:10124000325D20E113C3E9FF14C3EAFF030EE26E2F
:101250001F0EE16E060E016EE6CFEEFF012EFCD7EB
:10126000060E1325E96E000E1421EA6E25C3EFFF6A
:1012700026C3ECFF27C3ECFF28C3ECFF010E016E71
:1012800004D003D0000E016E00D0000137EF0CF047
:101290001F0E0301B06F000104EC03F001C092F3D4
:1012A000000E030101B6010E000A02E1000E01D09A
:1012B000FF0E016E00D00001000CAAC34FF0070E14
:1012C0000301AB271C0EAC23B46B020EB36F0001FD
:1012D0005BEC03F0030E0301AE6FAB0EE96EAEC321
:1012E000EAFFEFCFAFF3B66BAFC3B7F3000134EC57
:1012F00003F0030E0301AE6FAB0EAD6F010EAD2513
:10130000E96E000EAE21EA6EEFCFAFF3010EB66FBD
:10131000AFC3B7F3000134EC03F0030E0301AE6F6B
:10132000AB0EE96EAEC3EAFFEFCFAFF3020EB66FBE
:10133000AFC3B7F3000134EC03F0030E0301AE6F4B
:10134000AB0EAD6F010EAD25E96E000EAE21EA6E5B
:10135000EFCFAFF3030EB66FAFC3B7F3000134ECBA
:1013600003F0000C8B927A0E0301BB6F0001FCECC2
:1013700002F0B4C3BBF3FCEC02F08B82000C8B9246
:101380007A0E0301BB6F0001FCEC02F00301B8C34D
:1013900003F0B751D8B4B807B707031012E0B6C3CB
:1013A00003F0B5C3E9FFB6C3EAFFEFCFB9F3B9C3A2
:1013B000BBF30001FCEC02F00301B52BD8B4B62B53
:1013C000E6D78B820001000C0301B46B020EB36FF1
:1013D00000015BEC03F0020E0301B66FF80EB76F6D
:1013E000000134EC03F0030E0301B66F1B0EB76F60
:1013F000000134EC03F0060E0301B1271C0EB223EA
:10140000030EB46FB10EE96EB4C3EAFFEFCFB5F3CC
:10141000060EB66FB5C3B7F3000134EC03F0030E4C
:101420000301B46FB10EB36F010EB325E96E000E68
:10143000B421EA6EEFCFB5F3070EB66FB5C3B7F3BD
:10144000000134EC03F00301B46B00018BDFAFC388
:10145000B6F3AEC3B5F30301B86B060EB76F000168
:101460008EDF0301B46B1C0EB4C3B6F3B56FB86B5B
:10147000060EB76F000183DF080E0301B46F000191
:1014800071DF0301B05302E1000E01D0060EB46F0C
:10149000000168DF000C1C0E0301B06F000104ECBA
:1014A00003F001C09DF3000E030101B2010E000A1A
:1014B00010E01F0EB86F800EB96F00014EEC03F004
:1014C0001F0E0301B56F800EB66F000141EC03F0F3
:1014D00003011C0EB56F0A0EB66F000141EC03F05C
:1014E0001F0E0301B86F080EB96F00014EEC03F038
:1014F00059500508D8A4E0D01C0E0301B06F0001BC
:1015000004EC03F001C09DF3030101500A0BD8A4C1
:1015100002D00001F1D71C0EB06F000104EC03F003
:1015200001C09DF3000E030101B2010E000AD8B400
:10153000C4D01F0EB56F080EB66F000141EC03F06A
:101540000301B46BB36B00015BEC03F00301B06B00
:10155000000104EC03F001C091F3010E0301B06F30
:10156000000104EC03F001C092F3060E0301B06F1A
:10157000000104EC03F001C093F3070E0301B06F08
:10158000000104EC03F001C094F30301932BD8B4E1
:10159000942BB66B93C3B7F3000134EC03F0010E48
:1015A0000301B66F94C3B7F3000134EC03F0030EEC
:1015B00003019E6F950E9EC3A0F39F6FA26B070E53
:1015C000A16F0001B4DC03019C6B9C510F0866E322
:1015D0001C0EB06F000104EC03F001C09DF3000E7F
:1015E000030101B2010E000A54E098AB52D01F0E65
:1015F000B86F800EB96F00014EEC03F01F0E0301AF
:10160000B56F800EB66F000141EC03F01C0E0301B4
:10161000B56F0A0EB66F000141EC03F01F0E030117
:10162000B86F080EB96F00014EEC03F01C0E0301F9
:10163000B06F000104EC03F001C09DF30301015001
:101640000A0BD8A402D00001F1D71F0EB56F080E07
:10165000B66F000141EC03F00301B66B93C3B7F31F
:10166000000134EC03F0010E0301B66F94C3B7F32D
:10167000000134EC03F0030E03019E6F950E9EC330
:10168000A0F39F6FA26B070EA16F000150DC03D087
:10169000030104D0000103019C2B97D7B66B91C3C3
:1016A000B7F3000134EC03F0010E0301B66F92C3EF
:1016B000B7F3000134EC03F003010001000C010E4C
:1016C0000301916F0001E4DD01C032F30301323DFB
:1016D00003D0000E016EB7D032C3AAF3AC6BAB6B74
:1016E0000001EBDD0301176B010E166F080E196F79
:1016F000186B060E1A6F040E1B6F152D0BD01D6B89
:10170000010E1C6FFF0E286F296F2A6F2B6F2C6F35
:101710002D6F17D01D6B020E1C6F14C303F013C383
:1017200033F314C334F3030EEA6E280EE96E14C3C8
:10173000E2FF13C3E1FF060E016EE6CFEEFF012EBE
:10174000FCD7030EEA6E1E0EE96EE26A1C0EE16E15
:10175000060E016EE6CFEEFF012EFCD71BC027F36D
:101760001AC026F319C025F318C024F3060E13255A
:10177000E96E000E1421EA6EEFCF00F0ECCF01F01D
:10178000ECCF02F0ECCF03F000502419336F01507E
:101790002519346F02502619356F03502719366FFB
:1017A00033512214006E34512314016E3551241428
:1017B000026E36512514036E005206E1015204E117
:1017C000025202E1035209E029C031F328C030F38C
:1017D00027C02FF326C02EF316D0060E1325E96E70
:1017E000000E1421EA6EEFCF00F0ECCF01F0ECCF49
:1017F00002F0ECCF03F003C031F302C030F301C0BC
:101800002FF300C02EF3030E346F160E336F00015A
:1018100064DC030E0301AF6F280EAE6F060EB06FCF
:10182000B26B1C0EB16F0001CFDD030E0301B66F6A
:10183000160EB56FB86B1C0EB76F0001A0DD2BDE66
:10184000010E016E0301000163EF0CF0000E58B2AF
:10185000010E000A01E02FD0030E0301146F080EE1
:10186000136F030E166F120E156F0001A0D40152F4
:1018700001E131D061EC07F0030112531AE1010ECE
:10188000EA6E150EE96E030EE26E080EE16E060EAC
:10189000016EE6CFEEFF012EFCD711C31EF110C37F
:1018A0001DF10FC31CF10EC31BF1000114D003D0B6
:1018B000030158820001030E0301146F080E136F19
:1018C000156B0001FCD6015202E0589203D0000EC5
:1018D000016E03D000D0010E016EC6EF34F0140E7D
:1018E00056240301676F000E5720686F615167250A
:1018F000656F62516821666F66511A0809E2FF0A36
:1019000003E16551F70804E2F80E655F1B0E665BA4
:10191000B46B100EB36F00015BEC03F0100E03010B
:10192000B66F65C3B7F3000134EC03F0110E030189
:10193000B66F66C3B7F3000134EC03F0010E030188
:10194000635D006E000E6459036E005065270350FE
:10195000662366511A0809E2FF0A03E16551F70898
:1019600004E2F80E655F1B0E665B120EB66F65C370
:10197000B7F3000134EC03F0130E0301B66F66C336
:10198000B7F3000134EC03F01F0E0301B86F300E03
:10199000B96F00014EEC03F01F0E0301B06F0001A0
:1019A00004EC03F001C067F3000E030101BA010E5D
:1019B000000AD8B402D00001EFD7160EB06F0001B4
:1019C00004EC03F001C066F3170E0301B06F0001D1
:1019D00004EC03F001C065F3030165C301F066C3C5
:1019E00002F00001000C140E562403013D6F000E9E
:1019F00057203E6F39513D253B6F3A513E213C6F98
:101A00003C511A0809E2FF0A03E13B51F70804E2DE
:101A1000F80E3B5F1B0E3C5BB46BB36B00015BECE1
:101A200003F00301B66B3BC3B7F3000134EC03F0E2
:101A3000010E0301B66F3CC3B7F3000134EC03F0B1
:101A4000020E0301B66F3BC3B7F3000134EC03F0A1
:101A5000030E0301B66F3CC3B7F3000134EC03F08F
:101A6000000C020E0301AA25016E000EAB21036ECD
:101A700001C0ACF3AD6F020EAA25E96E000EAB21DA
:101A8000EA6EECCFAFF3ED52EFCFAEF3AFC3B1F3ED
:101A9000AEC3B0F30001C7EC07F0ADC3EAFFACC3BF
:101AA000E9FF02C0ECFFED5201C0EFFF040E03019D
:101AB000AA25016E000EAB21036E01C0ACF3AD6F21
:101AC000040EAA25E96E000EAB21EA6EECCFAFF34F
:101AD000ED52EFCFAEF3AFC3B1F3AEC3B0F300013D
:101AE000C7EC07F0ADC3EAFFACC3E9FF02C0ECFFEF
:101AF000ED5201C0EFFF0A0E0301AA25016E000E90
:101B0000AB21036E01C0ACF3AD6F0A0EAA25E96EDE
:101B1000000EAB21EA6EECCFAFF3ED52EFCFAEF398
:101B2000AFC3B1F3AEC3B0F30001C7EC07F0ADC370
:101B3000EAFFACC3E9FF02C0ECFFED5201C0EFFFCA
:101B4000000C030E0301276F120E27C3A0F39F6F33
:101B5000A26B140EA16F000197EC07F00301125164
:101B6000F00B400803E0000E016E58D012510F0B2D
:101B7000006E00345C6E5C36FC0E5C16626B616B52
:101B8000646B5CC063F30001AADE02C011F301C004
:101B900010F303013A6B5CC039F3000124DF030149
:101BA0001051111103E0000E016E38D0030EAB6F1F
:101BB000120EAA6F000155DF0301085109110CE054
:101BC00008C3E9FF09C3EAFF22C3EFFF23C3ECFF09
:101BD00024C3ECFF25C3ECFF060E0A25E96E000EB8
:101BE0000B21EA6E1EC3EFFF1FC3ECFF20C3ECFF07
:101BF00021C3ECFF0CC3E9FF0DC3EAFF1BC3EFFFDA
:101C00000EC3E9FF0FC3EAFF5C50145D006E000EC7
:101C1000155900C0EFFFEC6E010E016E0001DFEF01
:101C200034F00301A26BA16BA06B9F6BD89096312F
:101C3000986F9531976F94C39AF393C399F398C3B0
:101C400003F09751D8B498079707031017E09AC389
:101C500003F099C300F0020E9927D8B09A2B00C068
:101C6000E9FF03C0EAFFECCF03F0ED52EF509F27EE
:101C70000350A023000EA123A223E1D79551010B0D
:101C8000006E036A005003100AE099C3E9FF9AC38B
:101C9000EAFFEF509F27000EA023A123A223A2C397
:101CA0009EF3A1C39DF3A0C39CF39FC39BF39EC36C
:101CB00098F39DC397F3975302E198531FE0A26BEB
:101CC000A16BA66BA56BA0C3A4F39FC3A3F3026A89
:101CD000036A97519F259F6F9851A021A06F0250D2
:101CE000A521A16F0350A621A26FA2C39EF3A1C399
:101CF0009DF3A0C39CF39FC39BF3D9D7A0C303F06C
:101D0000031E9F51FF0A016E03C002F00001000C88
:101D10008B923A0E0301BB6F0001FCEC02F0030151
:101D2000BB6B0001FCEC02F001C095F38B82030158
:101D300095C301F00001000C0301915307E1925398
:101D400005E1FF0E016E026EA1D017D0912D15D0C6
:101D5000925313E10001DCDF0301966B01C095F3A0
:101D600001C003F0000E006A0006001AFF0E031AFD
:101D700000C001F003C002F089D0B46BB36B000166
:101D80005BEC03F00301B06B000104EC03F001C055
:101D900093F3010E0301B06F000104EC03F001C0E6
:101DA00094F3100E0301B66F93C3B7F3000134EC44
:101DB00003F0110E0301B66F94C3B7F3000134ECC6
:101DC00003F0030194511B081BE303E19351F7084F
:101DD00017E3010E915D006E000E9259036E0050E4
:101DE00093270350942394511A0809E2FF0A03E150
:101DF0009351F70804E2F80E935F1B0E945B0AD030
:101E0000010E915D006E000E9259036E00509327F3
:101E100003509423120EB66F93C3B7F3000134EC52
:101E200003F0130E0301B66F94C3B7F3000134EC53
:101E300003F01F0E0301B86F300EB96F00014EECB6
:101E400003F01F0E0301B06F000104EC03F001C0AA
:101E500095F3000E030101BA010E000AD8B402D0B6
:101E60000001EFD7160EB06F000104EC03F001C0C3
:101E700093F3170E0301B06F000104EC03F001C0EF
:101E800094F3030193C301F094C302F00001000C2A
:101E90005C5003013525376F000E3621386F3A6FDD
:101EA00037C339F300019FDD000C9CC39DF39BC336
:101EB0009EF39AC39FF399C3A0F39DC300F09EC302
:101EC00001F09FC302F0A0C303F0000C030191C313
:101ED00001F092C303F091C393F392C394F391C3BF
:101EE000E9FF92C3EAFFECCF96F3ED52EFCF95F303
:101EF00096C3B1F395C3B0F30001C7EC07F094C3E8
:101F0000EAFF93C3E9FF02C0ECFFED5201C0EFFF0F
:101F1000020E03019125016E000E9221036E01C095
:101F200093F3946F020E9125E96E000E9221EA6EF2
:101F3000ECCF96F3ED52EFCF95F396C3B1F395C383
:101F4000B0F30001C7EC07F094C3EAFF93C3E9FFC5
:101F500002C0ECFFED5201C0EFFF040E030191251A
:101F6000016E000E9221036E01C093F3946F040E74
:101F70009125E96E000E9221EA6EEFCF95F3ECCF3A
:101F800096F3ECCF97F3ECCF98F398C39CF397C3F9
:101F90009BF396C39AF395C399F3000186DF94C32C
:101FA000EAFF93C3E9FF00C0EFFF01C0ECFF02C0EE
:101FB000ECFF03C0ECFF080E03019125016E000E3B
:101FC0009221036E01C093F3946F080E9125E96E80
:101FD000000E9221EA6EEFCF95F3ECCF96F3ECCFA3
:101FE00097F3ECCF98F398C39CF397C39BF396C3F6
:101FF0009AF395C399F3000158DF94C3EAFF93C3A2
:10200000E9FF00C0EFFF01C0ECFF02C0ECFF03C01E
:10201000ECFF0E0E03019125016E000E9221036E5E
:1020200001C093F3946F0E0E9125E96E000E92217C
:10203000EA6EECCF96F3ED52EFCF95F396C3B1F382
:1020400095C3B0F30001C7EC07F094C3EAFF93C354
:10205000E9FF02C0ECFFED5201C0EFFF100E0301DB
:102060009125016E000E9221036E01C093F3946FCF
:10207000100E9125E96E000E9221EA6EECCF96F3D8
:10208000ED52EFCF95F396C3B1F395C3B0F30001D2
:10209000C7EC07F094C3EAFF93C3E9FF02C0ECFF6B
:1020A000ED5201C0EFFF120E03019125016E000EEB
:1020B0009221036E01C093F3946F120E9125E96E85
:1020C000000E9221EA6EECCF96F3ED52EFCF95F32E
:1020D00096C3B1F395C3B0F30001C7EC07F094C306
:1020E000EAFF93C3E9FF02C0ECFFED5201C0EFFF2E
:1020F000000CFE0E03013B6F3A6B3A510408D8A066
:102100007AD03A51240DF350036A5F0F016E000E2E
:10211000032201C038F303C039F338C3E9FF39C3E0
:10212000EAFFEF500A0865E00B0E3825E96E000E55
:102130003921EA6EECCF3DF3ED52EFCF3CF3020EC6
:102140003425E96E000E3521EA6EECCF03F0ED5236
:10215000EF503C5D4EE103503D5D4BE138C3E9FF7C
:1021600039C3EAFFEF5202E13AC33BF30D0E3825C3
:10217000E96E000E3921EA6EECCF3DF3ED52EFCF60
:102180003CF334C3E9FF35C3EAFFECCF03F0ED5273
:10219000EF503C5D2EE103503D5D2BE1070E3825ED
:1021A000E96E000E3921EA6EEFCF3CF3ECCF3DF340
:1021B000ECCF3EF3ECCF3FF3060E3625E96E000E72
:1021C0003721EA6EEFCF00F0ECCF01F0ECCF02F058
:1021D000ECCF03F000503C5D0CE101503D5D09E1A6
:1021E00002503E5D06E103503F5D03E13AC301F05A
:1021F0006CD03A2B82D73B51FE0803E1FE0E016EF4
:1022000064D03B51240DF350036A5F0F016E000E42
:10221000032201C038F303C039F3010E38253C6FA7
:10222000000E39213D6FEA6E3CC3E9FF37C3E2FF80
:1022300036C3E1FF0A0E016EE6CFEEFF012EFCD79A
:102240000D0E3825016E000E392134C3E9FF35C368
:10225000EAFFECCF03F0ED52EFCF3EF3EA6E01C0A0
:10226000E9FF03C0ECFFED523EC3EFFF230E38251C
:10227000E96E000E3921EA6EEF960F0E3825E96EF1
:10228000000E3921EA6EEF3C01D016D00F0E382532
:10229000E96E000E3921EA6EEFCF3CF33CC355F3F3
:1022A000000102EC00F00F0E03013825E96E000E6C
:1022B0003921EA6EFF0EEF6E230E3825E96E000E0F
:1022C0003921EA6EEF823BC301F00001D1EF1AF031
:1022D000F29A51C055F350C054F3F28A030154C32B
:1022E00001F055C302F00001000C0F0E030152254E
:1022F000E96E000E5321EA6EEF3C01D01DD00F0EA7
:102300005225E96E000E5321EA6EEFCF54F354C309
:1023100055F3000102EC00F00F0E03015225E96EA7
:10232000000E5321EA6EFF0EEF6E230E5225E96E6A
:10233000000E5321EA6EEF82070E5225E96E000E61
:102340005321EA6EEE52EE52EC6AED52EF6AED5214
:10235000EF6AED52EF6A0D0E5225E96E000E532121
:10236000EA6EEC6AED52EF6A230E5225E96E000E1A
:102370005321EA6EEFA604D0000161EC07F00301DF
:10238000230E5225E96E000E5321EA6EEF96210EC0
:102390005225E96E000E5321EA6EEC6AED521E0ED4
:1023A000EF6E230E5225E96E000E5321EA6EEF9870
:1023B000230E5225E96E000E5321EA6EEFA006D0DF
:1023C00052C3E9FF53C3EAFFEF6A06D052C3E9FFE5
:1023D00053C3EAFF0A0EEF6E100E5225E96E000E8F
:1023E0005321EA6EEC6AED52EF6A0001000C1F0EF9
:1023F0000301B06F000104EC03F001C092F3000E82
:10240000030101B6010E000A02E0000E01D0010E28
:10241000016E00D00001000C010E0301B46F190E13
:10242000B36F00015BEC03F0190E0301B06F000104
:1024300004EC03F001C091F30301B46B0E0EB36F13
:1024400000015BEC03F00E0E0301B06F000104EC21
:1024500003F001C093F30F0E0301B06F000104EC11
:1024600003F001C094F3010E0301B46F190EB36FB2
:1024700000015BEC03F0190E0301B06F000104ECE6
:1024800003F001C095F303019151015CD8B402D06F
:102490000001CAD7B46B0C0EB36F00015BEC03F004
:1024A0000C0E0301B06F000104EC03F001C091F3C6
:1024B0000D0E0301B06F000104EC03F001C092F3B4
:1024C00003019251945D16E303E19351915D12E291
:1024D0009151935D006E92519459036E0050FF0A22
:1024E000F80F006E1B0E035600C001F003C002F08F
:1024F0001DD01CD09151935D09E19251945D06E18C
:10250000F70E016E1B0E026E11D010D09351915D2B
:10251000956F94519259966F010E955D006E000E65
:102520009659036E00C001F0026E00D00001DBEF8F
:1025300013F0060E0301AA25B06F1C0EAB21B16F7C
:10254000010EB025AE6F000EB121AF6FB46B100E4F
:10255000B36F00015BEC03F0100E0301B66FAEC366
:10256000B7F3000134EC03F0110E0301B66FAFC3F3
:10257000B7F3000134EC03F0010E0301AC5D006E13
:10258000000EAD59036E0050AE270350AF23120E5C
:10259000B66FAEC3B7F3000134EC03F0130E0301C2
:1025A000B66FAFC3B7F3000134EC03F01F0E0301A5
:1025B000B86F300EB96F00014EEC03F01F0E03012F
:1025C000B06F000104EC03F001C0B0F3000E030192
:1025D00001BA010E000AD8B402D00001EFD7160EDE
:1025E000B06F000104EC03F001C0AFF3170E03015C
:1025F000B06F000104EC03F001C0AEF30301AEC301
:1026000001F0AFC302F00001000C140E5C6E450E29
:102610000301966F976B140E9425986F000E952109
:10262000996F5A2AD8B45B2A5BC09BF35AC09AF3BD
:102630009D6B9C6B640E9E6F93C39FF3A16BA06B0D
:102640001BC0A5F31AC0A4F319C0A3F318C0A2F3CA
:10265000060E9125E96E000E9221EA6EEFCF00F092
:10266000ECCF01F0ECCF02F0ECCF03F003C0A9F304
:1026700002C0A8F301C0A7F300C0A6F3030EAB6F1E
:10268000960EAA6F000131EC0DF0030191C301F029
:1026900092C303F091C3AAF392C3ABF3140E942533
:1026A000AC6F000E9521AD6F92C3AFF391C3AEF343
:1026B000B06BB26FACC3B1F30001E4EC09F0030EF0
:1026C0000301AB6F960EABC3B6F3B56FB86B140EC8
:1026D000B76F0001BFEC09F00301AB6BAA6BAD6BE8
:1026E000140EAC6F000125DF02C0A1F301C0A0F3FE
:1026F0004FC0AAF30301AC6B0A0EAB6F00015DEC97
:1027000009F0030E0301AB6FA00EABC3B6F3B56FB8
:10271000B86B020EB76F0001BFEC09F04FC0AAF30F
:102720000301AC6B140EAB6F00015DEC09F0000E01
:10273000016E026E000C010E0301916F000157DE65
:102740000152F9E00301683D08D0010E916F0001CC
:1027500048EC09F001C068F30301683D01D000D1E5
:1027600068C3AAF3AC6B140EAB6F00015DEC09F00B
:102770005CC36EF35BC36DF35EC370F35DC36FF355
:1027800062C374F361C373F360C372F35FC371F325
:1027900066C378F365C377F364C376F363C375F3F5
:1027A0003F0E03017A157A6FF00E7915796F67C3C2
:1027B0007AF3000131D602C07CF301C07BF3030140
:1027C0007C5303E17B51280805E2280E7B5F000E55
:1027D0007C5B02D07C6B7B6B7E6B7D6B806B7F6BDD
:1027E000030E926F6D0E916F000166EC0FF0140EE8
:1027F00003016927000E6A2367A30FD0040E69271F
:10280000000E6A23020E816F040E826F836F846B49
:102810000F0E79156009796F04D00F0E79155009E4
:10282000796F1BC088F31AC087F319C086F318C0EC
:1028300085F3060E5925E96E000E5A21EA6EEFCF98
:1028400000F0ECCF01F0ECCF02F0ECCF03F003C0CE
:102850008CF302C08BF301C08AF300C089F38D6B47
:10286000060E8E6F6AC390F369C38FF390C3B1F302
:102870008FC3B0F30001C7EC07F002C090F301C0B2
:102880008FF3030E0301926F850E92C394F3936F3F
:10289000966B0C0E956F000111EC0EF001C07DF3EC
:1028A00003017D1F02C07EF37E1F7EC36CF37DC3D8
:1028B0006BF35AC392F359C391F3060E936F6AC335
:1028C00095F369C394F30001A0DE030E0301926F38
:1028D0006D0E92C3B6F3B56FB86B140EB76F0001EF
:1028E000BFEC09F0030167A30DD0030E926F810EB8
:1028F00092C3B6F3B56FB86B040EB76F0001BFECAF
:1029000009F0030168C3AAF3AC6B140EAB6F0001AE
:102910005DEC09F06AC392F369C391F39CEC0EF08D
:1029200002C06CF301C06BF368C3AAF30301AC6B84
:10293000240EAB6F00015DEC09F06CC3B4F3B2EC94
:1029400009F06BC3B4F3B2EC09F068C3AAF3030156
:10295000AC6BAB6B00015DEC09F04BEC0AF00301D2
:102960000001000C03013451240DF350036A5F0F82
:10297000016E000E032201C04BF303C04CF34D6BFC
:102980001E0E4B25E96E000E4C21EA6EEF6A1F0EFB
:102990004B25016E000E4C21036E01C052F3536FA4
:1029A000000196DC53C3EAFF52C3E9FF02C0ECFF0B
:1029B000ED5201C0EFFF210E03014B25E96E000E21
:1029C0004C21EA6EEC6AED521E0EEF6E0D0E3725AD
:1029D000E96E000E3821EA6EEFA41ED0000161EC12
:1029E00007F003014BC301F04CC303F04BC352F398
:1029F0004CC353F3230E4B25E96E000E4C21EA6EB7
:102A0000EFA002D0000E01D0010E53C3EAFF52C363
:102A1000E9FFEF6E18EF1AF0160E4B25E96E000E67
:102A20004C21EA6EEFCF00F0ECCF01F0ECCF02F0DA
:102A3000ECCF03F003C042F302C041F301C040F306
:102A400000C03FF30E0E3725E96E000E3821EA6E06
:102A5000ECCF03F0ED52EFCF52F303C053F3546BBE
:102A6000556B080E3725E96E000E3821EA6EEFCF60
:102A700000F0ECCF01F0ECCF02F0ECCF03F000500F
:102A80003F5D006E01504059016E02504159026E87
:102A900003504259036E0050525F0150535B025085
:102AA000545B0350555B100E4B25E96E000E4C2114
:102AB000EA6EECCF03F0ED52EFCF00F003C001F06F
:102AC000026A036A0050525D4E6F015053594F6FB6
:102AD00002505459506F03505559516F51BF01D096
:102AE0000AD0140E4B25E96E000E4C21EA6EEC6AFA
:102AF000ED52EF6A0AD0140E4B25E96E000E4C2100
:102B0000EA6E3BC3EFFF3CC3ECFF4BC3E9FF4CC392
:102B1000EAFFEF2CBED00D0E3725E96E000E3821EE
:102B2000EA6EEFB212D0000161EC07F00D0E030166
:102B30003725E96E000E3821EA6EEFA804D0040EA6
:102B40004D6FDCEF19F018EF1AF01A0E4B25016EDD
:102B5000000E4C2101C052F3536F040E3725E96E6D
:102B6000000E3821EA6EEFCF54F3ECCF55F3ECCFE3
:102B700056F3ECCF57F3395154273A515523000EF1
:102B800056235723010E5425006E000E5521016E69
:102B9000000E5621026E000E572153C3EAFF52C3A6
:102BA000E9FF00C0EFFF01C0ECFF02C0ECFFEC6EDC
:102BB0001A0E4B25E96E000E4C21EA6EEFCF00F0A5
:102BC000ECCF01F0ECCF02F0ECCF03F003C03EF30A
:102BD00002C03DF301C03CF300C03BF30D0E3725AE
:102BE000E96E000E3821EA6EEFB80ED04BC3E9FF54
:102BF0004CC3EAFF020EEF6E000161EC07F0120E0B
:102C000003014D6FDCEF19F04BC3E9FF4CC3EAFF42
:102C1000030EEF6E100E4D6F140E4B25016E000E5D
:102C20004C21036E536F0E0E3725E96E000E3821CE
:102C3000EA6EECCF03F0ED52EFCF54F353C3EAFF4B
:102C400001C0E9FF03C0ECFFED5254C3EFFF39515F
:102C50003A111AE0230E4B25E96E000E4C21EA6E64
:102C6000EF86120E4B25E96E000E4C21EA6E3AC338
:102C7000ECFFED5239C3EFFF230E4B25E96E000E3A
:102C80004C21EA6EEF8404D0000161EC07F00301EF
:102C900093D34BC3E9FF4CC3EAFFEF52D8A4C4D08F
:102CA000000161EC07F00D0E03013725E96E000EFF
:102CB0003821EA6EEFB203D0040E4D6F7DD31A0EA9
:102CC0004B25016E000E4C2101C052F3536F040ED0
:102CD0003725E96E000E3821EA6EEFCF54F3ECCFC2
:102CE00055F3ECCF56F3ECCF57F3395154273A5103
:102CF0005523000E56235723010E5425006E000E57
:102D00005521016E000E5621026E000E572153C34D
:102D1000EAFF52C3E9FF00C0EFFF01C0ECFF02C0B1
:102D2000ECFFEC6E140E4B25016E000E4C21036E71
:102D3000536F0E0E3725E96E000E3821EA6EECCF88
:102D400003F0ED52EFCF54F353C3EAFF01C0E9FFA4
:102D500003C0ECFFED5254C3EFFF010E4B25526F41
:102D6000000E4C21536FEA6E52C3E9FF36C3E2FFF7
:102D700035C3E1FF0A0E016EE6CFEEFF012EFCD750
:102D80000D0E4B25016E000E4C2137C3E9FF38C3F1
:102D9000EAFFECCF03F0ED52EFCF54F3EA6E01C03F
:102DA000E9FF03C0ECFFED5254C3EFFF4BC3E9FF53
:102DB0004CC3EAFF020EEF6E160E4B25E96E000EB5
:102DC0004C21EA6EEE52EE52EE52EDCF03F0EDCF13
:102DD00002F0EDCF01F0EFCF00F0010EEE26000E75
:102DE000EE22EE22ED2203C042F302C041F301C005
:102DF00040F300C03FF31A0E4B25E96E000E4C2144
:102E0000EA6EEFCF00F0ECCF01F0ECCF02F0ECCFA8
:102E100003F003C03EF302C03DF301C03CF300C029
:102E20003BF3120E4D6FC8D21A0E4B25E96E000E01
:102E30004C21EA6EEFCF00F0ECCF01F0ECCF02F0C6
:102E4000ECCF03F003C046F302C045F301C044F3E6
:102E500000C043F3160E4B25E96E000E4C21EA6EBE
:102E6000EFCF00F0ECCF01F0ECCF02F0ECCF03F0AD
:102E700003C04AF302C049F301C048F300C047F35E
:102E8000040E3725E96E000E3821EA6EEFCF00F010
:102E9000ECCF01F0ECCF02F0ECCF03F003C03EF337
:102EA00002C03DF301C03CF300C03BF3026A036A79
:102EB00039513B273A513C2302503D2303503E23D6
:102EC000160E4B25E96E000E4C21EA6EEFCF00F096
:102ED000ECCF01F0ECCF02F0ECCF03F003C042F3F3
:102EE00002C041F301C040F300C03FF3040E372598
:102EF000E96E000E3821EA6EEFCF52F3ECCF53F3B8
:102F0000ECCF54F3ECCF55F34351525DD8A446D2E5
:102F10004451535DD8A442D24551545DD8A43ED209
:102F20004651555DD8A43AD24BC3E9FF4CC3EAFFE2
:102F3000EF50020843E10D0E3725E96E000E3821EF
:102F4000EA6EEFA836D01A0E4B25E96E000E4C2122
:102F5000EA6E3BC3EFFF3CC3ECFF3DC3ECFF3EC357
:102F6000ECFF4BC3E9FF4CC3EAFF030EEF6E395190
:102F70003A111AE0230E4B25E96E000E4C21EA6E41
:102F8000EF86120E4B25E96E000E4C21EA6E3AC315
:102F9000ECFFED5239C3EFFF230E4B25E96E000E17
:102FA0004C21EA6EEF8404D0000161EC07F00301CC
:102FB00004D0000161EC07F00301EFD11A0E4B259C
:102FC000E96E000E4C21EA6E3BC3EFFF3CC3ECFF01
:102FD0003DC3ECFF3EC3ECFF4BC3E9FF4CC3EAFF2C
:102FE000EF500308D8A4E2D00D0E3725E96E000E8D
:102FF0003821EA6EEFA82ED0230E4B25E96E000E85
:103000004C21EA6EEFB226D00F0E4B25E96E000E72
:103010004C21EA6EEF3C01D01DD00F0E4B25E96E1E
:10302000000E4C21EA6EEFCF52F352C355F300016C
:1030300002EC00F00F0E03014B25E96E000E4C214F
:10304000EA6EFF0EEF6E230E4B25E96E000E4C214B
:10305000EA6EEF820D0E3725E96E000E3821EA6E1A
:10306000EFA058D0110E4D6F160E4B25E96E000ED5
:103070004C21EA6EEE52EE52EE52EDCF03F0EDCF60
:1030800002F0EDCF01F0EFCF00F0010EEE26000EC2
:10309000EE22EE22ED2203C042F302C041F301C052
:1030A00040F300C03FF31A0E4B25E96E000E4C2191
:1030B000EA6E010EEF24006E000EEC20016E000E91
:1030C000EC20026E000EEC20ED52ED52ED5200C0ED
:1030D000EFFF01C0ECFF02C0ECFFEC6E1A0E4B25B7
:1030E000E96E000E4C21EA6EEFCF00F0ECCF01F05C
:1030F000ECCF02F0ECCF03F003C03EF302C03DF38F
:1031000001C03CF300C03BF34BC3E9FF4CC3EAFFF3
:10311000090EEF6E39513A1144E0230E4B25E96E4A
:10312000000E4C21EA6EEFB61BD0230E4B25E96E44
:10313000000E4C21EA6EEF86120E4B25E96E000E52
:103140004C21EA6E3AC3ECFFED5239C3EFFF230E78
:103150004B25E96E000E4C21EA6EEF844D8920D09C
:10316000160E4B25E96E000E4C21EA6E47C3EFFFA9
:1031700048C3ECFF49C3ECFF4AC3ECFF1A0E4B25D2
:10318000E96E000E4C21EA6E43C3EFFF44C3ECFF2F
:1031900045C3ECFF46C3ECFF000161EC07F00301FF
:1031A00004D0000161EC07F00301F7D04BC3E9FF45
:1031B0004CC3EAFFEF50090815E1000161EC07F08C
:1031C0000D0E03013725E96E000E3821EA6EEFA8D7
:1031D00008D04CC353F34BC352F3000175EC11F00C
:1031E0000301DBD04BC3E9FF4CC3EAFFEF500408F7
:1031F0006AE1000161EC07F00D0E03013725E96E6D
:10320000000E3821EA6EEFA04DD0100E4D6F1A0E51
:103210004B25E96E000E4C21EA6E010EEF24006E84
:10322000000EEC20016E000EEC20026E000EEC2071
:10323000ED52ED52ED5200C0EFFF01C0ECFF02C0B5
:10324000ECFFEC6E1A0E4B25E96E000E4C21EA6E77
:10325000EFCF00F0ECCF01F0ECCF02F0ECCF03F0B9
:1032600003C03EF302C03DF301C03CF300C03BF39A
:103270000D0E3725E96E000E3821EA6EEFA809D051
:103280004CC353F34BC352F3000175EC11F008D05B
:1032900003014BC3E9FF4CC3EAFF060EEF6E0001CA
:1032A00010D003010D0E3725E96E000E3821EA6EAD
:1032B000EFA806D04BC3E9FF4CC3EAFF050EEF6E43
:1032C00000016AD003014BC3E9FF4CC3EAFFEF5092
:1032D000050848E1000161EC07F00D0E03013725F8
:1032E000E96E000E3821EA6EEFA03BD0100E4D6F54
:1032F0001A0E4B25E96E000E4C21EA6E010EEF24EA
:10330000006E000EEC20016E000EEC20026E000E2E
:10331000EC20ED52ED52ED5200C0EFFF01C0ECFF8A
:1033200002C0ECFFEC6E1A0E4B25E96E000E4C212C
:10333000EA6EEFCF00F0ECCF01F0ECCF02F0ECCF73
:1033400003F003C03EF302C03DF301C03CF300C0F4
:103350003BF34CC353F34BC352F3000175EC11F034
:1033600003011BD04BC3E9FF4CC3EAFFEF50060833
:1033700014E1000161EC07F00D0E03013725E96E41
:10338000000E3821EA6EEFA808D04CC353F34BC3AC
:1033900052F3000175EC11F003010ED0000161EC55
:1033A00007F0100E03014D6F46C33EF345C33DF3D6
:1033B00044C33CF343C33BF34D533AE0020E37257D
:1033C000E96E000E3821EA6EECCF53F3ED52EFCFE9
:1033D00052F337C3E9FF38C3EAFFECCF55F3ED52A0
:1033E000EFCF54F336C35AF335C359F353C35CF3E9
:1033F00052C35BF355C35EF354C35DF342C362F340
:1034000041C361F340C360F33FC35FF33EC366F360
:103410003DC365F33CC364F33BC363F34DC367F340
:10342000FF0E686F6A6B696B00019BEC13F0030180
:103430000001E8EF1AF0060E03010825E96E000E00
:103440000921EA6EEFCF00F0ECCF01F0ECCF02F0F3
:10345000ECCF03F003C025F302C024F301C023F333
:1034600000C022F30AC3E9FF0BC3EAFFEFCF00F06D
:10347000ECCF01F0ECCF02F0ECCF03F003C029F366
:1034800002C028F301C027F300C026F32A6B060E02
:103490002B6F0DC32DF30CC32CF32DC3B1F32CC331
:1034A000B0F30001C7EC07F002C02DF301C02CF30C
:1034B000030E0301356F220E35C394F3936F966BA1
:1034C0000C0E956F000111EC0EF001C02FF30301FB
:1034D0002F1F02C030F3301F0DC392F30CC391F3C2
:1034E00000019CEC0EF002C032F301C031F3030185
:1034F00032512F5D03E13151305D07E0000161EC95
:1035000007F0010E016E6BD00301366B356B0001C5
:1035100048EC0FF0030E0301356F0E0E35C3A0F318
:103520009F6FA26B140EA16F000197EC07F0030EC2
:103530000301926F0E0E916F000166EC0FF0030114
:103540001A390F0B006E0034346F3437FC0E341709
:10355000140E345D336F33510C5D346F000E0D5912
:10356000356F140E345D0C6F000E35590D6F1A391E
:103570000F0B006E0034346F3437FC0E3417366B8B
:1035800034C335F3000148EC0FF0030E0301356F2F
:103590000E0E346F09C337F308C336F3000179EF19
:1035A00010F001C02EF303012E51FE0813E02EC3CC
:1035B00034F309C336F308C335F3030E386F0E0E28
:1035C000376F0DC33AF30CC339F30001B2EF14F0B7
:1035D00004D00301000161EC07F0010E016E0FEF52
:1035E00035F0040E03016025016E000E6121036EAB
:1035F00001C062F3636F040E6025E96E000E612165
:10360000EA6EECCF65F3ED52EFCF64F365C3B1F32F
:1036100064C3B0F30001C7EC07F063C3EAFF62C301
:10362000E9FF02C0ECFFED5201C0EFFF060E0301FF
:103630006025016E000E6121036E01C062F3636FAD
:10364000060E6025E96E000E6121EA6EECCF65F38F
:10365000ED52EFCF64F365C3B1F364C3B0F300017F
:10366000C7EC07F063C3EAFF62C3E9FF02C0ECFFE7
:10367000ED5201C0EFFF020E03016025016E000E46
:103680006121036E01C062F3636F020E6025E96E73
:10369000000E6121EA6EECCF65F3ED52EFCF64F3DB
:1036A00065C3B1F364C3B0F30001C7EC07F063C3B3
:1036B000EAFF62C3E9FF02C0ECFFED5201C0EFFF79
:1036C000000C030E0301616F140E61C3A0F39F6F22
:1036D000A26B080EA16F000197EC07F003015F6B6E
:1036E0005E6B0FC303F00EC3E9FF0FC3EAFFEFCF1A
:1036F00060F3626B140E616F646B60C363F300016F
:103700006FEC0CF002C05DF301C05CF303010EC36B
:10371000E9FF0FC3EAFF080EEF5CEF6E0FC303F083
:103720000EC3E9FF0FC3EAFFEFCF60F30DC3A0F3B1
:103730000CC39FF3A26B60C3A1F3000197EC07F0E9
:10374000030E0301616F140E606F00014ADF030175
:103750000AC3E9FF0BC3EAFF14C3EFFF10C3E9FF7D
:1037600011C3EAFF19C3ECFFED5218C3EFFF12C3F8
:10377000E9FF13C3EAFF1BC3ECFFED521AC3EFFFCF
:103780005E515C5D03E15F515D5D02E0000E01D0C2
:10379000010E016E000138EF35F0010E0301916F4B
:1037A000000148EC09F001C05CF303015C3D01D06D
:1037B0007AD05CC3AAF3AC6B140EAB6F00015DEC66
:1037C00009F0036A03010D51080F5A6F000E032020
:1037D0005B6F136B0AC312F3156B146B0FC317F3F4
:1037E0000EC316F311C319F310C318F3030EEA6ED8
:1037F0001A0EE96E0CC3E2FF0BC3E1FF0D51016E1F
:1038000004E0E6CFEEFF012EFCD7030E616F120E2F
:10381000606F0001E6DE080E03010D255E6B5D6F33
:1038200009C392F308C391F3010E936F5EC395F33E
:103830005DC394F3000105EC13F0030E03015E6F0A
:10384000120E5EC3B6F3B56F5BC3B8F35AC3B7F3DA
:103850000001BFEC09F00301AB6B140EAA6F5BC350
:10386000ADF35AC3ACF3000199EC12F002C015F3AA
:1038700001C014F35CC3AAF30301AC6B160EAB6F6B
:1038800000015DEC09F0030E03015E6F140E5EC3D0
:10389000B6F3B56FB86B020EB76F0001BFEC09F05D
:1038A0004BEC0AF00301000167EF35F00301136BE5
:1038B000086B08510408D8A042D20851240DF350D7
:1038C000036A5F0F016E000E032201C00DF303C0F7
:1038D0000EF3230E0D25E96E000E0E21EA6EEFB6F3
:1038E00008D0230E0D25E96E000E0E21EA6EEFA81A
:1038F00001D023D20DC3E9FF0EC3EAFFEF500A083F
:1039000012E00DC3E9FF0EC3EAFFEF520DE1230EF3
:103910000D25E96E000E0E21EA6E000EEFB0010ECD
:10392000010B010801E109D20DC3E9FF0EC3EAFF53
:10393000EF5003080DE1230E0D25E96E000E0E2158
:10394000EA6E000EEFB0010E010B010801E1F5D1A6
:10395000000168EC11F002C00CF301C00BF31F0E64
:1039600003010D25E96E000E0E21EA6EECCF03F087
:10397000ED52EFCF01F00C51035C04E305E101507F
:103980000B5D02E3000E01D0010E036A03101BE081
:103990001F0E0D25E96E000E0E21EA6EECCF03F02E
:1039A000ED52EF50FF08146FFF0E0354156F0B51CB
:1039B00014270C511523010E1425016E000E15213C
:1039C000036E015010D01F0E0D25E96E000E0E2162
:1039D000EA6EECCF03F0ED52EF500B5D006E03503A
:1039E0000C59036E0050096F03C00AF3210E0D2518
:1039F000E96E000E0E21EA6EECCF03F0ED52EFCF30
:103A000001F00A51035C05E303E10951015C01E3A4
:103A100094D1010E916F0001F7EC11F0015201E118
:103A20008ED11F0E03010D25016E000E0E21036EB7
:103A300001C014F3156F000168EC11F015C3EAFF23
:103A400014C3E9FF02C0ECFFED5201C0EFFF210EED
:103A500003010D25E96E000E0E21EA6ED890EF34B9
:103A6000026EEC34036E0250ED52EF6E03C0ECFFB9
:103A70001E0E0D25E96E000E0E21EA6EEF2A0DC313
:103A8000E9FF0EC3EAFF010EEF5CF70FD8B0C7D015
:103A9000090F0001A2EF1EF0020E0301136FBFD049
:103AA0001E0E03010D25E96E000E0E21EA6EEF5089
:103AB000030803E3120E136F16D0230E0D25E96ED3
:103AC000000E0E21EA6EEFA006D00DC3E9FF0EC373
:103AD000EAFFEF6A08D0020E136F0DC3E9FF0EC3B1
:103AE000EAFF010EEF6E9BD01E0E03010D25E96E5D
:103AF000000E0E21EA6EEF50030821E30F0E0D2594
:103B0000E96E000E0E21EA6EEF3C01D013D00F0ECD
:103B10000D25E96E000E0E21EA6EEFCF14F314C3EB
:103B2000AAF3AC6BAB6B00015DEC09F04BEC0AF057
:103B300004D00301100E136F000128D003010F0EF3
:103B40000D25E96E000E0E21EA6EEF3C01D016D075
:103B50000F0E0D25E96E000E0E21EA6EEFCF14F365
:103B600014C355F3000102EC00F00F0E03010D2504
:103B7000E96E000E0E21EA6EFF0EEF6E110E136F4E
:103B80000DC3E9FF0EC3EAFF040EEF6E030147D039
:103B90001E0E03010D25E96E000E0E21EA6EEF5098
:103BA000030803E3010E136F08D00EC353F30DC3D4
:103BB00052F3000175EC11F0030131D00EC353F341
:103BC0000DC352F375EC11F0030129D00EC353F36A
:103BD0000DC352F375EC11F0030121D0010E030166
:103BE000136F0DC3E9FF0EC3EAFF090EEF6E17D086
:103BF0001E0E03010D25E96E000E0E21EA6EEF5038
:103C0000030803E3010E136F08D00EC353F30DC373
:103C100052F3000175EC11F0030101D003011353BD
:103C2000D8B48BD013A917D0160E0D25E96E000E4F
:103C30000E21EA6EEFCF00F0ECCF01F0ECCF02F0F6
:103C4000ECCF03F003C012F302C011F301C010F374
:103C500000C00FF31FD0160E0D25E96E000E0E21C9
:103C6000EA6EEE52EE52EE52EDCF03F0EDCF02F0DF
:103C7000EDCF01F0EFCF00F0010EEE26000EEE22A8
:103C8000EE22ED2203C012F302C011F301C010F3C3
:103C900000C00FF3010E0D25016E000E0E21036E04
:103CA00001C014F3156F0B0E0D25E96E000E0E21E9
:103CB000EA6EECCF17F3ED52EFCF16F30D0E0D2594
:103CC000E96E000E0E21EA6EECCF19F3ED52EFCF44
:103CD00018F31A0E0D25E96E000E0E21EA6EEFCFD5
:103CE0001AF3ECCF1BF3ECCF1CF3ECCF1DF303C0A6
:103CF0005AF301C059F317C35CF316C35BF319C33E
:103D00005EF318C35DF312C362F311C361F310C312
:103D100060F30FC35FF31DC366F31CC365F31BC3DE
:103D200064F31AC363F313C367F3FF0E686F6A6B20
:103D3000696B00019BEC13F00301082BBAD500015D
:103D400071EF35F0F2CF0EF0F29EE824F76AF73605
:103D5000690FF66E3D0EF7220A00F550FA6E080064
:103D6000F5500EBEF28EF96E983AA03AE83A903BC2
:103D7000BC3BBC3BCC3BDC3BF03B03011051240D76
:103D8000F350126B116F5F0E1125E96E000E1221B8
:103D9000EA6EEF50030802E0000E01D0010E016E42
:103DA0000001000C03011051240DF350126B116F30
:103DB000230E1127000E12235F0E1125E96E000E4F
:103DC0001221EA6E000EEFB6010E016E0001000C2A
:103DD00003011051240DF350036A5F0F016E000EB2
:103DE000032201C013F303C014F3230E1325E96E5D
:103DF000000E1421EA6EEFA651D0230E1325E96EB2
:103E0000000E1421EA6EEFA40ED0366B140E356F3F
:103E1000000148EC0FF0230E03011325E96E000E9C
:103E20001421EA6EEF94120E1325E96E000E142190
:103E3000EA6EECCF16F3ED52EFCF15F3155310E108
:103E400016530EE1000161EC07F0230E0301132568
:103E5000E96E000E1421EA6EEF96000E016E20D07E
:103E6000120E1325E96E000E1421EA6EFF0EEF26E6
:103E700002E2EE52ED0612C303F011C315F312C3B2
:103E800016F3000188EC0EF016C3EAFF15C3E9FF34
:103E900001C0EFFF010E016E030102D0000E016EA2
:103EA0000001000C1BC31FF31AC31EF31FC303F052
:103EB00003011EC3E9FF1FC3EAFFEF5230E01DC339
:103EC00021F31CC320F321C303F020C3E9FF21C366
:103ED000EAFFEF520AE11A511E5D006E1B511F5995
:103EE000036E00C001F023D010D01EC3E9FF1FC332
:103EF000EAFFEFCF22F321C303F020C3E9FF21C380
:103F0000EAFFEF50225D01E104D0202BD8B4212B31
:103F1000DAD71E2BD8B41F2B0001C8D703011A51C2
:103F20001E5D006E1B511F59036E00C001F00001A1
:103F3000EFEF1FF01BC31FF31AC31EF31FC303F0E1
:103F400003011EC3E9FF1FC3EAFFEF522AE01DC3AE
:103F500021F31CC320F321C303F020C3E9FF21C3D5
:103F6000EAFFEF5218E01EC3E9FF1FC3EAFFEFCFDD
:103F700022F321C303F020C3E9FF21C3EAFFEF507E
:103F8000225D05E11EC301F01FC302F00DD0202BFE
:103F9000D8B4212BE0D71E2BD8B41F2B0001CED7CD
:103FA0000301000E016E026E000110EF20F003010C
:103FB0001251131104E013C303F0125103D04AC08D
:103FC00003F04950166F03C017F317C31BF316C352
:103FD0001AF315C31DF314C31CF3000163D701507A
:103FE00003011627000E172317C303F016C3E9FFBA
:103FF00017C3EAFFEF520AE149C0E9FF4AC0EAFFEE
:10400000200EEF6E000E016E026E27D017C31BF359
:1040100016C31AF315C31DF314C31CF300018AD78A
:1040200002C019F301C018F319C303F0030118C348
:10403000E9FF19C3EAFFEF5208E018C3E9FF19C30B
:10404000EAFFEF6A182BD8B4192B19C34AF018C32A
:1040500049F016C301F017C302F00001000C030180
:1040600010C3E9FF11C3EAFFEFCF14F313C303F04A
:1040700012C3E9FF13C3EAFFEF50145D15E111C34A
:1040800003F010C3E9FF03C0EAFFEF5203E1000EA3
:10409000016E1FD011C303F01051102BD8B4112B97
:1040A000122BD8B4132BDCD711C303F010C3E9FFD4
:1040B00011C3EAFFEFCF14F313C303F012C3E9FFF8
:1040C00013C3EAFFEF50145D02E2FF0E01D0010EB0
:1040D000016E0001000C5FC361F35EC363F35DC357
:1040E00062F303016051000813E263C303F062C38B
:1040F000E9FF63C3EAFF6151EF5C05E162C301F0D0
:1041000063C302F008D0622BD8B4632B6007EAD7F0
:10411000000E016E026E0001000C03015E5160038F
:10412000F3CF01F0F4CF00F06103F35000265F51AC
:104130006003F3500020026E0001000C0301356B98
:10414000366B300E386F310E396F320E3A6F330ED8
:104150003B6F340E3C6F350E3D6F360E3E6F370EA3
:104160003F6F380E406F390E416F610E426F620E25
:10417000436F630E446F640E456F650E466F660EA7
:10418000476F670E486F680E496F690E4A6F6A0E77
:104190004B6F6B0E4C6F6C0E4D6F6D0E4E6F6E0E47
:1041A0004F6F6F0E506F700E516F710E526F730E16
:1041B000536F740E546F750E556F760E566F770EE3
:1041C000576F780E586F790E596F7A0E5A6F5B6B76
:1041D0002BC330F32AC32FF330C303F02FC3E9FFFF
:1041E00030C3EAFFEF50200804E12F2BD8B4302B66
:1041F000F3D730C303F02FC3E9FF30C3EAFFEF501A
:104200002D0809E030C303F02FC3E9FF30C3EAFFF4
:10421000EF502B080BE130C303F02F512F2BD8B4F4
:10422000302BE96E03C0EAFFEF5001D02B0E376F41
:1042300037512D080AE02EBF08D02E2D01D005D011
:104240002EBF05D02E51240802E20BD184D02E536C
:104250004CE02E5110081FE130C303F02FC3E9FFDB
:1042600030C3EAFFEF50300816E1010E2F25E96E4A
:10427000000E3021EA6EEF50780809E0010E2F257C
:10428000E96E000E3021EA6EEF50580804E1020E8C
:104290002F27000E30232E5108080DE130C303F004
:1042A0002FC3E9FF30C3EAFFEF50300804E1010EED
:1042B0002F27000E30232E51020816E130C303F0E1
:1042C0002FC3E9FF30C3EAFFEF5030080DE1010EC4
:1042D0002F25E96E000E3021EA6EEF50620804E1EE
:1042E000020E2F27000E302336D030C303F02FC329
:1042F000E9FF30C3EAFFEF50300803E00A0E2E6FEB
:104300002AD0010E2F25E96E000E3021EA6EEF5003
:10431000780809E0010E2F25E96E000E3021EA6EC3
:10432000EF50580807E1100E2E6F020E2F27000ED7
:10433000302311D0010E2F25E96E000E3021EA6ED8
:10434000EF50620806E1020E2E6F2F27000E302379
:1043500002D0080E2E6F30C332F32FC331F330C3B7
:1043600003F02FC3E9FF30C3EAFFEF50300804E148
:104370002F2BD8B4302BF3D730C303F02FC3E9FF72
:1043800030C3EAFFEFCF5CF35C51400806E25C51BA
:104390005A0803E35C51200901D05C515C6F030EA5
:1043A0005E6F380E5D6F5CC35FF32EC360F3000178
:1043B00092DE02C034F301C033F30301335302E150
:1043C000345349E0036A2E51006EE8BE03065C6F69
:1043D00003C05DF336C35FF335C35EF303C061F31F
:1043E000606F00019ADE01C05CF3380E0301335D9B
:1043F000006E030E3459036E00500124016E02500A
:10440000032201C035F303C036F32F2BD8B4302B71
:1044100030C303F02FC3E9FF30C3EAFFEFCF5CF3F3
:104420005C51400806E25C515A0803E35C512009E4
:1044300001D05C515C6F030E5E6F380E5D6F5CC324
:104440005FF32EC360F3000146DE02C034F301C007
:1044500033F3B3D703012F51315D13E13051325D96
:1044600010E12C512D1109E02CC3E9FF2DC3EAFF07
:104470002BC3ECFFED522AC3EFFF000E016E026E5C
:1044800010D02C512D1109E02CC3E9FF2DC3EAFFF8
:1044900030C3ECFFED522FC3EFFF35C301F036C33D
:1044A00002F0000116EF23F03FC341F33EC340F397
:1044B00041C303F0030140C3E9FF41C3EAFFEF52E8
:1044C00006E0402BD8B4412B0001F2D703013E5146
:1044D000405D006E3F514159036E00C001F0000184
:1044E000000C2EC333F32DC332F330C335F32FC387
:1044F00034F303013551335D33E303E13251345D6D
:104500002FE231513425016E000E3521036E3351F7
:10451000035C26E303E10150325D22E23151322790
:10452000000E332331513427000E3523315100085A
:1045300016E23251D8B4330732073451D8B43507B4
:10454000340734C3E9FF35C3EAFFEFCF38F333C391
:10455000EAFF32C3E9FF38C3EFFF3107E7D71FD0C7
:10456000315100081CE233C303F03251322BD8B46E
:10457000332B366F03C037F335C303F03451342B7C
:10458000D8B4352BE96E03C0EAFFEFCF38F337C359
:10459000EAFF36C3E9FF38C3EFFF3107E1D72DC388
:1045A00001F02EC302F000013FEF23F00301276B5F
:1045B00022C324F321C323F322C303F021C3E9FF61
:1045C00022C3EAFFEFCF28F3285360E028512B08DD
:1045D0000CE122C303F02151212BD8B4222BE96E28
:1045E00003C0EAFF200EEF6E4FD02851250849E1A5
:1045F000010E21252A6F000E22212B6F030EEA6E79
:10460000250EE96E2BC3E2FF2AC3E1FF020E016E05
:10461000E6CFEEFF012EFCD7030E2B6F250E2A6F7F
:104620002D6B2C6B100E2E6F000188D501C029F365
:10463000030122C303F02151212BD8B4222BE96EB0
:1046400003C0EAFF29C3EFFF020E21252A6F000EE7
:1046500022212B6F22C33FF321C33EF3000124DF4D
:10466000010E015C03012C6F22C32EF321C32DF335
:104670002BC330F32AC32FF3316F000132D704D09C
:104680000301212BD8B4222B030196D723C301F0B9
:1046900024C302F00001000C03012AC3E9FF2BC36D
:1046A000EAFFEFCF2EF32DC303F02CC3E9FF2DC398
:1046B000EAFFEF502E5D48E02BC303F02AC3E9FF69
:1046C0002BC3EAFFEFCF2EF32E51400803E22E5109
:1046D0005A0806E22E5160084CE22E517A0849E34E
:1046E0002DC303F02CC3E9FF2DC3EAFFEFCF2EF358
:1046F0002E51400803E22E515A0806E22E5160085E
:1047000038E22E517A0835E32AC3E9FF2BC3EAFFCA
:10471000EFCF2EF32DC303F02CC3E9FF2DC3EAFF27
:10472000200EEF242E5D10E02CC3E9FF2DC3EAFF1D
:10473000EFCF2EF32BC303F02AC3E9FF2BC3EAFF0D
:10474000200EEF242E5D15E12BC303F02AC3E9FFF1
:104750002BC3EAFFEF5203E1000E016E1FD02BC303
:1047600003F02A512A2BD8B42B2B2C2BD8B42D2B69
:1047700094D72BC303F02AC3E9FF2BC3EAFFEFCF83
:104780002EF32DC303F02CC3E9FF2DC3EAFFEF5036
:104790002E5D02E2FF0E01D0010E016E0001000C41
:1047A0000301146B156B166B176B13C32BF312C33A
:1047B0002AF3020E2D6FE80E2C6F00016DDF0152FF
:1047C0000AE1020E036E5C0E0301146F03C015F3C1
:1047D000166B176B16D013C32BF312C32AF3020EFA
:1047E00003012D6FEA0E2C6F000156DF01520AE122
:1047F000040E036E8A0E0301146F03C015F3166BCB
:10480000176B000114C300F015C301F016C302F0CA
:1048100017C303F03DEF30F0006A016A0301315124
:10482000D89032B100260032013232B30026003275
:10483000013232B500260032013232B70026003292
:10484000013232B900260032013232BB002600327A
:10485000013232BD00260032013232BF0026003262
:1048600001320001A2EF24F003012F6B2D6B0A0E21
:104870002E6F2C6B2A512B1103E1000E016EC3D059
:104880002F512F2B036A2A25E96E2B510320EA6E44
:10489000EFCF30F330512D080DE1010E2D6F2F5168
:1048A0002F2B036A2A25E96E2B510320EA6EEFCFE6
:1048B00030F30DD030512B080AE12F512F2B036A12
:1048C0002A25E96E2B510320EA6EEFCF30F33051E9
:1048D0002F08D8B090D030513908D8A08CD03051A2
:1048E000300821E1036A2F512A25E96E2B5103205C
:1048F000EA6EEF5078080AE0036A2F512A25E96E24
:104900002B510320EA6EEF5058080DE1100E2E6F68
:104910002F2B2F512F2B036A2A25E96E2B510320B1
:10492000EA6EEFCF30F32E510A081DE130512F0807
:1049300019E23051390816E30A0E316F2CC332F3F5
:1049400000016AD7300E0301305D01242C6F2F5116
:104950002F2B036A2A25E96E2B510320EA6EEFCF35
:1049600030F3E4D748D02E51100845E130516008AB
:1049700006E230517A0803E33051DF0B01D03051A9
:10498000306F30512F0803E23051390806E23051C0
:10499000400831E2305146082EE330512F080CE236
:1049A0003051390809E32C39316FF00E3117300ED0
:1049B000305D31252C6F09D02C39316FF00E311755
:1049C000410E305D0A0F31252C6F2F512F2B036ABA
:1049D0002A25E96E2B510320EA6EEFCF30F33051D8
:1049E000600806E230517A0803E33051DF0B01D052
:1049F0003051306FC6D72D2D04D02E510A0801E159
:104A00002C6D2CC301F00001000C26C32BF325C331
:104A10002AF3020E03012D6FF40E2C6F00013CDE11
:104A200001520DE128C32BF327C32AF31DDF01C078
:104A300029F30301295302E18A9A01D08A8A26C305
:104A40002BF325C32AF3020E03012D6FF90E2C6FF1
:104A5000000122DE01520DE128C32BF327C32AF304
:104A600003DF01C029F30301295302E18A9C01D02D
:104A70008A8C26C32BF325C32AF3020E03012D6F64
:104A8000FE0E2C6F000108DE015200E17BEF25F0E5
:104A90001BC31DF31AC31CF303011F6B1E6B1AC348
:104AA000E9FF1BC3EAFFEFCF20F32051260802E005
:104AB00020532EE11AC3E9FF1BC3EAFFEF6A1DC3AF
:104AC00022F31CC321F3000171DD1FC322F31EC3B7
:104AD00021F36CDD19C324F318C323F317C322F3A6
:104AE00016C321F31DC326F31CC325F31FC328F3EC
:104AF0001EC327F38AD7010E03011A251C6F000E6F
:104B00001B211D6F1F6B1E6B205301E113D00ED0B4
:104B100020513D080BE11AC3E9FF1BC3EAFFEF6A0E
:104B2000010E1A251E6F000E1B211F6F1A2BD8B401
:104B30001B2BB5D70001000C0301186B166B0A0E76
:104B4000176F156B146B1251131104E1000E016EF7
:104B5000026EE9D01851182B036A1225E96E135121
:104B60000320EA6EEFCF19F319512D080DE1010E64
:104B7000166F1851182B036A1225E96E1351032082
:104B8000EA6EEFCF19F30DD019512B080AE1185135
:104B9000182B036A1225E96E13510320EA6EEFCF3A
:104BA00019F319512F08D8B0B0D019513908D8A02D
:104BB000ACD01951300821E1036A18511225E96E71
:104BC00013510320EA6EEF5078080AE0036A185187
:104BD0001225E96E13510320EA6EEF5058080DE1DB
:104BE000100E176F182B1851182B036A1225E96E37
:104BF00013510320EA6EEFCF19F317510A0824E18D
:104C000019512F0820E2195139081DE35F6B0A0E74
:104C10005E6F15C361F314C360F300018DEC20F0E7
:104C2000300E0301195D0124146F000E0220156F70
:104C30001851182B036A1225E96E13510320EA6EEE
:104C4000EFCF19F3DDD761D0175110085EE119518C
:104C5000600806E219517A0803E31951DF0B01D00D
:104C60001951196F19512F0803E21951390806E239
:104C7000195140084AE21951460847E319512F08D3
:104C800019E21951390816E314351A6F15351B6FDF
:104C90001A371B371A371B371A371B37F00E1A17FC
:104CA000300E195D1A25016E000E1B2101C014F390
:104CB000156F16D014351A6F15351B6F1A371B3741
:104CC0001A371B371A371B37F00E1A17410E195DAA
:104CD0000A0F1A25016E000E1B2101C014F3156F77
:104CE0001851182B036A1225E96E13510320EA6E3E
:104CF000EF50196F600806E219517A0803E3195161
:104D0000DF0B01D01951196FADD717510A0807E110
:104D1000162D05D0141F151F142BD8B4152B14C332
:104D200001F015C302F00001CBEF30F00301135185
:104D3000240DF350036A5F0F016E000E032201C0C1
:104D400014F303C015F3230E1425E96E000E15218C
:104D5000EA6EEFB603D0000E016E0DD0000161ECDB
:104D600007F0230E03011425E96E000E1521EA6EEB
:104D7000EF96010E016E0001000C03013351240D6A
:104D8000F350356B346F140E3425016E000E35214F
:104D9000036E01505F0FE96E000E0320EA6EECCF48
:104DA00035F3ED52EFCF34F3345305E1355303E1DE
:104DB000000E016E2FD03351240DF350356B346F3C
:104DC0000F0E3425016E000E3521036E01505F0F6A
:104DD000E96E000E0320EA6EEF3C08D0916B0001F3
:104DE000F7EC11F00150030115D014D03351240D0C
:104DF000F350356B346F230E3427000E35235F0ECE
:104E00003425E96E000E3521EA6E000EEFB2010E78
:104E1000016E00D00001000C20C322F1F7EF2BF04F
:104E200003014551240DF350036A5F0F016E000E1C
:104E3000032201C046F303C047F30F0E4625E96E77
:104E4000000E4721EA6EEF3C03D0000E016ECBD07E
:104E5000230E4625E96E000E4721EA6E000EEFB2E2
:104E6000010E010B03E1000E016EBDD0010E4625BF
:104E7000016E000E4721036E01C048F3496F0B0E0F
:104E80004625E96E000E4721EA6EECCF4BF3ED525A
:104E9000EFCF4AF30D0E4625E96E000E4721EA6E6C
:104EA000ECCF4DF3ED52EFCF4CF3160E4625E96EE5
:104EB000000E4721EA6EEFCF4EF3ECCF4FF3ECCF6D
:104EC00050F3ECCF51F31A0E4625E96E000E472140
:104ED000EA6EEFCF52F3ECCF53F3ECCF54F3ECCFB9
:104EE00055F30F0E4625E96E000E4721EA6EEFCF0F
:104EF00056F3100E4625E96E000E4721EA6EECCF00
:104F000058F3ED52EFCF57F303C05AF301C059F3F2
:104F10004BC35CF34AC35BF34DC35EF34CC35DF319
:104F200051C362F350C361F34FC360F34EC35FF3E9
:104F300055C366F354C365F353C364F352C363F3B9
:104F4000180E676F56C368F358C36AF357C369F303
:104F500000019BEC13F0160E03014625016E000EB6
:104F60004721036E01C048F3496FEA6E01C0E9FFB3
:104F7000EFCF4AF3ECCF4BF3ECCF4CF3ECCF4DF348
:104F8000100E4625E96E000E4721EA6EECCF03F0C5
:104F9000ED52EFCF00F003C001F0026A036A4A51FC
:104FA00000264B5101224C5102224D51032249C38C
:104FB000EAFF48C3E9FF00C0EFFF01C0ECFF02C0F9
:104FC000ECFF03C0ECFF230E4625E96E000E4721DF
:104FD000EA6EEF92230E4625E96E000E4721EA6E37
:104FE000EF98010E016E0001000C03013F51240DEA
:104FF000F350036A5F0F016E000E032201C041F3FC
:1050000003C042F3140E4125E96E000E4221EA6E00
:10501000ECCF46F3ED52EFCF45F3455305E1465350
:1050200003E1000E016E83D00F0E4125E96E000EE4
:105030004221EA6EEF3C39D00F0E4125016E000E81
:105040004221036E01C045F3466F916B000148ECAD
:1050500009F046C3EAFF45C3E9FF01C0EFFF0F0EA9
:1050600003014125E96E000E4221EA6EEF3C03D0B8
:10507000000E016E5CD0100E4125E96E000E42213B
:10508000EA6EEC6AED52EF6A0F0E4125E96E000EF2
:105090004221EA6EEFCF45F345C3AAF3AC6B280E6D
:1050A000AB6F00015DEC09F00301230E4125E96EB1
:1050B000000E4221EA6EEF8840C3B4F30001B2EC67
:1050C00009F0140E03014125E96E000E4221EA6E3B
:1050D000FF0EEF2602E2EE52ED06100E4125E96EBC
:1050E000000E4221EA6EECCF03F0ED52EFCF43F316
:1050F00003C044F3432BD8B4442B100E4125E96E72
:10510000000E4221EA6E44C3ECFFED5243C3EFFFB1
:10511000445102080AE2FF0A03E14351C90805E2CB
:105120003FC345F300017CDE0301010E016E000167
:105130009FEF28F022C13FF33EC340F356D7015002
:10514000000CEACF28F3E9CF27F303012139F00956
:10515000236F2327E20F246F320F266F21510F0B8D
:10516000242724272627E90F256F252725272039DF
:105170000F0B2527262725372637261F26372051B0
:105180000F0B26272337070E226F0A0E2507262727
:10519000FDE324072527FDE323072427FDE322075A
:1051A0002327FDE3030EEA6E220EE96E070E271594
:1051B000279DE926260EE95CD8B4278DEF50006EB6
:1051C00008E127BD06D027B915D027B702D0200E99
:1051D00003D027872799300E0026EACF21F3E9CFA5
:1051E00020F300C03EF30001A5DF21C3EAFF20C386
:1051F000E9FF0301EE5027ADDDD700014CEF2CF0A5
:105200002EC333F3BADD015204E1000E016E026ECB
:1052100073D003012E51240DF350346B336F0F0EF6
:105220003325016E000E3421036E01505F0FE96ECD
:10523000000E0320EA6EEF3C03D0306B2F6B18D0CA
:105240002E51240DF350346B336F100E3325016E45
:10525000000E3421036E01505F0FE96E000E032033
:10526000EA6EECCF03F0ED52EFCF2FF303C030F333
:10527000CA0ED8802F55316F030E3055326F2E5124
:10528000240DF350346B336F140E3325016E000E72
:105290003421036E01505F0FE96E000E0320EA6EA9
:1052A000ECCF03F0ED52EFCF01F00350325D1AE383
:1052B00003E13151015C16E22E51240DF350346BA1
:1052C000336F140E3325016E000E3421036E01502E
:1052D0005F0FE96E000E0320EA6EECCF03F0ED5293
:1052E000EF5003D032C303F03151316F03C032F3BA
:1052F00031C301F032C302F00001000C030122C3EC
:10530000E9FF23C3EAFFECCF03F0ED52EFCF28F320
:1053100003C029F329C33FF328C33EF3000154EC33
:1053200022F00301276B01C026F32651271103E168
:10533000000E016E42D022C12EF3000161DF02C0D7
:1053400025F301C024F303012451251103E1010ECB
:10535000016E33D02551275D07E303E12651245D1B
:1053600003E2010E2A6F05D027C325F326C324F3D9
:105370002A6B25C303F02451D8B425072407031052
:1053800011E029C303F02851282BD8B4292BE96E4A
:1053900003C0EAFFEFCF2BF32BC33EF30001CADEBD
:1053A0000301E7D722C3E9FF23C3EAFF29C3ECFFC8
:1053B000ED5228C3EFFF2AC301F00001000C43C3E4
:1053C00001F042C300F00066012A0900F5CFEEFFAC
:1053D000002EFBD7012EF9D7F86A000C0301356BBC
:1053E000366B3D8130C3E9FF31C3EAFFECCF03F0F8
:1053F000ED52EFCF37F303C038F32EC3E9FF2FC3CD
:10540000EAFFEFCF00F0ECCF01F0ECCF02F0ECCFF1
:1054100003F003C03CF302C03BF301C03AF300C009
:1054200039F33CC303F03BC302F03AC301F039C384
:1054300000F0010E3927D8B03A2BD8B43B2BD8B4A2
:105440003C2B03C041F302C040F301C03FF300C056
:105450003EF302C0F8FF01C0F7FF00C0F6FF030EE5
:10546000EA6E330EE96E436B010E426F0001A7DF57
:1054700003013351250841E13CC303F03BC302F073
:105480003AC301F039C300F0010E3927D8B03A2BE6
:10549000D8B43B2BD8B43C2B03C041F302C040F33B
:1054A00001C03FF300C03EF302C0F8FF01C0F7FFA8
:1054B00000C0F6FF030EEA6E340EE96E436B010E78
:1054C000426F00017CDF03013451250814E136519D
:1054D000385D0FE303E13751355D0BE2325305E0F0
:1054E000250E3E6F000126DE0301352BD8B4362B86
:1054F00001D01CD001D01AD018D0335314E036514B
:10550000385D0FE303E13751355D0BE2325305E0BF
:1055100033C33EF300010EDE0301352BD8B4362B26
:1055200001D004D002D03D9101D07BD73DA108D05D
:10553000FF0E3927D8A03A27D8A03B27D8A03C2770
:1055400030C3E9FF31C3EAFF36C3ECFFED5235C388
:10555000EFFF2EC3E9FF2FC3EAFF39C3EFFF3AC3C2
:10556000ECFF3BC3ECFF3CC3ECFF33C301F0000195
:10557000000C0301296B2A6B22C12EF3000140DECF
:1055800002C02CF301C02BF303012B512C1103E1BA
:10559000010E016E57D022C3E9FF23C3EAFFEFCF0C
:1055A00000F0ECCF01F0ECCF02F0ECCF03F003C041
:1055B00028F302C027F301C026F300C025F3FF0E35
:1055C0002A6F296F030E2F6F250E2E6F030E316F7A
:1055D000290E306F326B000101DF01C024F303019B
:1055E00029512A1106E12451250803E0000E016E1D
:1055F00029D02C512A5D0BE303E129512B5D07E2F1
:105600002CC32AF32BC329F3010E2D6F0CD0245188
:10561000250803E1020E2D6F06D0245303E0010E8E
:105620002D6F01D02D6B23C32FF322C32EF3030E56
:10563000316F290E306F010E326F0001CFDE030192
:105640002DC301F0000125EF2DF026C3F8FF25C37F
:10565000F7FF24C3F6FF030EEA6E280EE96E03017E
:10566000436B010E426F0001AADE030128C301F063
:10567000000147EF2DF0020E03013E5F0CE3030E25
:10568000EA6E3E0EE96EEF5006E003D000D000D087
:105690000000EF2EFBD700019CEF2BF0F3C2EAFFD6
:1056A000F2C2E9FF030140C3EFFFE92AD8B4EA2AB6
:1056B000EF6A0201F22BD8B4F32B0001000C0301B6
:1056C0003FBF11D00F0E006E3E3900160A0E005C6F
:1056D00003E2300E002602D03F51002600C040F306
:1056E0000001DCDF03010F0E3E170A0E3E5D02E2F1
:1056F000300E02D03F9F3F513E273EC340F3000192
:10570000CDDFBDEF2BF003013C6B25C3E9FF26C3C2
:10571000EAFFEF6A2451300A000103E0010A38E091
:105720003BD0000E016EC250C30B0110C26E640E5E
:1057300003013E6F00019FD7C282C2B2FED7C4CF21
:105740003DF30301030E0201F36F280EF26F030114
:105750003E6B3E510001C1EC00F003013E2B006E98
:10576000406F00019BDF0F0E03013E5DF2E13DC380
:105770003EF3370E3F6F0001A2D7030E03013F6FC8
:10578000280E3E6F000154EC22F001C03CF304D01F
:1057900003013C6B000100D003013C5314E03C5179
:1057A000275D02E227C33CF326C3EAFF25C3E9FFD6
:1057B000030EE26E280EE16E3C51016E04E0E6CF6E
:1057C000EEFF012EFCD73CC301F000017AEF2DF073
:1057D000036A030114511F0FE96E010E0320EA6EE4
:1057E000EFCF1DF31DC320F300010CEF27F00301E1
:1057F0001451040DF350036A230FE96E010E0320C8
:10580000EA6EEFCF20F3ECCF21F3ECCF22F3ECCF15
:1058100023F32053D8A4E0D02153D8A4DDD02253C1
:10582000D8A4DAD02353D8A4D7D0D8901435036A9B
:10583000270FE96E010E0320EA6EEC6AED52EF6A63
:105840001451040DF350036A230FE96E010E032077
:10585000EA6E17C3EFFF18C3ECFF19C3ECFF1AC3BE
:10586000ECFF010E0101516F0301206B205100017B
:105870004FEC00F00301202B006E3E6F00015ADC5C
:10588000090E0301205DF2E1100EE96E16C321F34B
:1058900015C320F3000155D4200E03013E6F000113
:1058A00049DC030115C300F01651036E05E1C80E73
:1058B000005C000112E00301010E035C05E1940E9F
:1058C000005C000115E00301010E035C05E1F40E2C
:1058D000005C00011FE003012FD04F0E03013E6F5B
:1058E000000128DC4B0E03013E6F000123DC26D0B3
:1058F0000301206B2051000163EC00F00301202B19
:10590000006E3E6F000116DC090E0301205DF2E11E
:10591000000114D00301206B2051000175EC00F050
:105920000301202B006E3E6F000104DC0C0E03010E
:10593000205DF2E1000102D0000100D00301206BE4
:105940002051000189EC00F00301202B006E3E6F16
:1059500000019AEC28F0100E0301205DF1E11B51CB
:105960001C111AE01CC3EAFF1BC3E9FF000EEF1075
:1059700012E0EACF21F3E9CF20F3EFCF3EF30001AD
:105980009AEC28F021C3EAFF20C3E9FFE92AD8B442
:10599000EA2A0301EBD710D0206B205100019FECC5
:1059A00000F00301202B006E3E6F00019AEC28F0FE
:1059B000090E0301205DF1E1206B20510001B1ECE3
:1059C00000F00301202B006E3E6F00019AEC28F0DE
:1059D000040E0301205DF1E1D8901435036A270F0E
:1059E000E96E010E0320EA6EEF5219E0D8901435EB
:1059F000036A270F206F010E0320216F236F20C33E
:105A000022F300017BDCD89003011435036A270FD1
:105A1000E96E010E0320EA6EEC6AED52EF6A0101B5
:105A2000512DA0D003011451040DF350036A230F2C
:105A3000016E010E032201C020F303C021F303C055
:105A400023F301C022F3000194D501C01EF303012A
:105A50001E510208D8A47DD01451040DF350036ADE
:105A6000230FE96E010E0320EA6EEFCF20F3ECCF97
:105A700021F3ECCF22F3ECCF23F323C327F322C38C
:105A800026F321C325F320C324F30001DED501C092
:105A90001FF303011451040DF350036A230FE96E41
:105AA000010E0320EA6E010EEF24006E000EEC20C2
:105AB000016E000EEC20026E000EEC20ED52ED5255
:105AC000ED5200C0EFFF01C0ECFF02C0ECFFEC6E36
:105AD0001AC323F319C322F318C321F317C320F306
