:0420000041EF1AF0A2
:08200800046ED8CF05F0E0CF13
:1020100006F00001E9CF0CF0EACF07F0E1CF08F0BD
:10202000E2CF09F0D9CF0AF0DACF0BF0F3CF12F0FC
:10203000F4CF13F0FACF14F0F5CF15F0F6CF16F079
:10204000F7CF17F000C00EF001C00FF002C010F083
:1020500003C011F0A0AA30EF10F0A1BAC1EF17F041
:102060000EC000F00FC001F010C002F011C003F06C
:102070000CC0E9FF07C0EAFF078E08C0E1FF09C0F6
:10208000E2FF0AC0D9FF0BC0DAFF12C0F3FF13C092
:10209000F4FF14C0FAFF15C0F5FF16C0F6FF17C015
:1020A000F7FF045006C0E0FF05C0D8FF1000F76A34
:1020B000BE0FF66E200EF7220900F5501200280C14
:1020C0000106F76AD20FF66E200EF7220900F550CE
:1020D0001200000302FFFFFFFFFFFFFFFFFFFFFFF4
:1020E000FFFFF76AF20FF66E200EF7220900F55097
:1020F000120000FF02FFFFFFFFFFFFFFFFFFFFFFD8
:10210000FFFFF76A120FF66E210EF7220900F55055
:10211000120008000800400000000000000000005D
:1021200000000000000000000000000000000000AF
:102130000000F76A420FF66E210EF7220900F550F3
:102140001200080000004000000000000000000035
:10215000000000000000000000000000000000007F
:102160000000F76A720FF66E210EF7220900F55093
:10217000120009024300020100803209040000013C
:1021800002020100052400100104240202052406B5
:1021900000010524010001070581030800FA090474
:1021A0000100020A000000070502024000010705C5
:1021B000820240000100F76AC60FF66E210EF72278
:1021C0000900F55012000200F76AD80FF66E210ED2
:1021D000F7220900F550120012171B20FFFFFFFF26
:1021E000F76AF00FF66E210EF7220900F550120083
:1021F0001201100102000008610433000001010215
:102200000001F76A120FF66E220EF7220900F55050
:102210001200040309040803430043005300180399
:10222000530045005200490041004C00200044008A
:1022300045004D004F006D92699468A402D06894E7
:10224000FCD7CDEF17F0080E0401016F040E036FE9
:10225000180E026F880E006F046B040E076F200EBD
:10226000066F0001000C70A002D0EDDF7090689A3C
:10227000D6EF17F06A6A6892DCEF17F00201D99185
:10228000D8BFD981D89FD851100803E2000E016E43
:102290001BD0D9A10DD0036AD851000112DFFF086D
:1022A00002E1000E01D0010E016E02010DD00CD032
:1022B000036AD851000115DFFF0802E1000E01D0CA
:1022C000010E016E020100D00001000C036A020140
:1022D000D751700FE96E0F0E0320EA6EEF6AD7C276
:1022E000D8F20001CBDF015219E00201D751080DED
:1022F000F350D96BE96E040ED925EA6EEF6AD75117
:10230000080DF350D96BD86F040ED827000ED923CF
:10231000D8C2E9FF040ED925EA6EEF6A0001000C6D
:10232000010E0201D66FD6510F0807E3D6C2D7F2CD
:102330000001CCDF0201D62BF6D70001000C366A73
:10234000356A250E346E800E336E376A386A080E91
:10235000396E886B87913B6A3A6A836B8491C2EFCE
:1023600011F00201CC6BCC5101080AE3036ACC5195
:10237000310FE96E000E0320EA6EEF6ACC2BF3D723
:102380000001DDD7276A010E286E266AD3EF11F00F
:102390006896000C6A6A686A9F0E6B6E3D0E696EE5
:1023A0006E6ABEDFDED7160E706E68A602D0F0DF52
:1023B000FCD76D9848DF030E246EE2EF17F06984B6
:1023C00068986D82E8EF17F0689CEEEF17F0D1C2C5
:1023D0002DF0000CFF0E2D6E000C0201CF6B305261
:1023E0002CE0CF51070829E32950000A000105E03D
:1023F000020A09E0010A0DE012D0036A2F50B1DE93
:10240000E8CFD0F20CD0036A2F50FBDEE8CFD0F239
:1024100006D0036A2F50E4DEE8CFD0F200D02F2A96
:1024200030060201CF51CF2B036A200FE96E040E54
:102430000320EA6ED0C2EFFFD2D7305204E1CF5171
:10244000080801E0266ACFC2D1F20001C0DF000C0B
:102450002F6A296A04011B51010A000107E0030ADF
:102460000AE0010A0BE0220A1BE02BD0120E306EAC
:10247000030E296E28D0430E306E25D0020E296E31
:10248000036A04011A512A0FE96E000E0320EA6E56
:10249000EFCF2FF0036A2F500001B3DE306E13D060
:1024A000036A04011A5100018FDE2F6E2F3C01D008
:1024B00006D0036A2F5055DE306E05D002D08ADF79
:1024C0000ED088DF0CD004011F5305E130501E5D93
:1024D00002E21EC430F0010E266E00017EDF9BEF8B
:1024E00013F00201CE5306E1040E246E000118DF42
:1024F000C5D00201050E246E040ED16F280ED06FD8
:10250000010ECF6FCF510F08D8A0B8D0CFC2D7F2ED
:102510000001DCDE0201D26B036ACF510001E1DD74
:10252000FF0853E0040E0201D26FD890CF35036A42
:102530000001FFDD0900F5CF03F00201D36F03C0F6
:10254000D4F2CF51080DF350D76BD66F010ED625BC
:10255000016E000ED721036E01C0E9FF040E0324B3
:10256000EA6ED3C2EFFFCF51080DF350D76BD66F91
:10257000020ED625016E000ED721036E01C0E9FFC1
:10258000040E0324EA6ED1C2ECFFED52D0C2EFFF7D
:10259000D890CF35036A0001CCDD0900F5CF03F0F8
:1025A0000201D0270350D123880ED56FD4B1D58135
:1025B000D4B3D583CF51080DF350D76BE96E040E19
:1025C000D725EA6ED5C2EFFF0001036A0201CF51A1
:1025D000000177DDFF0837E00201D283CF51080DFB
:1025E000F350D76BD66F040ED627000ED723020EFA
:1025F000D625016E000ED721036E01C0E9FF040E3F
:102600000324EA6ED1C2ECFFED52D0C2EFFFD890A6
:10261000CF35036A000175DD0900F5CF03F0020133
:10262000D0270350D123CF51080DF350D76BD66F6D
:10263000040ED627000ED723D6C2E9FF040ED725F5
:10264000EA6E400EEF6E0201D251060802E10E0E54
:10265000D26F036ACF51000134DD010803E00201AB
:10266000D2890001036A0201CF51700FE96E0F0E8B
:102670000320EA6ED2C2EFFFCF2B44D7000193EFC5
:1026800013F004011951000A00010DE0010A15E0E0
:10269000020A20E0060A2AE0030A31E00E0A31E0CD
:1026A000010A37E046D028C020F40401216B020E55
:1026B0000201D16F00018BDE3ED004011A2D07D03C
:1026C000010E28160201D16B000181DE02D000014B
:1026D00081DE31D004011A2D06D028820201D16B8F
:1026E000000175DE02D0000175DE25D0020E266ED7
:1026F0001AC42EF00201D16B000169DE1CD0A8D6ED
:102700001AD027C020F4010E0201D16F00015FDE54
:1027100012D004011A5101080AE31AC427F01AC49E
:10272000CEF20001DED60201D16B000150DE0001C5
:1027300002D050DE00D00AEF15F027C0CEF204011F
:102740001951000A000105E00A0A0CE0010A2BE019
:102750003FD00401206B216B020E0201D16F0001FA
:1027600036DE38D00201CE531BE0010ECE5D036A87
:10277000000121DD016E04011C5DD8A002D0020120
:102780000FD0036A1C51310FE96E000E0320EA6E70
:10279000EFCF20F4010E0201D16F000118DE02D04C
:1027A000000118DE17D00201CE530FE0036A0401C6
:1027B0001C51310FE96E000E0320EA6E1AC4EFFFC0
:1027C0000201D16B000103DE02D0000103DE02D062
:1027D00001DE00D00AEF15F00201CF91CEBFCF810C
:1027E000CE9FCFA111D0CE51080DF350D16BD06F39
:1027F000040ED027000ED123D0C2E9FF040ED1254C
:10280000EA6E880EEF6E09D0CE51080DF350D16BF1
:10281000E96E040ED125EA6EEF6A000174EF14F040
:102820000201CF91CEBFCF81CE9FCFA111D0CE518B
:10283000080DF350D16BD06F040ED027000ED123BA
:10284000D0C2E9FF040ED125EA6E840EEF6E0AD0E5
:10285000CE51080DF350D16BE96E040ED125EA6E0E
:10286000840EEF6E00017CEF14F00201CF91CEBF19
:10287000CF81CE9FCFA111D0CE51080DF350D26B96
:10288000D16F040ED127000ED223D1C2E9FF040E6E
:10289000D225EA6EEFCFD0F20AD0CE51080DF35018
:1028A000D26BE96E040ED225EA6EEFCFD0F2D0AF34
:1028B00002D0D0B502D0000E01D0010E016E000191
:1028C00088EF14F01CC4D8F2D9DC01522EE00401C8
:1028D0001951010A000105E0020A0BE0030A11E0A8
:1028E00022D01CC4CEF278D70201D16B00016FDD7B
:1028F0001CD01CC4CEF294D70201D16B000167DD5D
:1029000014D00401206B216B1CC4CEF20001ADD7A2
:10291000015203E0010E0401206F020E0201D16F8B
:10292000000155DD02D056DD00D00AEF15F0FE0E95
:102930002D6E000C04011C2D01D002D01C534FE160
:102940001951000A00010BE0010A0DE0210A1CE008
:10295000010A1FE0030A30E0010A35E03DD0010E14
:102960008A6FE5DF3BD0040EEA6E200EE96EE26A64
:102970003C0EE16E080E016EE6CFEEFF012EFCD795
:102980001EC4D1F224DD2AD0020E8A6F8781CFDFE8
:1029900025D0040EEA6E200EE96EE26A330EE16E77
:1029A000070E016EE6CFEEFF012EFCD7070E0201E7
:1029B000D16F00010CDD12D01AC488F00201D16B76
:1029C000000105DD0BD01AC43BF01BC43AF0020134
:1029D000D16B0001FCDC02D0FDDC00D00401000161
:1029E0000AEF15F0266A040118517F0B000A000156
:1029F00007E0010A07E0030A07E0230A07E008D01E
:102A000040D608D09AD606D05DD704D093D702D04E
:102A1000E1DC00D020EF17F00201CF51080DF35098
:102A2000D56BE96E040ED525EA6EEFCFD1F2D05109
:102A3000020806E1D1AD02D0D06B02D0010ED06FFA
:102A4000D051030813E1840ED16FCF51080DF3501C
:102A5000D56BD46F040ED427000ED523D4C2E9FF62
:102A6000040ED525EA6E840EEF6E07D0D02D03D06C
:102A7000C80ED16F02D0880ED16FD890CF35036ABF
:102A8000000199EC10F00900F5CF03F00201D26FBC
:102A900003C0D3F2CF51080DF350D56BD46F010EA4
:102AA000D425016E000ED521036E01C0E9FF040E8E
:102AB0000324EA6ED2C2EFFFD3B1D181D3B3D18365
:102AC000CF51080DF350D56BE96E040ED525EA6E93
:102AD000D1C2EFFF0001000C036A0201DE51700F4A
:102AE000E96E0F0E0320EA6EEF5212E0DE51080D80
:102AF000F350E06BDF6F040EDF27000EE023DFC230
:102B0000E9FF040EE025EA6EEFCFDFF2DFAF02D07F
:102B1000000E01D0010E016E0001000CD9C2DEF2E0
:102B2000DBDF015264E00201D951080DF350DF6B85
:102B3000DE6F040EDE27000EDF23010EDE25016EA0
:102B4000000EDF21036E01C0E9FF040E0324EA6ECC
:102B5000DAC2EFFFDC51020817E1D951080DF3503A
:102B6000DF6BDE6F040EDE27000EDF23DEC2E9FF1F
:102B7000040EDF25EA6EEFCFDDF2DDAD02D0DC6BB7
:102B800002D0010EDC6F13D0DC51040810E1D951E2
:102B9000080DF350DF6BE96E040EDF25EA6EEFCF10
:102BA000DDF2DDAD03D0010EDC6F01D0DC6BDC2D7E
:102BB00003D0C80EDD6F02D0880EDD6FDBB1DD8182
:102BC000DBB3DD83D951080DF350DF6BDE6F040EEC
:102BD000DE27000EDF23DEC2E9FF040EDF25EA6EEA
:102BE000DDC2EFFF010E016E05D000D00001000E26
:102BF000016E02010001000C8A51010A05E0020A7F
:102C000014E0010A19E02CD0EA6A3C0EE96E040EC9
:102C1000E26E180EE16E080E016EE6CFEEFF012E99
:102C2000FCD7030E8A6F83DE1DD00201D16B000139
:102C3000E7EC11F08A6B16D0EA6A330EE96E040EE7
:102C4000E26E180EE16E070E016EE6CFEEFF012E6A
:102C5000FCD78A6B0201D16B0001E7EC11F002D0C6
:102C60008A6B00D069EF16F00201CF51080DF350C6
:102C7000D16BD06F010ED025016E000ED121036EF5
:102C800001C0E9FF040E0324EA6E036AEFCF01F0EE
:102C900003C002F000015DEF16F08491020E020104
:102CA000CF6FD06F0001B8DE62EF16F08481866BC3
:102CB000020E0201CF6F0001D7D701C085F0855306
:102CC00001E1EBD770EF16F00201CE5304E10001F1
:102CD00093D706D00201CE51020803E10001E6D7E6
:102CE00002010001000CCFC26EFF0201CF5303E0CE
:102CF000040E246E02D0020E246E000185EF16F041
:102D0000276A266A2EC0CFF2EED7FAEF16F0D1C2AC
:102D1000DEF2E2DE015241E00201D151080DF35032
:102D2000DA6BD96F040ED927000EDA23020ED925EB
:102D3000016E000EDA21036E01C0E9FF040E0324C8
:102D4000EA6EECCF03F0ED52EFCFD7F203C0D8F22A
:102D5000D8C2EAFFD7C2E9FFD3C2E2FFD2C2E1FF85
:102D6000D5C202F0D4C201F0015202E0022A02D020
:102D7000025206E0E6CFEEFF012EFCD7022EFAD774
:102D8000D1C2D9F2D5C2DBF2D4C2DAF2D6C2DCF2B9
:102D90000001C4DE015003D000D0000E016EE1EF4F
:102DA00016F00201D06B440ECF6F020ED16FD0C26D
:102DB000D3F2CFC2D2F2D56B83C0D4F2D66F00016A
:102DC000A6D783C089F0836BE9EF16F0835301E047
:102DD000E8D701EF17F00201CE530EE1262C05D003
:102DE0000001EDEC11F006D002012650020803E1CB
:102DF000000186D7020106D0CE51020803E100018E
:102E0000E5D702010001000C23300201CC6FCC3366
:102E1000CC331F0ECC1723524FE1040100513C0B61
:102E20000201CD6F430E040100170201CD51340899
:102E300025E104010451800B01E0046B0001D2D5AF
:102E40006D982D3C07D00201CF6B030ED06F0001AF
:102E5000E3DD12D00201CF6B020ED06F0001DCDD8A
:102E60002D50FE0809E00201D96BDB6B2DC0DAF2B0
:102E7000040EDC6F000152DE1DD00201CD510408AA
:102E80001AE1CE6B000120DF0201CF6B020ED06F82
:102E90000001C2DD2D50FE080CE02D3C01D009D010
:102EA0000201D96BDB6B2DC0DAF2010EDC6F000181
:102EB00035DE00D0020162D02350040818E1430E31
:102EC00004010417FF0E2D6E0201CE6B000183DF9B
:102ED0002D3C01D00AD00201D96BDB6B2DC0DAF298
:102EE000020EDC6F00011ADE00D047D0020123B4CD
:102EF0001DD0CC51080DF350CF6B016E040ECF25C1
:102F0000036ECC51080DF350D16BE96E040ED12540
:102F1000EA6EEF50430B03C0EAFF01C0E9FFEF6E1A
:102F2000CCC2CEF20001D0DE28D00201CC51080D77
:102F3000F350CF6BCE6F040ECE27000ECF23CEC240
:102F400001F0040ECF25036ECC51080DF350D16B68
:102F5000D06F040ED027000ED123D0C2E9FF040E9B
:102F6000D125EA6EEF50430B03C0EAFFCEC2E9FF62
:102F7000EF6ECCC2CEF200012EDF02010001FAEFAB
:102F800017F0A19A245201E13ED068523CE068A4B7
:102F900004D069A402D01BEF11F06DA201D033D090
:102FA00068AA04D069AA02D033EF11F068A204D055
:102FB00069A202D03AEF11F068A004D069A002D053
:102FC000CAEF11F068A804D069A802D0DFEF11F0B1
:102FD00068AC04D069AC02D0E4EF11F00201CB6B15
:102FE00068A60AD069A608D06CCF23F00001C8EC0F
:102FF00011F00AD702D0020105D00201CB51CB2B30
:103000000308EEE2000130EF10F0434C4620257338
:103010000D000C6D656E7520646520636F6E6669CA
:1030200067000A413320616C7578202041312050BF
:1030300043000A202020202025730000484F4C41E7
:10304000322E545854000A202020202020202020F6
:1030500020202020202020000D0A00000A2020200F
:1030600020202020202020202020202020000C4371
:10307000524541204152434849564F20484F4C4108
:10308000532E54585400020EEA6EC20EE96EEF50F1
:103090000EE00F0E016E006A002EFED7012EFBD748
:1030A0008F0E006E002EFED70000EF2EF2D7000C20
:1030B0000201C939F00B006E0F0E8A1400108A6EDF
:1030C00000008A80070E006E002EFED700D08A9086
:1030D0000001000C8150006E00380F0B016E000CD7
:1030E0000F0E9314F009936E8A8400008A8000000A
:1030F000F1DF01C0C9F28A9000008A80030E006EE1
:10310000002EFED700D0E6DF01C0C8F28A900F0E75
:103110009314936E0201C939006EF00E0016005030
:10312000C811016E00019AEF18F093909392939456
:103130008A92D6D701C0C8F2020101AE02D00001C6
:10314000F8D78A92C6B18A8200008A9400008A90D9
:10315000C739C86F0F0EC817C8C2C9F20001A8DF6F
:103160000201C7510F0BC86FC96F0001A1DF000C2E
:103170000F0E9314936E9390939293948A928A94E1
:103180008A900F0E0201C26F00017DDF010E020165
:10319000B26FB25103080CE3030EC96F000188DF60
:1031A000050E0201C26F00016EDF0201B22BF1D7E2
:1031B000020EC96F00017CDF0201B26BB25103083D
:1031C0000EE3036AB251000157EC10F00201B36F35
:1031D000C66BC76F0001A9DF0201B22BEFD7000158
:1031E000BDEF1BF00201C32D01D003D0400EC46F10
:1031F00001D0C46B010EC25DC427C4518009C56FE4
:10320000C66BC76F000191DF000C0201C151070AB4
:10321000000107E00B0A0CE0060A16E0020A1CE0B7
:1032200022D0010E0201C26FC36F0001DBDF23D089
:103230000201C66B010EC76F000177DF020E0201AB
:10324000C26F000120DF17D0010E0201C26F020E13
:10325000C36F0001C7DF0FD00201C66B100EC76F2E
:10326000000163DF08D0010E0201C66FC1C2C7F2C0
:1032700000015BDF00D0000C0900F5520CE0F6CF36
:10328000B2F2F7CFB3F2F5CFC1F2BFDFB2C2F6FFB1
:10329000B3C2F7FFF1D7C2EF1BF09EA8FED7020121
:1032A000B2C2ADFF0001000C9EAAFED7ABCF8BF0DF
:1032B000AECF01F08BA302D0AB98AB8888EF19F0AA
:1032C00001018F6B010E8E6F8D6B8C6B8B6B8A6B1C
:1032D0008E5302E18F5340E09EBA14D08E2BD8B4A7
:1032E0008F2B9F0E006E002EFED700D08F51C2088C
:1032F00008E2FF0A03E18E514F0803E28F6B8E6BE9
:1033000001D0EAD78E5302E18F5325E00001CCD7DC
:1033100001C086F1010186510D081DE08C0E8A2541
:10332000E96E000E8B21EA6E86C1EFFF010E8A273F
:10333000D8B08B2BD8B48C2BD8B48D2B8C0E8A257F
:10334000E96E000E8B21EA6EEF6A000187830101AE
:103350008F6B010E8E6FBCD70001000CC0C2C2F291
:10336000BFC2C1F2C2C203F00201C1C2E9FFC2C2C0
:10337000EAFFEF5206E0C12BD8B4C22B0001F2D70E
:103380000201BF51C15D006EC051C259036E00C041
:1033900001F00001E8EF19F0EF520FE0EACFC0F2C0
:1033A000E9CFBFF2EFCFC1F230DFC0C2EAFFBFC248
:1033B000E9FFE92AD8B4EA2AEFD718EF1AF00C0E81
:1033C0000201BC6FB5C2C0F2B4C2BFF20001C6D7E1
:1033D00001C0BEF2036A0201BE51B425016EB551AF
:1033E000032201C0BAF203C0BBF2B5C2B9F2B4C243
:1033F000B8F2B951BB5D43E303E1B851BA5D3FE3B5
:10340000100EB825E96E000EB921EA6EEFCFBDF2BD
:10341000100EB825E96E000EB921EA6EEF6ABCC243
:10342000C1F20001F2DEB9C2EAFFB8C2E9FFB4D7C7
:10343000100E0201B825E96E000EB921EA6EBDC278
:10344000EFFFBC510A0803E10C0EBC6F02D00A0E5C
:10345000BC6FB7C2BFF2BF2BBF07D8B406D0FF0EF8
:10346000C26F000110DE0201F7D7B6C2C2F200013E
:103470000ADE100E0201B827000EB923BAD70001E8
:10348000000CF86AD09E078EEA6AE96A246A306AFC
:10349000836B8A6B8B6BB886E10EAF6E040EB06ED9
:1034A000A60EAC6E900EAB6E879301018F6B010E72
:1034B0008E6FC150C00B0F09C16E070EB46E196A32
:1034C0001A6A1B6A100E1C6E080E1D6E040E1E6E0C
:1034D000020E1F6E010E206E216A226A2A6A040EF5
:1034E0002B6E0C0E2C6E530E926F430E936F530E79
:1034F000946F956B966B976B986B996B9A6B9B6BB4
:103500009C6B9D6B9E6B9F6BA06BA16BA26BA36B67
:10351000A46BA56BA66BA76BA86BA96B450EAA6FD6
:10352000430EAB6F530EAC6FAD6BAE6BAF6BB06B4E
:10353000B16BB26BB36BB46BB56BB66BB76BB86B8F
:10354000B96BBA6BBB6BBC6BBD6BBE6BBF6BC06B3F
:10355000C16B490EC26F500EC36F410EC46FC56B75
:10356000C66BC76BC86BC96BCA6BCB6BCC6BCD6BB7
:10357000CE6BCF6BD06BD16BD26BD36BD46BD56B67
:10358000D66BD76BD86BD96B490EDA6F500EDB6FE9
:10359000480EDC6FDD6BDE6BDF6BE06BE16BE26BCB
:1035A000E36BE46BE56BE66BE76BE86BE96BEA6B8F
:1035B000EB6BEC6BED6BEE6BEF6BF06BF16B530E3B
:1035C000F26F420EF36F440EF46F2D0EF56F440E42
:1035D000F66F490EF76F560EF86F490EF96F530EDE
:1035E000FA6F4F0EFB6F520EFC6FFD6BFE6BFF6BA5
:1035F0000201006B016B026B036B046B056B066BC6
:10360000076B086B096B460E0A6F570E0B6F560E51
:103610000C6F0D6B0E6B0F6B106B116B126B136BD2
:10362000146B156B166B176B186B196B1A6B1B6B86
:103630001C6B1D6B1E6B1F6B206B216B450E226F6D
:10364000236B246B256B266B276B286B296B2A6BEE
:103650002B6B2C6B2D6B2E6B2F6B306B316B326B9E
:10366000336B346B356B366B376B386B396B650E80
:103670003A6F3B6B3C6B3D6B3E6B3F6B406B416B02
:10368000426B436B446B456B466B476B486B496BB6
:103690004A6B4B6B4C6B4D6B4E6B4F6B506B516B66
:1036A000440E526F490E536F520E546F556B566B4A
:1036B000576B586B596B5A6B5B6B5C6B5D6B5E6BDE
:1036C0005F6B606B616B626B636B646B656B666B8E
:1036D000676B686B696B430E6A6F4C0E6B6F460EBF
:1036E0006C6F6D6B6E6B6F6B706B716B726B736B02
:1036F000746B756B766B776B786B796B7A6B7B6BB6
:103700007C6B7D6B7E6B7F6B806B816B730E826FCE
:10371000610E836F6C0E846F690E856F720E866FFB
:10372000876B886B896B8A6B8B6B8C6B8D6B8E6BED
:103730008F6B906B916B926B936B946B956B966B9D
:10374000976B986B996B9A6B9B6B9C6B9D6B9E6B4D
:103750009F6BA06BA16BA26BA36BA46BA56BA66BFD
:10376000A76BA86BA96BAA6BAB6BAC6BAD6BAE6BAD
:10377000AF6BB06BB16B0001FBD46E0EF66E300E0A
:10378000F76E7AD5100E0201B26F000186DD0D0EC4
:103790000201B26F000181DD93DD0201B36B8C0E7B
:1037A000B3C2B5F2B46F010EB76FF40EB66F00017D
:1037B00006DE910E0201B26F00016FDD0D0E0201F7
:1037C000B26F00016ADD7CDD0201B36B8C0EB3C207
:1037D000B5F2B46F010EB76FF40EB66F0001EFDDF6
:1037E000120E0201B26F000158DD0D0E0201B26F20
:1037F000000153DD65DD0201B36B8C0EB3C2B5F27F
:10380000B46F010EB76FF40EB66F0001D8DD090E6C
:103810000201B26F000141DD200E0201B26F000112
:103820003CDD010E0201C26F00012DDC480E0201D9
:10383000B26F000132DD4F0E0201B26F00012DDDCB
:103840004C0E0201B26F000128DD410E0201B26F81
:10385000000123DD2E0E0201B26F00011EDD540EA9
:103860000201B26F000119DD580E0201B26F0001B2
:1038700014DD540E0201B26F00010FDD0D0E0201C6
:10388000B26F00010ADD1CDD0201B36B8C0EB3C206
:10389000B5F2B46F010EB76FF40EB66F00018FDD95
:1038A0000A0E0201B26F0001F8DC200E0201B26FB5
:1038B0000001F3DC010E0201C26F000143EC18F0BD
:1038C000480E0201B26F0001E8DC4F0E0201B26F38
:1038D0000001E3DC4C0E0201B26F0001DEDC410EA0
:1038E0000201B26F0001D9DC2E0E0201B26F00019D
:1038F000D4DC540E0201B26F0001CFDC580E02017D
:10390000B26F0001CADC540E0201B26F0001C5DCC7
:103910000D0E0201B26F0001C0DCD2DC0201B36BFC
:103920008C0EB3C2B5F2B46F010EB76FF40EB66F62
:06393000000145DD03006B
:020000040030CA
:0E00000021CE3E1E0085810007C007E00740AC
:00000001FF
;PIC18F2455
;CRC=B6AC  CREATED="11-feb-11 12:50"
