:0400000047EF0CF0CA
:0800080025A003D014EF00F065
:1000100002D004EF10F0000C25A003D01CEF00F07C
:1000200002D00CEF10F0000C056ED8CF06F0E0CF38
:1000300007F00001E9CF0DF0EACF08F0E1CF09F0B9
:10004000E2CF0AF0D9CF0BF0DACF0CF0F3CF14F0F7
:10005000F4CF15F0FACF16F000C00FF001C010F089
:1000600002C011F003C012F004C013F0A0AA3CEFCC
:1000700000F0A1BAE9EF08F00FC000F010C001F0E5
:1000800011C002F012C003F013C004F00DC0E9FF6C
:1000900008C0EAFF088E09C0E1FF0AC0E2FF0BC0FA
:1000A000D9FF0CC0DAFF14C0F3FF15C0F4FF16C06F
:1000B000FAFF055007C0E0FF06C0D8FF1000F76A3E
:1000C000CE0FF66E000EF7220900F5501200040361
:1000D000090408034300430053001E034300440087
:1000E0004300200042006F006F0074006C006F003E
:1000F0006100640065007200F76A080FF66E010E79
:10010000F7220900F5501200000302FFFFFFFFFF76
:10011000FFFFFFFFFFFFFFFFF76A280FF66E010EDC
:10012000F7220900F550120000FF02FFFFFFFFFF5A
:10013000FFFFFFFFFFFFFFFFF76A480FF66E010E9C
:10014000F7220900F55012004000080040000000AE
:10015000000000000000000000000000000000009F
:10016000000000000000000008AE03D0F2CF0EF047
:10017000F29EF76A8A0FF66E010EF7220900F5501B
:1001800008AE02D00EBEF28E120040000000400009
:10019000000000000000000000000000000000005F
:1001A00000000000000000000000F76ABA0FF66EC1
:1001B000010EF7220900F550120009024300020166
:1001C0000080320904000001020201000524001031
:1001D0000104240202052406000105240100010790
:1001E0000581030800FA09040100020A0000000763
:1001F0000502024000010705820240000100F76A83
:100200000E0FF66E020EF7220900F55012000200E2
:10021000F76A200FF66E020EF7220900F550120061
:1002200012171B20FFFFFFFFF76A380FF66E020E52
:10023000F7220900F55012001201100102000040DF
:10024000610400600001010200016D92699468A4DC
:1002500002D06894FCD7F5EF08F0400E0401016F5E
:10026000040E036F180E026F880E006F046B040EED
:10027000076F580E066F0001000C70A002D0EDDF72
:100280007090689AFEEF08F06A6A689204EF09F0CD
:1002900001015E516003F3CF01F0F4CF00F0610380
:1002A000F35000265F516003F3500020026E0001FE
:1002B000000C036A01015851700FE96E0F0E032004
:1002C000EA6EEF6A5F6B58C15EF1616B080E606F9A
:1002D0000001DEDF010101C0E9FF040E0224EA6E25
:1002E000EF6A5F6B58C15EF1616B080E606F0001D1
:1002F000CFDF02C05AF101C059F1040E01015927A4
:10030000000E5A2359C1E9FF040E5A25EA6EEF6A1E
:100310000001000C010E0101576F57510F0807E350
:1003200057C158F10001C5DF0101572BF6D7000175
:10033000000C2C6A2B6A250E2A6E800E296E2D6AFF
:100340002E6A080E2F6E7E6B7D91316A306A796B52
:100350007A91000C01014D6B4D5101080AE3036ACB
:100360004D51270FE96E000E0320EA6EEF6A4D2B08
:10037000F3D70001DEDF1D6A010E1E6E1C6A000C41
:100380006896000C6A6A686A9F0E6B6E3D0E696E15
:100390006E6AC0DFDFDF160E706E68A602D0F0DF77
:1003A000FCD76D985ADF030E216E0AEF09F06984BD
:1003B00068986D8210EF09F0689C16EF09F052C141
:1003C00022F0000CFF0E226E000C0101506B265231
:1003D0003FE050513F083CE31F50000105E0020A96
:1003E0000FE0010A19E024D0036A2450F2CF52F141
:1003F000F29EDBDE010152BFF28E516F000118D078
:10040000036A2450F2CF52F1F29E59DE010152BF2D
:10041000F28E516F00010CD0036A2450F2CF52F1DA
:10042000F29E02DF010152BFF28E516F000100D037
:10043000242A260601015051502B580F036AD8B0C8
:10044000032AE96E040E0324EA6E51C1EFFFBFD701
:10045000265204E15051400801E01C6A50C152F19B
:100460000001ADDF000C246A1F6A04011B51010A60
:10047000000107E0030A0AE0010A0BE0220A22E079
:1004800042D0120E266E030E1F6E3FD0430E266E14
:100490003CD0020E1F6E036A04011A51190FE96E57
:1004A000000E0320EA6EEFCF24F0036A2450F2CF4F
:1004B0004FF1F29E000103DE01014FBFF28E266E66
:1004C000000123D0036A04011A51F2CF4FF1F29ECA
:1004D00000019EDE01014FBFF28E246E243C01D04C
:1004E0000FD0036A2450F2CF4FF1F29E00015DDE7F
:1004F00001014FBFF28E266E000107D004D001012A
:10050000000160DF0ED05EDF0CD004011F5305E157
:1005100026501E5D02E21EC426F0010E1C6E000174
:1005200054DFF7EF03F001014F5306E1040E216E93
:100530000001F0DE00D10101050E216E040E526FA4
:10054000980E516F010E506F50510F08D8A0F3D084
:1005500050C158F10001ADDE0101536B036A5051E7
:10056000F2CF57F1F29E0001D7DD010157BFF28EA5
:10057000FF086DE0040E536FD8905035036AF2CF38
:1005800057F1F29E0001F0DD0900F5CF03F0010103
:1005900057BFF28E546F03C055F15F6B50C15EF1CF
:1005A000616B080E606F000173DE01C057F1010E30
:1005B00001010124016E000E0220036E01C0E9FF5B
:1005C000040E0324EA6E54C1EFFF5F6B50C15EF16D
:1005D000616B080E606F00015BDE01C057F1020E17
:1005E00001010124016E000E0220036E01C0E9FF2B
:1005F000040E0324EA6E52C1ECFFED5251C1EFFF2D
:10060000D8905035036AF2CF57F1F29E0001ACDD6D
:100610000900F5CF03F0010157BFF28E51270350B7
:100620005223880E566F55B1568155B356835F6B72
:1006300050C15EF1616B080E606F000129DE01019F
:1006400001C0E9FF040E0224EA6E56C1EFFF036AFF
:100650005051F2CF57F1F29E00014EDD010157BF1C
:10066000F28EFF084BE053835F6B50C15EF1616B0C
:10067000080E606F00010CDE02C058F101C057F196
:10068000040E01015727000E5823020E5725016E54
:10069000000E5821036E01C0E9FF040E0324EA6E28
:1006A00052C1ECFFED5251C1EFFFD8905035036AB3
:1006B000F2CF57F1F29E00013FDD0900F5CF03F0C4
:1006C000010157BFF28E5127035052235F6B50C177
:1006D0005EF1616B080E606F0001DADD02C058F157
:1006E00001C057F1040E01015727000E582357C1CE
:1006F000E9FF040E5825EA6E400EEF6E53510608CE
:1007000002E10E0E536F036A5051F2CF57F1F29E81
:100710000001F2DC010157BFF28E0108D8A4538911
:10072000036A5051700FE96E0F0E0320EA6E53C139
:10073000EFFF502B09D70001EFEF03F0040119512F
:1007400000010DE0010A15E0020A20E0060A2AE095
:10075000030A31E00E0A31E0010A37E046D01EC03C
:1007600058F40401596B020E0101526F000127DE9B
:100770003ED004011A2D07D0010E1E160101526B46
:1007800000011DDE02D000011DDE31D004011A2D52
:1007900006D01E820101526B000111DE02D0000161
:1007A00011DE25D0020E1C6E1AC423F00101526B1B
:1007B000000105DE1CD057D61AD01DC058F4010E1A
:1007C0000101526F0001FBDD12D004011A51010832
:1007D0000AE31AC41DF01AC44FF10001A4D60101A6
:1007E000526B0001ECDD000102D0ECDD00D0C0EF67
:1007F00005F01DC04FF104011951000105E00A0A7E
:100800000CE0010A31E045D00401586B596B020E2F
:100810000101526F0001D3DD3ED001014F5321E0B1
:10082000010E4F5D036AF2CF50F1F29E0001E7DC4A
:10083000010150BFF28E016E04011C5DD8A002D0F0
:1008400001010FD0036A1C51270FE96E000E03202F
:10085000EA6EEFCF58F4010E0101526F0001AFDDD7
:1008600002D00001AFDD17D001014F530FE0036A42
:1008700004011C51270FE96E000E0320EA6E1AC412
:10088000EFFF0101526B00019ADD02D000019ADDF9
:1008900002D098DD00D0C0EF05F0010150914FBFAC
:1008A00050814F9F50A112D0036A4F51F2CF51F1A6
:1008B000F29E000121DC010151BFF28EFF0802E12E
:1008C000000E01D0010E016E12D011D0036A4F51FB
:1008D000F2CF51F1F29E00011FDC010151BFF28EF7
:1008E000FF0802E1000E01D0010E016E00D00001F0
:1008F0001DEF05F0010150914FBF50814F9F50A156
:1009000019D05F6B4FC15EF1616B080E606F000123
:10091000BFDC02C052F101C051F1040E01015127A8
:10092000000E522351C1E9FF040E5225EA6E880ED3
:10093000EF6E0FD05F6B4FC15EF1616B080E606FA1
:100940000001A6DC010101C0E9FF040E0224EA6EE9
:10095000EF6A00012CEF05F0010150914FBF50816B
:100960004F9F50A119D05F6B4FC15EF1616B080EB4
:10097000606F00018DDC02C052F101C051F1040E24
:1009800001015127000E522351C1E9FF040E5225E7
:10099000EA6E840EEF6E10D05F6B4FC15EF1616B3B
:1009A000080E606F000174DC010101C0E9FF040E54
:1009B0000224EA6E840EEF6E000134EF05F00101AF
:1009C00050914FBF50814F9F50A119D05F6B4FC1C5
:1009D0005EF1616B080E606F00015ADC02C053F1DA
:1009E00001C052F1040E01015227000E532352C1DF
:1009F000E9FF040E5325EA6EEFCF51F110D05F6B83
:100A00004FC15EF1616B080E606F000141DC0101B6
:100A100001C0E9FF040E0224EA6EEFCF51F151AF9D
:100A200002D051B502D0000E01D0010E016E0001BE
:100A300040EF05F01CC44FF130D701522EE0040105
:100A40001951010A000105E0020A0BE0030A11E056
:100A500022D01CC44FF14ED70101526B0001AFDC14
:100A60001CD01CC44FF178D70101526B0001A7DCE8
:100A700014D00401586B596B1CC44FF100019FD76F
:100A8000015203E0010E0401586F020E0101526F82
:100A9000000195DC02D096DC00D0C0EF05F0FE0E20
:100AA000226E000C04011C2D01D002D01C534EE11B
:100AB000195100010BE0010A0DE0210A1CE0010AB6
:100AC0001FE0030A30E0010A35E03DD0010E806FDF
:100AD000E6DF3BD0040EEA6E580EE96EE26A320E93
:100AE000E16E080E016EE6CFEEFF012EFCD71EC4AC
:100AF00052F165DC2AD0020E806F7D81D0DF25D0D7
:100B0000040EEA6E580EE96EE26A290EE16E070ED7
:100B1000016EE6CFEEFF012EFCD7070E0101526FEA
:100B200000014DDC12D01AC47EF00101526B0001AD
:100B300046DC0BD01AC431F01BC430F00101526BFB
:100B400000013DDC02D03EDC00D004010001C0EF1A
:100B500005F01C6A040118517F0B000107E0010A2F
:100B600007E0030A07E0230A07E008D0E7D508D02A
:100B700040D606D05FD704D095D702D023DC00D072
:100B800020EF08F001015F6B4FC15EF1616B080E51
:100B9000606F000148EC01F0010101C0E9FF040EA3
:100BA0000224EA6EEFCF51F15051020806E151AD37
:100BB00002D0506B02D0010E506F505103081CE15F
:100BC000840E516F5F6B4FC15EF1616B080E606FF9
:100BD000000148EC01F002C055F101C054F1040ECF
:100BE00001015427000E552354C1E9FF040E552579
:100BF000EA6E840EEF6E07D0502D03D0C80E516FF1
:100C000002D0880E516FD8904F35036AF2CF54F15D
:100C1000F29E0001B4EC00F00900F5CF03F00101F1
:100C200054BFF28E526F03C053F15F6B4FC15EF140
:100C3000616B080E606F000148EC01F001C054F1D7
:100C4000010E01010124016E000E0220036E01C09D
:100C5000E9FF040E0324EA6E52C1EFFF53B1518144
:100C600053B351835F6B4FC15EF1616B080E606FD0
:100C7000000148EC01F0010101C0E9FF040E02246B
:100C8000EA6E51C1EFFF0001000C036A01015D51E2
:100C9000700FE96E0F0E0320EA6EEF521BE05F6BE0
:100CA0005DC15EF1616B080E606F000148EC01F000
:100CB00002C05FF101C05EF1040E01015E27000E6B
:100CC0005F235EC1E9FF040E5F25EA6EEFCF5EF1A0
:100CD0005EAF02D0000E01D0010E016E0001000CCB
:100CE00058C15DF1D2DF0152D8B486D001015F6BEB
:100CF00058C15EF1616B080E606F000148EC01F0B5
:100D000002C05EF101C05DF1040E01015D27000E1D
:100D10005E23010E5D25016E000E5E21036E01C093
:100D2000E9FF040E0324EA6E59C1EFFF5B5102088C
:100D300020E15F6B58C15EF1616B080E606F0001CE
:100D400048EC01F002C05EF101C05DF1040E01014A
:100D50005D27000E5E235DC1E9FF040E5E25EA6E8D
:100D6000EFCF5CF15CAD02D05B6B02D0010E5B6F2C
:100D70001AD05B51040817E15F6B58C15EF1616BDB
:100D8000080E606F000148EC01F0010101C0E9FFAD
:100D9000040E0224EA6EEFCF5CF15CAD03D0010ECD
:100DA0005B6F01D05B6B5B2D03D0C80E5C6F02D014
:100DB000880E5C6F5AB15C815AB35C835F6B58C11B
:100DC0005EF1616B080E606F000148EC01F002C03B
:100DD0005EF101C05DF1040E01015D27000E5E238E
:100DE0005DC1E9FF040E5E25EA6E5CC1EFFF010EF6
:100DF000016E05D000D00001000E016E010100015E
:100E0000000C8051010A03E0030A15E028D0EA6AC9
:100E1000320EE96E040EE26E180EE16E080E016EDF
:100E2000E6CFEEFF012EFCD70101526B0001DFEC93
:100E300001F0806B16D0EA6A290EE96E040EE26EAC
:100E4000180EE16E070E016EE6CFEEFF012EFCD705
:100E5000806B0101526B0001DFEC01F002D0806B6E
:100E600000D065EF07F001015F6B50C15EF1616B6F
:100E7000080E606F000148EC01F002C052F101C0A1
:100E800051F1010E01010124016E000E0220036EDA
:100E900001C0E9FF040E0324EA6E036AEFCF01F0FC
:100EA00003C002F000015CEF07F07A817C6B020E58
:100EB0000101506F0001D7D701C07BF06CEF07F044
:100EC00001014F5304E100019CD706D001014F51AD
:100ED000020803E10001E9D701010001000C50C143
:100EE0006EFF0101505303E0040E216E02D0020E8A
:100EF000216E000181EF07F01D6A1C6A23C050F1CA
:100F0000EED7FAEF07F050C15DF1BFDE01524AE0C3
:100F100001015F6B50C15EF1616B080E606F0001F3
:100F200048EC01F002C059F101C058F1040E010172
:100F30005827000E5923020E5825016E000E592124
:100F4000036E01C0E9FF040E0324EA6EECCF03F048
:100F5000ED52EFCF56F103C057F157C1EAFF56C12A
:100F6000E9FF52C1E2FF51C1E1FF54C102F053C198
:100F700001F0015202E0022A02D0025206E0E6CF5E
:100F8000EEFF012EFCD7022EFAD750C158F154C102
:100F90005AF153C159F155C15BF10001A1DE015075
:100FA00003D000D0000E016E000C020E0101506F44
:100FB000526B3A0E516F546B79C053F1020E556F5C
:100FC0000001A1DF79C07FF0796B000C795301E05B
:100FD000ECDF01EF08F001014F530EE11C2C05D0AE
:100FE0000001E5EC01F006D001011C50020803E10C
:100FF000000182D7010106D04F51020803E1000130
:10100000E5D701010001000C203001014D6F4D3387
:101010004D331F0E4D1720524FE1040100513C0B80
:1010200001014E6F430E0401001701014E513408B7
:1010300025E104010451800B01E0046B000189D516
:101040006D98223C07D001014F6B030E506F0001D9
:1010500099DD12D001014F6B020E506F000192DD3D
:101060002250FE0809E00101586B5A6B22C059F169
:10107000040E5B6F000134DE1DD001014E510408E7
:101080001AE14F6B00011CDF01014F6B020E506F24
:10109000000178DD2250FE080CE0223C01D009D08E
:1010A0000101586B5A6B22C059F1010E5B6F0001B0
:1010B00017DE00D001018AD02050040818E1430E49
:1010C00004010417FF0E226E01014F6B000183DF44
:1010D000223C01D00AD00101586B5A6B22C059F151
:1010E000020E5B6F0001FCDD00D06FD0010120B467
:1010F00030D05F6B4DC15EF1616B080E606F000117
:1011000048EC01F001C04FF1010101C001F0040EF3
:101110000224036E01C04FF1506F5F6B4DC15EF151
:10112000616B080E606F000148EC01F0010101C025
:10113000E9FF040E0224EA6EEF50430B50C1EAFFB0
:101140004FC1E9FFEF6E4DC14FF10001B9DE3DD057
:1011500001015F6B4DC15EF1616B080E606F0001B4
:1011600048EC01F002C050F101C04FF1040E010142
:101170004F27000E50234FC101F0040E5025036E7F
:101180004FC14FF1506F5F6B4DC15EF1616B080E47
:10119000606F000148EC01F002C052F101C051F152
:1011A000040E01015127000E522351C1E9FF040E24
:1011B0005225EA6EEF50430B50C1EAFF4FC1E9FFE1
:1011C000EF6E4DC14FF1000106DF0101000122EF7A
:1011D00009F0A19A215201E13ED068523CE068A496
:1011E00004D069A402D025EF01F06DA201D033D064
:1011F00068AA04D069AA02D03DEF01F068A204D029
:1012000069A202D044EF01F068A004D069A002D026
:10121000C2EF01F068A804D069A802D0D7EF01F0AE
:1012200068AC04D069AC02D0DCEF01F001014C6B7A
:1012300068A60AD069A608D06CCF20F00001C0ECE7
:1012400001F0E2D602D0010105D001014C514C2B36
:101250000308EEE200013CEF00F06D6A696A080ED7
:101260006F6E94503009946E216A186AF2BE188E1F
:10127000F29EAAEC01F018BEF28E40EF09F0EDD715
:1012800065EF09F0186AF2BE188EF29EAAEC01F022
:1012900018BEF28E6D6A140E6F6E696A6D86010E4D
:1012A000216E56EF09F06DB601D0ECD7212C0BD092
:1012B0006DBA09D0686A696AA08AC00EF212110E6E
:1012C000696E020E216E000CDAD7EDDF21500208A4
:1012D000FCE168EF0CF01D50016E69EF0CF0010E9F
:1012E000EA6E360EE96EEF500EE00F0E016E006AE8
:1012F000002EFED7012EFBD78F0E006E002EFED7DC
:101300000000EF2EF2D7000C7A91186AF2BE188E08
:10131000F29E020E01014F6F506F000133DC18BEC8
:10132000F28EA8EF09F07AB101D0FDD77C517C2B69
:10133000A00F036AD8B0032AE96E040E0324EA6EF4
:10134000EFCF35F1010100017B517C5D01E3DCD77A
:10135000010135C101F000013BEF0BF001013791B4
:10136000F2BE3781F29E000179513E0802E23E0E44
:10137000796F7951792B036A3A0FE96E000E0320D9
:10138000EA6E36C1EFFFF29E010137B1F28E186AA4
:10139000F2BE188EF29E020E5D6F000176DC18BE62
:1013A000F28E015207E0186AF2BE188EF29EFDDD41
:1013B00018BEF28EF7EF09F079513E0815E2186A6F
:1013C000F2BE188EF29E020E01015D6F00015DDC1F
:1013D00018BEF28E015207E0186AF2BE188EF29E15
:1013E000E4DD18BEF28EE8D735C136F1B7D7000C70
:1013F00001013C6B3D6B3D5101081DE339C1E9FF23
:101400003AC1EAFFEFCF3BF13B51400808E23C51C3
:10141000100DF3503B25BF0F0A0F3C6F06D03C5117
:10142000100DF3503B25D00F3C6F3D513D2B392B18
:10143000D8B43A2BE0D73CC101F00001000CF250C7
:10144000036EF29EA68EA6840F01550EA76EAA0EFD
:10145000A76EA68200000350F2120001000CD08C8F
:10146000A69CF6501F0B006EE00EF6160A0045C152
:1014700001F0006608D0F650010F3F0B04E1A6888A
:101480000900DDDF0A00006607D0EECFF5FF01524C
:1014900004E00F00010603D000060B000C001F0E35
:1014A000F6141F0AE6E1CBDF0166E3D7F86A7BEFAB
:1014B0000AF0813D07D0823D05D0833D03D0843DB5
:1014C00001D01ED0D08C83C0F8FF82C0F7FF81C04E
:1014D000F6FFA688A69CB3DFF86A83C0F8FF82C037
:1014E000F7FF81C0F6FFEA6A850EE96E400E010142
:1014F000456F0001B4D7FF0E846F836F826F816FD9
:10150000000C46C101F045C100F00066012A090047
:10151000F5CFEEFF002EFBD7012EF9D7F86AD2EFF8
:101520000AF001013551C00B3D6F36C13EF137C1A4
:101530003FF138C140F13D51355D416F3E51365963
:10154000426F3B513C11D8B478D000018151010168
:101550003D5D0FE10001825101013E5D0AE10001A4
:10156000835101013F5D05E1000184510101405DAE
:101570001AE000019EDF40C184F03FC183F03EC10C
:1015800082F03DC181F03FC1F8FF3EC1F7FF3DC190
:10159000F6FFEA6A850EE96E0101466B400E456F63
:1015A0000001AFD70101400ED8804155006E000EFA
:1015B0004255036E00C001F003503C5D0CE303E1B3
:1015C0003B51015C08E2400ED8804155436F000E4C
:1015D0004255446F04D03CC144F13BC143F1850EF8
:1015E0004125456F000E4221466FEA6E45C1E9FF75
:1015F0003AC1E2FF39C1E1FF44C102F043C101F049
:10160000015202E0022A02D0025206E0E6CFEEFFCB
:10161000012EFCD7022EFAD74351392744513A23E1
:10162000400E3D27000E3E233F234023426B416B7B
:1016300043513B5F44513C5B84D7000121EF0CF0E8
:10164000C593CA6BCB6BC5B309D12DDE7AB101D07E
:10165000FAD7F46BFA0ECC6F7AB10AD0010E010101
:10166000366F00013CDECC07CC5301E119D002D02B
:10167000FA0ECC6F58D601C0D2F0F451F42B036AA5
:10168000F50FE96E000E0320EA6ED2C0EFFFD251D3
:101690000D0806E0D2510A0803E0F4514008DCE2EC
:1016A000CC5301E1D0D7130E0101356F000184DE68
:1016B000C581F5513A08D8A4C4D001013A6BF60EA1
:1016C000396F000195DE01C0D3F001013A6BF80ECD
:1016D000396F00018DDE01C035F101013A6BFA0E60
:1016E000396F000185DE35C1C9F001C0C8F00101C4
:1016F0003A6BFC0E396F00017BDE01C0C7F0CAC037
:10170000CFF0CBC0D0F0C8C0CDF0C9C0CEF0C66B12
:10171000010ED26F030EF45DD25D12E2036AD25164
:10172000F50F0101356F000E0320366F3A6F35C19A
:1017300039F100015DDE0150C627020ED227EAD73B
:10174000FF0ED880C655010FC66F030EF45D036A05
:10175000F50F0101356F000E0320366F3A6F35C16A
:1017600039F1000145DE0150C65D02E0C59169D046
:10177000C72D02D0C58365D0C751040813E101010C
:101780003A6BFE0E396F000133DE01C035F1010EF8
:1017900001013A6F396B00012BDE35C1CBF001C07E
:1017A000CAF04FD0C7534DE1D05305E1CF5303E109
:1017B000CE511F0846E2D05344E1CF5342E1CE510F
:1017C0005F083FE303E1CD51FE083BE3090ED26F12
:1017D000D16B030EF45DD25D23E2D151D12B036AAC
:1017E000D40F016E000E032201C035F1010103C0C8
:1017F00036F1036A0001D251F50F0101376F000E77
:101800000320386F3A6F37C139F10001F1DD36C17D
:10181000EAFF35C1E9FF01C0EFFF020ED227D9D799
:10182000D0C038F1CFC037F1CEC036F1CDC035F1E0
:1018300001013A6BD40E396F3C6BD3C03BF1000110
:1018400070D6C5A105D0060E0101356F0001B4DDCB
:10185000110E0101356F0001AFDDF5D62ADE060E4F
:101860000101356F0001A8DD110E0101356F000186
:10187000A3DD080E0101356FFA0E366F00012FDD72
:101880000101352FF9D7FF0000016CEF0CF0F86A69
:10189000D09E088EEA6AE96AC150C00B0F09C16E7A
:1018A000070EB46E196A040E1A6E0C0E1B6E216AB6
:1018B000266A796B806BFF0E816F826F836F846FF6
:1018C000928280B209D0010E256E99EC01F0FCD411
:1018D00002D50152FDE0B4D6256A00EF10F00300F6
:04200000FFD7000CFA
:020000040030CA
:0E000000210E3E1E0081810007C007E0074070
:00000001FF
;PIC18F2455
;CRC=277D  CREATED="05-jun-10 12:06"
