:041000009BEF12F060
:08100800046ED8CF05F0E0CF23
:1010100006F00001E9CF0CF0EACF07F0E1CF08F0CD
:10102000E2CF09F0D9CF0AF0DACF0BF0F3CF12F00C
:10103000F4CF13F0FACF14F000C00EF001C00FF09F
:1010400002C010F003C011F0A0AA2AEF08F0A1BA64
:1010500011EF10F00EC000F00FC001F010C002F050
:1010600011C003F00CC0E9FF07C0EAFF078E08C0FB
:10107000E1FF09C0E2FF0AC0D9FF0BC0DAFF12C0CE
:10108000F3FF13C0F4FF14C0FAFF045006C0E0FFE2
:1010900005C0D8FF1000F76AA60FF66E100EF722F3
:1010A0000900F5501200000302FFFFFFFFFFFFFFE2
:1010B000FFFFFFFFFFFFF76AC60FF66E100EF72265
:1010C0000900F550120000FF02FFFFFFFFFFFFFFC6
:1010D000FFFFFFFFFFFFF76AE60FF66E100EF72225
:1010E0000900F55012004000080040000000000018
:1010F00000000000000000000000000000000000F0
:1011000000000000000007AE03D0F2CF0DF0F29E09
:10111000F76A280FF66E110EF7220900F55007AE98
:1011200002D00DBEF28E1200400000004000000010
:1011300000000000000000000000000000000000AF
:101140000000000000000000F76A580FF66E110E54
:10115000F7220900F5501200090243000201008045
:1011600032090400000102020100052400100104FC
:10117000240202052406000105240100010705815F
:10118000030800FA09040100020A00000007050232
:10119000024000010705820240000100F76AAC0F1F
:1011A000F66E110EF7220900F55012000200F76AE0
:1011B000BE0FF66E110EF7220900F550120012173D
:1011C0001B20FFFFFFFFF76AD60FF66E110EF72206
:1011D0000900F550120012011001020000406104E4
:1011E0003300000101020001F76AF80FF66E110EDC
:1011F000F7220900F5501200040309040803430014
:1012000043005300180353004500520049004100B9
:101210004C002000440045004D004F006D92699441
:1012200068A402D06894FCD71DEF10F0400E0401B2
:10123000016F040E036F180E026F880E006F046BAF
:10124000040E076F580E066F0001000C70A002D04C
:10125000EDDF7090689A26EF10F06A6A68922CEFC2
:1012600010F0B191B0BFB181B09FB051100803E24E
:10127000000E016E21D0B1A110D0036AB051F2CF9F
:10128000B2F0F29E08DFB2BFF28EFF0802E1000E5C
:1012900001D0010E016E10D00FD0036AB051F2CF11
:1012A000B2F0F29E08DFB2BFF28EFF0802E1000E3C
:1012B00001D0010E016E00D0000CB551B703F3CF81
:1012C00001F0F4CF00F0B803F3500026B651B70395
:1012D000F3500020026E000C036AAF51700FE96EEC
:1012E0000F0E0320EA6EEF6AAFC0B0F0BADF015212
:1012F00022E0B66BAFC0B5F0B86B080EB76FDDDF9C
:1013000001C0E9FF040E0224EA6EEF6AB66BAFC0BB
:10131000B5F0B86B080EB76FD0DF02C0B1F001C0F6
:10132000B0F0040EB027000EB123B0C0E9FF040EE8
:10133000B125EA6EEF6A000C010EAE6FAE510F08D8
:1013400005E3AEC0AFF0C8DFAE2BF8D7000C296ABA
:10135000286A250E276E800E266E2A6A2B6A080ED2
:101360002C6E7B6B7A912E6A2D6A766B7791000CCE
:10137000A46BA45101080AE3036AA451240FE96E87
:10138000000E0320EA6EEF6AA42BF3D7E0DF186AA1
:10139000010E196E176A000C6896000C6A6A686A7A
:1013A0009F0E6B6E3D0E696E6E6AC6DFE1DF160E34
:1013B000706E68A602D0F0DFFCD76D9837DF030EA1
:1013C0001F6E32EF10F0698468986D8238EF10F06C
:1013D000689C3EEF10F0A9C020F0000CFF0E206EBC
:1013E000000CA76B235235E0A7513F0832E31A5097
:1013F00005E0020A0DE0010A15E01ED0036A225042
:10140000F2CFA9F0F29EA0DEA9BFF28EA86F14D091
:10141000036A2250F2CFA9F0F29EE6DEA9BFF28E57
:10142000A86F0AD0036A2250F2CFA9F0F29ECBDE59
:10143000A9BFF28EA86F00D0222A2306A751A72B9E
:10144000580FE96E040EEA6ED8B0EA2AA8C0EFFF82
:10145000C9D7235204E1A751400801E0176AA7C089
:10146000A9F0B9DF000C226A1A6A04011B51010AB3
:10147000000107E0030A0AE0010A0BE0220A20E06B
:101480003AD0120E236E030E1A6E37D0430E236E1F
:1014900034D0020E1A6E036A04011A511B0FE96E52
:1014A000000E0320EA6EEFCF22F0036A2250F2CF43
:1014B000A6F0F29E000198DEA6BFF28E236E1DD02C
:1014C000036A04011A51F2CFA6F0F29E00016FDE0A
:1014D000A6BFF28E226E223C01D00BD0036A2250AE
:1014E000F2CFA6F0F29E30DEA6BFF28E236E05D0BC
:1014F00002D074DF0ED072DF0CD004011F5305E15F
:1015000023501E5D02E21EC423F0010E176E00017F
:1015100068DFCBEF0BF0A65304E1040E1F6E0CDF67
:10152000E7D0050E1F6E040EA96F980EA86F010E6E
:10153000A76FA7510F08D8A0DBD0A7C0AFF0CCDEB3
:10154000AA6B036AA751F2CFAEF0F29EB4DDAEBF34
:10155000F28EFF0863E0040EAA6FD890A735036AE5
:10156000F2CFAEF0F29ECFDD0900F5CF03F0AEBFB3
:10157000F28EAB6F03C0ACF0B66BA7C0B5F0B86B22
:10158000080EB76F9ADE01C0AEF0010E0124016EA5
:10159000000E0220036E01C0E9FF040E0324EA6E70
:1015A000ABC0EFFFB66BA7C0B5F0B86B080EB76F56
:1015B00084DE01C0AEF0020E0124016E000E022096
:1015C000036E01C0E9FF040E0324EA6EA9C0ECFF1C
:1015D000ED52A8C0EFFFD890A735036AF2CFAEF066
:1015E000F29E91DD0900F5CF03F0AEBFF28EA82781
:1015F0000350A923880EAD6FACB1AD81ACB3AD8300
:10160000B66BA7C0B5F0B86B080EB76F56DE01C059
:10161000E9FF040E0224EA6EADC0EFFF036AA75192
:10162000F2CFAEF0F29E37DDAEBFF28EFF0845E09E
:10163000AA83B66BA7C0B5F0B86B080EB76F3DDED6
:1016400002C0AFF001C0AEF0040EAE27000EAF2313
:10165000020EAE25016E000EAF21036E01C0E9FF40
:10166000040E0324EA6EA9C0ECFFED52A8C0EFFF00
:10167000D890A735036AF2CFAEF0F29E2CDD0900B8
:10168000F5CF03F0AEBFF28EA8270350A923B66BA7
:10169000A7C0B5F0B86B080EB76F0FDE02C0AFF091
:1016A00001C0AEF0040EAE27000EAF23AEC0E9FFBE
:1016B000040EAF25EA6E400EEF6EAA51060802E155
:1016C0000E0EAA6F036AA751F2CFAEF0F29EE3DCD2
:1016D000AEBFF28E0108D8A4AA89036AA751700F81
:1016E000E96E0F0E0320EA6EAAC0EFFFA72B21D7E9
:1016F000C5EF0BF004011951000A00010DE0010AC9
:1017000014E0020A1EE0060A27E0030A2CE00E0A93
:101710002CE0010A30E03DD019C058F40401596BA7
:10172000020E0001A96F57DE36D004011A2D06D033
:10173000010E19160001A96B4EDE02D000014EDE2B
:101740002AD004011A2D05D019820001A96B43DEAD
:1017500002D0000143DE1FD0020E176E1AC421F022
:10176000A96B39DE18D07FD616D018C058F4010EF8
:10177000A96F31DE10D004011A51010808E31AC420
:1017800018F01AC4A6F00001C6D6A96B24DE000129
:1017900002D024DE00D044EF0DF018C0A6F0040102
:1017A0001951000A000105E00A0A0BE0010A2BE0CA
:1017B0003CD00401586B596B020E0001A96F0BDE7F
:1017C00036D0A6531EE0010EA65D036AF2CFA7F045
:1017D000F29EE4DCA7BFF28E016E04011C5DD8A06E
:1017E00002D000010ED0036A1C51240FE96E000ED6
:1017F0000320EA6EEFCF58F4010E0001A96FEBDD74
:1018000001D0ECDD14D0A6530EE0036A04011C5194
:10181000240FE96E000E0320EA6E1AC4EFFF0001E8
:10182000A96BD9DD01D0DADD02D0D8DD00D044EFDC
:101830000DF0A791A6BFA781A69FA7A117D0B66B51
:10184000A6C0B5F0B86B080EB76F37DD02C0A9F0BF
:1018500001C0A8F0040EA827000EA923A8C0E9FF24
:10186000040EA925EA6E880EEF6E0DD0B66BA6C0E9
:10187000B5F0B86B080EB76F20DD01C0E9FF040EAC
:101880000224EA6EEF6AB9EF0CF0A791A6BFA78118
:10189000A69FA7A117D0B66BA6C0B5F0B86B080E6F
:1018A000B76F0BDD02C0A9F001C0A8F0040EA82795
:1018B000000EA923A8C0E9FF040EA925EA6E840E34
:1018C000EF6E0ED0B66BA6C0B5F0B86B080EB76F52
:1018D000F4DC01C0E9FF040E0224EA6E840EEF6E10
:1018E000BFEF0CF0A791A6BFA781A69FA7A117D015
:1018F000B66BA6C0B5F0B86B080EB76FDEDC02C0E1
:10190000AAF001C0A9F0040EA927000EAA23A9C0BD
:10191000E9FF040EAA25EA6EEFCFA8F00ED0B66B51
:10192000A6C0B5F0B86B080EB76FC7DC01C0E9FF01
:10193000040E0224EA6EEFCFA8F0A8AF02D0A8B53B
:1019400002D0000E01D0010E016EC9EF0CF01CC4D4
:10195000B0F087DC015229E004011951010A0001AD
:1019600005E0020A09E0030A0DE01DD01CC4A6F040
:1019700060D7A96B30DD19D01CC4A6F086D7A96B3F
:101980002ADD13D00401586B596B1CC4A6F000016A
:10199000A9D7015204E0010E0401586F0001020EA4
:1019A000A96F19DD02D01ADD00D044EF0DF0FE0E54
:1019B000206E000C04011C2D01D002D01C5349E103
:1019C0001951000A00010BE0010A0DE0210A1CE098
:1019D000010A1FE0030A2EE0010A31E037D0010EB0
:1019E0007D6FE5DF35D0040EEA6E580EE96EE26ACF
:1019F0002F0EE16E080E016EE6CFEEFF012EFCD732
:101A00001EC4A9F0E8DC24D0020E7D6F7A81CFDFFE
:101A10001FD0040EEA6E580EE96EE26A260EE16EE1
:101A2000070E016EE6CFEEFF012EFCD7070EA96F61
:101A3000D2DC0ED01AC47BF0A96BCDDC09D01AC45D
:101A40002EF01BC42DF0A96BC6DC02D0C7DC00D081
:101A50000401000144EF0DF0176A040118517F0BD7
:101A6000000A000107E0010A07E0030A07E0230A71
:101A700007E008D03FD608D090D606D068D704D06B
:101A800099D702D0ABDC00D066EF0FF0B66BA6C0E2
:101A9000B5F0B86B080EB76F10DC01C0E9FF040E9B
:101AA0000224EA6EEFCFA8F0A751020806E1A8AD24
:101AB00002D0A76B02D0010EA76FA75103081AE14D
:101AC000840EA86FB66BA6C0B5F0B86B080EB76FE2
:101AD0005DEC09F002C0ACF001C0ABF0040EAB2726
:101AE000000EAC23ABC0E9FF040EAC25EA6E840EF9
:101AF000EF6E07D0A72D03D0C80EA86F02D0880EB6
:101B0000A86FD890A635036AF2CFABF0F29E83ECB3
:101B100008F00900F5CF03F0ABBFF28EA96F03C048
:101B2000AAF0B66BA6C0B5F0B86B080EB76F5DEC47
:101B300009F001C0ABF0010E0124016E000E02207D
:101B4000036E01C0E9FF040E0324EA6EA9C0EFFF93
:101B5000AAB1A881AAB3A883B66BA6C0B5F0B86B2A
:101B6000080EB76F5DEC09F001C0E9FF040E022416
:101B7000EA6EA8C0EFFF000C036AB451700FE96E63
:101B80000F0E0320EA6EEF5219E0B66BB4C0B5F049
:101B9000B86B080EB76F5DEC09F002C0B6F001C07B
:101BA000B5F0040EB527000EB623B5C0E9FF040E4C
:101BB000B625EA6EEFCFB5F0B5AF02D0000E01D07A
:101BC000010E016E000CAFC0B4F0D6DF0152D8B4E4
:101BD0007CD0B66BAFC0B5F0B86B080EB76F5DECDC
:101BE00009F002C0B5F001C0B4F0040EB427000E35
:101BF000B523010EB425016E000EB521036E01C0A0
:101C0000E9FF040E0324EA6EB0C0EFFFB2510208F0
:101C10001EE1B66BAFC0B5F0B86B080EB76F5DECE8
:101C200009F002C0B5F001C0B4F0040EB427000EF4
:101C3000B523B4C0E9FF040EB525EA6EEFCFB3F0CB
:101C4000B3AD02D0B26B02D0010EB26F18D0B25158
:101C5000040815E1B66BAFC0B5F0B86B080EB76FEE
:101C60005DEC09F001C0E9FF040E0224EA6EEFCF3B
:101C7000B3F0B3AD03D0010EB26F01D0B26BB22D91
:101C800003D0C80EB36F02D0880EB36FB1B1B38169
:101C9000B1B3B383B66BAFC0B5F0B86B080EB76F16
:101CA0005DEC09F002C0B5F001C0B4F0040EB42739
:101CB000000EB523B4C0E9FF040EB525EA6EB3C02B
:101CC000EFFF010E016E03D000D0000E016E000C7C
:101CD0007D51010A03E0030A13E024D0EA6A2F0EC3
:101CE000E96E040EE26E180EE16E080E016EE6CF8C
:101CF000EEFF012EFCD7A96BEBEC09F07D6B14D045
:101D0000EA6A260EE96E040EE26E180EE16E070E08
:101D1000016EE6CFEEFF012EFCD77D6BA96BEBECDD
:101D200009F002D07D6B00D0C0EF0EF0B66BA7C0FB
:101D3000B5F0B86B080EB76F5DEC09F002C0A9F002
:101D400001C0A8F0010E0124016E000E0220036EF6
:101D500001C0E9FF040E0324EA6E036AEFCF01F02D
:101D600003C002F0B9EF0EF07781796B020EA76F16
:101D7000DDD701C078F0C5EF0EF0A65302E1A8D779
:101D800004D0A651020801E1EFD7000CA7C06EFFF6
:101D9000A75303E0040E1F6E02D0020E1F6ED6EF93
:101DA0000EF0186A176A21C0A7F0F0D745EF0FF0C0
:101DB000A7C0B4F0E1DE015246E0B66BA7C0B5F0B3
:101DC000B86B080EB76F5DEC09F002C0B0F001C04F
:101DD000AFF0040EAF27000EB023020EAF25016E48
:101DE000000EB021036E01C0E9FF040E0324EA6E69
:101DF000ECCF03F0ED52EFCFADF003C0AEF0AEC0CC
:101E0000EAFFADC0E9FFA9C0E2FFA8C0E1FFABC097
:101E100002F0AAC001F0015202E0022A02D00252EE
:101E200006E0E6CFEEFF012EFCD7022EFAD7A7C0C0
:101E3000AFF0ABC0B1F0AAC0B0F0ACC0B2F0C3DE3E
:101E4000015003D000D0000E016E000C020EA76FEF
:101E5000A96B370EA86FAB6B76C0AAF0020EAC6F01
:101E6000A7DF76C07CF0766B000C765301E0EEDFE6
:101E70004AEF0FF0A6530AE1172C03D0F1EC09F05A
:101E800004D01750020801E18CD704D0A6510208F3
:101E900001E1EBD7000C1E30A46FA433A4331F0E56
:101EA000A4171E5242E1040100513C0B0001A56F32
:101EB000430E040100170001A55134081EE104017E
:101EC0000451800B01E0046B0001C6D56D98203CE5
:101ED00005D0A66B030EA76FD9DD0ED0A66B020E40
:101EE000A76FD4DD2050FE0807E0AF6BB16B20C0B8
:101EF000B0F0040EB26F67DE17D0A551040814E1EC
:101F0000A66B3BDFA66B020EA76FC0DD2050FE085C
:101F10000AE0203C01D007D0AF6BB16B20C0B0F01D
:101F2000010EB26F50DE00D07AD01E50040814E1CA
:101F3000430E04010417FF0E206E0001A66B9ADF0A
:101F4000203C01D008D0AF6BB16B20C0B0F0020EC6
:101F5000B26F39DE00D063D01EB42AD0B66BA4C0F5
:101F6000B5F0B86B080EB76F5DEC09F001C0A6F0D4
:101F700001C001F0040E0224036E01C0A6F0A76F99
:101F8000B66BA4C0B5F0B86B080EB76F5DEC09F086
:101F900001C0E9FF040E0224EA6EEF50430BA7C014
:101FA000EAFFA6C0E9FFEF6EA4C0A6F0E6DE37D0D8
:101FB000B66BA4C0B5F0B86B080EB76F5DEC09F056
:101FC00002C0A7F001C0A6F0040EA627000EA723AA
:101FD000A6C001F0040EA725036EA6C0A6F0A76F49
:101FE000B66BA4C0B5F0B86B080EB76F5DEC09F026
:101FF00002C0A9F001C0A8F0040EA827000EA92372
:10200000A8C0E9FF040EA925EA6EEF50430BA7C054
:10201000EAFFA6C0E9FFEF6EA4C0A6F02BDF48EFF1
:1020200010F0A19A1F5201E139D0685237E068A43C
:1020300004D069A402D00EEF09F06DA201D02ED019
:1020400068AA04D069AA02D026EF09F068A204D0D9
:1020500069A202D02DEF09F068A004D069A002D0D7
:10206000CEEF09F068A804D069A802D0E3EF09F028
:1020700068AC04D069AC02D0E8EF09F0A36B68A6A5
:1020800008D069A606D06CCF1EF0CCEC09F003D7BF
:1020900001D004D0A351A32B0308F1E22AEF08F0EA
:1020A00020204861732070726573696F6E61646F80
:1020B0002041310020204861732070726573696F80
:1020C0006E61646F2041320020204861732070727D
:1020D0006573696F6E61646F204133002020486131
:1020E000732070726573696F6E61646F2041340094
:1020F0006D6A696A080E6F6E94503009946E1F6A9B
:10210000166AF2BE168EF29EB8EC09F016BEF28E7A
:10211000000CEEDFB5EF12F0166AF2BE168EF29EDC
:10212000B8EC09F016BEF28E6D6A140E6F6E696A15
:102130006D86010E1F6EA0EF10F06DB601D0ECD7CA
:102140001F2C0BD06DBA09D0686A696AA08AC00ECC
:10215000F212110E696E020E1F6EB6EF12F0779139
:10216000166AF2BE168EF29E020EA66FA76F8EDC66
:1021700016BEF28ECDEF10F077B101D0FDD77951B8
:10218000792BA00FE96E040EEA6ED8B0EA2AEFCFE1
:102190008DF07851795D01E3E2D78DC001F0C9EF90
:1021A00012F09C519E19800BA06F9CAF05D09B1F15
:1021B0009C1F9B2BD8B49C2B9EAF05D09D1F9E1FB0
:1021C0009D2BD8B49E2B9B519D03F3CF01F0F4CFF0
:1021D00000F09E03F35000269C519D03F350002015
:1021E000026EA0AF05D0011E021E012AD8B4022A39
:1021F0006BEF11F0996B976B0A0E986F966B956B5E
:102200009351941104E1000E016E026EE6D09951D3
:10221000992B036A9325E96E94510320EA6EEFCF60
:102220009AF09A512D080DE1010E976F9951992B53
:10223000036A9325E96E94510320EA6EEFCF9AF07A
:102240000DD09A512B080AE19951992B036A9325D5
:10225000E96E94510320EA6EEFCF9AF09A512F085D
:10226000D8B0ADD09A513908D8A0A9D09A51300829
:1022700021E1036A99519325E96E94510320EA6E96
:10228000EF5078080AE0036A99519325E96E94515A
:102290000320EA6EEF5058080DE1100E986F992B4D
:1022A0009951992B036A9325E96E94510320EA6EA4
:1022B000EFCF9AF098510A0821E19A512F081DE2B8
:1022C0009A5139081AE39C6B0A0E9B6F96C09EF0D8
:1022D00095C09DF066D7300E9A5D0124956F000E73
:1022E0000220966F9951992B036A9325E96E9451B8
:1022F0000320EA6EEFCF9AF0E0D761D09851100832
:102300005EE19A51600806E29A517A0803E39A5115
:10231000DF0B01D09A519A6F9A512F0803E29A511C
:10232000390806E29A5140084AE29A51460847E3C2
:102330009A512F0819E29A51390816E395359B6F87
:1023400096359C6F9B379C379B379C379B379C37C8
:10235000F00E9B17300E9A5D9B25016E000E9C219E
:1023600001C095F0966F16D095359B6F96359C6F92
:102370009B379C379B379C379B379C37F00E9B17BE
:10238000410E9A5D0A0F9B25016E000E9C2101C033
:1023900095F0966F9951992B036A9325E96E9451A4
:1023A0000320EA6EEF509A6F600806E29A517A08AD
:1023B00003E39A51DF0B01D09A519A6FADD7985130
:1023C0000A0807E1972D05D0951F961F952BD8B4C5
:1023D000962B95C001F096C002F02AEF12F08D6B9B
:1023E0008D51020832E38D518B25016E000E8C2138
:1023F000036E01C0E9FFEA6EEF5020080AE1036AAC
:102400008D518F0FE96E000E0320EA6E300EEF6ED5
:102410001AD0036A8D518F0F016E000E032201C086
:1024200093F003C094F08D518B25016E000E8C212A
:1024300001C0E9FFEA6EEFCF95F094C0EAFF93C0C8
:10244000E9FF95C0EFFF8D2BCBD7926B946B8F0E6E
:10245000936FD0D601C08EF08EC001F0E2EF12F083
:10246000EA6A8B0EE96EEF500EE00F0E016E006A05
:10247000002EFED7012EFBD78F0E006E002EFED74A
:102480000000EF2EF2D7000C8F91F2BE8F81F29EEA
:1024900076513E0802E23E0E766F7651762B036A45
:1024A000370FE96E000E0320EA6E8EC0EFFFF29E3A
:1024B0008FB1F28E166AF2BE168EF29E020EB46FC5
:1024C000BCEC0DF016BEF28E015207E0166AF2BEA9
:1024D000168EF29EBBDC16BEF28E89EF12F076519C
:1024E0003E0814E2166AF2BE168EF29E020EB46F19
:1024F000BCEC0DF016BEF28E015207E0166AF2BE79
:10250000168EF29EA3DC16BEF28EE9D78DC08EF039
:10251000BBD795EF12F00900F5520CE0F6CF8BF027
:10252000F7CF8CF0F5CF8DF0DAD78BC0F6FF8CC0EB
:10253000F7FFF1D7000CF86AD09E078EEA6AE96AC5
:102540001F6A236A766B7D6BC150C00B0F09C16E89
:10255000070EB46E1B6A040E1C6E0C0E1D6E7E6B95
:102560007F6BFF0E926E936AD4D5E7D577A12CD0FE
:10257000846B845102081EE377A11BD0036A845147
:10258000850F016E000E032201C08BF003C08CF09A
:10259000F3D58CC0EAFF8BC0E9FF01C0EFFF010E4D
:1025A0008425036A850FE96E000E0320EA6EEF6A48
:1025B000842BDFD78A6B850E896F8AC08CF089C027
:1025C0008BF00DD701C081FF928280B20BD0928236
:1025D00080A2FDD7640E8B6F43DFA00EF66E200E37
:1025E000F76E99DF928480B40BD0928480A4FDD7DB
:1025F000640E8B6F35DFB40EF66E200EF76E8BDF38
:10260000928680B60BD0928680A6FDD7640E8B6F23
:1026100027DFC80EF66E200EF76E7DDF928880B839
:102620000BD0928280A2FDD7640E8B6F19DFDC0E77
:0E263000F66E200EF76E6FDF98D75ADD0300AE
:020000040030CA
:0E00000021CE3E1E008581000FC00FE00F4094
:00000001FF
;PIC18F2550
;CRC=3174  CREATED="27-Oct-12 11:53"
