:040000002CEF0CF0E5
:0800080025A003D014EF00F065
:1000100002D004EF10F0120025A003D01CEF00F076
:1000200002D00CEF10F01200046ED8CF05F0E0CF34
:1000300006F00001E9CF0CF0EACF07F0E1CF08F0BD
:10004000E2CF09F0D9CF0AF0DACF0BF0F3CF12F0FC
:10005000F4CF13F0FACF14F0F5CF15F0F6CF16F079
:10006000F7CF17F000C00EF001C00FF002C010F083
:1000700003C011F0A0AA40EF00F0A1BAC8EF08F049
:100080000EC000F00FC001F010C002F011C003F06C
:100090000CC0E9FF07C0EAFF078E08C0E1FF09C0F6
:1000A000E2FF0AC0D9FF0BC0DAFF12C0F3FF13C092
:1000B000F4FF14C0FAFF15C0F5FF16C0F6FF17C015
:1000C000F7FF045006C0E0FF05C0D8FF1000F76A34
:1000D000DE0FF66E000EF7220900F5501200040341
:1000E00009040C0347002D00500069004300180369
:1000F00047002D0050006900430020004C006900BB
:10010000740065002100F76A160FF66E010EF722E3
:100110000900F5501200000302FFFFFFFFFFFFFF81
:10012000FFFFFFFFFFFFF76A360FF66E010EF722A3
:100130000900F550120000FF02FFFFFFFFFFFFFF65
:10014000FFFFFFFFFFFFF76A560FF66E010EF72263
:100150000900F550120040000800400000000000B7
:10016000000000000000000000000000000000008F
:10017000000000000000F76A860FF66E010EF722FD
:100180000900F5501200400000004000000000008F
:10019000000000000000000000000000000000005F
:1001A000000000000000F76AB60FF66E010EF7229D
:1001B0000900F550120009024300020100803209D3
:1001C00004000001020201000524001001042402C1
:1001D000020524060001052401000107058103082A
:1001E00000FA09040100020A0000000705020240AB
:1001F00000010705820240000100F76A0A0FF66E4F
:10020000020EF7220900F55012000200F76A1C0FD7
:10021000F66E020EF7220900F550120012171B208D
:10022000FFFFFFFFF76A340FF66E020EF722090098
:10023000F55012001201100102000040D804020023
:100240000001010200016D92699468A402D06894D3
:10025000FCD7D4EF08F0400E0401016F040E036FC9
:10026000180E026F880E006F046B040E076F580E95
:10027000066F0001120070A002D0EDDF7090689A46
:10028000DDEF08F06A6A6892E3EF08F001015B9124
:100290005ABF5B815A9F5A51100803E2000E016E4B
:1002A0001AD05BA10DD0036A5A5100012CDFFF0860
:1002B00002E1000E01D0010E016E01010CD00BD045
:1002C000036A5A5100012FDFFF0802E1000E01D03E
:1002D000010E016E01010001120001015F51610375
:1002E000F3CF01F0F4CF00F06203F3500026605129
:1002F0006103F3500020026E00011200036A010145
:100300005951700FE96E0F0E0320EA6EEF6A59C162
:100310005AF10001BBDF015228E00101606B59C1B5
:100320005FF1626B080E616F0001D7DF010101C050
:10033000E9FF040E0224EA6EEF6A606B59C15FF1B7
:10034000626B080E616F0001C8DF02C05BF101C083
:100350005AF1040E01015A27000E5B235AC1E9FF2E
:10036000040E5B25EA6EEF6A00011200010E010126
:10037000586F58510F0807E358C159F10001BEDF0B
:100380000101582BF6D7000112000101526B516B8D
:10039000250E506F800E4F6FEA6A2A0EE96E010E2D
:1003A000E26E4F0EE16E020E016EE6CFEEFF012E01
:1003B000FCD72C6A2D6A4F6BEA6A2E0EE96E010E8D
:1003C000E26E4F0EE16EE6CFEEFF4F6BEA6A2F0E44
:1003D000E96E010EE26E4F0EE16EE6CFEEFF080E03
:1003E0004F6FEA6A300EE96E010EE26E4F0EE16E5B
:1003F000E6CFEEFF00017F6B7E91326A316A7A6B45
:100400007B91120001014E6B4E5101080AE3036A11
:100410004E51280FE96E000E0320EA6EEF6A4E2B54
:10042000F3D70001B2DF1E6A010E1F6E1D6A1200B3
:10043000689612006A6A686A9F0E6B6E3D0E696E5E
:100440006E6A94DFDFDF160E706E68A602D0F0DFF2
:10045000FCD76D9800DF030E226EE9EF08F0698487
:1004600068986D82EFEF08F0689CF5EF08F053C1D3
:1004700023F01200236812000101516B27522BE078
:1004800051513F0828E32050000A000105E0020A0C
:1004900009E0010A0DE011D0036A265084DEE8CF9E
:1004A00052F10BD0036A265012DEE8CF52F105D08C
:1004B000036A2650B7DEE8CF52F1262A270601014B
:1004C0005151512B580FE96E040EEA6ED8B0EA2A4A
:1004D00052C1EFFFD3D7275204E15151400801E048
:1004E0001D6A51C153F10001C2DF1200266A206A61
:1004F00004011B51010A000107E0030A0AE0010A96
:100500000BE0220A1BE02BD0120E276E030E206E8A
:1005100028D0430E276E25D0020E206E036A0401F8
:100520001A511A0FE96E000E0320EA6EEFCF26F083
:10053000036A26500001CBDD276E13D0036A040145
:100540001A51000163DE266E263C01D006D0036AF4
:10055000265029DE276E05D002D08CDF0ED08ADF30
:100560000CD004011F5305E127501E5D02E21EC49A
:1005700027F0010E1D6E00017FDF0AEF04F001017C
:10058000505306E1040E226E0001F0DEE7D00101B7
:10059000050E226E040E536F980E526F010E516FAE
:1005A00051510F08D8A0DAD051C159F10001A6DE8F
:1005B0000101546B036A51510001B5DDFF0865E08C
:1005C000040E0101546FD8905135036A0001D3DD48
:1005D0000900F5CF03F00101556F03C056F1606BC0
:1005E00051C15FF1626B080E616F000176DE01C0E0
:1005F00058F1010E01010124016E000E0220036E6C
:1006000001C0E9FF040E0324EA6E55C1EFFF606BE1
:1006100051C15FF1626B080E616F00015EDE01C0C7
:1006200058F1020E01010124016E000E0220036E3A
:1006300001C0E9FF040E0324EA6E53C1ECFFED5242
:1006400052C1EFFFD8905135036A000194DD0900D3
:10065000F5CF03F00101522703505323880E576F43
:1006600056B1578156B35783606B51C15FF1626BCE
:10067000080E616F000131DE010101C0E9FF040EC7
:100680000224EA6E57C1EFFF0001036A01015151D4
:10069000000139DDFF0847E001015483606B51C15F
:1006A0005FF1626B080E616F000117DE02C059F145
:1006B00001C058F1040E01015827000E5923020E03
:1006C0005825016E000E5921036E01C0E9FF040E8A
:1006D0000324EA6E53C1ECFFED5252C1EFFFD890F4
:1006E0005135036A00012FDD0900F5CF03F0010148
:1006F000522703505323606B51C15FF1626B080EA8
:10070000616F0001EADD02C059F101C058F1040E29
:1007100001015827000E592358C1E9FF040E59253D
:10072000EA6E400EEF6E01015451060802E10E0E12
:10073000546F036A51510001E6DC010803E0010136
:1007400054890001036A01015151700FE96E0F0EC7
:100750000320EA6E54C1EFFF512B22D7000103EFB3
:1007600004F004011951000A00010DE0010A15E02E
:10077000020A20E0060A2AE0030A31E00E0A31E00C
:10078000010A37E046D01FC058F40401596B020E2D
:100790000101536F00016BDE3DD004011A2D07D01B
:1007A000010E1F160101536B000161DE02D0000132
:1007B00061DE30D004011A2D06D01F820101536B77
:1007C000000155DE02D0000155DE24D0020E1D6E60
:1007D0001AC424F00101536B000149DE1BD086D6F8
:1007E00019D01EC058F4010E0101536F00013FDE05
:1007F00011D004011A5101080AE31AC41EF01AC4E8
:1008000050F10001BCD60101536B000130DE000144
:1008100001D030DE9FEF05F01EC050F104011951E8
:10082000000A000105E00A0A0CE0010A2BE03FD0B3
:100830000401586B596B020E0101536F000117DE62
:1008400037D0010150531BE0010E505D036A0001D7
:10085000D4DC016E04011C5DD8A002D001010FD0D0
:10086000036A1C51280FE96E000E0320EA6EEFCFD9
:1008700058F4010E0101536F0001F9DD02D00001AF
:10088000F9DD16D0010150530FE0036A04011C5139
:10089000280FE96E000E0320EA6E1AC4EFFF010173
:1008A000536B0001E4DD02D00001E4DD01D0E2DDA4
:1008B0009FEF05F00101519150BF5181509F51A10F
:1008C00019D0606B50C15FF1626B080E616F00015F
:1008D00004DD02C053F101C052F1040E01015227A0
:1008E000000E532352C1E9FF040E5325EA6E880E11
:1008F000EF6E0FD0606B50C15FF1626B080E616FDD
:100900000001EBDC010101C0E9FF040E0224EA6EE4
:10091000EF6A00010CEF05F00101519150BF5181C8
:10092000509F51A119D0606B50C15FF1626B080EEE
:10093000616F0001D2DC02C053F101C052F1040E1C
:1009400001015227000E532352C1E9FF040E532523
:10095000EA6E840EEF6E10D0606B50C15FF1626B77
:10096000080E616F0001B9DC010101C0E9FF040E4E
:100970000224EA6E840EEF6E000114EF05F001010F
:10098000519150BF5181509F51A119D0606B50C1FE
:100990005FF1626B080E616F00019FDC02C054F1D1
:1009A00001C053F1040E01015327000E542353C11B
:1009B000E9FF040E5425EA6EEFCF52F110D0606BC0
:1009C00050C15FF1626B080E616F000186DC0101AE
:1009D00001C0E9FF040E0224EA6EEFCF52F152AFDC
:1009E00002D052B502D0000E01D0010E016E0001FE
:1009F00020EF05F01CC45AF149DC01522DE004013E
:100A00001951010A000105E0020A0BE0030A11E096
:100A100022D01CC450F14ED70101536B000127DDD9
:100A20001BD01CC450F178D70101536B00011FDDAE
:100A300013D00401586B596B1CC450F100019FD7AF
:100A4000015203E0010E0401586F020E0101536FC1
:100A500000010DDD01D00EDD9FEF05F0FE0E236ECF
:100A6000120004011C2D01D002D01C534EE119517B
:100A7000000A00010BE0010A0DE0210A1CE0010A56
:100A80001FE0030A30E0010A35E03DD0010E816F1E
:100A9000E5DF3AD0040EEA6E580EE96EE26A330ED4
:100AA000E16E080E016EE6CFEEFF012EFCD71EC4EC
:100AB00053F1DDDC29D0020E816F7E81CFDF24D09F
:100AC000040EEA6E580EE96EE26A2A0EE16E070E17
:100AD000016EE6CFEEFF012EFCD7070E0101536F2A
:100AE0000001C5DC11D01AC47FF00101536B000175
:100AF000BEDC0AD01AC432F01BC431F00101536BC2
:100B00000001B5DC01D0B6DC040100019FEF05F067
:100B10001D6A040118517F0B000A000107E0010A59
:100B200007E0030A07E0230A07E008D01AD607D037
:100B300073D605D05FD703D094D701D09BDC00EFEC
:100B400008F00101606B51C15FF1626B080E616FCB
:100B500000016DEC01F0010101C0E9FF040E022467
:100B6000EA6EEFCF53F15251020806E153AD02D0C5
:100B7000526B02D0010E526F525103081CE1840ED9
:100B8000536F606B51C15FF1626B080E616F0001C2
:100B90006DEC01F002C057F101C056F1040E0101E5
:100BA0005627000E572356C1E9FF040E5725EA6E5B
:100BB000840EEF6E07D0522D03D0C80E536F02D0B3
:100BC000880E536FD8905135036A0001BBEC00F0DA
:100BD0000900F5CF03F00101546F03C055F1606BBC
:100BE00051C15FF1626B080E616F00016DEC01F0A5
:100BF00001C056F1010E01010124016E000E022018
:100C0000036E01C0E9FF040E0324EA6E54C1EFFF36
:100C100055B1538155B35383606B51C15FF1626B22
:100C2000080E616F00016DEC01F0010101C0E9FFE8
:100C3000040E0224EA6E53C1EFFF00011200036AA2
:100C400001015E51700FE96E0F0E0320EA6EEF5244
:100C50001BE0606B5EC15FF1626B080E616F0001AB
:100C60006DEC01F002C060F101C05FF1040E010102
:100C70005F27000E60235FC1E9FF040E6025EA6E66
:100C8000EFCF61F161AF02D0000E01D0010E016E15
:100C90000001120059C15EF1D2DF0152D8B485D0F3
:100CA0000101606B59C15FF1626B080E616F000159
:100CB0006DEC01F002C05FF101C05EF1040E0101B4
:100CC0005E27000E5F23010E5E25016E000E5F2180
:100CD000036E01C0E9FF040E0324EA6E5AC1EFFF60
:100CE0005C51020820E1606B59C15FF1626B080E34
:100CF000616F00016DEC01F002C05FF101C05EF1B7
:100D0000040E01015E27000E5F235EC1E9FF040EA1
:100D10005F25EA6EEFCF5DF15DAD02D05C6B02D076
:100D2000010E5C6F1AD05C51040817E1606B59C169
:100D30005FF1626B080E616F00016DEC01F0010163
:100D400001C0E9FF040E0224EA6EEFCF5DF15DAD54
:100D500003D0010E5C6F01D05C6B5C2D03D0C80E1C
:100D60005D6F02D0880E5D6F5BB15D815BB35D83AB
:100D7000606B59C15FF1626B080E616F00016DEC31
:100D800001F002C05FF101C05EF1040E01015E27B7
:100D9000000E5F235EC1E9FF040E5F25EA6E5DC1B0
:100DA000EFFF010E016E04D00001000E016E010183
:100DB000000112008151010A03E0030A15E028D066
:100DC000EA6A330EE96E040EE26E180EE16E080E4A
:100DD000016EE6CFEEFF012EFCD70101536B00013F
:100DE00037EC02F0816B15D0EA6A2A0EE96E040E28
:100DF000E26E180EE16E070E016EE6CFEEFF012ED9
:100E0000FCD7816B0101536B000137EC02F001D07C
:100E1000816B48EF07F00101606B51C15FF1626BBC
:100E2000080E616F00016DEC01F002C053F101C0CA
:100E300052F1010E01010124016E000E0220036E29
:100E400001C0E9FF040E0324EA6E036AEFCF01F04C
:100E500003C002F000013CEF07F07B91020E01019C
:100E6000516F526F00016DDE12007B817D6B020EAF
:100E70000101516F0001CFD701C07CF07C5301E12B
:100E8000ECDF4FEF07F00101505304E1000192D76E
:100E900006D001015051020803E10001E6D701012B
:100EA0000001120051C16EFF0101515303E0040E15
:100EB000226E02D0020E226E000164EF07F01E6A5D
:100EC0001D6A24C051F1EED7DAEF07F051C15EF18F
:100ED000B6DE015247E00101606B51C15FF1626B08
:100EE000080E616F00016DEC01F002C05AF101C003
:100EF00059F1040E01015927000E5A23020E5925FB
:100F0000016E000E5A21036E01C0E9FF040E032496
:100F1000EA6EECCF58F1ED52EFCF57F158C1EAFF2E
:100F200057C1E9FF53C1E2FF52C1E1FF55C102F0D1
:100F300054C101F0015202E0022A02D0025206E03E
:100F4000E6CFEEFF012EFCD7022EFAD751C159F1A0
:100F500055C15BF154C15AF156C15CF100019ADEF2
:100F6000015002D0000E016E1200020E0101516FFD
:100F7000536B3B0E526F556B7AC054F1020E566F95
:100F80000001A4DF7AC080F07A6B12007A5301E08E
:100F9000ECDFE1EF07F0010150530EE11D2C05D00D
:100FA00000013CEC02F006D001011D50020803E1F3
:100FB000000185D7010106D05051020803E100016C
:100FC000E5D7010100011200213001014E6F4E33BF
:100FD0004E331F0E4E1721524EE1040100513C0BBF
:100FE00001014F6F430E0401001701014F513408F6
:100FF00025E104010451800B01E0046B000188D558
:101000006D98233C07D00101516B030E526F000114
:1010100098DD12D00101516B020E526F000191DD7B
:101020002350FE0809E00101596B5B6B23C05AF1A4
:10103000040E5C6F00012EDE1CD001014F5104082C
:1010400019E1506B00011FDF0101516B020E526F5D
:10105000000177DD2350FE080CE0233C01D009D0CD
:101060000101596B5B6B23C05AF1010E5C6F0001EB
:1010700011DE01018AD02150040816E1430E04015B
:10108000041723680101506B000185DF233C01D068
:1010900009D00101596B5B6B23C05AF1020E5C6FE2
:1010A0000001F8DD71D0010121B432D0606B4EC176
:1010B0005FF1626B080E616F00016DEC01F002C020
:1010C00051F101C050F1010101C001F0040E0224F0
:1010D000036E01C052F1536F606B4EC15FF1626BE2
:1010E000080E616F00016DEC01F0010101C0E9FF24
:1010F000040E0224EA6EEF50430B53C1EAFF52C1C3
:10110000E9FFEF6E4EC150F10001BDDE3DD001019F
:10111000606B4EC15FF1626B080E616F00016DEC98
:1011200001F002C051F101C050F1040E010150273D
:10113000000E512350C101F0040E5125036E50C121
:1011400052F1536F606B4EC15FF1626B080E616FBD
:1011500000016DEC01F002C055F101C054F1040E24
:1011600001015427000E552354C1E9FF040E5525F3
:10117000EA6EEF50430B53C1EAFF52C1E9FFEF6E35
:101180004EC150F1000107DF0101000101EF09F03C
:10119000A19A225201E13ED068523CE068A404D0FA
:1011A00069A402D023EF01F06DA201D033D068AA68
:1011B00004D069AA02D03BEF01F068A204D069A272
:1011C00002D042EF01F068A004D069A002D01AEF6B
:1011D00002F068A804D069A802D02FEF02F068AC32
:1011E00004D069AC02D034EF02F001014D6B68A667
:1011F0000AD069A608D06CCF21F0000118EC02F0EB
:10120000E3D602D0010105D001014D514D2B030859
:10121000EEE2000140EF00F06D6A696A080E6F6E41
:1012200094503009946E226A196AF2BE198EF29EA9
:1012300002EC02F019BEF28E1FEF09F0EDD744EF79
:1012400009F0196AF2BE198EF29E02EC02F019BE84
:10125000F28E6D6A140E6F6E696A6D86010E226ED3
:1012600035EF09F06DB601D0ECD7222C0BD06DBA5A
:1012700009D0686A696AA08AC00EF212110E696EFE
:10128000020E226E1200DAD7EDDF22500208FCE1D6
:1012900086EF0CF01E50016E87EF0CF0010EEA6E27
:1012A000360EE96EEF500EE00F0E016E006A002E52
:1012B000FED7012EFBD78F0E006E002EFED700004A
:1012C000EF2EF2D712007BB101D0FDD77D517D2BDF
:1012D000A00FE96E040EEA6ED8B0EA2AEFCF36F11D
:1012E0007C517D5D07E3196AF2BE198EF29EB5DD71
:1012F00019BEF28E010136C101F000011EEF0BF0A4
:1013000001013991F2BE3981F29E00017A513E0805
:1013100002E23E0E7A6F7A517A2B036A3B0FE96E36
:10132000000E0320EA6E38C1EFFFF29E010139B1D1
:10133000F28E00019FEF09F037C138F1E1D7196A49
:10134000F2BE198EF29E020E01015E6F000177DC83
:1013500019BEF28E015207E0196AF2BE198EF29E92
:1013600004DE19BEF28ED0EF09F07A513E0815E284
:10137000196AF2BE198EF29E020E01015E6F000123
:101380005EDC19BEF28E015207E0196AF2BE198EB8
:10139000F29EEBDD19BEF28EE8D736C137F1CCD71D
:1013A000120001013D6B3E6B3E5101081DE33AC145
:1013B000E9FF3BC1EAFFEFCF3CF13C51400808E2B6
:1013C0003D51100DF3503C25BF0F0A0F3D6F06D065
:1013D0003D51100DF3503C25D00F3D6F3E513E2B3B
:1013E0003A2BD8B43B2BE0D73DC101F000011200ED
:1013F000F250036EF29EA68EA6840F01550EA76EC4
:10140000AA0EA76EA68200000350F212000112007D
:10141000D08CA69CF6501F0B006EE00EF6160A004C
:1014200046C101F0006608D0F650010F3F0B04E101
:10143000A6880900DDDF0A00006607D0EECFF5FFC1
:10144000015204E00F00010603D000060B000C005F
:101450001F0EF6141F0AE6E1CBDF0166E3D7F86A38
:1014600054EF0AF0823D07D0833D05D0843D03D080
:10147000853D01D025D0D08C84C0F8FF83C0F7FF14
:1014800082C0F6FFA688A69CB3DFF86A84C0F8FF86
:1014900083C0F7FF82C0F6FFEA6A860EE96E400E4F
:1014A0000101466F0001B4D7006801680268036853
:1014B00003C085F002C084F001C083F000C082F058
:1014C000120047C101F046C100F00066012A090080
:1014D000F5CFEEFF002EFBD7012EF9D7F86AB2EF59
:1014E0000AF001013651C00B3E6F37C13FF138C1E0
:1014F00040F139C141F13E51365D426F3F5137599C
:10150000436F3C513D11D8B47BD0000182510101A1
:101510003E5D0FE10001835101013F5D0AE10001E1
:1015200084510101405D05E1000185510101415DEA
:101530001AE0000197DF41C185F040C184F03FC14E
:1015400083F03EC182F040C1F8FF3FC1F7FF3EC1CA
:10155000F6FFEA6A860EE96E0101476B400E466FA0
:101560000001AFD70101400ED8804255006E000E39
:101570004355036E00C001F003503D5D0CE303E1F1
:101580003C51015C08E2400ED8804255446F000E89
:101590004355456F04D03DC145F13CC144F1860E31
:1015A0004225016E000E4321036E01C046F1476FD4
:1015B000EA6E01C0E9FF3BC1E2FF3AC1E1FF45C16C
:1015C00002F044C101F0015202E0022A02D00252AC
:1015D00006E0E6CFEEFF012EFCD7022EFAD74451EB
:1015E0003A2745513B23400E3E27000E3F23402320
:1015F0004123436B426B44513C5F45513D5B81D776
:1016000000010CEF0CF0C693CC6BCB6BC6B311D1C1
:1016100029DE7BB101D0FAD7F56BFA0ECD6F7BB125
:101620000AD0010E0101366F000138DECD07CD531F
:1016300001E119D002D0FA0ECD6F45D601C0D3F02A
:10164000F551F52B036AF60FE96E000E0320EA6EE2
:10165000D3C0EFFFD3510D0806E0D3510A0803E0D1
:10166000F5514008DCE2CD5301E1D0D7130E010162
:10167000366F00017ADEC681F6513A08D8A4CCD084
:1016800001013B6BF70E3A6F00018BDE01C0D4F015
:1016900001013B6BF90E3A6F000183DE01C036F1A8
:1016A00001013B6BFB0E3A6F00017BDE36C1CAF0D5
:1016B00001C0C9F001013B6BFD0E3A6F000171DE04
:1016C00001C0C8F0CBC0D0F0CCC0D1F0C9C0CEF0C2
:1016D000CAC0CFF0C76B010ED36F030EF55DD35DAB
:1016E00015E2036AD351F60F016E000E032201C00A
:1016F00036F103C037F103C03BF101C03AF10001FC
:1017000050DE0150C727020ED327E7D7FF0ED8803F
:10171000C755010FC76F030EF55D036AF60F016E23
:10172000000E032201C036F103C037F103C03BF1C4
:1017300001C03AF1000135DE0150C75D02E0C691FB
:101740006BD0C82D02D0C68367D0C851040812E1FF
:1017500001013B6B3A69000124DE01C036F1010E44
:1017600001013B6F3A6F00011CDE36C1CCF001C0B5
:10177000CBF052D0C85350E1D15305E1D05303E12F
:10178000CF511F0849E2D15347E1D05345E1CF5132
:101790007F0842E303E1CE51FE083EE3090ED36F1A
:1017A000D26B030EF55DD35D26E2D251D22B036AD4
:1017B000D50F016E000E032201C036F1010103C0F6
:1017C00037F1036A0001D351F60F016E000E0322B8
:1017D00001C038F103C039F103C03BF101C03AF157
:1017E0000001DFDD37C1EAFF36C1E9FF01C0EFFFCD
:1017F000020ED327D6D7D1C039F1D0C038F1CFC02F
:1018000037F1CEC036F101013B6BD50E3A6F3D6B1F
:10181000D4C03CF1000165D6C6A105D0060E010179
:10182000366F0001A2DD110E0101366F00019DDD52
:10183000EDD618DE060E0101366F000196DD110EA1
:101840000101366F000191DD640E0101366F000168
:1018500025DDFF008AEF0CF0F86AD09E078E230E7C
:10186000006E010E016E020EE96E000EEA6EEE6A67
:10187000002EFDD7012EFBD7DA0E006E040E016E8E
:10188000260EE96E000EEA6EEE6A002EFDD7012EDE
:10189000FBD7E00E006E030E016E200EE96E050E02
:1018A000EA6EEE6A002EFDD7012EFBD7EA6AE96ADE
:1018B000226A276A7A6B816B006801680268036894
:1018C00003C085F002C084F001C083F000C082F044
:1018D000C150C00B0F09C16E070EB46E1A6A040E18
:1018E0001B6E0C0E1C6E928480B414D0928480A463
:1018F000FDD794948B84010E256E196AF2BE198E61
:10190000F29EC5EC01F019BEF28EBDD4C3D40152D3
:0C191000FDE079D6256A00EF10F003001E
:04200000FFD71200F4
:020000040030CA
:0E00000021CE3E1E008581000FC00FE00F4094
:00000001FF
;PIC18F2550
;CRC=E0BF  CREATED="07-jul-13 21:18"
