:042000004FEF1AF094
:08200800056ED8CF06F0E0CF11
:1020100007F00001E9CF0DF0EACF08F0E1CF09F0B9
:10202000E2CF0AF0D9CF0BF0DACF0CF0F3CF14F0F7
:10203000F4CF15F0FACF16F000C00FF001C010F089
:1020400002C011F003C012F004C013F0A0AA2CEFDC
:1020500010F0A1BA1EEF18F00FC000F010C001F090
:1020600011C002F012C003F013C004F00DC0E9FF6C
:1020700008C0EAFF088E09C0E1FF0AC0E2FF0BC0FA
:10208000D9FF0CC0DAFF14C0F3FF15C0F4FF16C06F
:10209000FAFF055007C0E0FF06C0D8FF1000F2CFDE
:1020A0000EF0F29EF76AB80FF66E200EF7220900C6
:1020B000F5500EBEF28E1200280C0106F76ACC0F06
:1020C000F66E200EF7220900F5501200000302FF01
:1020D000FFFFFFFFFFFFFFFFFFFFFFFFF76AEC0FB0
:1020E000F66E200EF7220900F550120000FF02FFE5
:1020F000FFFFFFFFFFFFFFFFFFFFFFFFF76A0C0F70
:10210000F66E210EF7220900F550120008000800B3
:10211000400000000000000000000000000000007F
:10212000000000000000000000000000F76A3C0F03
:10213000F66E210EF7220900F5501200080000008B
:10214000400000000000000000000000000000004F
:10215000000000000000000000000000F76A6C0FA3
:10216000F66E210EF7220900F55012000902430015
:10217000020100803209040000010202010005246E
:1021800000100104240202052406000105240100B8
:1021900001070581030800FA09040100020A000092
:1021A000000705020240000107058202400001000D
:1021B000F76AC00FF66E210EF7220900F5501200E3
:1021C0000200F76AD20FF66E210EF7220900F550D1
:1021D000120012171B20FFFFFFFFF76AEA0FF66ECF
:1021E000210EF7220900F550120012011001020021
:1021F000000861043300000101020001F76A0C0FBE
:10220000F66E220EF7220900F550120004030904AD
:1022100008034300430053001803530045005200D5
:10222000490041004C002000440045004D004F0093
:10223000F2CF0EF0F29EF76A4A0FF66E220EF722E8
:102240000900F5500EBEF28E12000C505255454258
:10225000412030310000F2CF0EF0F29EF76A700F8D
:10226000F66E220EF7220900F5500EBEF28E120015
:102270000C434F52524543544F006D92699468A4E9
:1022800002D06894FCD72AEF18F0080E0401016F01
:10229000040E036F180E026F880E006F046B040E9D
:1022A000076F200E066F0001000C70A002D0EDDF5A
:1022B0007090689A33EF18F06A6A689239EF18F0F4
:1022C000036A0201D451700FE96E0F0E0320EA6E0B
:1022D000EF6AD451080DF350D66BE96E040ED62583
:1022E000EA6EEF6AD451080DF350D66BD56F040E29
:1022F000D527000ED623D5C2E9FF040ED625EA6EF7
:10230000EF6A0001000C010E0201D36FD3510F08D8
:1023100007E3D3C2D4F20001D3DF0201D32BF6D7F7
:102320000001000C356A346A250E336E800E326E61
:10233000366A376A080E386E876B86913A6A396A50
:10234000826B8391B5EF11F00201C96BC95101088D
:102350000AE3036AC951300FE96E000E0320EA6EEA
:10236000EF6AC92BF3D70001DDD7276A010E286E6B
:10237000266AC6EF11F06896000C6A6A686A9F0EBA
:102380006B6E3D0E696E6E6ABEDFDED7160E706E26
:1023900068A602D0F0DFFCD76D9877DF030E2B6EB6
:1023A0003FEF18F0698468986D8245EF18F0689CDB
:1023B0004BEF18F0CEC22CF0000CFF0E2C6E000C70
:1023C0000201CC6B2F5241E0CC5107083EE329506B
:1023D000000105E0020A0FE0010A19E024D0036AB7
:1023E0002E50F2CFCEF2F29EB9DE0201CEBFF28EB7
:1023F000CD6F000118D0036A2E50F2CFCEF2F29EBC
:10240000FDDE0201CEBFF28ECD6F00010CD0036A5B
:102410002E50F2CFCEF2F29EE0DE0201CEBFF28E5F
:10242000CD6F000100D02E2A2F060201CC51CC2BFB
:10243000036A200F016E000E032201C0E9FF040EA3
:102440000324EA6ECDC2EFFFBDD72F5204E1CC5179
:10245000080801E0266ACCC2CEF20001ABDF000C16
:102460002E6A296A04011B51010A000107E0030AD0
:102470000AE0010A0BE0220A22E042D0120E2F6E7F
:10248000030E296E3FD0430E2F6E3CD0020E296EF4
:10249000036A04011A51220FE96E000E0320EA6E4E
:1024A000EFCF2EF0036A2E50F2CFCBF2F29E000156
:1024B000A5DE0201CBBFF28E2F6E000123D0036A8E
:1024C00004011A51F2CFCBF2F29E00017ADE020132
:1024D000CBBFF28E2E6E2E3C01D00FD0036A2E5051
:1024E000F2CFCBF2F29E000139DE0201CBBFF28EB9
:1024F0002F6E000107D004D0020100015EDF0ED074
:102500005CDF0CD004011F5305E12F501E5D02E279
:102510001EC42FF0010E266E000152DFD2EF13F021
:102520000201CB5306E1040E2B6E0001ECDEDED07F
:102530000201050E2B6E040ECE6F280ECD6F010E1C
:10254000CC6FCC510F08D8A0D1D0CCC2D4F20001AE
:10255000B7DE0201CF6B036ACC51F2CFD3F2F29E09
:102560000001BCDD0201D3BFF28EFF085BE0040E68
:10257000CF6FD890CC35036AF2CFD3F2F29E000130
:10258000D5DD0900F5CF03F00201D3BFF28ED06F85
:1025900003C0D1F2CC51080DF350D46BD36F010EB0
:1025A000D325016E000ED421036E01C0E9FF040E95
:1025B0000324EA6ED0C2EFFFCC51080DF350D46B68
:1025C000D36F020ED325016E000ED421036E01C01D
:1025D000E9FF040E0324EA6ECEC2ECFFED52CDC239
:1025E000EFFFD890CC35036AF2CFD3F2F29E000110
:1025F0009DDD0900F5CF03F00201D3BFF28ECD2798
:102600000350CE23880ED26FD1B1D281D1B3D28301
:10261000CC51080DF350D46BE96E040ED425EA6E4C
:10262000D2C2EFFF036ACC51F2CFD3F2F29E000187
:1026300045DD0201D3BFF28EFF083BE0CF83CC51D2
:10264000080DF350D46BD36F040ED327000ED423A0
:10265000020ED325016E000ED421036E01C0E9FFE6
:10266000040E0324EA6ECEC2ECFFED52CDC2EFFFA2
:10267000D890CC35036AF2CFD3F2F29E00013EDD52
:102680000900F5CF03F00201D3BFF28ECD2703502E
:10269000CE23CC51080DF350D46BD36F040ED32747
:1026A000000ED423D3C2E9FF040ED425EA6E400EF7
:1026B000EF6ECF51060802E10E0ECF6F036ACC51C8
:1026C000F2CFD3F2F29E0001F9DC0201D3BFF28E09
:1026D0000108D8A4CF89036ACC51700FE96E0F0EA0
:1026E0000320EA6ECFC2EFFFCC2B2BD70001CAEF3D
:1026F00013F00401195100010DE0010A15E0020A6E
:1027000020E0060A2AE0030A31E00E0A31E0010A5D
:1027100037E046D028C020F40401216B020E0201EC
:10272000CE6F000147DE3ED004011A2D07D0010E06
:1027300028160201CE6B00013DDE02D000013DDE15
:1027400031D004011A2D06D028820201CE6B00017F
:1027500031DE02D0000131DE25D0020E266E1AC411
:102760002DF00201CE6B000125DE1CD079D61AD0E7
:1027700027C020F4010E0201CE6F00011BDE12D033
:1027800004011A5101080AE31AC427F01AC4CBF253
:102790000001C6D60201CE6B00010CDE000102D0A2
:1027A0000CDE00D071EF15F027C0CBF204011951F7
:1027B000000105E00A0A0CE0010A31E045D00401FD
:1027C000206B216B020E0201CE6F0001F3DD3ED0C3
:1027D0000201CB5321E0010ECB5D036AF2CFCCF2B4
:1027E000F29E0001E5DC0201CCBFF28E016E040115
:1027F0001C5DD8A002D002010FD0036A1C51300F1B
:10280000E96E000E0320EA6EEFCF20F4010E020104
:10281000CE6F0001CFDD02D00001CFDD17D0020165
:10282000CB530FE0036A04011C51300FE96E000E18
:102830000320EA6E1AC4EFFF0201CE6B0001BADD7D
:1028400002D00001BADD02D0B8DD00D071EF15F082
:102850000201CC91CBBFCC81CB9FCCA112D0036A1B
:10286000CB51F2CFCDF2F29E000128DC0201CDBFA8
:10287000F28EFF0802E1000E01D0010E016E12D0AF
:1028800011D0036ACB51F2CFCDF2F29E000126DCCB
:102890000201CDBFF28EFF0802E1000E01D0010E51
:1028A000016E00D00001CEEF14F00201CC91CBBF3D
:1028B000CC81CB9FCCA111D0CB51080DF350CE6B66
:1028C000CD6F040ECD27000ECE23CDC2E9FF040E3E
:1028D000CE25EA6E880EEF6E09D0CB51080DF3506D
:1028E000CE6BE96E040ECE25EA6EEF6A0001DDEFD5
:1028F00014F00201CC91CBBFCC81CB9FCCA111D0E5
:10290000CB51080DF350CE6BCD6F040ECD27000ECA
:10291000CE23CDC2E9FF040ECE25EA6E840EEF6E03
:102920000AD0CB51080DF350CE6BE96E040ECE25C4
:10293000EA6E840EEF6E0001E5EF14F00201CC9117
:10294000CBBFCC81CB9FCCA111D0CB51080DF35084
:10295000CF6BCE6F040ECE27000ECF23CEC2E9FF81
:10296000040ECF25EA6EEFCFCDF20AD0CB51080D81
:10297000F350CF6BE96E040ECF25EA6EEFCFCDF2A8
:10298000CDAF02D0CDB502D0000E01D0010E016E48
:102990000001F1EF14F01CC4CBF25AD701522EE023
:1029A00004011951010A000105E0020A0BE0030AC3
:1029B00011E022D01CC4CBF278D70201CE6B00010B
:1029C000F9DC1CD01CC4CBF294D70201CE6B000101
:1029D000F1DC14D00401206B216B1CC4CBF200018C
:1029E000ADD7015203E0010E0401206F020E020177
:1029F000CE6F0001DFDC02D0E0DC00D071EF15F01B
:102A0000FE0E2C6E000C04011C2D01D002D01C53B4
:102A10004EE1195100010BE0010A0DE0210A1CE012
:102A2000010A1FE0030A30E0010A35E03DD0010E43
:102A3000896FE6DF3BD0040EEA6E200EE96EE26A93
:102A40003B0EE16E080E016EE6CFEEFF012EFCD7C5
:102A50001EC4CEF2AFDC2AD0020E896F8681D0DF91
:102A600025D0040EEA6E200EE96EE26A320EE16EA7
:102A7000070E016EE6CFEEFF012EFCD7070E020116
:102A8000CE6F000197DC12D01AC487F00201CE6B22
:102A9000000190DC0BD01AC43AF01BC439F00201DB
:102AA000CE6B000187DC02D088DC00D0040100017D
:102AB00071EF15F0266A040118517F0B000107E041
:102AC000010A07E0030A07E0230A07E008D011D64D
:102AD00008D06AD606D05FD704D095D702D06DDC77
:102AE00000D07DEF17F00201CB51080DF350D16BF0
:102AF000E96E040ED125EA6EEFCFCDF2CC5102087B
:102B000006E1CDAD02D0CC6B02D0010ECC6FCC5122
:102B1000030813E1840ECD6FCB51080DF350D16B38
:102B2000D06F040ED027000ED123D0C2E9FF040ECF
:102B3000D125EA6E840EEF6E07D0CC2D03D0C80EDF
:102B4000CD6F02D0880ECD6FD890CB35036AF2CF0F
:102B5000D0F2F29E000196EC10F00900F5CF03F0E0
:102B60000201D0BFF28ECE6F03C0CFF2CB51080D61
:102B7000F350D16BD06F010ED025016E000ED12124
:102B8000036E01C0E9FF040E0324EA6ECEC2EFFF1C
:102B9000CFB1CD81CFB3CD83CB51080DF350D16BE5
:102BA000E96E040ED125EA6ECDC2EFFF0001000CE4
:102BB000036A0201D951700FE96E0F0E0320EA6E0D
:102BC000EF5212E0D951080DF350DB6BDA6F040EAF
:102BD000DA27000EDB23DAC2E9FF040EDB25EA6EFA
:102BE000EFCFDAF2DAAF02D0000E01D0010E016EA3
:102BF0000001000CD4C2D9F2DBDF015264E0020113
:102C0000D451080DF350DA6BD96F040ED927000E9A
:102C1000DA23010ED925016E000EDA21036E01C000
:102C2000E9FF040E0324EA6ED5C2EFFFD751020874
:102C300017E1D451080DF350DA6BD96F040ED92780
:102C4000000EDA23D9C2E9FF040EDA25EA6EEFCFCF
:102C5000D8F2D8AD02D0D76B02D0010ED76F13D007
:102C6000D751040810E1D451080DF350DA6BE96E26
:102C7000040EDA25EA6EEFCFD8F2D8AD03D0010EFC
:102C8000D76F01D0D76BD72D03D0C80ED86F02D025
:102C9000880ED86FD6B1D881D6B3D883D451080D59
:102CA000F350DA6BD96F040ED927000EDA23D9C29C
:102CB000E9FF040EDA25EA6ED8C2EFFF010E016EBD
:102CC00005D000D00001000E016E02010001000CD1
:102CD0008951010A05E0020A14E0010A19E02CD02A
:102CE000EA6A3B0EE96E040EE26E180EE16E080E03
:102CF000016EE6CFEEFF012EFCD7030E896F80DE5A
:102D00001DD00201CE6B0001DAEC11F0896B16D0F8
:102D1000EA6A320EE96E040EE26E180EE16E070EDC
:102D2000016EE6CFEEFF012EFCD7896B0201CE6B60
:102D30000001DAEC11F002D0896B00D0C9EF16F077
:102D40000201CC51080DF350CE6BCD6F010ECD2595
:102D5000016E000ECE21036E01C0E9FF040E0324B4
:102D6000EA6E036AEFCF01F003C002F00001C0EF8A
:102D700016F08381856B020E0201CC6F0001E0D753
:102D800001C084F0D0EF16F00201CB5304E1000142
:102D90009FD706D00201CB51020803E10001E9D719
:102DA00002010001000CCCC26EFF0201CC5303E013
:102DB000040E2B6E02D0020E2B6E0001E5EF16F012
:102DC000276A266A2DC0CCF2EED757EF17F0CCC297
:102DD000D9F2EEDE015241E00201CC51080DF35070
:102DE000D56BD46F040ED427000ED523020ED42544
:102DF000016E000ED521036E01C0E9FF040E03240D
:102E0000EA6EECCF03F0ED52EFCFD2F203C0D3F273
:102E1000D3C2EAFFD2C2E9FFCEC2E2FFCDC2E1FFD8
:102E2000D0C202F0CFC201F0015202E0022A02D069
:102E3000025206E0E6CFEEFF012EFCD7022EFAD7B3
:102E4000CCC2D4F2D0C2D6F2CFC2D5F2D1C2D7F220
:102E50000001D0DE015003D000D0000E016E3EEF25
:102E600017F0020E0201CC6FCE6B430ECD6FD06B0C
:102E700082C0CFF2020ED16F0001A9D782C088F0C4
:102E8000826B46EF17F0825301E0EBD75EEF17F04D
:102E90000201CB530EE1262C05D00001E0EC11F02D
:102EA00006D002012650020803E1000189D7020181
:102EB00006D0CB51020803E10001E5D70201000171
:102EC000000C2A300201C96FC933C9331F0EC9175C
:102ED0002A524FE1040100513C0B0201CA6F430E1C
:102EE000040100170201CA51340825E1040104510C
:102EF000800B01E0046B0001DDD56D982C3C07D000
:102F00000201CB6B030ECC6F0001EDDD12D002018C
:102F1000CB6B020ECC6F0001E6DD2C50FE0809E001
:102F20000201D46BD66B2CC0D5F2040ED76F000112
:102F300061DE1DD00201CA5104081AE1CB6B000109
:102F400023DF0201CB6B020ECC6F0001CCDD2C50D5
:102F5000FE080CE02C3C01D009D00201D46BD66BEA
:102F60002CC0D5F2010ED76F000144DE00D0020163
:102F700062D02A50040818E1430E04010417FF0E22
:102F80002C6E0201CB6B000183DF2C3C01D00AD0F8
:102F90000201D46BD66B2CC0D5F2020ED76F0001A4
:102FA00029DE00D047D002012AB41DD0C951080D36
:102FB000F350CC6B016E040ECC25036EC951080D85
:102FC000F350CE6BE96E040ECE25EA6EEF50430B44
:102FD00003C0EAFF01C0E9FFEF6EC9C2CBF20001F6
:102FE000D3DE28D00201C951080DF350CC6BCB6F52
:102FF000040ECB27000ECC23CBC201F0040ECC254F
:10300000036EC951080DF350CE6BCD6F040ECD2762
:10301000000ECE23CDC2E9FF040ECE25EA6EEF509E
:10302000430B03C0EAFFCBC2E9FFEF6EC9C2CBF28C
:1030300000012EDF0201000157EF18F0A19A2B5278
:1030400001E13ED068523CE068A404D069A402D0FB
:103050003DEF11F06DA201D033D068AA04D069AA67
:1030600002D055EF11F068A204D069A202D05CEF43
:1030700011F068A004D069A002D0BDEF11F068A8DB
:1030800004D069A802D0D2EF11F068AC04D069ACCA
:1030900002D0D7EF11F00201C86B68A60AD069A66A
:1030A00008D06CCF2AF00001BBEC11F00AD702D097
:1030B000020105D00201C851C82B0308EEE200014D
:1030C0002CEF10F0020EEA6EBF0EE96EEF500EE02C
:1030D0000F0E016E006A002EFED7012EFBD78F0E59
:1030E000006E002EFED70000EF2EF2D7000C02017A
:1030F000C639F00B006E0F0E8A1400108A6E0000A5
:103100008A80070E006E002EFED700D08A90000144
:10311000000C8150006E00380F0B016E000C0F0E7A
:103120009314F009936E8A8400008A800000F1DF16
:1031300001C0C6F28A9000008A80030E006E002E45
:10314000FED700D0E6DF01C0C5F28A900F0E9314BF
:10315000936E0201C639006EF00E00160050C511C4
:10316000016E0001B9EF18F09390939293948A92B4
:10317000D6D701C0C5F2020101AE02D00001F8D7D6
:103180008A92C3B18A8200008A9400008A90C4396E
:10319000C56F0F0EC517C5C2C6F20001A8DF020138
:1031A000C4510F0BC56FC66F0001A1DF000C0F0EDD
:1031B0009314936E9390939293948A928A948A90A4
:1031C0000F0E0201BF6F00017DDF010E0201B16F22
:1031D000B15103080CE3030EC66F000188DF050E32
:1031E0000201BF6F00016EDF0201B12BF1D7020EA9
:1031F000C66F00017CDF0201B16BB151030813E31C
:10320000036AB151F2CFB2F2F29E00014FEC10F01E
:103210000201B2BFF28EB26FC36BC46F0001A4DFB4
:103220000201B12BEAD70001CBEF1BF00201C02D48
:1032300001D003D0400EC16F01D0C16B010EBF5D44
:10324000C127C1518009C26FC36BC46F00018CDFFD
:10325000000C0201BE51070A000107E00B0A0CE056
:10326000060A16E0020A1CE022D0010E0201BF6F1E
:10327000C06F0001DBDF23D00201C36B010EC46FFE
:10328000000172DF020E0201BF6F00011BDF17D0C9
:10329000010E0201BF6F020EC06F0001C7DF0FD029
:1032A0000201C36B100EC46F00015EDF08D0010E77
:1032B0000201C36FBEC2C4F2000156DF00D0000C91
:1032C0009EA8FED70201B1C2ADFF0001000C9EAA6C
:1032D000FED7ABCF8AF0AECF01F08AA302D0AB9875
:1032E000AB889BEF19F001018E6B010E8D6F8C6B1B
:1032F0008B6B8A6B896B8D5302E18E5340E09EBAD3
:1033000014D08D2BD8B48E2B9F0E006E002EFED7BE
:1033100000D08E51C20808E2FF0A03E18D514F0828
:1033200003E28E6B8D6B01D0EAD78D5302E18E5391
:1033300025E00001CCD701C085F1010185510D08C0
:103340001DE08B0E8925E96E000E8A21EA6E85C18B
:10335000EFFF010E8927D8B08A2BD8B48B2BD8B4B5
:103360008C2B8B0E8925E96E000E8A21EA6EEF6A9E
:103370000001868301018E6B010E8D6FBCD70001A9
:10338000000CBDC2BFF2BCC2BEF2BFC203F002015C
:10339000BEC2E9FFBFC2EAFFEF5206E0BE2BD8B4BF
:1033A000BF2B0001F2D70201BC51BE5D006EBD51C2
:1033B000BF59036E00C001F00001E8EF19F00C0ED8
:1033C0000201B96FB2C2BDF2B1C2BCF20001D9D7DD
:1033D00001C0BBF2036A0201BB51B125B76FB25104
:1033E0000320B86FB2C2B6F2B1C2B5F2B651B85D41
:1033F00054E303E1B551B75D50E3100EB525E96E16
:10340000000EB621EA6EEFCFBAF2100EB525E96EC6
:10341000000EB621EA6EEF6AB9C2BEF2000119DFF2
:10342000B6C2EAFFB5C2E9FF000EEF100FE0EACF27
:10343000BDF2E9CFBCF2EFCFBEF20BDFBDC2EAFFB7
:10344000BCC2E9FFE92AD8B4EA2AEED7100E02017D
:10345000B525E96E000EB621EA6EBAC2EFFFB9518A
:103460000A0803E10C0EB96F02D00A0EB96FB4C29C
:10347000BCF2BC2BBC07D8B406D0FF0EBF6F000156
:1034800021DE0201F7D7B3C2BFF200011BDE100E2E
:103490000201B527000EB623A9D70001000CF86A77
:1034A000D09E088EEA6AE96AB886E10EAF6E040E15
:1034B000B06EA60EAC6E900EAB6EC150C00B0F0975
:1034C000C16E070EB46E186A196A1A6A100E1B6E66
:1034D000080E1C6E040E1D6E020E1E6E010E1F6E77
:1034E000206A216A226A040E236E0C0E246E2B6A57
:1034F0002F6A826B896B8A6B8693010E01018D6F37
:103500008E6B530E916F430E926F530E936F946BAD
:10351000956B966B976B986B996B9A6B9B6B9C6B8F
:103520009D6B9E6B9F6BA06BA16BA26BA36BA46B3F
:10353000A56BA66BA76BA86B450EA96F430EAA6F70
:10354000530EAB6FAC6BAD6BAE6BAF6BB06BB16B67
:10355000B26BB36BB46BB56BB66BB76BB86BB96B67
:10356000BA6BBB6BBC6BBD6BBE6BBF6BC06B490EEC
:10357000C16F500EC26F410EC36FC46BC56BC66B7B
:10358000C76BC86BC96BCA6BCB6BCC6BCD6BCE6B8F
:10359000CF6BD06BD16BD26BD36BD46BD56BD66B3F
:1035A000D76BD86B490ED96F500EDA6F480EDB6FB0
:1035B000DC6BDD6BDE6BDF6BE06BE16BE26BE36BB7
:1035C000E46BE56BE66BE76BE86BE96BEA6BEB6B67
:1035D000EC6BED6BEE6BEF6BF06B530EF16F420E1D
:1035E000F26F440EF36F2D0EF46F440EF56F490E1B
:1035F000F66F560EF76F490EF86F530EF96F4F0EB8
:10360000FA6F520EFB6FFC6BFD6BFE6BFF6B0201E2
:10361000006B016B026B036B046B056B066B076B36
:10362000086B460E096F570E0A6F560E0B6F0C6B28
:103630000D6B0E6B0F6B106B116B126B136B146BAE
:10364000156B166B176B186B196B1A6B1B6B1C6B5E
:103650001D6B1E6B1F6B206B450E216F226B236B46
:10366000246B256B266B276B286B296B2A6B2B6BC6
:103670002C6B2D6B2E6B2F6B306B316B326B336B76
:10368000346B356B366B376B386B650E396F3A6B55
:103690003B6B3C6B3D6B3E6B3F6B406B416B426BDE
:1036A000436B446B456B466B476B486B496B4A6B8E
:1036B0004B6B4C6B4D6B4E6B4F6B506B440E516FA5
:1036C000490E526F520E536F546B556B566B576BBE
:1036D000586B596B5A6B5B6B5C6B5D6B5E6B5F6BB6
:1036E000606B616B626B636B646B656B666B676B66
:1036F000686B430E696F4C0E6A6F460E6B6F6C6B96
:103700006D6B6E6B6F6B706B716B726B736B746BDD
:10371000756B766B776B786B796B7A6B7B6B7C6B8D
:103720007D6B7E6B7F6B806B730E816F610E826F22
:103730006C0E836F690E846F720E856F866B876B5C
:10374000886B896B8A6B8B6B8C6B8D6B8E6B8F6BC5
:10375000906B916B926B936B946B956B966B976B75
:10376000986B996B9A6B9B6B9C6B9D6B9E6B9F6B25
:10377000A06BA16BA26BA36BA46BA56BA66BA76BD5
:10378000A86BA96BAA6BAB6BAC6BAD6BAE6BAF6B85
:10379000B06B00010CD50201B16BB151000118EC06
:1037A00011F00201B12B006EBE6F000152DD0A0E56
:1037B0000201B15DF2E1110EB16F000181DD0D0E6C
:1037C0000201B16F00017CDD8EDD0201B26B8B0E58
:1037D000B16F010EB46FF40EB36F0001F0DD910E06
:1037E0000201B16F00016CDD0D0E0201B16F00012D
:1037F00067DD79DD0201B26B8B0EB16F010EB46F24
:10380000F40EB36F0001DBDD090E0201B16F0001A0
:1038100057DD200E0201B16F000152DD010E0201E1
:10382000BF6F00014FDC480E0201B16F000148DD9F
:103830004F0E0201B16F000143DD4C0E0201B16F6A
:1038400000013EDD410E0201B16F000139DD2E0E97
:103850000201B16F000134DD540E0201B16F0001AD
:103860002FDD580E0201B16F00012ADD540E020156
:10387000B16F000125DD0D0E0201B16F000120DDE9
:1038800032DD0201B26B8B0EB16F010EB46FF40E1C
:10389000B36F000194DD080E0201B16F000110DD6D
:1038A000200E0201B16F00010BDD4F0E0201B16F5E
:1038B000000106DD18DD0201B26B8B0EB16F010E47
:1038C000B46FF40EB36F00017ADD0A0E0201B16F1E
:1038D0000001F6DC200E0201B16F0001F1DC010EE7
:1038E0000201BF6F000162EC18F0480E0201B16FD7
:1038F0000001E6DC4F0E0201B16F0001E1DC4C0E6D
:103900000201B16F0001DCDC410E0201B16F000168
:10391000D7DC2E0E0201B16F0001D2DC540E020181
:10392000B16F0001CDDC580E0201B16F0001C8DC9F
:10393000540E0201B16F0001C3DC0D0E0201B16F24
:103940000001BEDCD0DC0201B26B8B0EB16F010E48
:10395000B46FF40EB36F000132DD0201B16BB151EF
:1039600000012BEC11F00201B12B006EBE6F0001C3
:1039700070DC090E0201B15DF2E1120EB16F0001BF
:103980009FDC0D0E0201B16F00019ADCACDC02017C
:10399000B26B8B0EB16F010EB46FF40EB36F0001FA
:0439A0000EDD030035
:020000040030CA
:0E000000210E3E1E0081810007C007E0074070
:00000001FF
;PIC18F2455
;CRC=6EAA  CREATED="12-feb-11 00:17"
