:0600000054EF24F0000C97
:08000800056ED8CF06F0E0CF31
:1000100007F00001E9CF0DF0EACF08F0E1CF09F0D9
:10002000E2CF0AF0D9CF0BF0DACF0CF0F3CF14F017
:10003000F4CF15F0FACF16F000C00FF001C010F0A9
:1000400002C011F003C012F004C013F0F2AA2CEFAA
:1000500000F0F2B462EF00F00FC000F010C001F049
:1000600011C002F012C003F013C004F00DC0E9FF8C
:1000700008C0EAFF088E09C0E1FF0AC0E2FF0BC01A
:10008000D9FF0CC0DAFF14C0F3FF15C0F4FF16C08F
:10009000FAFF055007C0E0FF06C0D8FF1000F2CFFE
:1000A0000EF0F29EF76AB80FF66E000EF722090006
:1000B000F5500EBEF28E1200425554544F4E20435E
:1000C0003D255500502AD8B4512A532A53501308BD
:1000D00002E2522A536A6D0ED76E830ED66EF294E8
:1000E0002CEF00F01C6A020E1D6E030E1E6E040E35
:1000F0001F6E050E206E060E216E09EF25F0C00E54
:10010000186EA80E196E1A6A6E0E1B6EC00E266E41
:10011000A80E276E286A010E296EFF0E226E236E2E
:10012000246E256A0BEF25F0C00E0101906FA80E1A
:10013000916F926B6F0E936F00010DEF25F0C080F1
:10014000C082C084C09EC280C150C00B0E09C16E67
:1001500092501109926E93501D0B0509936E7C0EFF
:1001600094168A8A8A8C8A8E0FEF25F0830ED56EBC
:100170006D0ED76E830ED66EF28AC00EF2127FEF2E
:1001800004F09350FD0B0509936E7C0E9416C69AED
:10019000200EC66E400EC76E8B828B804EEF02F033
:1001A000C9505CC2C9FFC730FEE3C9CF01F0000CE3
:1001B0008B9251C253F251C25CF20001F1DF020195
:1001C0005C6B0001EDDF01C052F28B82020152C272
:1001D00001F00001000C8B92FF0E02015C6F000128
:1001E000DFDF8B8263EF02F0010EEA6EA70EE96E8D
:1001F000EF500EE00F0E016E006A002EFED7012EAA
:10020000FBD78F0E006E002EFED70000EF2EF2D728
:1002100068EF02F08B92020157514009596F5C6FF1
:100220000001BEDF58C25CF2BBDF8B82000C8B92F8
:1002300002015651A009586F5C6F0001B1DF57C22F
:100240005CF2AEDF8B82000C8B9202015951800967
:100250005B6F5C6F0001A4DF5AC25CF2A1DF8B828E
:10026000000C1F0E0201566F030E576F0001DFDFF7
:10027000020E0201576F540E566F010E5625E96E9D
:10028000000E5721EA6EEFCF58F21F0E596F58C279
:100290005AF20001D9DF000C8B92AEC1B0F1AEC1B1
:1002A0005CF200017DDF02015C6B000179DF02017D
:1002B0005C6B000175DF01C0AFF18B820101AFC142
:1002C00001F00001000C020E0201556F140E546F74
:1002D0000001C7DF140E0201576FABC158F20001D5
:1002E00099DF010E0101AF6FAC0EE96EAFC1EAFFFD
:1002F000EFCFB0F1160E0201576FB0C158F20001F6
:1003000089DF010E0101AF6FAC0EAE6F010EAE259D
:10031000E96E000EAF21EA6EEFCFB0F1170E0201C9
:10032000576FB0C158F2000175DF030E0201556F1F
:100330000A0E546F000195DF0A0E0101AE6F000135
:10034000ABDF01C0AEF1000E010101B0010E000AE9
:10035000D8B402D00001F0D70001000C020E020157
:10036000556F140E546F00017CDF140E0201576F9D
:10037000ABC158F200014EDF120E0201576F010EA1
:10038000586F000147DF030E0201556F0A0E546FCC
:10039000000167DF0A0E0101AE6F00017DDF01C0C1
:1003A000AEF1000E010101B0010E000AD8B402D076
:1003B0000001F0D7020E0201556F140E546F0001B8
:1003C00050DF120E0201576F586B000123DF180E29
:1003D0000101AE6F000160DF01C0ACF1190E010137
:1003E000AE6F000159DF01C0ADF10101ACC101F0F8
:1003F000ADC102F0000108EF02F01F0E0201566FBE
:100400000C0E576F000113DF0101AB6B0001A6D783
:1004100002C0AAF101C0A9F10101A751020804E13B
:10042000A76BAAB1A72B0AD0AA91A7B1AA81AB6BDF
:10043000AAC1ADF1A9C1ACF1000145DF020E020174
:10044000556F546F00010DDF020E0101AE6F000108
:1004500023DF01C0A8F10101A891A7B1A881020E74
:100460000201576FA8C158F20001D4DE0101A75361
:1004700002E0150E01D0120EAB6F040E0201576F91
:10048000ABC158F20001C6DE1F0E0201596F040E07
:100490005A6F0001D9DE2BEF03F073D61D0E020157
:1004A000516F000185DE01C0A6F10101A6A702D0AF
:1004B0000001F4D7A651FF0A010BD8B402D0000105
:1004C000EDD7000188D6010E0101A76F00018CD67F
:1004D0004F6A5880556A546A080E0201576F586B6C
:1004E000000198DE090E0201576F586B000192DE81
:1004F0000C0E0201576FF70E586F00018BDE0D0EC8
:100500000201576F1B0E586F000184DE0A0E0201B4
:10051000576FF70E586F00017DDE0B0E0201576F0B
:100520001B0E586F000176DE040E0201576FF80EA5
:10053000586F00016FDE050E0201576F1B0E586FDA
:10054000000168DE020E0201556F546B000189DE66
:100550000201576B0D0E586F00015CDE020E0201A6
:10056000576F320E586F000155DE030E0201576FB0
:10057000400E586F00014EDE090E0201576F3F0E0C
:10058000586F000147DE060E0201576F120E586FBA
:10059000000140DE070E0201576F0C0E586F00017C
:1005A00039DE0A0E0201576FEE0E586F000132DE7F
:1005B0000B0E0201576F050E586F00012BDE030E64
:1005C0000201556F040E546F00014BDE040E020150
:1005D000576F1CC058F200011DDE050E0201576F57
:1005E0001DC058F2000116DE020E0201576F1EC038
:1005F00058F200010FDE030E0201576F1FC058F2C0
:10060000000108DE0201576B20C058F2000102DE33
:10061000010E0201576F21C058F20001FBDD120EDE
:100620000201516F0001C4DD01C059F0100E01013B
:10063000AB6F010EAD6FAC6B000145DE140E010116
:10064000AB6F040EAD6F720EAC6F00013CDE0101AA
:10065000A76B0001D2D61F0E0201596F040E5A6F0C
:100660000001F2DD80EF04F05892FF0E0101156FDA
:10067000166F176F186F196F1A6F1E6B1D6B1C6B3F
:100680001B6B000181EF04F0ACC14EF0ABC14DF02B
:10069000AAC14CF0A9C14BF060EF04F00101B16BAD
:1006A000B26B010EB36FDA6AD96AB66FA90EB56F75
:1006B000010EEA6EAD0EE96EB6C1E2FFB5C1E1FF13
:1006C000B3C1B4F1D890E550EE02F350B123F45029
:1006D000B223B42FF7D7B1C1DEFFB2C1B1F1B26B13
:1006E000D8B0B22BB52BD8B4B62BB32BB351050869
:1006F000DFE10001B3EF03F0016A026A006A036AF6
:100700000101AF5102E1AE5118E0100EB06FD89068
:10071000AC37AD3700360336AF51035C02E1AE5162
:10072000005C07E3AE51005ED8A00306AF51035E44
:10073000D88001360236B02FEAD70001D4EF03F09B
:100740004EC0ACF14DC0ABF14CC0AAF14BC0A9F109
:10075000410E0101B06FC60EAF6F4E0EAE6F6D0E43
:10076000AD6F00019BD7390E010100244B6E300E96
:1007700001204C6E000E02204D6E000E03204E6EC6
:100780004DC000F04EC001F0026A036A4EC0ABF1EA
:100790004DC0AAF14EC0ADF14DC0ACF17F0EAF6FB0
:1007A000FF0EAE6F0001A8D700C001F003C002F039
:1007B00061EF04F00101A66BA651040869E3A6519C
:1007C000240DF350036A5F0F016E000E032201C077
:1007D000A7F103C0A8F1A7C1E9FFA8C1EAFF0A0E6B
:1007E000EF6E230EA725E96E000EA821EA6EEF90AA
:1007F000230EA725E96E000EA821EA6EEF82230ED4
:10080000A725E96E000EA821EA6EEF84230EA72526
:10081000E96E000EA821EA6EEF98230EA725E96E77
:10082000000EA821EA6EEF960F0EA725E96E000EC6
:10083000A821EA6EEF3C01D016D00F0EA725E96E75
:10084000000EA821EA6EEFCFA9F1A9C1F9F10001CC
:1008500002EC00F00F0E0101A725E96E000EA821A1
:10086000EA6EFF0EEF6E210EA725E96E000EA8219D
:10087000EA6EEC6AED523C0EEF6E100EA725E96EA3
:10088000000EA821EA6EEC6AED52EF6AA62B94D70F
:10089000D6501327D7501423CE501327CF501423EC
:1008A000CC501327000E1423B2501327B350142337
:1008B000AC6BAB6B14C1AAF113C1A9F10001E4D672
:1008C0003FD702C05EF001C05DF0040E5E265E50B0
:1008D00012080AE2FF0A03E15D50870805E2880E6C
:1008E0005D5E130E5E5AF3D75E50030802E3040EFA
:1008F0005E2682EF04F001011F6B000137D4CDD5D5
:10090000B3D658D711EF25F058A001D02FD058807A
:10091000010E545C0101F86F000E5558F96FF95142
:100920001A0809E2FF0A03E1F851F70804E21B0E76
:10093000F96FF70EF86F1E0E0201596F400E5A6FD5
:10094000000182DC0201556B0C0E546F000189DC42
:100950000C0E0201576FF8C158F200015BDC0D0E5E
:100960000201576FF9C158F2000154DC000C02017A
:10097000446B456B8B923A0E5C6F000111DC0201F7
:100980004551435D1BE303E14251445D17E241C21F
:1009900003F040C246F241C247F25C6B000100DC4A
:1009A00047C2EAFF46C2E9FF01C0EFFF0201402B48
:1009B000D8B4412B442BD8B4452BE2D78B8244C208
:1009C00001F045C202F00001000C52C253F251C2C4
:1009D00054F2020153C201F054C202F00001000CB3
:1009E000010E0201556F190E546F00013ADC190E09
:1009F0000201516F0001D8EC00F001C0C4F1010107
:100A0000C45303E1000E016E84D058B006D000013B
:100A10007BDF000E016E01017CD055C057F054C041
:100A200056F00201556B546B00011BDC0201576B41
:100A300054C058F200010AEC01F0010E0201576F98
:100A400055C058F200010AEC01F0010E0101C56F1A
:100A5000B00EC5C141F2E8CF40F20201436B140E63
:100A6000426F000184DFC3C152F2C2C151F2ADDF57
:100A700002C0C3F101C0C2F10101B1511A0805E27F
:100A8000FF0A19E1B051F70816E3010EC56FB00E69
:100A9000E96EC5C1EAFFEFB00ED0B5BF0CD0B4B956
:100AA0000AD0B351040805E2FF0A05E1B251EE088D
:100AB00002E3B4BF01D0FF00B1C155F0B0C154F0A2
:100AC000ACC1C4F1ADC1C5F1ADC1EAFFACC1E9FF34
:100AD000010EE26EBC0EE16E060E016EE6CFEEFF79
:100AE000012EFCD7AEC1E9FFAFC1EAFFFF0EEF6EEA
:100AF000C35108080BE1C25303E0C251060806E1E6
:100B0000AEC1E9FFAFC1EAFFC2C1EFFF5890010ECD
:100B1000016E000107EF1CF00101D7C101F0D8C13F
:100B200003F0D7C1D9F1D8C1DAF1D7C1E9FFD8C1F3
:100B3000EAFFECCFDCF1ED52EFCFDBF1DCC152F29A
:100B4000DBC151F2000141DFDAC1EAFFD9C1E9FF9F
:100B500002C0ECFFED5201C0EFFF020E0101D725EC
:100B6000016E000ED821036E01C0D9F1DA6F020EBA
:100B7000D725E96E000ED821EA6EECCFDCF1ED52FC
:100B8000EFCFDBF1DCC152F2DBC151F200011DDF1E
:100B9000DAC1EAFFD9C1E9FF02C0ECFFED5201C0A2
:100BA000EFFF060E0101D725016E000ED821036E5E
:100BB00001C0D9F1DA6F060ED725E96E000ED821F3
:100BC000EA6EECCFDCF1ED52EFCFDBF1DCC152F29B
:100BD000DBC151F20001F9DEDAC1EAFFD9C1E9FF58
:100BE00002C0ECFFED5201C0EFFF000C010E02014C
:100BF000416FBB0E406F436B1C0E426F0001B7DEAE
:100C000083DE010E0101D86FBB0ED76F000184DFB8
:100C10000101BB2D08D0BC5306E1BF51060803E11A
:100C2000C051040803E0000E016E4ED0C15102080D
:100C300008E1C25306E1B9C1E9FFBAC1EAFFEF6AB0
:100C400014D0C12D09D0C25307E1B9C1E9FFBAC11F
:100C5000EAFF010EEF6E09D0B9C1E9FFBAC1EAFFA0
:100C6000020EEF6E000E016E2FD01850D35D29E1F9
:100C70001950D45D26E11A50D55D23E11B50D65D95
:100C800020E1B7C1E9FFB8C1EAFF010EE26EC30E71
:100C9000E16E060E016EE6CFEEFF012EFCD7060ECA
:100CA000B725E96E000EB821EA6EC9C1EFFFCAC1CF
:100CB000ECFFCBC1ECFFCCC1ECFF010E016E04D008
:100CC00003D0000E016E00D0000156EF09F01F0E98
:100CD0000201516F0001D8EC00F001C033F2000EA8
:100CE000020101B6010E000A02E1000E01D0FF0E62
:100CF000016E00D00001000C4BC24FF0070E020144
:100D00004C271C0E4D23556B020E546F000131EC25
:100D100001F0020E02014F6F4C0EE96E4FC2EAFF66
:100D2000EFCF50F2576B50C258F200010AEC01F0BD
:100D3000020E02014F6F4C0E4E6F010E4E25E96EF2
:100D4000000E4F21EA6EEFCF50F2010E576F50C2E6
:100D500058F200010AEC01F0020E02014F6F4C0E36
:100D6000E96E4FC2EAFFEFCF50F2020E576F50C24A
:100D700058F200010AEC01F0020E02014F6F4C0E16
:100D80004E6F010E4E25E96E000E4F21EA6EEFCF39
:100D900050F2030E576F50C258F200010AEC01F0F6
:100DA000000C8B927A0E02015C6F0001D0EC00F017
:100DB00055C25CF2D0EC00F08B82000C8B927A0E64
:100DC00002015C6F0001D0EC00F0020159C203F097
:100DD0005851D8B459075807031012E057C203F00E
:100DE00056C2E9FF57C2EAFFEFCF5AF25AC25CF28D
:100DF0000001D0EC00F00201562BD8B4572BE6D7F7
:100E00008B820001000C0201556B020E546F000131
:100E100031EC01F0020E0201576FF80E586F00011D
:100E20000AEC01F0030E0201576F1B0E586F000110
:100E30000AEC01F0060E020152271C0E5323020E8B
:100E4000556F520EE96E55C2EAFFEFCF56F2060E0D
:100E5000576F56C258F200010AEC01F0020E02016F
:100E6000556F520E546F010E5425E96E000E552138
:100E7000EA6EEFCF56F2070E576F56C258F20001D6
:100E80000AEC01F00201556B00018BDF50C257F2F2
:100E90004FC256F20201596B060E586F00018EDFE9
:100EA0000201556B1C0E55C257F2566F596B060E58
:100EB000586F000183DF080E0201556F000171DFDA
:100EC0000201515302E1000E01D0060E556F0001E0
:100ED00068DF000C1C0E0201516F0001D8EC00F01D
:100EE00001C03EF2000E020101B2010E000A10E044
:100EF0001F0E596F800E5A6F000124EC01F01F0E77
:100F00000201566F800E576F000117EC01F00201CD
:100F10001C0E566F0A0E576F000117EC01F01F0EE2
:100F20000201596F080E5A6F000124EC01F059506C
:100F30000508D8A4E0D01C0E0201516F0001D8ECC6
:100F400000F001C03EF2020101500A0BD8A402D009
:100F50000001F1D71C0E516F0001D8EC00F001C068
:100F60003EF2000E020101B2010E000AD8B4C4D054
:100F70001F0E566F080E576F000117EC01F00201AB
:100F8000556B546B000131EC01F00201516B000113
:100F9000D8EC00F001C032F2010E0201516F0001E5
:100FA000D8EC00F001C033F2060E0201516F0001CF
:100FB000D8EC00F001C034F2070E0201516F0001BD
:100FC000D8EC00F001C035F20201342BD8B4352B37
:100FD000576B34C258F200010AEC01F0010E020115
:100FE000576F35C258F200010AEC01F0020E0201FF
:100FF0003F6F360E3FC241F2406F436B070E426FA8
:101000000001B5DC02013D6B3D510F0866E31C0E8B
:10101000516F0001D8EC00F001C03EF2000E020159
:1010200001B2010E000A54E039AB52D01F0E596FC5
:10103000800E5A6F000124EC01F01F0E0201566F62
:10104000800E576F000117EC01F01C0E0201566F65
:101050000A0E576F000117EC01F01F0E0201596FC5
:10106000080E5A6F000124EC01F01C0E0201516FB2
:101070000001D8EC00F001C03EF2020101500A0B61
:10108000D8A402D00001F1D71F0E566F080E576F7B
:10109000000117EC01F00201576B34C258F2000155
:1010A0000AEC01F0010E0201576F35C258F200013F
:1010B0000AEC01F0020E02013F6F360E3FC241F210
:1010C000406F436B070E426F000151DC03D00201F9
:1010D00004D0000102013D2B97D7576B32C258F262
:1010E00000010AEC01F0010E0201576F33C258F201
:1010F00000010AEC01F002010001000C010E0201E6
:10110000326F0001E4DD01C0D6F10101D63D03D00C
:10111000000E016EB8D0D6C14BF202014D6B4C6B84
:101120000001EADD0101BB6B010EBA6F080EBD6F55
:10113000BC6B060EBE6F040EBF6FB92D0BD0C16B1A
:10114000010EC06FFF0ECC6FCD6FCE6FCF6FD06F23
:10115000D16F17D0C16B020EC06FB8C103F0B7C119
:10116000D7F1B8C1D8F1010EEA6ECC0EE96EB8C164
:10117000E2FFB7C1E1FF060E016EE6CFEEFF012EE2
:10118000FCD7010EEA6EC20EE96EE26A1C0EE16E39
:10119000060E016EE6CFEEFF012EFCD71BC0CBF191
:1011A0001AC0CAF119C0C9F118C0C8F1060EB72596
:1011B000E96E000EB821EA6EEFCF00F0ECCF01F03F
:1011C000ECCF02F0ECCF03F00050C819D76F0150FC
:1011D000C919D86F0250CA19D96F0350CB19DA6FE9
:1011E000D7512214006ED8512314016ED951241402
:1011F000026EDA512514036E005206E1015204E139
:10120000025202E1035209E029C0D5F128C0D4F10D
:1012100027C0D3F126C0D2F116D0060EB725E96E4D
:10122000000EB821EA6EEFCF00F0ECCF01F0ECCF6A
:1012300002F0ECCF03F003C0D5F102C0D4F101C03D
:10124000D3F100C0D2F1010ED86FBA0ED76F0001F2
:1012500063DC010E0201506FCC0E4F6F060E516F12
:10126000536B1C0E526F0001CEDD010E0201576F51
:10127000BA0E566F596B1C0E586F00019FDD2ADEA7
:10128000010E016E01010001000C000E58B2010EAA
:10129000000A01E02FD0010E0101B86FAC0EB76F4C
:1012A000010EBA6FB60EB96F0001A0D4015201E170
:1012B00031D084EC04F00101B6531AE1010EEA6E5C
:1012C000150EE96E010EE26EAC0EE16E060E016EB9
:1012D000E6CFEEFF012EFCD7B5C11EF1B4C11DF162
:1012E000B3C11CF1B2C11BF1000114D003D0010144
:1012F00058820001010E0101B86FAC0EB76FB96BD7
:101300000001FCDE015202E0589203D0000E016E93
:1013100003D000D0010E016E1FEF1CF0140E5624F6
:1013200002010B6F000E57200C6F05510B25096F42
:1013300006510C210A6F0A511A0809E2FF0A03E15B
:101340000951F70804E2F80E095F1B0E0A5B556BA2
:10135000100E546F000131EC01F0100E0201576FB6
:1013600009C258F200010AEC01F0110E0201576F98
:101370000AC258F200010AEC01F0010E0201075DF9
:10138000006E000E0859036E0050092703500A230F
:101390000A511A0809E2FF0A03E10951F70804E2B9
:1013A000F80E095F1B0E0A5B120E576F09C258F246
:1013B00000010AEC01F0130E0201576F0AC258F245
:1013C00000010AEC01F01F0E0201596F300E5A6F36
:1013D000000124EC01F01F0E0201516F0001D8EC56
:1013E00000F001C00BF2000E020101BA010E000A6A
:1013F000D8B402D00001EFD7160E516F0001D8EC1F
:1014000000F001C00AF2170E0201516F0001D8EC82
:1014100000F001C009F2020109C201F00AC202F0A3
:101420000001000C140E56240101E16F000E57203C
:10143000E26FDD51E125DF6FDE51E221E06FE05127
:101440001A0809E2FF0A03E1DF51F70804E2F80E87
:10145000DF5F1B0EE05B0201556B546B000131EC4A
:1014600001F00201576BDFC158F200010AEC01F0F4
:10147000010E0201576FE0C158F200010AEC01F0C1
:10148000020E0201576FDFC158F200010AEC01F0B1
:10149000030E0201576FE0C158F200010AEC01F09F
:1014A000000C020E02014B25016E000E4C21036E52
:1014B00001C04DF24E6F020E4B25E96E000E4C211D
:1014C000EA6EECCF50F2ED52EFCF4FF250C252F233
:1014D0004FC251F20001E5EC04F04EC2EAFF4DC2EA
:1014E000E9FF02C0ECFFED5201C0EFFF040E020164
:1014F0004B25016E000E4C21036E01C04DF24E6F64
:10150000040E4B25E96E000E4C21EA6EECCF50F232
:10151000ED52EFCF4FF250C252F24FC251F20001E2
:10152000E5EC04F04EC2EAFF4DC2E9FF02C0ECFF59
:10153000ED5201C0EFFF0A0E02014B25016E000EB5
:101540004C21036E01C04DF24E6F0A0E4B25E96E21
:10155000000E4C21EA6EECCF50F2ED52EFCF4FF27D
:1015600050C252F24FC251F20001E5EC04F04EC2FB
:10157000EAFF4DC2E9FF02C0ECFFED5201C0EFFFF0
:10158000000C010E0101CB6FB60ECBC141F2E8CFCA
:1015900040F20201436B140E426F0001B7EC04F0FD
:1015A0000101B651F00B400803E0000E016E5AD065
:1015B000B6510F0B006E00345C6E5C36FC0E5C1690
:1015C0000201066B056B086B5CC007F20001A6DE2A
:1015D00002C0B5F101C0B4F10101DE6B5CC0DDF108
:1015E000000120DF0101B451B51103E0000E016ECE
:1015F00039D0010E02014C6FB60E4B6F000151DF66
:101600000101AC51AD110CE0ACC1E9FFADC1EAFF85
:10161000C6C1EFFFC7C1ECFFC8C1ECFFC9C1ECFFF9
:10162000060EAE25E96E000EAF21EA6EC2C1EFFFD5
:10163000C3C1ECFFC4C1ECFFC5C1ECFFB0C1E9FF01
:10164000B1C1EAFFBFC1EFFFB2C1E9FFB3C1EAFF19
:101650005C50B85D006E000EB95900C0EFFFEC6E33
:10166000010E016E000139EF1CF00201436B426B69
:10167000416B406BD8903731396F3631386F35C296
:101680003BF234C23AF239C203F03851D8B43907C8
:101690003807031017E03BC203F03AC200F0020E15
:1016A0003A27D8B03B2B00C0E9FF03C0EAFFECCFDC
:1016B00003F0ED52EF50402703504123000E422328
:1016C0004323E1D73651010B006E036A005003102B
:1016D0000AE03AC2E9FF3BC2EAFFEF504027000EA2
:1016E00041234223432343C23FF242C23EF241C25E
:1016F0003DF240C23CF23FC239F23EC238F23853AA
:1017000002E139531FE0436B426B476B466B41C2AA
:1017100045F240C244F2026A036A38514025406FE4
:1017200039514121416F02504621426F03504721F8
:10173000436F43C23FF242C23EF241C23DF240C259
:101740003CF2D9D741C203F0031E4051FF0A016E9B
:1017500003C002F00001000C8B923A0E02015C6F94
:101760000001D0EC00F002015C6B0001D0EC00F055
:1017700001C036F28B82020136C201F00001000C7A
:101780000201325307E1335305E1FF0E016E026E91
:10179000A1D017D0322D15D0335313E10001DCDF77
:1017A0000201376B01C036F201C003F0000E006A7F
:1017B0000006001AFF0E031A00C001F003C002F079
:1017C00089D0556B546B000131EC01F00201516B73
:1017D0000001D8EC00F001C034F2010E0201516F9B
:1017E0000001D8EC00F001C035F2100E0201576F75
:1017F00034C258F200010AEC01F0110E0201576FD9
:1018000035C258F200010AEC01F0020135511B0803
:101810001BE303E13451F70817E3010E325D006E5C
:10182000000E3359036E00503427035035233551D1
:101830001A0809E2FF0A03E13451F70804E2F80E3E
:10184000345F1B0E355B0AD0010E325D006E000E58
:101850003359036E0050342703503523120E576F4F
:1018600034C258F200010AEC01F0130E0201576F66
:1018700035C258F200010AEC01F01F0E0201596F47
:10188000300E5A6F000124EC01F01F0E0201516F5F
:101890000001D8EC00F001C036F2000E020101BADE
:1018A000010E000AD8B402D00001EFD7160E516F16
:1018B0000001D8EC00F001C034F2170E0201516FA4
:1018C0000001D8EC00F001C035F2020134C201F091
:1018D00035C202F00001000C5C500101D925DB6F1C
:1018E000000EDA21DC6FDE6FDBC1DDF100019ADD75
:1018F000000C3DC23EF23CC23FF23BC240F23AC253
:1019000041F23EC200F03FC201F040C202F041C2CB
:1019100003F0000C020132C201F033C203F032C204
:1019200034F233C235F232C2E9FF33C2EAFFECCF00
:1019300037F2ED52EFCF36F237C252F236C251F2E1
:101940000001E5EC04F035C2EAFF34C2E9FF02C051
:10195000ECFFED5201C0EFFF020E02013225016ED5
:10196000000E3321036E01C034F2356F020E3225B2
:10197000E96E000E3321EA6EECCF37F2ED52EFCF75
:1019800036F237C252F236C251F20001E5EC04F0F1
:1019900035C2EAFF34C2E9FF02C0ECFFED5201C0DC
:1019A000EFFF040E02013225016E000E3321036E9B
:1019B00001C034F2356F040E3225E96E000E33217A
:1019C000EA6EEFCF36F2ECCF37F2ECCF38F2ECCF55
:1019D00039F239C23DF238C23CF237C23BF236C26C
:1019E0003AF2000186DF35C2EAFF34C2E9FF00C0E7
:1019F000EFFF01C0ECFF02C0ECFF03C0ECFF080EDC
:101A000002013225016E000E3321036E01C034F253
:101A1000356F080E3225E96E000E3321EA6EEFCFE6
:101A200036F2ECCF37F2ECCF38F2ECCF39F239C2E4
:101A30003DF238C23CF237C23BF236C23AF2000104
:101A400058DF35C2EAFF34C2E9FF00C0EFFF01C032
:101A5000ECFF02C0ECFF03C0ECFF0E0E02013225CA
:101A6000016E000E3321036E01C034F2356F0E0E8D
:101A70003225E96E000E3321EA6EECCF37F2ED52DB
:101A8000EFCF36F237C252F236C251F20001E5EC26
:101A900004F035C2EAFF34C2E9FF02C0ECFFED52A8
:101AA00001C0EFFF100E02013225016E000E33213E
:101AB000036E01C034F2356F100E3225E96E000E50
:101AC0003321EA6EECCF37F2ED52EFCF36F237C268
:101AD00052F236C251F20001E5EC04F035C2EAFFE1
:101AE00034C2E9FF02C0ECFFED5201C0EFFF120E5D
:101AF00002013225016E000E3321036E01C034F263
:101B0000356F120E3225E96E000E3321EA6EECCFEE
:101B100037F2ED52EFCF36F237C252F236C251F2FF
:101B20000001E5EC04F035C2EAFF34C2E9FF02C06F
:101B3000ECFFED5201C0EFFF000CFE0E0101DF6F64
:101B4000DE6BDE510408D8A07AD0DE51240DF350AC
:101B5000036A5F0F016E000E032201C0DCF103C0B7
:101B6000DDF1DCC1E9FFDDC1EAFFEF500A0865E005
:101B70000B0EDC25E96E000EDD21EA6EECCFE1F103
:101B8000ED52EFCFE0F1020ED825E96E000ED9211B
:101B9000EA6EECCF03F0ED52EF50E05D4EE1035002
:101BA000E15D4BE1DCC1E9FFDDC1EAFFEF5202E19B
:101BB000DEC1DFF10D0EDC25E96E000EDD21EA6EDF
:101BC000ECCFE1F1ED52EFCFE0F1D8C1E9FFD9C19F
:101BD000EAFFECCF03F0ED52EF50E05D2EE1035051
:101BE000E15D2BE1070EDC25E96E000EDD21EA6EDA
:101BF000EFCFE0F1ECCFE1F1ECCFE2F1ECCFE3F1AC
:101C0000060EDA25E96E000EDB21EA6EEFCF00F05A
:101C1000ECCF01F0ECCF02F0ECCF03F00050E05D30
:101C20000CE10150E15D09E10250E25D06E1035083
:101C3000E35D03E1DEC101F06CD0DE2B82D7DF5122
:101C4000FE0803E1FE0E016E64D0DF51240DF35057
:101C5000036A5F0F016E000E032201C0DCF103C0B6
:101C6000DDF1010EDC25E06F000EDD21E16FEA6E93
:101C7000E0C1E9FFDBC1E2FFDAC1E1FF0A0E016E5C
:101C8000E6CFEEFF012EFCD70D0EDC25016E000E17
:101C9000DD21D8C1E9FFD9C1EAFFECCF03F0ED5255
:101CA000EFCFE2F1EA6E01C0E9FF03C0ECFFED52B5
:101CB000E2C1EFFF230EDC25E96E000EDD21EA6EA6
:101CC000EF960F0EDC25E96E000EDD21EA6EEF3C8B
:101CD00001D016D00F0EDC25E96E000EDD21EA6E74
:101CE000EFCFE0F1E0C1F9F1000102EC00F00F0EDE
:101CF0000101DC25E96E000EDD21EA6EFF0EEF6EBC
:101D0000230EDC25E96E000EDD21EA6EEF82DFC1D5
:101D100001F00001FCEF17F0F29A51C0F9F150C048
:101D2000F8F1F28A0101F8C101F0F9C102F00001F5
:101D3000000C0F0E0101F625E96E000EF721EA6E88
:101D4000EF3C01D01DD00F0EF625E96E000EF721F5
:101D5000EA6EEFCFF8F1F8C1F9F1000102EC00F002
:101D60000F0E0101F625E96E000EF721EA6EFF0E57
:101D7000EF6E230EF625E96E000EF721EA6EEF8274
:101D8000070EF625E96E000EF721EA6EEE52EE52CE
:101D9000EC6AED52EF6AED52EF6AED52EF6A0D0E0A
:101DA000F625E96E000EF721EA6EEC6AED52EF6A55
:101DB000230EF625E96E000EF721EA6EEFA604D099
:101DC000000184EC04F00101230EF625E96E000EFB
:101DD000F721EA6EEF96210EF625E96E000EF72147
:101DE000EA6EEC6AED523C0EEF6E230EF625E96EBC
:101DF000000EF721EA6EEF98230EF625E96E000E2D
:101E0000F721EA6EEFA006D0F6C1E9FFF7C1EAFFBD
:101E1000EF6A06D0F6C1E9FFF7C1EAFF0A0EEF6EDE
:101E2000100EF625E96E000EF721EA6EEC6AED520F
:101E3000EF6A0001000C1F0E0201516F0001D8EC87
:101E400000F001C033F2000E020101B6010E000ADB
:101E500002E0000E01D0010E016E00D00001000C66
:101E6000010E0201556F190E546F000131EC01F0A3
:101E7000190E0201516F0001D8EC00F001C032F2DE
:101E80000201556B0E0E546F000131EC01F00E0E85
:101E90000201516F0001D8EC00F001C034F20F0EC6
:101EA0000201516F0001D8EC00F001C035F2010EC3
:101EB0000201556F190E546F000131EC01F0190E3B
:101EC0000201516F0001D8EC00F001C036F20201AE
:101ED0003251015CD8B402D00001CAD7556B0C0E48
:101EE000546F000131EC01F00C0E0201516F000142
:101EF000D8EC00F001C032F20D0E0201516F00016A
:101F0000D8EC00F001C033F202013351355D16E325
:101F100003E13451325D12E23251345D006E3351CF
:101F20003559036E0050FF0AF80F006E1B0E035662
:101F300000C001F003C002F01DD01CD03251345D4E
:101F400009E13351355D06E1F70E016E1B0E026E9D
:101F500011D010D03451325D366F35513359376F4F
:101F6000010E365D006E000E3759036E00C001F0A1
:101F7000026E00D00001FFEF10F0060E02014B25AB
:101F8000516F1C0E4C21526F010E51254F6F000EE8
:101F90005221506F556B100E546F000131EC01F05F
:101FA000100E0201576F4FC258F200010AEC01F007
:101FB000110E0201576F50C258F200010AEC01F0F5
:101FC000010E02014D5D006E000E4E59036E005071
:101FD0004F2703505023120E576F4FC258F2000183
:101FE0000AEC01F0130E0201576F50C258F20001C3
:101FF0000AEC01F01F0E0201596F300E5A6F0001FA
:1020000024EC01F01F0E0201516F0001D8EC00F02A
:1020100001C051F2000E020101BA010E000AD8B44B
:1020200002D00001EFD7160E516F0001D8EC00F07E
:1020300001C050F2170E0201516F0001D8EC00F000
:1020400001C04FF202014FC201F050C202F0000184
:10205000000C140E5C6E450E0201376F386B140EC7
:102060003525396F000E36213A6F5A2AD8B45B2ACB
:102070005BC03CF25AC03BF23E6B3D6B640E3F6F5F
:1020800034C240F2426B416B1BC046F21AC045F2AB
:1020900019C044F218C043F2060E3225E96E000E54
:1020A0003321EA6EEFCF00F0ECCF01F0ECCF02F07D
:1020B000ECCF03F003C04AF202C049F201C048F27B
:1020C00000C047F2020E4C6F370E4B6F000151EC0F
:1020D0000AF0020132C201F033C203F032C24BF205
:1020E00033C24CF2140E35254D6F000E36214E6F63
:1020F00033C250F232C24FF2516B536F4DC252F2A3
:10210000000103EC07F0020E02014C6F370E4CC2C7
:1021100057F2566F596B140E586F0001DEEC06F043
:1021200002014C6B4B6B4E6B140E4D6F000125DFA3
:1021300002C042F201C041F24FC04BF202014D6BAE
:102140000A0E4C6F00017CEC06F0020E02014C6F8F
:10215000410E4CC257F2566F596B020E586F000178
:10216000DEEC06F04FC04BF202014D6B140E4C6FCB
:1021700000017CEC06F0000E016E026E000C010EF8
:102180000201326F000157DE0152F9E00201093D00
:1021900008D0010E326F000167EC06F001C009F2B1
:1021A0000201093D01D002D109C24BF24D6B140E60
:1021B0004C6F00017CEC06F0FDC10FF2FCC10EF289
:1021C000FFC111F2FEC110F203C215F202C214F2F5
:1021D00001C213F200C212F207C219F206C218F2CB
:1021E00005C217F204C216F23F0E02011B151B6F47
:1021F000F00E1A151A6F08C21BF2000131D602C088
:102200001DF201C01CF202011D5303E11C512808FC
:1022100005E2280E1C5F000E1D5B02D01D6B1C6BBF
:102220001F6B1E6B216B206B020E336F0E0E326F15
:1022300000018AEC0CF0140E02010A27000E0B2399
:1022400008A30FD0040E0A27000E0B23020E226FE4
:10225000040E236F246F256B0F0E1A1560091A6F79
:1022600004D00F0E1A1550091A6F1BC029F21AC09C
:1022700028F219C027F218C026F2060E0101FA252D
:10228000E96E000EFB21EA6EEFCF00F0ECCF01F01B
:10229000ECCF02F0ECCF03F003C02DF202C02CF221
:1022A00001C02BF200C02AF202012E6B060E2F6F26
:1022B0000BC231F20AC230F231C252F230C251F2D4
:1022C0000001E5EC04F002C031F201C030F2020E70
:1022D0000201336F260E33C235F2346F376B0C0EAA
:1022E000366F000135EC0BF001C01EF202011E1F1B
:1022F00002C01FF21F1F1FC20DF21EC20CF2FBC153
:1023000033F2FAC132F2060E346F0BC236F20AC251
:1023100035F200019EDE020E0201336F0E0E33C253
:1023200057F2566F596B140E586F0001DEEC06F031
:10233000020108A30DD0020E336F220E33C257F2F2
:10234000566F596B040E586F0001DEEC06F0020167
:1023500009C24BF24D6B140E4C6F00017CEC06F081
:102360000BC233F20AC232F2C0EC0BF002C00DF223
:1023700001C00CF209C24BF202014D6B240E4C6FEE
:1023800000017CEC06F00DC255F2D1EC06F00CC257
:1023900055F2D1EC06F009C24BF202014D6B4C6BC9
:1023A00000017CEC06F06AEC07F002010001000C71
:1023B0000101D851240DF350036A5F0F016E000E26
:1023C000032201C0EFF103C0F0F1F16B1E0EEF2507
:1023D000E96E000EF021EA6EEF6A1F0EEF25016E26
:1023E000000EF021036E01C0F6F1F76F000194DCDE
:1023F000F7C1EAFFF6C1E9FF02C0ECFFED5201C0F0
:10240000EFFF210E0101EF25E96E000EF021EA6ECB
:10241000EC6AED523C0EEF6E0D0EDB25E96E000E00
:10242000DC21EA6EEFA41ED0000184EC04F001016F
:10243000EFC101F0F0C103F0EFC1F6F1F0C1F7F127
:10244000230EEF25E96E000EF021EA6EEFA002D018
:10245000000E01D0010EF7C1EAFFF6C1E9FFEF6EF1
:102460003FEF17F0160EEF25E96E000EF021EA6E31
:10247000EFCF00F0ECCF01F0ECCF02F0ECCF03F0A7
:1024800003C0E6F102C0E5F101C0E4F100C0E3F1F0
:102490000E0EDB25E96E000EDC21EA6EECCF03F0B8
:1024A000ED52EFCFF6F103C0F7F1F86BF96B080EC0
:1024B000DB25E96E000EDC21EA6EEFCF00F0ECCFF9
:1024C00001F0ECCF02F0ECCF03F00050E35D006EC2
:1024D0000150E459016E0250E559026E0350E6596D
:1024E000036E0050F65F0150F75B0250F85B03503B
:1024F000F95B100EEF25E96E000EF021EA6EECCFCD
:1025000003F0ED52EFCF00F003C001F0026A036A5E
:102510000050F65DF26F0150F759F36F0250F85911
:10252000F46F0350F959F56FF5BF01D00AD0140EBE
:10253000EF25E96E000EF021EA6EEC6AED52EF6ACB
:102540000AD0140EEF25E96E000EF021EA6EDFC10D
:10255000EFFFE0C1ECFFEFC1E9FFF0C1EAFFEF2CB4
:10256000BED00D0EDB25E96E000EDC21EA6EEFB267
:1025700012D0000184EC04F00D0E0101DB25E96EA0
:10258000000EDC21EA6EEFA804D0040EF16F02EF1A
:1025900017F03FEF17F01A0EEF25016E000EF02135
:1025A00001C0F6F1F76F040EDB25E96E000EDC21A9
:1025B000EA6EEFCFF8F1ECCFF9F1ECCFFAF1ECCF16
:1025C000FBF1DD51F827DE51F923000EFA23FB233E
:1025D000010EF825006E000EF921016E000EFA21A1
:1025E000026E000EFB21F7C1EAFFF6C1E9FF00C051
:1025F000EFFF01C0ECFF02C0ECFFEC6E1A0EEF25FE
:10260000E96E000EF021EA6EEFCF00F0ECCF01F0A2
:10261000ECCF02F0ECCF03F003C0E2F102C0E1F135
:1026200001C0E0F100C0DFF10D0EDB25E96E000E08
:10263000DC21EA6EEFB80ED0EFC1E9FFF0C1EAFF8E
:10264000020EEF6E000184EC04F0120E0101F16F36
:1026500002EF17F0EFC1E9FFF0C1EAFF030EEF6EE2
:10266000100EF16F140EEF25016E000EF021036EB7
:10267000F76F0E0EDB25E96E000EDC21EA6EECCF63
:1026800003F0ED52EFCFF8F1F7C1EAFF01C0E9FF27
:1026900003C0ECFFED52F8C1EFFFDD51DE111AE08F
:1026A000230EEF25E96E000EF021EA6EEF86120E82
:1026B000EF25E96E000EF021EA6EDEC1ECFFED526F
:1026C000DDC1EFFF230EEF25E96E000EF021EA6E6B
:1026D000EF8404D0000184EC04F0010193D3EFC136
:1026E000E9FFF0C1EAFFEF52D8A4C4D0000184ECA6
:1026F00004F00D0E0101DB25E96E000EDC21EA6E0F
:10270000EFB203D0040EF16F7DD31A0EEF25016EE8
:10271000000EF02101C0F6F1F76F040EDB25E96E23
:10272000000EDC21EA6EEFCFF8F1ECCFF9F1ECCF3F
:10273000FAF1ECCFFBF1DD51F827DE51F923000E61
:10274000FA23FB23010EF825006E000EF921016E1D
:10275000000EFA21026E000EFB21F7C1EAFFF6C15E
:10276000E9FF00C0EFFF01C0ECFF02C0ECFFEC6E20
:10277000140EEF25016E000EF021036EF76F0E0EA2
:10278000DB25E96E000EDC21EA6EECCF03F0ED52A2
:10279000EFCFF8F1F7C1EAFF01C0E9FF03C0ECFF9A
:1027A000ED52F8C1EFFF010EEF25F66F000EF0219C
:1027B000F76FEA6EF6C1E9FFDAC1E2FFD9C1E1FFC6
:1027C0000A0E016EE6CFEEFF012EFCD70D0EEF25AF
:1027D000016E000EF021DBC1E9FFDCC1EAFFECCFA6
:1027E00003F0ED52EFCFF8F1EA6E01C0E9FF03C04C
:1027F000ECFFED52F8C1EFFFEFC1E9FFF0C1EAFFD6
:10280000020EEF6E160EEF25E96E000EF021EA6E55
:10281000EE52EE52EE52EDCF03F0EDCF02F0EDCFDF
:1028200001F0EFCF00F0010EEE26000EEE22EE22B8
:10283000ED2203C0E6F102C0E5F101C0E4F100C001
:10284000E3F11A0EEF25E96E000EF021EA6EEFCFEC
:1028500000F0ECCF01F0ECCF02F0ECCF03F003C0BE
:10286000E2F102C0E1F101C0E0F100C0DFF1120EBF
:10287000F16FC8D21A0EEF25E96E000EF021EA6E54
:10288000EFCF00F0ECCF01F0ECCF02F0ECCF03F093
:1028900003C0EAF102C0E9F101C0E8F100C0E7F1CC
:1028A000160EEF25E96E000EF021EA6EEFCF00F074
:1028B000ECCF01F0ECCF02F0ECCF03F003C0EEF16F
:1028C00002C0EDF101C0ECF100C0EBF1040EDB251C
:1028D000E96E000EDC21EA6EEFCF00F0ECCF01F0E4
:1028E000ECCF02F0ECCF03F003C0E2F102C0E1F163
:1028F00001C0E0F100C0DFF1026A036ADD51DF27A9
:10290000DE51E0230250E1230350E223160EEF25AF
:10291000E96E000EF021EA6EEFCF00F0ECCF01F08F
:10292000ECCF02F0ECCF03F003C0E6F102C0E5F11A
:1029300001C0E4F100C0E3F1040EDB25E96E000EF6
:10294000DC21EA6EEFCFF6F1ECCFF7F1ECCFF8F146
:10295000ECCFF9F1E751F65DD8A446D2E851F75D26
:10296000D8A442D2E951F85DD8A43ED2EA51F95D2B
:10297000D8A43AD2EFC1E9FFF0C1EAFFEF50020854
:1029800043E10D0EDB25E96E000EDC21EA6EEFA8B7
:1029900036D01A0EEF25E96E000EF021EA6EDFC187
:1029A000EFFFE0C1ECFFE1C1ECFFE2C1ECFFEFC1E2
:1029B000E9FFF0C1EAFF030EEF6EDD51DE111AE010
:1029C000230EEF25E96E000EF021EA6EEF86120E5F
:1029D000EF25E96E000EF021EA6EDEC1ECFFED524C
:1029E000DDC1EFFF230EEF25E96E000EF021EA6E48
:1029F000EF8404D0000184EC04F0010104D0000154
:102A000084EC04F00101EFD11A0EEF25E96E000EFF
:102A1000F021EA6EDFC1EFFFE0C1ECFFE1C1ECFFA6
:102A2000E2C1ECFFEFC1E9FFF0C1EAFFEF5003089C
:102A3000D8A4E2D00D0EDB25E96E000EDC21EA6E93
:102A4000EFA82ED0230EEF25E96E000EF021EA6EDE
:102A5000EFB226D00F0EEF25E96E000EF021EA6EE0
:102A6000EF3C01D01DD00F0EEF25E96E000EF021D6
:102A7000EA6EEFCFF6F1F6C1F9F1000102EC00F0D9
:102A80000F0E0101EF25E96E000EF021EA6EFF0E38
:102A9000EF6E230EEF25E96E000EF021EA6EEF8255
:102AA0000D0EDB25E96E000EDC21EA6EEFA058D09A
:102AB000110EF16F160EEF25E96E000EF021EA6E91
:102AC000EE52EE52EE52EDCF03F0EDCF02F0EDCF2D
:102AD00001F0EFCF00F0010EEE26000EEE22EE2206
:102AE000ED2203C0E6F102C0E5F101C0E4F100C04F
:102AF000E3F11A0EEF25E96E000EF021EA6E010EE9
:102B0000EF24006E000EEC20016E000EEC20026E31
:102B1000000EEC20ED52ED52ED5200C0EFFF01C06F
:102B2000ECFF02C0ECFFEC6E1A0EEF25E96E000E12
:102B3000F021EA6EEFCF00F0ECCF01F0ECCF02F025
:102B4000ECCF03F003C0E2F102C0E1F101C0E0F11B
:102B500000C0DFF1EFC1E9FFF0C1EAFF090EEF6E3F
:102B6000DD51DE1144E0230EEF25E96E000EF02169
:102B7000EA6EEFB61BD0230EEF25E96E000EF021B2
:102B8000EA6EEF86120EEF25E96E000EF021EA6E76
:102B9000DEC1ECFFED52DDC1EFFF230EEF25E96E44
:102BA000000EF021EA6EEF84F18920D0160EEF2599
:102BB000E96E000EF021EA6EEBC1EFFFECC1ECFF15
:102BC000EDC1ECFFEEC1ECFF1A0EEF25E96E000E31
:102BD000F021EA6EE7C1EFFFE8C1ECFFE9C1ECFFCD
:102BE000EAC1ECFF000184EC04F0010104D0000113
:102BF00084EC04F00101F7D0EFC1E9FFF0C1EAFF76
:102C0000EF50090815E1000184EC04F00D0E0101FC
:102C1000DB25E96E000EDC21EA6EEFA808D0F0C1DA
:102C2000F7F1EFC1F6F1000199EC0EF00101DBD0F4
:102C3000EFC1E9FFF0C1EAFFEF5004086AE10001CB
:102C400084EC04F00D0E0101DB25E96E000EDC21A1
:102C5000EA6EEFA04DD0100EF16F1A0EEF25E96E5F
:102C6000000EF021EA6E010EEF24006E000EEC2043
:102C7000016E000EEC20026E000EEC20ED52ED52C3
:102C8000ED5200C0EFFF01C0ECFF02C0ECFFEC6EA4
:102C90001A0EEF25E96E000EF021EA6EEFCF00F07C
:102CA000ECCF01F0ECCF02F0ECCF03F003C0E2F187
:102CB00002C0E1F101C0E0F100C0DFF10D0EDB2543
:102CC000E96E000EDC21EA6EEFA809D0F0C1F7F141
:102CD000EFC1F6F1000199EC0EF008D00101EFC14F
:102CE000E9FFF0C1EAFF060EEF6E000110D001010E
:102CF0000D0EDB25E96E000EDC21EA6EEFA806D092
:102D0000EFC1E9FFF0C1EAFF050EEF6E00016AD0E6
:102D10000101EFC1E9FFF0C1EAFFEF50050848E10A
:102D2000000184EC04F00D0E0101DB25E96E000EBC
:102D3000DC21EA6EEFA03BD0100EF16F1A0EEF25EA
:102D4000E96E000EF021EA6E010EEF24006E000E17
:102D5000EC20016E000EEC20026E000EEC20ED5215
:102D6000ED52ED5200C0EFFF01C0ECFF02C0ECFFDE
:102D7000EC6E1A0EEF25E96E000EF021EA6EEFCF31
:102D800000F0ECCF01F0ECCF02F0ECCF03F003C089
:102D9000E2F102C0E1F101C0E0F100C0DFF1F0C1F9
:102DA000F7F1EFC1F6F1000199EC0EF001011BD033
:102DB000EFC1E9FFF0C1EAFFEF50060814E100019E
:102DC00084EC04F00D0E0101DB25E96E000EDC2120
:102DD000EA6EEFA808D0F0C1F7F1EFC1F6F10001FB
:102DE00099EC0EF001010ED0000184EC04F0100EFD
:102DF0000101F16FEAC1E2F1E9C1E1F1E8C1E0F1FD
:102E0000E7C1DFF1F1533BE0020EDB25E96E000E76
:102E1000DC21EA6EECCFF7F1ED52EFCFF6F1DBC13A
:102E2000E9FFDCC1EAFFECCFF9F1ED52EFCFF8F1A9
:102E3000DAC1FBF1D9C1FAF1F7C1FDF1F6C1FCF13C
:102E4000F9C1FFF1F8C1FEF1E6C103F2E5C102F2FA
:102E5000E4C101F2E3C100F2E2C107F2E1C106F20E
:102E6000E0C105F2DFC104F2F1C108F2FF0E020178
:102E7000096F0B6B0A6B0001BFEC10F00101000140
:102E800013EF18F0060E0101AC25E96E000EAD211E
:102E9000EA6EEFCF00F0ECCF01F0ECCF02F0ECCF18
:102EA00003F003C0C9F102C0C8F101C0C7F100C0FE
:102EB000C6F1AEC1E9FFAFC1EAFFEFCF00F0ECCF42
:102EC00001F0ECCF02F0ECCF03F003C0CDF102C073
:102ED000CCF101C0CBF100C0CAF1CE6B060ECF6FB2
:102EE000B1C1D1F1B0C1D0F1D1C152F2D0C151F2D2
:102EF0000001E5EC04F002C0D1F101C0D0F1010EF7
:102F00000101D96FC60ED9C135F2E8CF34F2020102
:102F1000376B0C0E366F000135EC0BF001C0D3F1AE
:102F20000101D31F02C0D4F1D41FB1C133F2B0C12B
:102F300032F20001C0EC0BF002C0D6F101C0D5F1B5
:102F40000101D651D35D03E1D551D45D07E0000105
:102F500084EC04F0010E016E6DD00101DA6BD96BC7
:102F600000016CEC0CF0010E0101D96FB20ED9C159
:102F700041F2E8CF40F20201436B140E426F0001B0
:102F8000B7EC04F0010E0201336FB20E326F000194
:102F90008AEC0CF00101BE390F0B006E0034D86FC3
:102FA000D837FC0ED817140ED85DD76FD751B05D47
:102FB000D86F000EB159D96F140ED85DB06F000EE6
:102FC000D959B16FBE390F0B006E0034D86FD837A6
:102FD000FC0ED817DA6BD8C1D9F100016CEC0CF0FB
:102FE000010E0101D96FB20ED86FADC1DBF1ACC1DA
:102FF000DAF100019DEF0DF001C0D2F10101D251D3
:10300000FE0813E0D2C1D8F1ADC1DAF1ACC1D9F1FB
:10301000010EDC6FB20EDB6FB1C1DEF1B0C1DDF1CC
:103020000001D8EF11F004D00101000184EC04F09C
:10303000010E016E65EF1CF0040E02010425016E05
:10304000000E0521036E01C006F2076F040E042571
:10305000E96E000E0521EA6EECCF09F2ED52EFCFDA
:1030600008F209C252F208C251F20001E5EC04F084
:1030700007C2EAFF06C2E9FF02C0ECFFED5201C041
:10308000EFFF060E02010425016E000E0521036EFE
:1030900001C006F2076F060E0425E96E000E052139
:1030A000EA6EECCF09F2ED52EFCF08F209C252F20C
:1030B00008C251F20001E5EC04F007C2EAFF06C2C3
:1030C000E9FF02C0ECFFED5201C0EFFF020E02016A
:1030D0000425016E000E0521036E01C006F2076F84
:1030E000020E0425E96E000E0521EA6EECCF09F20E
:1030F000ED52EFCF08F209C252F208C251F20001BC
:10310000E5EC04F007C2EAFF06C2E9FF02C0ECFFEB
:10311000ED5201C0EFFF000C010E0201056FB80E69
:1031200005C241F2406F436B080E426F0001B7ECDD
:1031300004F00201036B026BB3C103F0B2C1E9FFFB
:10314000B3C1EAFFEFCF04F20201066B140E056F64
:10315000086B04C207F200018EEC09F002C001F214
:1031600001C000F20101B2C1E9FFB3C1EAFF080EDC
:10317000EF5CEF6EB3C103F0B2C1E9FFB3C1EAFF88
:10318000EFCF04F2B1C141F2B0C140F20201436B92
:1031900004C242F20001B7EC04F0010E0201056F17
:1031A000B80E046F000148DF0101AEC1E9FFAFC1F5
:1031B000EAFFB8C1EFFFB4C1E9FFB5C1EAFFBDC185
:1031C000ECFFED52BCC1EFFFB6C1E9FFB7C1EAFFAA
:1031D000BFC1ECFFED52BEC1EFFF02010251005D25
:1031E00003E10351015D02E0000E01D0010E016E0A
:1031F00000018CEF1CF0010E0201326F000167EC40
:1032000006F001C000F20201003D01D07CD000C2F6
:103210004BF24D6B140E4C6F00017CEC06F0036A10
:103220000101B151080FFE6F000E0320FF6FB76B55
:10323000AEC1B6F1B96BB86BB3C1BBF1B2C1BAF1F3
:10324000B5C1BDF1B4C1BCF1010EEA6EBE0EE96EAE
:10325000B0C1E2FFAFC1E1FFB151016E04E0E6CFC2
:10326000EEFF012EFCD7010E0201056FB60E046FB2
:103270000001E2DE080E0101B1250201026B016FBF
:10328000ADC133F2ACC132F2010E346F02C236F27C
:1032900001C235F2000129EC10F0010E0201026FAB
:1032A000B60E02C257F2566FFFC159F2FEC158F274
:1032B0000001DEEC06F002014C6B140E4B6FFFC1F7
:1032C0004EF2FEC14DF20001BDEC0FF002C0B9F1AB
:1032D00001C0B8F100C24BF202014D6B160E4C6FEB
:1032E00000017CEC06F0010E0201026FB80E02C272
:1032F00057F2566F596B020E586F0001DEEC06F064
:103300006AEC07F002010001B8EF1CF00101B76B95
:10331000AC6BAC510408D8A045D2AC51240DF3508D
:10332000036A5F0F016E000E032201C0B1F103C0FA
:10333000B2F1230EB125E96E000EB221EA6EEFB6AE
:1033400008D0230EB125E96E000EB221EA6EEFA877
:1033500001D026D2B1C1E9FFB2C1EAFFEF500A089D
:1033600012E0B1C1E9FFB2C1EAFFEF520DE1230E55
:10337000B125E96E000EB221EA6E000EEFB0010E2B
:10338000010B010801E10CD2B1C1E9FFB2C1EAFFB2
:10339000EF5003080DE1230EB125E96E000EB221B6
:1033A000EA6E000EEFB0010E010B010801E1F8D149
:1033B00000018CEC0EF002C0B0F101C0AFF11F0EA5
:1033C0000101B125E96E000EB221EA6EECCF03F0E7
:1033D000ED52EFCF01F0B051035C04E305E1015081
:1033E000AF5D02E3000E01D0010E036A03101BE083
:1033F0001F0EB125E96E000EB221EA6EECCF03F08C
:10340000ED52EF50FF08B86FFF0E0354B96FAF5184
:10341000B827B051B923010EB825016E000EB921AD
:10342000036E015010D01F0EB125E96E000EB221BF
:10343000EA6EECCF03F0ED52EF50AF5D006E03503B
:10344000B059036E0050AD6F03C0AEF1210EB1252F
:10345000E96E000EB221EA6EECCF03F0ED52EFCF31
:1034600001F0AE51035C05E303E1AD51015C01E302
:1034700097D1010E0201326F00011BEC0FF00152D7
:1034800001E190D11F0E0101B125016E000EB221A4
:10349000036E01C0B8F1B96F00018CEC0EF0B9C138
:1034A000EAFFB8C1E9FF02C0ECFFED5201C0EFFF37
:1034B000210E0101B125E96E000EB221EA6ED8900D
:1034C000EF34026EEC34036E0250ED52EF6E03C027
:1034D000ECFF1E0EB125E96E000EB221EA6EEF2A56
:1034E000B1C1E9FFB2C1EAFF010EEF5CF70FD8B03E
:1034F000C8D0090F0001D5EF1BF0020E0101B76F14
:10350000C0D01E0E0101B125E96E000EB221EA6E97
:10351000EF50030803E3120EB76F16D0230EB12548
:10352000E96E000EB221EA6EEFA006D0B1C1E9FF4C
:10353000B2C1EAFFEF6A08D0020EB76FB1C1E9FF6E
:10354000B2C1EAFF010EEF6E9CD01E0E0101B12543
:10355000E96E000EB221EA6EEF50030822E30F0E6F
:10356000B125E96E000EB221EA6EEF3C01D014D015
:103570000F0EB125E96E000EB221EA6EEFCFB8F161
:10358000B8C14BF202014D6B4C6B00017CEC06F0B4
:103590006AEC07F004D00101100EB76F000128D0CB
:1035A00001010F0EB125E96E000EB221EA6EEF3C6B
:1035B00001D016D00F0EB125E96E000EB221EA6ED1
:1035C000EFCFB8F1B8C1F9F1000102EC00F00F0E35
:1035D0000101B125E96E000EB221EA6EFF0EEF6E19
:1035E000110EB76FB1C1E9FFB2C1EAFF040EEF6E71
:1035F000010147D01E0E0101B125E96E000EB22176
:10360000EA6EEF50030803E3010EB76F08D0B2C1B2
:10361000F7F1B1C1F6F1000199EC0EF0010131D0E2
:10362000B2C1F7F1B1C1F6F199EC0EF0010129D068
:10363000B2C1F7F1B1C1F6F199EC0EF0010121D060
:10364000010E0101B76FB1C1E9FFB2C1EAFF090E76
:10365000EF6E17D01E0E0101B125E96E000EB221EA
:10366000EA6EEF50030803E3010EB76F08D0B2C152
:10367000F7F1B1C1F6F1000199EC0EF0010101D0B2
:103680000101B753D8B48CD0B7A917D0160EB12505
:10369000E96E000EB221EA6EEFCF00F0ECCF01F040
:1036A000ECCF02F0ECCF03F003C0B6F102C0B5F1ED
:1036B00001C0B4F100C0B3F11FD0160EB125E96E00
:1036C000000EB221EA6EEE52EE52EE52EDCF03F052
:1036D000EDCF02F0EDCF01F0EFCF00F0010EEE26BE
:1036E000000EEE22EE22ED2203C0B6F102C0B5F1CB
:1036F00001C0B4F100C0B3F1010EB125016E000E9E
:10370000B221036E01C0B8F1B96F0B0EB125E96E9D
:10371000000EB221EA6EECCFBBF1ED52EFCFBAF161
:103720000D0EB125E96E000EB221EA6EECCFBDF1AF
:10373000ED52EFCFBCF11A0EB125E96E000EB221A9
:10374000EA6EEFCFBEF1ECCFBFF1ECCFC0F1ECCF22
:10375000C1F103C0FBF101C0FAF1BBC1FDF1BAC177
:10376000FCF1BDC1FFF1BCC1FEF1B6C103F2B5C1B0
:1037700002F2B4C101F2B3C100F2C1C107F2C0C18B
:1037800006F2BFC105F2BEC104F2B7C108F2FF0ED6
:103790000201096F0B6B0A6B0001BFEC10F0010115
:1037A000AC2BB7D50001C1EF1CF0F2CF0EF0F29EAA
:1037B000E824F76AF736CF0FF66E370EF7220A00C5
:1037C000F550FA6E0800F5500EBEF28EF96EFA341E
:1037D00002354A35F43520362036303640365436F8
:1037E0000101AB91AB911F51F90FD8B0C6D0070FB3
:1037F0000001C3EF1CF0010E0101AD6F200EAC6F94
:10380000010EAF6FAA0EAE6F0001F0EF04F001528F
:1038100002E10101B2D00101AB81AA5303E1020E22
:103820001F6F0AD0AA51060803E1050E1F6F04D0CE
:10383000000184EC04F00101A0D045EF09F0015231
:1038400002E001011F6B010198D0010E0101AD6F73
:10385000A60EAC6F010EAF6F200EAE6F010EB16FF2
:10386000AA0EB06F010EB36F2A0EB26F0001C1EF46
:103870000AF0015215E00101AB81AA2D03D0030E1D
:103880001F6F0CD0AA51060803E1060E1F6F06D069
:10389000AB91000184EC04F001011F6B05D0000125
:1038A00084EC04F001011F6B68D0010E0101AD6FC3
:1038B000200EAC6F010EAF6FA60EAE6F2BC1B1F133
:1038C0002AC1B0F1000142EF17F0015202E00101FC
:1038D0001F6B010152D001011F6B2B5326E12A51AE
:1038E000480823E3010EAD6F2A0EAC6F010EAF6FD7
:1038F000AA0EAE6F010EB16F2C0EB06FADC1B3F159
:10390000ACC1B2F1010EB56F6C0EB46F010EB76FA2
:103910006E0EB66F000100D4015208E00101AA51F9
:10392000080803E1AB81040E1F6F000184EC04F072
:10393000010123D0010E0201326F00011BEC0FF0D8
:10394000015218E0010E0101AD6F200EAC6FAE6B9D
:10395000010EB06F2C0EAF6F2AC1B1F16DC1B3F182
:103960006CC1B2F16FC1B5F16EC1B4F1000143D4C5
:1039700001011F6B010101D00101ABB133D700017F
:10398000C5D413EF25F0F2CF0EF0F29EE824F76ACB
:10399000F736AB0FF66E390EF7220A00F550FA6EC5
:1039A0000800F5500EBEF28EF96EF637F6374A383B
:1039B000D63834393A38AA380101A9C1E9FFAAC179
:1039C000EAFFEFCF00F0ECCF01F0ECCF02F0ECCF4C
:1039D00003F003C0B4F102C0B3F101C0B2F100C002
:1039E000B1F1010EB86FAB0EB76F010EB96F0001E8
:1039F0007EEC08F041EF23F00101A9C1E9FFAAC163
:103A0000EAFFEFCF00F0ECCF01F0ECCF02F0ECCF0B
:103A100003F000501B5D09E101501C5D06E10250FE
:103A20001D5D03E103501E5D0CE026501B5D1CE193
:103A300027501C5D19E128501D5D16E129501E5DBF
:103A400013E1ACC103F0ABC1E9FFACC1EAFF010E69
:103A5000E26E150EE16E060E016EE6CFEEFF012E50
:103A6000FCD7010E016E02D0000E016E000156EF70
:103A700023F00101B091AD6BAD51040817E3AD51D6
:103A8000240DF350036A5F0F016E000E032201C084
:103A9000AEF103C0AFF1AEC1E9FFAFC1EAFFEF5035
:103AA0000A0802E1B08102D0AD2BE6D7B0B103D055
:103AB000FE0E016EE6D00B0EAE25E96E000EAF21B4
:103AC000EA6E5D2AD8B45E2A5EC0ECFFED525DC09E
:103AD000EFFF5E50120809E2FF0A03E15D5087081C
:103AE00004E2030E5E6EFF0E5D6E230EAE25E96EE0
:103AF000000EAF21EA6EEF900D0EAE25E96E000EBE
:103B0000AF21EA6EACC1ECFFED52ABC1EFFF160E78
:103B1000AE25E96E000EAF21EA6E010EEE26000E14
:103B2000EE22EE22ED221A0EAE25E96E000EAF2136
:103B3000EA6EEE52EE52EC6AED52EF6AED52EF6A27
:103B4000ED52EF6A010EAE25B16F000EAF21B26FDC
:103B5000EA6EB1C1E9FFAAC1E2FFA9C1E1FF0A0E05
:103B6000016EE6CFEEFF012EFCD7010EAE25016EF1
:103B7000000EAF21036E01C0B1F1B26F0B0EAE2586
:103B8000E96E000EAF21EA6EECCFB4F1ED52EFCF4B
:103B9000B3F10D0EAE25E96E000EAF21EA6EECCF4B
:103BA000B6F1ED52EFCFB5F1160EAE25E96E000E6F
:103BB000AF21EA6EEFCFB7F1ECCFB8F1ECCFB9F1AE
:103BC000ECCFBAF11A0EAE25E96E000EAF21EA6E07
:103BD000EFCFBBF1ECCFBCF1ECCFBDF1ECCFBEF140
:103BE00003C0FBF101C0FAF1B4C1FDF1B3C1FCF1B6
:103BF000B6C1FFF1B5C1FEF1BAC103F2B9C102F21B
:103C0000B8C101F2B7C100F2BEC107F2BDC106F2F0
:103C1000BCC105F2BBC104F2020E0201086FFF0E27
:103C2000096F0B6B0A6B0001BFEC10F00101AEC114
:103C3000E9FFAFC1EAFF010EEF6E160EAE25E96E89
:103C4000000EAF21EA6E010EEE26000EEE22EE22ED
:103C5000ED221F0EAE25016E000EAF21036E01C0D6
:103C6000B1F1B26F00018CEC0EF0B2C1EAFFB1C14C
:103C7000E9FF02C0ECFFED5201C0EFFF0101ADC151
:103C800001F0000195EF23F00101A951240DF3503B
:103C9000AB6BAA6F5F0EAA25E96E000EAB21EA6E30
:103CA000EF50030802E0000E01D0010E016E00018A
:103CB000000C0101BF51240DF350C16BC06F230EE6
:103CC000C027000EC1235F0EC025E96E000EC12182
:103CD000EA6E000EEFB6010E016E0001EDEF21F06D
:103CE0000101BF51240DF350036A5F0F016E000EF6
:103CF000032201C0C2F103C0C3F1230EC225E96E45
:103D0000000EC321EA6EEFA651D0230EC225E96E44
:103D1000000EC321EA6EEFA40ED0DA6B140ED96F39
:103D200000016CEC0CF0230E0101C225E96E000EBF
:103D3000C321EA6EEF94120EC225E96E000EC32174
:103D4000EA6EECCFC5F1ED52EFCFC4F1C45310E1F0
:103D5000C5530EE1000184EC04F0230E0101C225DD
:103D6000E96E000EC321EA6EEF96000E016E20D0C0
:103D7000120EC225E96E000EC321EA6EFF0EEF2679
:103D800002E2EE52ED06C1C103F0C0C1C4F1C1C1EF
:103D9000C5F10001ACEC0BF0C5C1EAFFC4C1E9FFFD
:103DA00001C0EFFF010E016E010102D0000E016E95
:103DB0000001F8EF21F00101CE51240DF350D06B3A
:103DC000CF6F140ECF25016E000ED021036E01506F
:103DD0005F0FE96E000E0320EA6EECCFD0F1ED52DA
:103DE000EFCFCFF1CF5305E1D05303E1000E016EC9
:103DF00030D0CE51240DF350D06BCF6F0F0ECF25A6
:103E0000016E000ED021036E01505F0FE96E000EAF
:103E10000320EA6EEF3C09D00201326B00011BEC7B
:103E20000FF00150010115D014D0CE51240DF350E4
:103E3000D06BCF6F230ECF27000ED0235F0ECF2580
:103E4000E96E000ED021EA6E000EEFB2010E016E97
:103E500000D00001000C97C1EAFF96C1E9FF010103
:103E6000C2C1EFFFE92AD8B4EA2AEF6A962BD8B488
:103E7000972B0001000C0101C351016AC25D03E2EE
:103E8000C2C100F00CD0006A080EC46FC237003601
:103E9000C351005CD8B0006E0136C42FF7D70001C3
:103EA000000C0150C0C1C2F1640E0101C36F0001DA
:103EB000E2DF00C0C0F10150300E08E10101C1A3F2
:103EC0000FD0C1B70DD0C1B9200E04D00101C197E8
:103ED000C199C181012601C0C2F10001BCDF01010D
:103EE000C0C1C2F10A0EC36F0001C5DF00C0C0F13E
:103EF0000150300E08E10101C1B70AD0C1A108D0BC
:103F0000C1B9200E0001012601C0C2F1A4DF0101E8
:103F1000300EC027C0C1C2F100019DDF28EF22F0A2
:103F2000C0C1C2F1BFC1C1F1C2C103F00101C1C131
:103F3000E9FFC2C1EAFFEF5206E0C12BD8B4C22BA1
:103F40000001F2D70101BF51C15D006EC051C259DD
:103F5000036E00C001F000012FEF22F0C9C1CEF1C5
:103F60002ADF015204E1000E016E026E73D00101DE
:103F7000C951240DF350CF6BCE6F0F0ECE25016EBD
:103F8000000ECF21036E01505F0FE96E000E03207B
:103F9000EA6EEF3C03D0CB6BCA6B18D0C951240D2D
:103FA000F350CF6BCE6F100ECE25016E000ECF21D9
:103FB000036E01505F0FE96E000E0320EA6EECCF36
:103FC00003F0ED52EFCFCAF103C0CBF1CA0ED88097
:103FD000CA55CC6F030ECB55CD6FC951240DF3508C
:103FE000CF6BCE6F140ECE25016E000ECF21036E67
:103FF00001505F0FE96E000E0320EA6EECCF03F074
:10400000ED52EFCF01F00350CD5D1AE303E1CC5147
:10401000015C16E2C951240DF350CF6BCE6F140E24
:10402000CE25016E000ECF21036E01505F0FE96EA9
:10403000000E0320EA6EECCF03F0ED52EF5003D0F8
:10404000CDC103F0CC51CC6F03C0CDF1CCC101F098
:10405000CDC102F000017AEF21F00101C951240D18
:10406000F350036A5F0F016E000E032201C0CAF114
:1040700003C0CBF10F0ECA25E96E000ECB21EA6E0C
:10408000EF3C03D0000E016ECCD0230ECA25E96EA2
:10409000000ECB21EA6E000EEFB2010E010B03E120
:1040A000000E016EBED0010ECA25016E000ECB219E
:1040B000036E01C0CCF1CD6F0B0ECA25E96E000E68
:1040C000CB21EA6EECCFCFF1ED52EFCFCEF10D0E5A
:1040D000CA25E96E000ECB21EA6EECCFD1F1ED528C
:1040E000EFCFD0F1160ECA25E96E000ECB21EA6E95
:1040F000EFCFD2F1ECCFD3F1ECCFD4F1ECCFD5F1BF
:104100001A0ECA25E96E000ECB21EA6EEFCFD6F16A
:10411000ECCFD7F1ECCFD8F1ECCFD9F10F0ECA2507
:10412000E96E000ECB21EA6EEFCFDAF1100ECA2550
:10413000E96E000ECB21EA6EECCFDCF1ED52EFCF51
:10414000DBF103C0FBF101C0FAF1CFC1FDF1CEC13B
:10415000FCF1D1C1FFF1D0C1FEF1D5C103F2D4C150
:1041600002F2D3C101F2D2C100F2D9C107F2D8C123
:1041700006F2D7C105F2D6C104F2180E0201086F8B
:10418000DAC109F2DCC10BF2DBC10AF20001BFECBB
:1041900010F0160E0101CA25016E000ECB21036E30
:1041A00001C0CCF1CD6FEA6E01C0E9FFEFCFCEF1D7
:1041B000ECCFCFF1ECCFD0F1ECCFD1F1100ECA257E
:1041C000E96E000ECB21EA6EECCF03F0ED52EFCF9B
:1041D00000F003C001F0026A036ACE510026CF51FD
:1041E0000122D0510222D1510322CDC1EAFFCCC11C
:1041F000E9FF00C0EFFF01C0ECFF02C0ECFF03C00D
:10420000ECFF230ECA25E96E000ECB21EA6EEF9279
:10421000230ECA25E96E000ECB21EA6EEF98010E3F
:10422000016E0001000C0101C051240DF350036A1E
:104230005F0F016E000E032201C0C5F103C0C6F17D
:10424000140EC525E96E000EC621EA6EECCFCAF148
:10425000ED52EFCFC9F1C95306E1CA5304E1000E94
:10426000016E026EB4D00F0EC525E96E000EC62198
:10427000EA6EEF3C3BD00F0EC525016E000EC62145
:10428000036E01C0C9F1CA6F0201326B000167EC15
:1042900006F0CAC1EAFFC9C1E9FF01C0EFFF0F0E76
:1042A0000101C525E96E000EC621EA6EEF3C04D07F
:1042B000000E016E026E8BD0100EC525E96E000E49
:1042C000C621EA6EEC6AED52EF6A0F0EC525E96E63
:1042D000000EC621EA6EEFCFC9F1C9C14BF202014F
:1042E0004D6B280E4C6F00017CEC06F0C0C1C9F18B
:1042F000000134D602C0C8F101C0C7F1230E01018C
:10430000C525E96E000EC621EA6EEF88C451C85D6E
:1043100008E303E1C751C35D04E2C4C1C8F1C3C1EE
:10432000C7F1C8C103F0C751D8B4C807C707031005
:1043300032E0C2C103F0C151C12BD8B4C22BE96E27
:1043400003C0EAFFEFCFC9F1C9C155F20001D1ECBA
:1043500006F0140E0101C525E96E000EC621EA6EB5
:10436000010EEF5C006E000EEC58036E0050ED5233
:10437000EF6E03C0ECFF100EC525E96E000EC621DE
:10438000EA6E010EEF24016E000EEC20ED5201C02A
:10439000EFFFEC6EC6D7100EC525E96E000EC621E4
:1043A000EA6EECCFCAF1ED52EFCFC9F1CA51020863
:1043B0000AE2FF0A03E1C951C90805E2C0C1C9F117
:1043C00000014BDE0101C7C101F0C8C102F00001CC
:1043D0003DEF22F0A9C1BFF16CD401520CE0A9C19C
:1043E000BFF1010E0101C16FAA0EC06F000178D4A8
:1043F000015201E0F4D780B843D001019553D8B4FD
:1044000002D000013DD0A9C1CEF10001D4DC01529F
:1044100037E0010E0101956F9451942BBF6F010E8F
:10442000976FAB0E966FC06BC05100014FEC00F060
:104430000101C02B006EC26F00010DDD090E0101EC
:10444000C05DF2E1BFC1C0F11B0EC16F000129D5F3
:10445000010E0101C06FAB0EBF6F000161D501C03D
:10446000BFF1A9C1C0F1010E0101C26FAB0EC16F56
:10447000C46B01C0C3F10001D6D6A9C1C9F1EDDDFD
:1044800080A803D00101956B0001000E016EE7EFDB
:1044900023F00101AC51240DF350036A5F0F016E4C
:1044A000000E032201C0ADF103C0AEF1230EAD2515
:1044B000E96E000EAE21EA6EEFB603D0000E016E7B
:1044C0000DD0000184EC04F0230E0101AD25E96E4E
:1044D000000EAE21EA6EEF96010E016E000198EF1C
:1044E00022F00101A951240DF350036A5F0F016E00
:1044F000000E032201C0AAF103C0ABF1AAC1E9FF7B
:10450000ABC1EAFFEF5003080FE0AAC1E9FFABC15E
:10451000EAFFEF50020808E0ABC1F7F1AAC1F6F1DB
:10452000000199EC0EF079D0A9C1ACF10001B1D72E
:10453000010E0101AA25016E000EAB21036E01C020
:10454000ACF1AD6F0B0EAA25E96E000EAB21EA6E41
:10455000ECCFAFF1ED52EFCFAEF10D0EAA25E96E23
:10456000000EAB21EA6EECCFB1F1ED52EFCFB0F11E
:10457000160EAA25E96E000EAB21EA6EEFCFB2F15E
:10458000ECCFB3F1ECCFB4F1ECCFB5F11A0EAA2514
:10459000E96E000EAB21EA6EEFCFB6F1ECCFB7F1CA
:1045A000ECCFB8F1ECCFB9F103C0FBF101C0FAF1E7
:1045B000AFC1FDF1AEC1FCF1B1C1FFF1B0C1FEF17F
:1045C000B5C103F2B4C102F2B3C101F2B2C100F24B
:1045D000B9C107F2B8C106F2B7C105F2B6C104F21B
:1045E000110E0201086FFF0E096F0B6B0A6B0001C1
:1045F000BFEC10F0160E0101AA25E96E000EAB21EA
:10460000EA6E010EEE26000EEE22EE22ED22AAC187
:10461000E9FFABC1EAFF040EEF6E000132EF24F0B8
:104620008CEC0EF002C0A7F101C0A6F101019B5174
:10463000F80FD8B01CD1080F00013AEF24F0010E9A
:10464000EA6EA20EE96E010EE26E900EE16E040EAD
:10465000016EE6CFEEFF012EFCD7010E01019B6F2C
:104660000001010E0201326F00011BEC0FF001523C
:104670000FE0010E0101AA6FA20EA96F0001DCEF8D
:104680001CF0A7C199F1A6C198F1020E01019B6F20
:104690000101EDD0010E0101AA6FA20EA96F010E5A
:1046A000AC6F9C0EAB6F0001FCEF1CF0015204E0FC
:1046B000030E01019B6F2CD00101A751995D04E30A
:1046C00005E19851A65D02E3000E01D0010E036AD8
:1046D000031013E0FF0ED8809855A96FFF0E99556F
:1046E000AA6FA651A927A751AA23010EA925016ED9
:1046F000000EAA21036E015007D09851A65D006EEE
:104700009951A759036E0050280802E2010E9B6FD1
:10471000AED0010E0101AA6F9C0EA96F030EAC6F03
:10472000E80EAB6F000139EF1DF001C09AF10101F5
:104730009A51FE080BE000018CEC0EF002C099F1DA
:1047400001C098F1040E01019B6F00D090D09AC176
:10475000A9F144EC1EF0015204E0050E01019B6F2B
:104760002CD00101A751995D04E305E19851A65DA4
:1047700002E3000E01D0010E036A031013E0FF0EE6
:10478000D8809855A96FFF0E9955AA6FA651A927F1
:10479000A751AA23010EA925016E000EAA21036EBE
:1047A000015007D09851A65D006E9951A759036E2C
:1047B0000050C80802E2070E9B6F59D09AC1A9F1B8
:1047C00044EC1EF0015210E09AC1A9F103D601C0D9
:1047D000A8F10101A85306E0060E9B6FA7C199F14D
:1047E000A6C198F104D00001030E01019B6F3FD0D8
:1047F0009AC1CEF1DBEC1EF0015204E0070E01017C
:104800009B6F2CD00101A751995D04E305E19851FC
:10481000A65D02E3000E01D0010E036A031013E04F
:10482000FF0ED8809855A96FFF0E9955AA6FA65113
:10483000A927A751AA23010EA925016E000EAA21BE
:10484000036E015007D09851A65D006E9951A7598B
:10485000036E0050C80802E2070E9B6F08D09AC191
:10486000A9F13FD6030E01019B6F01D001010001A8
:1048700014EF25F0F2CF0EF0F29EE824F76AF73637
:10488000990FF66E480EF7220A00F550FA6E0800EE
:10489000F5500EBEF28EF96E3E46624694461247C1
:1048A0004E47BC47F0475E48F86AD09E088EEA6AD9
:1048B000E96AC150C00B0F09C16E070EB46E496A98
:1048C0004A6A506A516A526A536A5A6A5B6A5C6AF7
:1048D0005D6A040E5E6E58920101156B166B176BC4
:1048E000186B196B1A6B1B6B1C6B1D6B1E6B1F6B94
:1048F0002A6B2B6B2C6B2D6B2E6B2F6B306B316BF4
:10490000326B336B346B356B366B376B386B396BA3
:104910003A6B3B6B3C6B3D6B3E6B3F6B406B416B53
:10492000426B436B446B456B466B476B486B496B03
:104930004A6B4B6B4C6B4D6B4E6B4F6B506B516BB3
:10494000526B536B546B556B566B576B586B596B63
:104950005A6B5B6B5C6B5D6B5E6B5F6B606B616B13
:10496000626B636B646B656B666B676B686B696BC3
:104970006A6B6B6B6C6B6D6B6E6B6F6B450E706FF8
:10498000716B726B200E736F746B756B766B776BDC
:10499000640E786F110E796F2A0E7A6F9D0E7B6F01
:1049A0000A0E7C6F0B0E7D6F0C0E7E6F0D0E7F6FEF
:1049B0000A0E806F0B0E816F0C0E826F0E0E836FCE
:1049C000040E846F856B866F010E876F886B080EEF
:1049D000896F8A6B8B6B010E8C6F020E8D6F030ECD
:1049E0008E6F040E8F6F946B956B966B976B986BB5
:1049F000996BFE0E9A6F9B6B9C6B9D6B9E6B9F6B76
:104A0000A06BA16BA26BA36BA46BA56B000172EFF3
:104A100000F07FEF00F094EF00F09FEF00F07BEFED
:0C4A200004F0F0EF1BF0FCD5FCD7030005
:020000040030CA
:0E000000290E3E1E008181000FC00FE00F4050
:00000001FF
;PIC18F2550
;CRC=AD40  CREATED="19-feb-11 09:20"
