:06000000BFEF4CF0000C04
:08000800056ED8CF06F0E0CF31
:1000100007F00001E9CF0DF0EACF08F0E1CF09F0D9
:10002000E2CF0AF0D9CF0BF0DACF0CF0F3CF14F017
:10003000F4CF15F0FACF16F000C00FF001C010F0A9
:1000400002C011F003C012F004C013F0F2AA2CEFAA
:1000500000F0F2B4C0EF06F00FC000F010C001F0E5
:1000600011C002F012C003F013C004F00DC0E9FF8C
:1000700008C0EAFF088E09C0E1FF0AC0E2FF0BC01A
:10008000D9FF0CC0DAFF14C0F3FF15C0F4FF16C08F
:10009000FAFF055007C0E0FF06C0D8FF1000F2CFFE
:1000A0000EF0F29EF76AB80FF66E000EF722090006
:1000B000F5500EBEF28E1200546F3A2025730D0AD1
:1000C0000000F2CF0EF0F29EF76ADC0FF66E000E23
:1000D000F7220900F5500EBEF28E120046726F6DC7
:1000E0003A2025730D0A0000F2CF0EF0F29EF76A57
:1000F000020FF66E010EF7220900F5500EBEF28EC9
:1001000012005375626A6563743A2025730D0A0004
:10011000F2CF0EF0F29EF76A2A0FF66E010EF7226A
:100120000900F5500EBEF28E1200280C0106F2CF27
:100130000EF0F29EF76A480FF66E010EF7220900E4
:10014000F5500EBEF28E12000D0A0A0A5265736552
:100150007474696E6720454550524F4D2E2E2E0007
:10016000F2CF0EF0F29EF76A7A0FF66E010EF722CA
:100170000900F5500EBEF28E12000D0A4545505290
:100180004F4D20436C65617265642E20205265736B
:100190006574696E67204D43552E2E2E0D0A0000A2
:1001A000F2CF0EF0F29EF76ABA0FF66E010EF7224A
:1001B0000900F5500EBEF28E12000D0A0A0A454ED5
:1001C0004332384A36302028553429205445535478
:1001D0003A200000F2CF0EF0F29EF76AEE0FF66EB4
:1001E000010EF7220900F5500EBEF28E12004641B4
:1001F000494C0000F2CF0EF0F29EF76A0E0FF66E39
:10020000020EF7220900F5500EBEF28E1200504188
:1002100053530000F2CF0EF0F29EF76A2E0FF66EE7
:10022000020EF7220900F5500EBEF28E12000D0AE2
:10023000415432353235362028553729205445531C
:10024000543A2000F2CF0EF0F29EF76A5E0FF66E7F
:10025000020EF7220900F5500EBEF28E12000D0AB2
:10026000424F544820454E4332384A363020414EA2
:10027000442041543235323536204641494C2C20F9
:10028000504F535349424C4520373448433038206F
:1002900028553529204641494C5552450000F2CF9A
:1002A0000EF0F29EF76AB80FF66E020EF722090002
:1002B000F5500EBEF28E12000D0A424C494E4B49CB
:1002C0004E47204C45445320554E54494C20413410
:1002D000204953205052455353454400F2CF0EF06D
:1002E000F29EF76AF60FF66E020EF7220900F5503D
:1002F0000EBEF28E12000D0A0A5245534554494E65
:100300004720424F4152440D0A0A0000F2CF0EF03E
:10031000F29EF76A260FF66E030EF7220900F550DB
:100320000EBEF28E12000D0A0A4D41432041646454
:10033000726573733A2025583A25583A25583A255C
:10034000583A25583A255800F2CF0EF0F29EF76A37
:10035000620FF66E030EF7220900F5500EBEF28E04
:1003600012000D0A4448435020456E61626C65647A
:100370003A200000F2CF0EF0F29EF76A8E0FF66E72
:10038000030EF7220900F5500EBEF28E12005452F1
:1003900055450000F2CF0EF0F29EF76AAE0FF66EF2
:1003A000030EF7220900F5500EBEF28E12000D0A60
:1003B0004448435020426F756E643A200000F2CFEB
:1003C0000EF0F29EF76AD80FF66E030EF7220900C0
:1003D000F5500EBEF28E120046414C534500F2CF4E
:1003E0000EF0F29EF76AF80FF66E030EF722090080
:1003F000F5500EBEF28E12000D0A49502041646481
:10040000726573733A200000F2CF0EF0F29EF76A25
:10041000220FF66E040EF7220900F5500EBEF28E82
:1004200012000D0A476174657761793A2000F2CFB6
:100430000EF0F29EF76A480FF66E040EF7220900DE
:10044000F5500EBEF28E12000D0A4E65746D61738A
:100450006B3A2000F2CF0EF0F29EF76A6E0FF66E46
:10046000040EF7220900F5500EBEF28E12000D0A9E
:10047000444E533A2000F2CF0EF0F29EF76A900FEE
:10048000F66E040EF7220900F5500EBEF28E120031
:100490000D0A534D54502053657276657220486F93
:1004A00073746E616D653A2025730000F2CF0EF013
:1004B000F29EF76AC60FF66E040EF7220900F55099
:1004C0000EBEF28E12000D0A534D54502053657229
:1004D00076657220506F72743A20254C5500F2CF29
:1004E0000EF0F29EF76AF80FF66E040EF72209007E
:1004F000F5500EBEF28E12000D0A452D4D61696C4D
:1005000020546F3A20257300F2CF0EF0F29EF76A66
:10051000220FF66E050EF7220900F5500EBEF28E80
:1005200012000D0A452D4D61696C2046726F6D3ABF
:1005300020257300F2CF0EF0F29EF76A4E0FF66E92
:10054000050EF7220900F5500EBEF28E12000D0ABC
:10055000452D4D61696C205375626A6563743A205C
:1005600025730000F2CF0EF0F29EF76A7E0FF66E52
:10057000050EF7220900F5500EBEF28E12000D0A8C
:10058000452D4D61696C20426F64793A20257300D6
:10059000F2CF0EF0F29EF76AAA0FF66E050EF72262
:1005A0000900F5500EBEF28E12002020425954452B
:1005B00025553A200000F2CF0EF0F29EF76AD00FD8
:1005C000F66E050EF7220900F5500EBEF28E1200EF
:1005D0000D0A0A4D414320414444524553533A00C9
:1005E000F2CF0EF0F29EF76AFA0FF66E050EF722C2
:1005F0000900F5500EBEF28E12000D0A202042595D
:10060000544525553A200000F2CF0EF0F29EF76ACD
:10061000220FF66E060EF7220900F5500EBEF28E7E
:1006200012000D0A0A55534520444843503F2028E4
:10063000592F4E293A200000F2CF0EF0F29EF76AB1
:10064000520FF66E060EF7220900F5500EBEF28E1E
:1006500012000D0A0A495020414444524553533A6E
:100660000D0A0000F2CF0EF0F29EF76A7E0FF66ED2
:10067000060EF7220900F5500EBEF28E12000D0A8A
:10068000474154455741593A0D0A0000F2CF0EF048
:10069000F29EF76AA60FF66E060EF7220900F550D5
:1006A0000EBEF28E12000D0A4E45544D41534B3A88
:1006B0000D0A0000F2CF0EF0F29EF76ACE0FF66E32
:1006C000060EF7220900F5500EBEF28E12000D0A3A
:1006D000444E533A0D0A0000F2CF0EF0F29EF76A34
:1006E000F20FF66E060EF7220900F5500EBEF28EDE
:1006F00012000D0A0A536176656420746F20454527
:1007000050524F4D2E2020526573657474696E6788
:100710002E2E2E00F2CF0EF0F29EF76A2E0FF66EFE
:10072000070EF7220900F5500EBEF28E12000D0AD8
:100730000A534D545020484F5354204E414D453A92
:100740002000F2CF0EF0F29EF76A5C0FF66E070EF5
:10075000F7220900F5500EBEF28E12000D0A534D1D
:10076000545020504F52542028555355414C4C5909
:10077000203235293A200000F2CF0EF0F29EF76ABF
:10078000920FF66E070EF7220900F5500EBEF28E9C
:1007900012000D0A546F3A200000F2CF0EF0F29EC4
:1007A000F76AB40FF66E070EF7220900F5500EBE79
:1007B000F28E12000D0A46726F6D3A200000F2CFE1
:1007C0000EF0F29EF76AD80FF66E070EF7220900B8
:1007D000F5500EBEF28E12000D0A5375626A656303
:1007E000743A2000F2CF0EF0F29EF76AFE0FF66E1A
:1007F000070EF7220900F5500EBEF28E12000D0A08
:10080000426F64793A200000F2CF0EF0F29EF76A50
:10081000220FF66E080EF7220900F5500EBEF28E7A
:1008200012000D0A0A442920446973706C61792012
:1008300053657474696E67730000F2CF0EF0F29E18
:10084000F76A540FF66E080EF7220900F5500EBE37
:10085000F28E12000D0A532920436F6E6669677588
:100860007265205443502F4950202857696C6C20E2
:10087000526573657420426F617264290000F2CF83
:100880000EF0F29EF76A980FF66E080EF722090036
:10089000F5500EBEF28E12000D0A542920546573D5
:1008A00074204861726477617265202857696C6CA6
:1008B00020526573657420426F6172642900F2CF23
:1008C0000EF0F29EF76AD80FF66E080EF7220900B6
:1008D000F5500EBEF28E12000D0A4D2920436F6EA8
:1008E00066696775726520534D545000F2CF0EF063
:1008F000F29EF76A060FF66E090EF7220900F55010
:100900000EBEF28E12000D0A45292053656E64203A
:10091000452D4D61696C0000F2CF0EF0F29EF76A32
:10092000320FF66E090EF7220900F5500EBEF28E58
:1009300012000D0A5A2920436C656172204545500A
:10094000524F4D202843617574696F6E2129000054
:10095000F2CF0EF0F29EF76A6A0FF66E090EF722DA
:100960000900F5500EBEF28E12000D0A0A53656E94
:1009700064696E6720452D4D61696C2E202057619A
:10098000746368204C434420666F722073746174F2
:1009900075732E0D0A0A0000F2CF0EF0F29EF76A70
:1009A000B20FF66E090EF7220900F5500EBEF28E58
:1009B00012000D0A454550524F4D20436C6561723F
:1009C00065640D0A0000F2CF0EF0F29EF76AE00FA8
:1009D000F66E090EF7220900F5500EBEF28E1200D7
:1009E0004E4F2045544845524E4554204C494E4B9D
:1009F0000000F2CF0EF0F29EF76A0C0FF66E0A0EB0
:100A0000F7220900F5500EBEF28E12004448435002
:100A1000204E4F5420424F554E440000F2CF0EF06E
:100A2000F29EF76A360FF66E0A0EF7220900F550AD
:100A30000EBEF28E12005265736F6C76696E67207F
:100A4000444E5300F2CF0EF0F29EF76A5E0FF66E40
:100A50000A0EF7220900F5500EBEF28E1200534D19
:100A600054502049646C6500F2CF0EF0F29EF76A94
:100A7000820FF66E0A0EF7220900F5500EBEF28EB6
:100A80001200436F6E6E656374696E670000F2CF8B
:100A90000EF0F29EF76AA80FF66E0A0EF722090012
:100AA000F5500EBEF28E120053656E64696E6720BB
:100AB000534D545020436D640000F2CF0EF0F29E6F
:100AC000F76AD40FF66E0A0EF7220900F5500EBE33
:100AD000F28E12005265616420534D5450205265CD
:100AE00073706F6E73650000F2CF0EF0F29EF76ABE
:100AF000020FF66E0B0EF7220900F5500EBEF28EB5
:100B0000120053656E64696E6720626F64792F68A6
:100B10006561646572730000F2CF0EF0F29EF76AB1
:100B2000320FF66E0B0EF7220900F5500EBEF28E54
:100B30001200436C6F73696E6700F2CF0EF0F29E85
:100B4000F76A540FF66E0B0EF7220900F5500EBE31
:100B5000F28E12000A4552523A2025750000F2CF5B
:100B60000EF0F29EF76A780FF66E0B0EF722090070
:100B7000F5500EBEF28E12000A456D61696C73204D
:100B800053656E743A2025550000F2CF0EF0F29EA8
:100B9000F76AA40FF66E0B0EF7220900F5500EBE91
:100BA000F28E12000D0A0A46696E64696E6720496A
:100BB00050206164647265737320666F72202573C0
:100BC0000000F2CF0EF0F29EF76ADC0FF66E0B0E0D
:100BD000F7220900F5500EBEF28E12000D0A4950A0
:100BE0002061646472657373206973207265736F2A
:100BF0006C76656420746F200000F2CF0EF0F29ED8
:100C0000F76A140FF66E0C0EF7220900F5500EBEAF
:100C1000F28E12000D0A4F70656E696E6720736F59
:100C2000636B6574207769746820534D545020734A
:100C300065727665722E2E2E0000F2CF0EF0F29EB7
:100C4000F76A540FF66E0C0EF7220900F5500EBE2F
:100C5000F28E12000D0A534D545020656E67696E76
:100C60006520697320627573792120205472792080
:100C7000616761696E20696E206120666577206D0D
:100C80006F6D656E74732E00F2CF0EF0F29EF76AF0
:100C9000A20FF66E0C0EF7220900F5500EBEF28E72
:100CA00012000D0A534D5450204572726F72202568
:100CB0005800F2CF0EF0F29EF76ACC0FF66E0C0ED3
:100CC000F7220900F5500EBEF28E12000D0A534DA8
:100CD000545020436F6E6E656374696F6E2061635C
:100CE0006365707465642C206E6F772073656E6425
:100CF000696E6720626F6479206F6620656D616937
:100D00006C2E0000F2CF0EF0F29EF76A1E0FF66E08
:100D10000D0EF7220900F5500EBEF28E12000D0ADC
:100D2000452D6D61696C2061636365707465642035
:100D3000627920534D54502073657276657221009C
:100D4000F2CF0EF0F29EF76A5A0FF66E0D0EF722F2
:100D50000900F5500EBEF28E12000D0A452D4D61B0
:100D6000696C2072656A65637465642062792053DA
:100D70004D5450207365727665722120255800000D
:100D8000502AD8B4512A532A5350090802E2522A51
:100D9000536A0B0ED76EDB0ED66EF2942CEF00F07A
:100DA0009350FD0B0509936E7C0E9416C69A200E87
:100DB000C66E400EC76E8B828B80000CC950AEC3CE
:100DC000C9FFC730FEE3C9CF01F0000C8A96050EBB
:100DD0000301AE6F0001F2DF0301AE6B0001EEDF35
:100DE00001C0ADF38A86000E0301ADA1010E016EB4
:100DF0000001000C030EEA6E650EE96EEF500EE086
:100E00000C0E016E006A002EFED7012EFBD7F70EE6
:100E1000006E002EFED700D0EF2EF2D7000C8A967F
:100E2000010E0301AE6F0001C9DF60C3AEF3C6DF80
:100E30008A863DEF07F0FA0E03015F6F8A8693966C
:100E4000C69A200EC66E400EC76E949A94969488E9
:100E50000001BCDF01520CE103015F53D8A402D0B2
:100E6000000106D05F07010E656F0001C3DFF1D7F7
:100E7000020E0301606F0001D2D777EF17F0A6DFF3
:100E80000152FDE08A96030E0301AE6F000196DF6A
:100E9000ABC3AEF393DFAAC3AEF390DF0301AE6B37
:100EA00000018CDF01C0ACF38A860301ACC301F002
:100EB0000001000C9EA8FED7AD6E000C87DF01522A
:100EC000FDE08A96060E0301AE6F000177DF8A8689
:100ED0008A96020E0301AE6F000170DFAAC3AEF363
:100EE0006DDFA9C3AEF36ADFABC3AEF367DF8A86FB
:100EF000000C0301A3C303F0A251A22BD8B4A32B6F
:100F0000A66F03C0A7F3A4C3A8F303C0AAF3A96FF5
:100F1000A4C3ABF30001D2DFA5C3A6F3A3C3AAF316
:100F2000A2C3A9F3A5C3ABF3C9DF000C0301626B35
:100F30006251000197EC00F00301622B0001BADF5F
:100F4000170E0301625DF4E1616B606B6151020891
:100F500010E303E1605121080CE361C3AAF360C30D
:100F6000A9F3AB6B0001AADF0301602BD8B4612B9E
:100F7000EDD7AA6BC00EA96F010EAB6F00019EDF0B
:100F80000301AA6BCD0EA96FAB6B000197DF0301C4
:100F9000AA6BCE0EA96F030EAB6F00018FDF0301AA
:100FA000AA6BCF0EA96F040EAB6F000187DF0301A0
:100FB000AA6BD00EA96F050EAB6F00017FDF030196
:100FC000AA6BD10EA96F060EAB6F000177DF03018C
:100FD000AA6BD20EA96F070EAB6F00016FDF030182
:100FE000A36BD70EA26FA56B190EA46F000181DF52
:100FF000020E0301A36F1D0EA26F130EA56F880EC4
:10100000A46F000176DF020E0301A36F1F0EA26F13
:10101000130EA56F880EA46F00016BDF020E030193
:10102000AA6F210EA96F550EAB6F000147DF0301B8
:10103000626B62510001B0EC00F00301622B000111
:1010400039DF240E0301625DF4E1FF000001000CB2
:10105000020E0301AB6F210EAA6F000110DF0150D9
:10106000550801E063DF79EF17F003016CC303F06B
:101070006B516B2BD8B46C2B736F03C074F303C02C
:10108000ABF3AA6F0001FBDE01C06FF303016CC379
:1010900003F06B516B2BD8B46C2B736F03C074F3DC
:1010A00003C0ABF3AA6F0001EADE01C070F30301D5
:1010B0006CC303F06B516B2BD8B46C2B736F03C0F4
:1010C00074F303C0ABF3AA6F0001D9DE01C071F362
:1010D0006CC3ABF36BC3AAF3D2DE01C072F303019E
:1010E0006DC3E9FF6EC3EAFF6FC3EFFF70C3ECFF90
:1010F00071C3ECFF72C3ECFF0001000C830ED56ED0
:101100000B0ED76EDB0ED66EF28AC00EF212FAEF1D
:1011100015F0C95015C4C9FFC730FEE3C9CF01F0AF
:10112000000C8B920AC40CF40AC415F40001F1DF20
:101130000401156B0001EDDF01C00BF48B8204018B
:101140000BC401F00001000C8B92FF0E0401156F1F
:101150000001DFDF8B8205EF0AF08B920401105152
:101160004009126F156F0001D4DF11C415F4D1DFEF
:101170008B82000C8B9204010F51A009116F156F27
:101180000001C7DF10C415F4C4DF8B82000C8B9202
:10119000040112518009146F156F0001BADF13C4E6
:1011A00015F4B7DF8B82000C1F0E04010F6F030EC6
:1011B000106F0001DFDF040E0401106F0D0E0F6FC2
:1011C000010E0F25E96E000E1021EA6EEFCF11F42B
:1011D0001F0E126F11C413F40001D9DF000C8B92A3
:1011E00068C36AF368C315F4000193DF0401156B4B
:1011F00000018FDF0401156B00018BDF01C069F373
:101200008B82030169C301F00001000C020E04018E
:101210000E6F140E0D6F0001C7DF140E0401106F66
:1012200064C311F4000199DF030E0301686F650EBA
:10123000E96E68C3EAFFEFCF69F3160E0401106F81
:1012400069C311F4000189DF030E0301686F650EA5
:10125000676F010E6725E96E000E6821EA6EEFCF19
:1012600069F3170E0401106F69C311F4000175DFF3
:10127000030E04010E6F0A0E0D6F000195DF0A0EBA
:101280000301686F0001ABDF01C067F3000E0301CB
:1012900001B0010E000AD8B402D00001F0D700015D
:1012A000000C020E04010E6F140E0D6F00017CDFA6
:1012B000140E0401106F65C311F400014EDF120E0D
:1012C0000401106F010E116F000147DF030E0401CE
:1012D0000E6F0A0E0D6F000167DF0A0E0301686FC3
:1012E00000017DDF01C068F3000E030101B0010EB3
:1012F000000AD8B402D00001F0D7020E04010E6F2C
:10130000140E0D6F000150DF120E0401106F116BEF
:10131000000123DF180E0301686F000160DF01C0C8
:1013200066F3190E0301686F000159DF01C067F30E
:10133000030166C301F067C302F00001000C1F0E39
:1013400004010F6F0C0E106F000114DF0301656BB9
:101350000001A7DF02C063F301C062F30301605123
:10136000020804E1606B63B1602B0AD0639160B145
:101370006381646B63C366F362C365F3000146DF98
:10138000020E04010E6F0D6F00010EDF020E03014D
:10139000686F000124DF01C061F30301619160B156
:1013A0006181020E0401106F61C311F40001D5DEEA
:1013B0000301605302E0150E01D0120E646F040E9B
:1013C0000401106F64C311F40001C7DE1F0E040195
:1013D000126F040E136F0001DADECDEF0AF0E0DCCD
:1013E0001D0E04010A6F00019CDE01C05FF30301C2
:1013F0005FA702D00001F4D75F51FF0A010BD8B4F8
:1014000002D00001EDD700019FD6010E0301656FE8
:101410000001F0DC4F6A5880556A546A080E0401D6
:10142000106F116B000199DE090E0401106F116B32
:10143000000193DE0C0E0401106FF70E116F000116
:101440008CDE0D0E0401106F1B0E116F000185DE86
:101450000A0E0401106FF70E116F00017EDE0B0EF5
:101460000401106F1B0E116F000177DE040E0401E2
:10147000106FF80E116F000170DE050E0401106F81
:101480001B0E116F000169DE020E04010E6F0D6B61
:1014900000018ADE0401106B0D0E116F00015DDE8C
:1014A000020E0401106F320E116F000156DE030EA2
:1014B0000401106F400E116F00014FDE090E040190
:1014C000106F3F0E116F000148DE060E0401106F11
:1014D000120E116F000141DE070E0401106F0C0E99
:1014E000116F00013ADE0A0E0401106FEE0E116F4B
:1014F000000133DE0B0E0401106F050E116F0001A9
:101500002CDE030E04010E6F040E0D6F00014CDE85
:10151000040E0401106F1CC011F400011EDE050E44
:101520000401106F1DC011F4000117DE020E04014A
:10153000106F1EC011F4000110DE030E0401106FC5
:101540001FC011F4000109DE0401106B20C011F46A
:10155000000103DE010E0401106F21C011F400012F
:10156000FCDD120E04010A6F0001DBDD01C059F041
:10157000100E0301646F010E666F656B000146DE9D
:10158000140E0301646F040E666F720E656F000126
:101590003DDE0301606B0001D2D61F0E0401126F05
:1015A000040E136F0001F3DDFCEF15F05892FF0EEF
:1015B0000101616F626F636F646F656F666F6A6B65
:1015C000696B686B676B0001FEEF15F003017E51DC
:1015D000160DF350806B7F6F0C0E7F25016E000E91
:1015E0008021036E01505B0FE96E000E0320EA6E4E
:1015F000EC6AED52EF6A7E51160DF350806B7F6FEF
:10160000060E7F27000E80235B0E7F25E96E000EFD
:101610008021EA6EEE52EE52EC6AED52EF6AED5224
:10162000EF6AED52EF6A7E51160DF350806B7F6FBB
:10163000150E7F27000E80235B0E7F25E96E000EBE
:101640008021EA6EEF900001000C03015F6B5F5197
:10165000010807E35FC37EF30001B8DF03015F2BDE
:10166000F6D7000100EF16F065C34EF064C34DF0ED
:1016700063C34CF062C34BF053EF0CF003016A6B91
:101680006B6B010E6C6FDA6AD96A030E6F6F620EB4
:101690006E6F030EEA6E660EE96E6FC3E2FF6EC3F5
:1016A000E1FF6CC36DF3D890E550EE02F3506A236E
:1016B000F4506B236D2FF7D76AC3DEFF6BC36AF359
:1016C0006B6BD8B06B2B6E2BD8B46F2B6C2B6C5113
:1016D0000508DFE10001A4EF0BF0016A026A006A6D
:1016E000036A0301685102E1675118E0100E696F47
:1016F000D89065376637003603366851035C02E1DF
:101700006751005C07E36751005ED8A0030668518B
:10171000035ED88001360236692FEAD70001C5EF93
:101720000BF04EC065F34DC064F34CC063F34BC087
:1017300062F3410E0301696FC60E686F4E0E676F4C
:101740006D0E666F00019AD7390E030100244B6EAF
:10175000300E01204C6E000E02204D6E000E032054
:101760004E6E4DC000F04EC001F0026A036A4EC0DA
:1017700064F34DC063F34EC066F34DC065F37F0E56
:10178000686FFF0E676F0001A8D700C001F003C0AB
:1017900002F054EF0CF003015F6B5F51040869E342
:1017A0005F51240DF350036A8E0F016E000E032269
:1017B00001C060F303C061F360C3E9FF61C3EAFFE6
:1017C0000A0EEF6E230E6025E96E000E6121EA6EAF
:1017D000EF90230E6025E96E000E6121EA6EEF8224
:1017E000230E6025E96E000E6121EA6EEF84230E60
:1017F0006025E96E000E6121EA6EEF98230E6025E8
:10180000E96E000E6121EA6EEF960F0E6025E96E1B
:10181000000E6121EA6EEF3C01D016D00F0E60255C
:10182000E96E000E6121EA6EEFCF62F362C3B2F39C
:10183000000102EC00F00F0E03016025E96E000EBE
:101840006121EA6EFF0EEF6E210E6025E96E000E3B
:101850006121EA6EEC6AED521E0EEF6E100E6025ED
:10186000E96E000E6121EA6EEC6AED52EF6A5F2BC1
:1018700094D7D65001014227D7504323CE50422758
:10188000CF504323CC504227000E4323B25042276F
:10189000B35043230301656B646B43C163F342C1DF
:1018A00062F30001E1D63DD702C08DF001C08CF09B
:1018B000040E8D278D5112080AE2FF0A03E18C51B4
:1018C000870805E2880E8C5F130E8D5BF3D78D5170
:1018D000030802E3040E8D2702EF16F08751080873
:1018E00001E111D00101443D01D005D044C17EF396
:1018F00000016CDE0101FF0E446F0001876B0101E6
:101900005E6B00018891000C58A001D031D0588046
:10191000010E545C0301B16F000E5558B26FB25105
:101920001A0809E2FF0A03E1B151F70804E21B0EAD
:10193000B26FF70EB16F1E0E0401126F400E136FDF
:10194000000125DC04010E6B0C0E0D6F00012CDC78
:101950000C0E0401106FB1C311F40001ADEC08F0DE
:101960000D0E0401106FB2C311F40001ADEC08F0CC
:10197000000C0F0E0301AF25E96E000EB021EA6ED8
:10198000EF3C01D01DD00F0EAF25E96E000EB02147
:10199000EA6EEFCFB1F3B1C3B2F3000102EC00F095
:1019A0000F0E0301AF25E96E000EB021EA6EFF0EA7
:1019B000EF6E230EAF25E96E000EB021EA6EEF82C6
:1019C000070EAF25E96E000EB021EA6EEE52EE5220
:1019D000EC6AED52EF6AED52EF6AED52EF6A0D0ECE
:1019E000AF25E96E000EB021EA6EEC6AED52EF6AA7
:1019F000230EAF25E96E000EB021EA6EEFA603D0EC
:101A0000000182DF0301230EAF25E96E000EB02135
:101A1000EA6EEF96210EAF25E96E000EB021EA6E58
:101A2000EC6AED521E0EEF6E230EAF25E96E000E2E
:101A3000B021EA6EEF98230EAF25E96E000EB021BB
:101A4000EA6EEFA006D0AFC3E9FFB0C3EAFFEF6ACA
:101A500006D0AFC3E9FFB0C3EAFF0A0EEF6E100E67
:101A6000AF25E96E000EB021EA6EEC6AED52EF6A26
:101A70000001000C03016C51240DF350036A8E0F1A
:101A8000016E000E032201C06DF303C06EF3230E3E
:101A90006D25E96E000E6E21EA6EEFB603D0000EE2
:101AA000016E0CD0000130DF230E03016D25E96EBD
:101AB000000E6E21EA6EEF96010E016E0001000C21
:101AC0001F0E04010A6F000191EC08F001C0ECF355
:101AD000000E030101B6010E000A02E0000E01D063
:101AE000010E016E00D00001000C1F0E04010A6FF0
:101AF000000191EC08F001C0ECF3000E030101B607
:101B0000010E000A02E1000E01D0FF0E016E00D0AE
:101B10000001000C04C44FF0070E040105271C0E41
:101B200006230E6B020E0D6F0001D4EC08F0040EBC
:101B30000401086F050EE96E08C4EAFFEFCF09F44F
:101B4000106B09C411F40001ADEC08F0040E04019F
:101B5000086F050E076F010E0725E96E000E0821BC
:101B6000EA6EEFCF09F4010E106F09C411F4000101
:101B7000ADEC08F0040E0401086F050EE96E08C410
:101B8000EAFFEFCF09F4020E106F09C411F400014F
:101B9000ADEC08F0040E0401086F050E076F010E8E
:101BA0000725E96E000E0821EA6EEFCF09F4030E57
:101BB000106F09C411F40001ADEC08F0000C010E27
:101BC00004010E6F190E0D6F0001D4EC08F0190E10
:101BD00004010A6F000191EC08F001C0EBF304016D
:101BE0000E6B0E0E0D6F0001D4EC08F00E0E04010A
:101BF0000A6F000191EC08F001C0EDF30F0E040133
:101C00000A6F000191EC08F001C0EEF3010E04012F
:101C10000E6F190E0D6F0001D4EC08F0190E0401BF
:101C20000A6F000191EC08F001C0EFF30301EB51E2
:101C3000015CD8B402D00001CAD704010E6B0C0EAF
:101C40000D6F0001D4EC08F00C0E04010A6F0001C6
:101C500091EC08F001C0EBF30D0E04010A6F0001D6
:101C600091EC08F001C0ECF30301EC51EE5D16E3DA
:101C700003E1ED51EB5D12E2EB51ED5D006EEC51D5
:101C8000EE59036E0050FF0AF80F006E1B0E03564C
:101C900000C001F003C002F01DD01CD0EB51ED5D7F
:101CA00009E1EC51EE5D06E1F70E016E1B0E026ECE
:101CB00011D010D0ED51EB5DEF6FEE51EC59F06F9C
:101CC000010EEF5D006E000EF059036E00C001F0D2
:101CD000026E00D0000170EF14F00BC40CF40AC4C3
:101CE0000DF404010CC401F00DC402F00001000C5D
:101CF000F6C3F7F3F5C3F8F3F4C3F9F3F3C3FAF358
:101D0000F7C300F0F8C301F0F9C302F0FAC303F01F
:101D1000000C0301EBC301F0ECC303F0EBC3EDF3E4
:101D2000ECC3EEF3EBC3E9FFECC3EAFFECCFF0F357
:101D3000ED52EFCFEFF3F0C30BF4EFC30AF4000161
:101D4000CCDFEEC3EAFFEDC3E9FF02C0ECFFED52CA
:101D500001C0EFFF020E0301EB25016E000EEC2126
:101D6000036E01C0EDF3EE6F020EEB25E96E000E7F
:101D7000EC21EA6EECCFF0F3ED52EFCFEFF3F0C3CE
:101D80000BF4EFC30AF40001A8DFEEC3EAFFEDC3D2
:101D9000E9FF02C0ECFFED5201C0EFFF040E0301AA
:101DA000EB25016E000EEC21036E01C0EDF3EE6F2A
:101DB000040EEB25E96E000EEC21EA6EEFCFEFF397
:101DC000ECCFF0F3ECCFF1F3ECCFF2F3F2C3F6F398
:101DD000F1C3F5F3F0C3F4F3EFC3F3F3000188DFCD
:101DE000EEC3EAFFEDC3E9FF00C0EFFF01C0ECFF67
:101DF00002C0ECFF03C0ECFF080E0301EB25016EEF
:101E0000000EEC21036E01C0EDF3EE6F080EEB2522
:101E1000E96E000EEC21EA6EEFCFEFF3ECCFF0F3BA
:101E2000ECCFF1F3ECCFF2F3F2C3F6F3F1C3F5F339
:101E3000F0C3F4F3EFC3F3F300015ADFEEC3EAFF9C
:101E4000EDC3E9FF00C0EFFF01C0ECFF02C0ECFFF3
:101E500003C0ECFF0E0E0301EB25016E000EEC211A
:101E6000036E01C0EDF3EE6F0E0EEB25E96E000E72
:101E7000EC21EA6EECCFF0F3ED52EFCFEFF3F0C3CD
:101E80000BF4EFC30AF4000128DFEEC3EAFFEDC351
:101E9000E9FF02C0ECFFED5201C0EFFF100E03019D
:101EA000EB25016E000EEC21036E01C0EDF3EE6F29
:101EB000100EEB25E96E000EEC21EA6EECCFF0F38C
:101EC000ED52EFCFEFF3F0C30BF4EFC30AF40001D0
:101ED00004DFEEC3EAFFEDC3E9FF02C0ECFFED5201
:101EE00001C0EFFF120E0301EB25016E000EEC2185
:101EF000036E01C0EDF3EE6F120EEB25E96E000EDE
:101F0000EC21EA6EECCFF0F3ED52EFCFEFF3F0C33C
:101F10000BF4EFC30AF40001E0DEEEC3EAFFEDC309
:101F2000E9FF02C0ECFFED5201C0EFFF000C03011E
:101F3000FC6BFB6BFA6BF96BD890F031F26FEF3101
:101F4000F16FEEC3F4F3EDC3F3F3F2C303F0F15119
:101F5000D8B4F207F107031017E0F4C303F0F3C39A
:101F600000F0020EF327D8B0F42B00C0E9FF03C045
:101F7000EAFFECCF03F0ED52EF50F9270350FA23BC
:101F8000000EFB23FC23E1D7EF51010B006E036A27
:101F9000005003100AE0F3C3E9FFF4C3EAFFEF5077
:101FA000F927000EFA23FB23FC23FCC3F8F3FBC341
:101FB000F7F3FAC3F6F3F9C3F5F3F8C3F2F3F7C393
:101FC000F1F3F15302E1F25323E0FC6BFB6B0401EC
:101FD000006B0301FF6BFAC3FEF3F9C3FDF3026A62
:101FE000036AF151F925F96FF251FA21FA6F0250A3
:101FF000FF21FB6F0350040100210301FC6FFCC3B0
:10200000F8F3FBC3F7F3FAC3F6F3F9C3F5F3D5D747
:10201000FAC303F0031EF951FF0A016E03C002F078
:102020000001000C020E04010425016E000E0521C2
:10203000036E01C006F4076F020E0425E96E000E60
:102040000521EA6EECCF09F4ED52EFCF08F409C494
:102050000BF408C40AF4000140DE07C4EAFF06C41A
:10206000E9FF02C0ECFFED5201C0EFFF040E0401D6
:102070000425016E000E0521036E01C006F4076FF2
:10208000040E0425E96E000E0521EA6EECCF09F47A
:10209000ED52EFCF08F409C40BF408C40AF40001B0
:1020A0001CDE07C4EAFF06C4E9FF02C0ECFFED52E4
:1020B00001C0EFFF0A0E04010425016E000E052188
:1020C000036E01C006F4076F0A0E0425E96E000EC8
:1020D0000521EA6EECCF09F4ED52EFCF08F409C404
:1020E0000BF408C40AF40001F8DD07C4EAFF06C4D3
:1020F000E9FF02C0ECFFED5201C0EFFF000C8B9234
:102100007A0E0401156F000189EC08F00EC415F475
:1021100089EC08F08B82000C8B927A0E0401156F0B
:10212000000189EC08F0040112C403F01151D8B485
:1021300012071107031012E010C403F00FC4E9FFE7
:1021400010C4EAFFEFCF13F413C415F4000189ECB7
:1021500008F004010F2BD8B4102BE6D78B820001B6
:10216000000C04010E6B020E0D6F0001D4EC08F0A0
:10217000020E0401106FF80E116F0001ADEC08F0B3
:10218000030E0401106F1B0E116F0001ADEC08F07F
:10219000060E04010B271C0E0C23040E0E6F0B0EF3
:1021A000E96E0EC4EAFFEFCF0FF4060E106F0FC4F6
:1021B00011F40001ADEC08F0040E04010E6F0B0EDB
:1021C0000D6F010E0D25E96E000E0E21EA6EEFCFA8
:1021D0000FF4070E106F0FC411F40001ADEC08F0FE
:1021E00004010E6B00018BDF09C410F408C40FF466
:1021F0000401126B060E116F00018EDF04010E6BDD
:102200001C0E0EC410F40F6F126B060E116F00013E
:1022100083DF080E04010E6F000171DF04010A5311
:1022200002E1000E01D0060E0E6F000168DF000C07
:10223000060E040104250A6F1C0E05210B6F010E0A
:102240000A25086F000E0B21096F0E6B100E0D6F23
:102250000001D4EC08F0100E0401106F08C411F452
:102260000001ADEC08F0110E0401106F09C411F467
:102270000001ADEC08F0010E0401065D006E000ED9
:102280000759036E0050082703500923120E106FE0
:1022900008C411F40001ADEC08F0130E0401106F36
:1022A00009C411F40001ADEC08F01F0E0401126F17
:1022B000300E136F0001C7EC08F01F0E04010A6F07
:1022C000000191EC08F001C00AF4000E040101BA0B
:1022D000010E000AD8B402D00001EFD7160E0A6F23
:1022E000000191EC08F001C009F4170E04010A6F17
:1022F000000191EC08F001C008F4040108C401F0E9
:1023000009C402F00001000C140E8B6F450E03018E
:10231000F06FF16B140EEE25F26F000EEF21F36FEC
:102320000001892BD8B48A2B8AC0F5F389C0F4F355
:102330000301F76BF66B640EF86FEDC3F9F3FB6BFB
:10234000FA6B1BC0FFF31AC0FEF319C0FDF318C0EF
:10235000FCF3060EEB25E96E000EEC21EA6EEFCFE2
:1023600000F0ECCF01F0ECCF02F0ECCF03F003C0B3
:1023700003F402C002F401C001F400C000F4030E33
:102380000401056FF00E046F00014CDEEBC301F099
:10239000ECC303F0EBC304F4ECC305F4140E030127
:1023A000EE250401066F000E0301EF210401076F03
:1023B000ECC309F4EBC308F40A6B0C6F06C40BF40E
:1023C0000001CFDE030E0401056FF00E05C410F40A
:1023D0000F6F126B140E116F00019EDE0401056B6E
:1023E000046B076B140E066F000122DF02C0FBF3C3
:1023F00001C0FAF34FC004F40401066B0A0E056F26
:1024000000018AEC0DF0030E0401056FFA0E05C4FD
:1024100010F40F6F126B020E116F00017DDE4FC0C2
:1024200004F40401066B140E056F00018AEC0DF034
:10243000000E016E026E000C8B923A0E0401156FB5
:10244000000189EC08F00401156B000189EC08F02B
:1024500001C0EFF38B820301EFC301F00001000C18
:102460000301EB5307E1EC5305E1FF0E016E026E31
:10247000A4D017D0EB2D15D0EC5313E10001DCDF15
:102480000301F06B01C0EFF301C003F0000E006A1E
:102490000006001AFF0E031A00C001F003C002F08C
:1024A0008CD004010E6B0D6B0001D4EC08F004011C
:1024B0000A6B000191EC08F001C0EDF3010E04017C
:1024C0000A6F000191EC08F001C0EEF3100E040158
:1024D000106FEDC311F40001ADEC08F0110E040112
:1024E000106FEEC311F40001ADEC08F00301EE51E2
:1024F0001B081BE303E1ED51F70817E3010EEB5D49
:10250000006E000EEC59036E0050ED270350EE23D1
:10251000EE511A0809E2FF0A03E1ED51F70804E25F
:10252000F80EED5F1B0EEE5B0AD0010EEB5D006E48
:10253000000EEC59036E0050ED270350EE23120EEF
:102540000401106FEDC311F40001ADEC08F0130E9F
:102550000401106FEEC311F40001ADEC08F01F0E82
:102560000401126F300E136F0001C7EC08F01F0E4C
:1025700004010A6F000191EC08F001C0EFF3000EB6
:10258000030101BA010E000AD8B402D00001EFD74E
:10259000160E04010A6F000191EC08F001C0EDF382
:1025A000170E04010A6F000191EC08F001C0EEF370
:1025B0000301EDC301F0EEC302F00001000C0301C2
:1025C000FD6BFE6B8B923A0E0401156F000189ECD6
:1025D00008F00301FE51FC5D1DE303E1FB51FD5DCD
:1025E00019E2FAC303F0F9C3FFF3FAC300F40401DC
:1025F000156B000189EC08F000C4EAFFFFC3E9FF96
:1026000001C0EFFF0301F92BD8B4FA2BFD2BD8B48E
:10261000FE2BE0D78B82FDC301F0FEC302F0000168
:10262000000C1C0E04010A6F000191EC08F001C0BF
:10263000F7F3000E030101B2010E000A10E01F0EB5
:102640000401126F800E136F0001C7EC08F01F0E1B
:1026500004010F6F800E106F0001BAEC08F01C0E21
:1026600004010F6F0A0E106F0001BAEC08F01F0E84
:102670000401126F080E136F0001C7EC08F05950E7
:102680000508D8A4E7D01C0E04010A6F000191ECE4
:1026900008F001C0F7F3030101500A0BD8A402D0DF
:1026A0000001F1D71C0E04010A6F000191EC08F043
:1026B00001C0F7F3000E030101B2010E000AD8B405
:1026C000CAD01F0E04010F6F080E106F0001BAEC84
:1026D00008F004010E6B0D6B0001D4EC08F004014E
:1026E0000A6B000191EC08F001C0EBF3010E04014C
:1026F0000A6F000191EC08F001C0ECF3060E040132
:102700000A6F000191EC08F001C0EDF3070E04011F
:102710000A6F000191EC08F001C0EEF30301ED2B0C
:10272000D8B4EE2B0401106BEDC311F40001ADEC35
:1027300008F0010E0401106FEEC311F40001ADECBE
:1027400008F0030E0301F86FEF0EF8C3FAF3F96F08
:10275000FC6B070EFB6F000132DF0301F66BF651D5
:102760000F0869E31C0E04010A6F000191EC08F0E8
:1027700001C0F7F3000E030101B2010E000A56E09A
:10278000F2AB54D01F0E0401126F800E136F0001C4
:10279000C7EC08F01F0E04010F6F800E106F0001D0
:1027A000BAEC08F01C0E04010F6F0A0E106F000146
:1027B000BAEC08F01F0E0401126F080E136F00012F
:1027C000C7EC08F01C0E04010A6F000191EC08F040
:1027D00001C0F7F3030101500A0BD8A402D0000195
:1027E000F1D71F0E04010F6F080E106F0001BAEC35
:1027F00008F00401106BEDC311F40001ADEC08F01A
:10280000010E0401106FEEC311F40001ADEC08F0ED
:10281000030E0301F86FEF0EF8C3FAF3F96FFC6BC8
:10282000070EFB6F0001CBDE03D0030104D00001D3
:102830000301F62B94D70401106BEBC311F40001D4
:10284000ADEC08F0010E0401106FECC311F40001AF
:10285000ADEC08F003010001000C010E0301EB6F69
:10286000000160EC0DF00152F8E00301C23D08D018
:10287000010EEB6F000175EC0DF001C0C2F3030116
:10288000C23D01D004D1C2C304F40401066B140E8E
:10289000056F00018AEC0DF0B6C3C8F3B5C3C7F3EA
:1028A000B8C3CAF3B7C3C9F3BCC3CEF3BBC3CDF33C
:1028B000BAC3CCF3B9C3CBF3C0C3D2F3BFC3D1F314
:1028C000BEC3D0F3BDC3CFF33F0E0301D415D46F05
:1028D000F00ED315D36FC1C3D4F30001DFEF0DF0B9
:1028E00002C0D6F301C0D5F30301D65303E1D5519D
:1028F000280805E2280ED55F000ED65B02D0D66B05
:10290000D56BD86BD76BDA6BD96B030EEC6FC70E38
:10291000EB6F000189EC0EF0140E0301C327000ECB
:10292000C423C1A30FD0040EC327000EC423020E7C
:10293000DB6F040EDC6FDD6FDE6B0F0ED3156009ED
:10294000D36F04D00F0ED3155009D36F1BC0E2F321
:102950001AC0E1F319C0E0F318C0DFF3060EB32587
:10296000E96E000EB421EA6EEFCF00F0ECCF01F07B
:10297000ECCF02F0ECCF03F003C0E6F302C0E5F3C6
:1029800001C0E4F300C0E3F3E76B060EE86FC4C3D5
:10299000EAF3C3C3E9F3EAC30BF4E9C30AF40001A1
:1029A0006DEC0EF002C0EAF301C0E9F3030E03017F
:1029B000EC6FDF0EECC3EEF3ED6FF06B0C0EEF6F10
:1029C000000197EC0FF001C0D7F30301D71F02C03D
:1029D000D8F3D81FD8C3C6F3D7C3C5F3B4C3ECF339
:1029E000B3C3EBF3060EED6FC4C3EFF3C3C3EEF353
:1029F00000018ADC030E0301EC6FC70EECC310F478
:102A0000E8CF0FF40401126B140E116F00018CEC6F
:102A100010F00301C1A30ED0030EEC6FDB0EECC36C
:102A200010F4E8CF0FF40401126B040E116F0001D3
:102A30008CEC10F0C2C304F40401066B140E056F95
:102A400000018AEC0DF0C4C3ECF3C3C3EBF308DD63
:102A500002C0C6F301C0C5F3C2C304F40401066B8F
:102A6000240E056F00018AEC0DF0C6C30EF47FEC56
:102A700010F0C5C30EF47FEC10F0C2C304F40401DF
:102A8000066B056B00018AEC0DF0CBDD0301000144
:102A9000000C03016951240DF350036A8E0F016E7F
:102AA000000E032201C06AF303C06BF36AC3E9FF9F
:102AB0006BC3EAFFEF5003080FE06AC3E9FF6BC383
:102AC000EAFFEF50020808E06BC3B0F36AC3AFF34C
:102AD0000001B9EC0CF078D069C36CF300013AEC5A
:102AE0000DF0010E03016A25016E000E6B21036ECD
:102AF00001C06CF36D6F0B0E6A25E96E000E6B2141
:102B0000EA6EECCF6FF3ED52EFCF6EF30D0E6A2548
:102B1000E96E000E6B21EA6EECCF71F3ED52EFCF50
:102B200070F3160E6A25E96E000E6B21EA6EEFCF88
:102B300072F3ECCF73F3ECCF74F3ECCF75F31A0EA2
:102B40006A25E96E000E6B21EA6EEFCF76F3ECCFCB
:102B500077F3ECCF78F3ECCF79F303C0B4F301C093
:102B6000B3F36FC3B6F36EC3B5F371C3B8F370C3F9
:102B7000B7F375C3BCF374C3BBF373C3BAF372C3C7
:102B8000B9F379C3C0F378C3BFF377C3BEF376C399
:102B9000BDF3110EC16FFF0EC26FC46BC36B00019A
:102BA0005CDE160E03016A25E96E000E6B21EA6EEB
:102BB000010EEE26000EEE22EE22ED226AC3E9FFA0
:102BC0006BC3EAFF040EEF6E0001000C01016C51B3
:102BD000FE0805E06CC169F300015BDF0101FE0E38
:102BE0006C6F6B6B0001000C0101C06B2E82000149
:102BF0007EEF08F0EFEF09F0D6EF0AF025EF0BF0CB
:102C0000CBEF0BF06EEC0CF0E1DFE3EF17F003011C
:102C10006C39F00B006E0F0E8C1400108C6E030ECE
:102C2000006E002EFED78D84060E006E002EFED79D
:102C300000008D940001000C0F0E9514F009956EA4
:102C40008D82030E006E002EFED78D84030E006E63
:102C5000002EFED783380F0B03016C6F8D94030E8B
:102C6000006E002EFED78D84030E006E002EFED760
:102C700083380F0B6B6F8D940F0E9514956E6C3916
:102C8000006EF00E001600506B11016E00014FEF48
:102C900016F08D90030E006E002EFED7CDD701C02A
:102CA0006BF3030101AE02D00001F8D78D9069B13A
:102CB0008D80030E006E002EFED78D92030E006EE7
:102CC000002EFED78D946A396B6F0F0E6B176BC396
:102CD0006CF300019CDF03016A510F0B6B6F6C6F8B
:102CE000000195DF000C0F0E9514956E8D908D925E
:102CF0008D94F80E96160F0E0301656F0001FAEC25
:102D000006F0010E03015F6F5F5103080DE3030E30
:102D10006C6F00017CDF050E0301656F0001FAECAA
:102D200006F003015F2BF0D7020E6C6F00016FDF1E
:102D3000050E0301656F0001FAEC06F003015F6BFD
:102D40005F51030813E3036A5F51F2CF60F3F29E11
:102D5000000188EC00F0030160BFF28E606F696BC8
:102D60006A6F000196DF03015F2BEAD70001E4EFF1
:102D700017F00301A3C303F0A251A22BD8B4A32BD5
:102D8000A86F03C0A9F303C0ABF3AA6F00013FEC27
:102D900007F001C0A7F30301A4C3E9FFA5C3EAFF3D
:102DA000A7C3EFFFA42BD8B4A52BA75304E0A651CB
:102DB000A607000ADFE1A4C3E9FFA5C3EAFFEF6AA3
:102DC0000001000C0301A3C303F0A251A22BD8B44D
:102DD000A32BA66F03C0A7F303C0ABF3AA6F000138
:102DE0003FEC07F001C0A4F3A3C3ABF3A2C3AAF363
:102DF0003FEC07F001C0A5F30301A4C301F0A5C394
:102E000002F00001000C0301A36BD90EA26F020EA9
:102E1000A56F130EA46F400EA66F0001AADF030179
:102E2000A36BD70EA26F0001CDDF02C012F201C06A
:102E300011F2010E0301A36F190EA26F020EA56F0E
:102E4000530EA46F400EA66F000193DF010E030125
:102E5000A36F590EA26F020EA56F930EA46F400EC2
:102E6000A66F000186DF010E0301A36F990EA26F0A
:102E7000020EA56FD30EA46F400EA66F000179DF7E
:102E8000010E0301A36FD90EA26F030EA56F130EDF
:102E9000A46F400EA66F00016CDF000CD190FF0EF6
:102EA000926E936E946E956E968096829684C150C3
:102EB000C00B0E09C16EC050C00B0709C06EC09E8A
:102EC000C280000E016EC250C30B0110C26E949CF2
:102ED000929A898A93988A88939A8A8A92889396F2
:102EE000949A94889496D0EC06F01BEF07F028EFA4
:102EF00008F003016C6BC50E6B6F6E6B180E6D6F77
:102F0000000135EC08F003016C6BC90E6B6F6E6B42
:102F1000220E6D6F000135EC08F003016C6BC10EE1
:102F20006B6F6E6B260E6D6F000135EC08F00301C0
:102F30006C6BD30E6B6F6E6B2A0E6D6F000135ECF0
:102F400008F00301AB6BCD0EAA6F00013FEC07F058
:102F500001C01CF00301AB6BCE0EAA6F00013FEC69
:102F600007F001C01DF00301AB6BCF0EAA6F00018B
:102F70003FEC07F001C01EF00301AB6BD00EAA6F4F
:102F800000013FEC07F001C01FF00301AB6BD10E55
:102F9000AA6F00013FEC07F001C020F00301AB6B0A
:102FA000D20EAA6F00013FEC07F001C021F003012F
:102FB000AB6BC00EAA6F00013FEC07F0015202E1BB
:102FC000080E876F11D68FD61EDFCDEF4DF00301AF
:102FD00063BF10D00F0E006E623900160A0E005C3F
:102FE00003E2300E002602D06351002600509EA856
:102FF000FED7AD6E0F0E62170A0E625D02E2300E52
:1030000002D0639F6351622762519EA8FED7AD6EC6
:103010000001000C03017751016A765D03E276C37B
:1030200000F00CD0006A080E786F763700367751C2
:10303000005CD8B0006E0136782FF7D70001000C85
:1030400001506BC376F3640E0301776F0001E2DF7A
:1030500000C06BF30150300E08E103016CA30ED0E9
:103060006CB70CD06CB9200E04D003016C976C992E
:103070006C81012601509EA8FED7AD6E6BC376F31E
:103080000A0E776F0001C6DF00C06BF30150300EEF
:1030900008E103016CB70BD06CA109D06CB9200E0C
:1030A0000001012601509EA8FED7AD6E0301300E2F
:1030B0006B276B519EA8FED7AD6E0001000C03017B
:1030C00061C3E9FF62C3EAFFEFCF63F3010E61253D
:1030D000E96E000E6221EA6EEFCF64F3020E612505
:1030E000E96E000E6221EA6EEFCF65F3030E6125F3
:1030F000E96E000E6221EA6EEFCF66F363C36BF3F5
:103100001B0E6C6F00019CDF2E0E5AEC07F064C39F
:103110006BF31B0E03016C6F000192DF2E0E5AEC55
:1031200007F065C36BF31B0E03016C6F000188DFB2
:103130002E0E5AEC07F066C36BF31B0E03016C6F87
:1031400000017EDF000CEACF69F3E9CF68F30301E9
:103150006239F009646F6427E20F656F320F676FA1
:1031600062510F0B652765276727E90F666F662792
:10317000662761390F0B6627672766376737671F32
:10318000673761510F0B67276437070E636F0A0EAD
:1031900066076727FDE365076627FDE36407652784
:1031A000FDE363076427FDE3030EEA6E630EE96E39
:1031B000070E6815689DE926670EE95CD8B4688D2E
:1031C000EF50006E08E168BD06D068B90CD068B752
:1031D00002D0200E03D068876899300E0026005078
:1031E0009EA8FED7AD6EEE5068ADE6D700012EEF7B
:1031F0001AF003016081616B6151000186EC01F0FE
:103200000301612B00015AEC07F0100E0301615D10
:10321000F3E11CC062F3370E636F0001D8DE3A0E93
:103220005AEC07F01DC062F3370E0301636F000113
:10323000CEDE3A0E5AEC07F01EC062F3370E0301E1
:10324000636F0001C4DE3A0E5AEC07F01FC062F350
:10325000370E0301636F0001BADE3A0E5AEC07F035
:1032600020C062F3370E0301636F0001B0DE3A0E37
:103270005AEC07F021C062F3370E0301636F0001BF
:10328000A6DE0301616B61510001A4EC01F00301B2
:10329000612B00015AEC07F0100E0301615DF3E1B0
:1032A000AB6BC00EAA6F00013FEC07F0015242E089
:1032B0000301616B61510001BAEC01F00301612B64
:1032C00000015AEC07F0040E0301615DF3E1616B4C
:1032D00061510001CAEC01F00301612B00015AECBD
:1032E00007F00E0E0301615DF3E1000188A110D02B
:1032F0000301616B61510001BAEC01F00301612B24
:1033000000015AEC07F0040E0301615DF3E110D0F7
:103310000301616B61510001DFEC01F00301612BDE
:1033200000015AEC07F0050E0301615DF3E16091C5
:1033300010D000010301616B61510001DFEC01F06D
:103340000301612B00015AEC07F0050E0301615DDA
:10335000F3E160A150D0616B61510001EFEC01F02D
:103360000301612B00015AEC07F00E0E0301615DB1
:10337000F3E1626B180E616F0001A1DE0301616B66
:103380006151000104EC02F00301612B00015AECD1
:1033900007F00B0E0301615DF3E1626B260E616FB6
:1033A00000018DDE0301616B6151000117EC02F039
:1033B0000301612B00015AEC07F00B0E0301615D64
:1033C000F3E1626B220E616F000179DE0301616B34
:1033D000615100012AEC02F00301612B00015AEC5B
:1033E00007F0070E0301615DF3E1626B2A0E616F66
:1033F000000165DE0301616B615100013BEC02F0ED
:103400000301612B00015AEC07F0180E0301615D06
:10341000F3E1020EEA6E130EE96E000EEF1008E003
:10342000EF509EA8FED7AD6EE92AD8B4EA2AF5D7A8
:10343000616B6151000156EC02F00301612B000148
:103440005AEC07F0140E0301615DF3E1100EE96E12
:1034500012C262F311C261F3000175D60301616B00
:10346000615100016FEC02F00301612B00015AEC85
:1034700007F00D0E0301615DF3E1020EEA6E530EDB
:10348000E96E000EEF1008E0EF509EA8FED7AD6E7B
:10349000E92AD8B4EA2AF5D7616B6151000184ECBE
:1034A00002F00301612B00015AEC07F00F0E03013B
:1034B000615DF3E1020EEA6E930EE96E000EEF100D
:1034C00008E0EF509EA8FED7AD6EE92AD8B4EA2AEC
:1034D000F5D7616B615100019AEC02F00301612B99
:1034E00000015AEC07F0120E0301615DF3E1020ED8
:1034F000EA6ED30EE96E000EEF1008E0EF509EA8C2
:10350000FED7AD6EE92AD8B4EA2AF5D7616B6151CE
:103510000001B2EC02F00301612B00015AEC07F04C
:103520000F0E0301615DF3E1030EEA6E130EE96E07
:10353000000EEF1008E0EF509EA8FED7AD6EE92A0E
:10354000D8B4EA2AF5D70001000C0301606B605182
:10355000000104EC04F00301602B00015AEC07F0B9
:10356000160E0301605DF3E1606B605100011DEC1C
:1035700004F00301602B00015AEC07F0280E030150
:10358000605DF3E1606B605100013FEC04F003010A
:10359000602B00015AEC07F0250E0301605DF3E19A
:1035A000606B605100015FEC04F00301602B0001CF
:1035B0005AEC07F0130E0301605DF3E1606B60519C
:1035C000000176EC04F00301602B00015AEC07F0D7
:1035D000100E0301605DF3E1606B605100018CEC43
:1035E00004F00301602B00015AEC07F01C0E0301EC
:1035F000605DF3E10001000CFCDDA7DFCFEF4DF0D3
:103600000301B16BB007AFC303F0AEC3E9FFAFC3B3
:10361000EAFFEFCFB2F3B2530AE0B25100015AEC25
:1036200007F00301B12BAE2BD8B4AF2BECD79EAA79
:10363000FED7AECFB2F3B251080815E1B15312E094
:10364000B107AE51D8B4AF07AE07B25100015AEC82
:1036500007F0200E5AEC07F00301B25100015AECBA
:1036600007F003011AD0B2511F0817E2B2517E08C9
:1036700014E3B051B15D11E2AFC303F0AE51AE2B14
:10368000D8B4AF2BE96E03C0EAFFB2C3EFFFB12B92
:10369000B25100015AEC07F00301B2510D08C7E125
:1036A000AEC3E9FFAFC3EAFFEF6A0001000CA5C398
:1036B00003F00301A4C3E9FFA5C3EAFFEF521BE037
:1036C000A5C303F0A4C3E9FFA5C3EAFFEFCFA6F3A8
:1036D000A3C3AAF3A2C3A9F3A6C3ABF300015EEC94
:1036E00007F00301A22BD8B4A32BA42BD8B4A52B8D
:1036F0000001DDD70301A3C3AAF3A2C3A9F3AB6BF7
:1037000000015EEC07F0000C54C3EAFF53C3E9FF6D
:103710000301B7C3EFFFE92AD8B4EA2AEF6A532BB3
:10372000D8B4542B0001000CEACFB6F3E9CFB5F3BF
:103730000301AF39F009B16FB127E20FB26F320F59
:10374000B46FAF510F0BB227B227B427E90FB36F95
:10375000B327B327AE390F0BB327B427B337B4372A
:10376000B41FB437AE510F0BB427B137070EB06F8B
:103770000A0EB307B427FDE3B207B327FDE3B10791
:10378000B227FDE3B007B127FDE3030EEA6EB00EEA
:10379000E96E070EB515B59DE926B40EE95CD8B4FF
:1037A000B58DEF50006E08E1B5BD06D0B5B915D0A6
:1037B000B5B702D0200E03D0B587B599300E0026DC
:1037C000EACFAFF3E9CFAEF300C0B7F300019CDF5F
:1037D000AFC3EAFFAEC3E9FF0301EE50B5ADDDD7DD
:1037E000000109EF1DF00301B651B803F3CF01F05A
:1037F000F4CF00F0B903F3500026B751B803F350EB
:103800000020026E0001000C0301B46BB26B0A0EC3
:10381000B36FB16BB06BAE51AF1104E1000E016E2E
:10382000026EE8D0B451B42B036AAE25E96EAF51F5
:103830000320EA6EEFCFB5F3B5512D080DE1010E6F
:10384000B26FB451B42B036AAE25E96EAF510320B9
:10385000EA6EEFCFB5F30DD0B5512B080AE1B451A4
:10386000B42B036AAE25E96EAF510320EA6EEFCFA9
:10387000B5F3B5512F08D8B0AFD0B5513908D8A09D
:10388000ABD0B551300821E1036AB451AE25E96EE1
:10389000AF510320EA6EEF5078080AE0036AB45192
:1038A000AE25E96EAF510320EA6EEF5058080DE1E6
:1038B000100EB36FB42BB451B42B036AAE25E96E6E
:1038C000AF510320EA6EEFCFB5F3B3510A0823E1FD
:1038D000B5512F081FE2B55139081CE3B76B0A0E2A
:1038E000B66FB1C3B9F3B0C3B8F300017CDF300EDB
:1038F0000301B55D0124B06F000E0220B16FB45119
:10390000B42B036AAE25E96EAF510320EA6EEFCF08
:10391000B5F3DED761D0B35110085EE1B551600850
:1039200006E2B5517A0803E3B551DF0B01D0B5517A
:10393000B56FB5512F0803E2B551390806E2B5510C
:1039400040084AE2B551460847E3B5512F0819E24D
:10395000B551390816E3B035B66FB135B76FB63724
:10396000B737B637B737B637B737F00EB617300EAA
:10397000B55DB625016E000EB72101C0B0F3B16F81
:1039800016D0B035B66FB135B76FB637B737B63773
:10399000B737B637B737F00EB617410EB55D0A0F19
:1039A000B625016E000EB72101C0B0F3B16FB4515E
:1039B000B42B036AAE25E96EAF510320EA6EEF50D7
:1039C000B56F600806E2B5517A0803E3B551DF0B25
:1039D00001D0B551B56FADD7B3510A0807E1B22D8B
:1039E00005D0B01FB11FB02BD8B4B12BB0C301F0BC
:1039F000B1C302F00001000C030E0301546FA60EC8
:103A0000536F100EE96EA5C3AFF3A4C3AEF300016C
:103A10008BD6030E0301AF6FA60EAE6F060EB06F0E
:103A20000001EEDD030E0301AF6FA60EAE6F0001C5
:103A3000EBDE02C0ADF301C0ACF30301ACC301F097
:103A4000ADC302F0000171EF1DF00301A26BA251A2
:103A500000018AEC03F00301A22B00015AEC07F0ED
:103A6000130E0301A25DF3E1A36BD90EA26F030E47
:103A7000A56F620EA46F3F0EA66F0001B9EC16F0A1
:103A8000030E0301AF6F620EAE6F400EB06F000108
:103A9000B7DD0301A36BD90EA26F030EA56F620EF3
:103AA000A46F000104DE0301A26BA2510001A1EC8E
:103AB00003F00301A22B00015AEC07F01A0E0301D8
:103AC000A25DF3E1A36BD70EA26F0001E2EC16F04A
:103AD00002C0A3F301C0A2F302C0A5F301C0A4F386
:103AE0008BD702C061F301C060F30301A36BD70E53
:103AF000A26F61C3A5F360C3A4F3000179EC07F0E2
:103B00000D0E5AEC07F00A0E5AEC07F00301A26BF7
:103B1000A2510001BCEC03F00301A22B00015AECFE
:103B200007F0060E0301A25DF3E1010EA36F190E6B
:103B3000A26F030EA56F620EA46F3F0EA66F000169
:103B4000B9EC16F0030E0301AF6F620EAE6F400EBC
:103B5000B06F000155DD010E0301A36F190EA26FB6
:103B6000030EA56F620EA46F0001A1DD0301A26B1D
:103B7000A2510001CDEC03F00301A22B00015AEC8D
:103B800007F0080E0301A25DF3E1010EA36F590EC9
:103B9000A26F030EA56F620EA46F3F0EA66F000109
:103BA000B9EC16F0030E0301AF6F620EAE6F400E5C
:103BB000B06F000125DD010E0301A36F590EA26F46
:103BC000030EA56F620EA46F000171DD0301A26BED
:103BD000A2510001DFEC03F00301A22B00015AEC1B
:103BE00007F00B0E0301A25DF3E1010EA36F990E26
:103BF000A26F030EA56F620EA46F3F0EA66F0001A9
:103C0000B9EC16F0030E0301AF6F620EAE6F400EFB
:103C1000B06F0001F5DC010E0301A36F990EA26FD6
:103C2000030EA56F620EA46F000141DD0301A26BBC
:103C3000A2510001F2EC03F00301A22B00015AECA7
:103C400007F0080E0301A25DF3E1010EA36FD90E88
:103C5000A26F030EA56F620EA46F3F0EA66F000148
:103C6000B9EC16F0030E0301AF6F620EAE6F400E9B
:103C7000B06F0001C5DC010E0301A36FD90EA26F66
:103C8000030EA56F620EA46F000111DD03EC17F0A7
:103C9000EDEF21F0020E0301566F0001C2EF21F09B
:103CA000030160916093616B61510001D0EC00F001
:103CB0000301612B00015AEC07F0180E0301615D4E
:103CC000F3E18B92030E04010E6F040E0D6F0001E1
:103CD000D4EC08F0040E0401106F150E116F0001F2
:103CE000ADEC08F0050E0401106F260E116F0001F7
:103CF000ADEC08F0060E0401106F370E116F0001D5
:103D0000ADEC08F0050E0301686F0001EFEC08F060
:103D100001C061F303010150260801E060818B823C
:103D200060A10FD0616B61510001EAEC00F003016A
:103D3000612B00015AEC07F0040E0301615DF3E111
:103D40000ED0616B61510001FAEC00F00301612BB0
:103D500000015AEC07F0040E0301615DF3E1130E5C
:103D6000AA6F880EA96F550EAB6F00015EEC07F0CD
:103D7000130E0301AA6F890EA96F660EAB6F0001C7
:103D80005EEC07F0130E0301AA6F8A0EA96F770E7F
:103D9000AB6F00015EEC07F00301616B6151000144
:103DA0000AEC01F00301612B00015AEC07F0150E3B
:103DB0000301615DF3E1130EAB6F890EAA6F000181
:103DC0003FEC07F00150660811E10301616B61519E
:103DD0000001FAEC00F00301612B00015AEC07F03E
:103DE000040E0301615DF3E111D000010301616B79
:103DF00061510001EAEC00F00301612B00015AEC73
:103E000007F0040E0301615DF3E1608360A110D04F
:103E100060A30ED0616B6151000122EC01F003013F
:103E2000612B00015AEC07F03E0E0301615DF3E1E6
:103E3000616B615100014FEC01F00301612B000146
:103E40005AEC07F0230E0301615DF3E1898A8A8849
:103E50008A8A80A80AD0897A8A788A7AFA0E656F67
:103E60000001FAEC06F00301F4D7616B6151000127
:103E70006EEC01F00301612B00015AEC07F0140E07
:103E80000301615DF3E1FF000001EDEF21F00301AB
:103E90006DBF11D00F0E006E6C3900160A0E005C5B
:103EA00003E2300E002602D06D51002600C0B7F3A9
:103EB00000012ADC03010F0E6C170A0E6C5D02E292
:103EC000300E02D06D9F6D516C276CC3B7F30001AB
:103ED0001BDC7AEF1FF0300E0301666F780E676F00
:103EE000030E546F680E536F65C36CF3370E6D6F1E
:103EF0000001CDD7030E0301AF6F680EAE6F030E46
:103F0000B06F000100EC1BF0030E0301AF6F660EF3
:103F1000AE6F000179DC01C06BF303016BC301F0EC
:103F20000001E9EF20F0015074C376F3640E030141
:103F3000776F00010AEC18F000C074F30150300EE6
:103F400008E1030175A310D075B70ED075B9200E26
:103F500004D00301759775997581012601C0B7F3E7
:103F6000000184EC1BF0030174C376F30A0E776F33
:103F700000010AEC18F000C074F30150300E08E1A3
:103F8000030175B70BD075A109D075B9200E0001DA
:103F9000012601C0B7F384EC1BF00301300E742737
:103FA00074C3B7F3000184EC1BF0E2EF1FF0030EC3
:103FB0000301546F6F0E536F6EC374F31B0E756F56
:103FC0000001B1D7030E0301AF6F6F0EAE6F040E89
:103FD000B06F000100EC1BF0030E0301AF6F6F0E1A
:103FE000AE6F000111DC01C073F3030173C301F074
:103FF000000193EF20F003016DC3E9FF6EC3EAFFF8
:10400000EFCF00F0ECCF01F0ECCF02F0ECCF03F0FB
:1040100003C072F302C071F301C070F300C06FF30C
:104020006CC303F06B516B2BD8B46C2B736F03C054
:1040300074F303C0AAF3A96F6FC3ABF300015EEC86
:1040400007F003016CC303F06B516B2BD8B46C2BDE
:10405000736F03C074F303C0AAF3A96F70C3ABF30B
:1040600000015EEC07F003016CC303F06B516B2B96
:10407000D8B46C2B736F03C074F303C0AAF3A96F99
:1040800071C3ABF300015EEC07F06CC3AAF36BC322
:10409000A9F372C3ABF35EEC07F0ACEF20F065C39D
:1040A0006CF364C36BF3030E03016E6F660E6D6FEA
:1040B000000135EC08F003016A6B6A51030842E322
:1040C0006B6B6B510001C8EC02F003016B2B00011C
:1040D0005AEC07F0060E03016B5DF3E16AC36BF364
:1040E0001B0E6C6F000120EC18F03A0E5AEC07F032
:1040F000200E5AEC07F0036A03016A51660F016E45
:10410000030E032201C06BF303C06CF3036A6A5110
:10411000660FE96E030E0320EA6EEFCF6DF36DC3F9
:104120006EF3000144D76CC3EAFF6BC3E9FF01C023
:10413000EFFF0D0E5AEC07F00A0E5AEC07F00301E0
:104140006A2BBBD765C36CF364C36BF3030E6E6F4E
:10415000660E6D6F00014FD7000C0301646B645154
:104160000001DBEC02F00301642B00015AEC07F0C4
:104170000F0E0301645DF3E1636BCD0E626F616B43
:10418000615105083DE3646B64510001F0EC02F0FD
:104190000301642B00015AEC07F0080E0301645D73
:1041A000F3E161C36BF31B0E6C6F000120EC18F0A0
:1041B0003A0E5AEC07F0200E5AEC07F063C3ABF34B
:1041C00062C3AAF33FEC07F001C064F301C065F3DA
:1041D00082D601C060F3030163C303F06251622B16
:1041E000D8B4632B646F03C065F303C0AAF3A96F4F
:1041F00060C3ABF300015EEC07F00301612BC0D795
:10420000646B6451000104EC03F00301642B0001B2
:104210005AEC07F0140E0301645DF3E19EAAFED789
:10422000AECF60F36051600806E260517A0803E3A4
:104230006051DF0B01D06051606F6051590803E09D
:1042400060514E08EBE1605100015AEC07F00301A8
:1042500060514E0859E1AA6BC00EA96FAB6B00010B
:104260005EEC07F00301646B645100011CEC03F089
:104270000301642B00015AEC07F0100E0301645D8A
:10428000F3E1656BC50E646F000109DF0301646B28
:104290006451000132EC03F00301642B00015AEC7D
:1042A00007F00C0E0301645DF3E1656BC10E646FF2
:1042B0000001F5DE0301646B6451000146EC03F07C
:1042C0000301642B00015AEC07F00C0E0301645D3E
:1042D000F3E1656BC90E646F0001E1DE0301646BFD
:1042E000645100015AEC03F00301642B00015AEC05
:1042F00007F0080E0301645DF3E1656BD30E646F94
:104300000001CDDE09D00301AA6BC00EA96F010E1A
:10431000AB6F00015EEC07F00301646B64510001B8
:104320006CEC03F00301642B00015AEC07F0210E42
:104330000301645DF3E1FF000001EDEF21F09EAAAF
:10434000FED7AECF5FF303015F51600806E25F5115
:104350007A0803E35F51DF0B01D05F515F6F5F515C
:104360004D0A00010BE0080A0CE0110A1CE0100ADB
:104370001CE0170A1DE0090A1DE02FD025EF1DF0F3
:104380002CD088D40301606B60510001A8EC04F0CC
:104390000301602B00015AEC07F02C0E0301605D55
:1043A000F3E100011AD07CD418D0F9EC18F015D044
:1043B000D4D613D096EC07F00301606B6051000176
:1043C000CCEC04F00301602B00015AEC07F0120E54
:1043D0000301605DF3E1000100D0A5EC1AF0D9EF14
:1043E0004DF0010E04010E6F190E0D6F0001D4EC9B
:1043F00008F0190E04010A6F000191EC08F001C0E9
:104400007DF303017D5303E1000E016E86D058B0A9
:1044100007D0000184EC0CF0000E016E03017DD08A
:1044200055C057F054C056F004010E6B0D6B0001DF
:10443000D4EC08F00401106B54C011F40001ADEC91
:1044400008F0010E0401106F55C011F40001ADEC2D
:1044500008F0030E03017E6F690E7EC3FAF3F96F55
:10446000FC6B140EFB6F0001DFEC12F07CC30BF44D
:104470007BC30AF46DEC0EF002C07CF301C07BF349
:1044800003016A511A0805E2FF0A19E16951F708A8
:1044900016E3030E7E6F690EE96E7EC3EAFFEFB08E
:1044A0000ED06EBF0CD06DB90AD06C51040805E275
:1044B000FF0A05E16B51EE0802E36DBF01D0FF007A
:1044C0006AC355F069C354F065C37DF366C37EF3D8
:1044D00066C3EAFF65C3E9FF030EE26E750EE16E87
:1044E000060E016EE6CFEEFF012EFCD767C3E9FF93
:1044F00068C3EAFFFF0EEF6E7C5108080BE17B53A7
:1045000003E07B51060806E167C3E9FF68C3EAFFE1
:104510007BC3EFFF5890010E016E00012BEF44F0BA
:10452000010E0301656F000151EC09F001C065F354
:10453000000E030101B4010E016E0001000C030125
:10454000AAC301F0ABC303F0AAC3ACF3ABC3ADF392
:10455000AAC3E9FFABC3EAFFECCFAFF3ED52EFCF55
:10456000AEF3AFC30BF4AEC30AF400016DEC0EF072
:10457000ADC3EAFFACC3E9FF02C0ECFFED5201C0DE
:10458000EFFF020E0301AA25016E000EAB21036EA0
:1045900001C0ACF3AD6F020EAA25E96E000EAB218F
:1045A000EA6EECCFAFF3ED52EFCFAEF3AFC30BF447
:1045B000AEC30AF400016DEC0EF0ADC3EAFFACC36C
:1045C000E9FF02C0ECFFED5201C0EFFF060E030150
:1045D000AA25016E000EAB21036E01C0ACF3AD6FD6
:1045E000060EAA25E96E000EAB21EA6EECCFAFF302
:1045F000ED52EFCFAEF3AFC30BF4AEC30AF400013C
:104600006DEC0EF0ADC3EAFFACC3E9FF02C0ECFFF6
:10461000ED5201C0EFFF000C030E0301FA6F740EA0
:10462000F96FFC6B1C0EFB6F0001DFEC12F084ECE9
:104630000CF0030E0301AB6F740EAA6F00017FDF55
:104640000301742D08D0755306E17851060803E183
:104650007951040803E0000E016E4ED07A51020831
:1046600008E17B5306E172C3E9FF73C3EAFFEF6A17
:1046700014D07A2D09D07B5307E172C3E9FF73C3CD
:10468000EAFF010EEF6E09D072C3E9FF73C3EAFFC0
:10469000020EEF6E000E016E2FD018508C5D29E1D6
:1046A00019508D5D26E11A508E5D23E11B508F5D00
:1046B00020E170C3E9FF71C3EAFF030EE26E7C0ED6
:1046C000E16E060E016EE6CFEEFF012EFCD7060E60
:1046D0007025E96E000E7121EA6E82C3EFFF83C37D
:1046E000ECFF84C3ECFF85C3ECFF010E016E04D028
:1046F00003D0000E016E00D000015CEF24F0010E2B
:104700000301EB6F000175EC0DF001C0A9F303018B
:10471000A93D03D0000E016EBCD0A9C304F404016E
:10472000066B056B00018AEC0DF003018E6B010E28
:104730008D6F080E906F8F6B060E916F040E926F47
:104740008C2D0BD0946B010E936FFF0E9F6FA06F9B
:10475000A16FA26FA36FA46F17D0946B020E936F1B
:104760008BC303F08AC3AAF38BC3ABF3030EEA6EC9
:104770009F0EE96E8BC3E2FF8AC3E1FF060E016E56
:10478000E6CFEEFF012EFCD7030EEA6E950EE96E22
:10479000E26A1C0EE16E060E016EE6CFEEFF012E00
:1047A000FCD71BC09EF31AC09DF319C09CF318C020
:1047B0009BF3060E8A25E96E000E8B21EA6EEFCF81
:1047C00000F0ECCF01F0ECCF02F0ECCF03F00050A2
:1047D0009B19AA6F01509C19AB6F02509D19AC6FC9
:1047E00003509E19AD6FAA512214006EAB512314D1
:1047F000016EAC512414026EAD512514036E0052AB
:1048000006E1015204E1025202E1035209E029C02B
:10481000A8F328C0A7F327C0A6F326C0A5F316D097
:10482000060E8A25E96E000E8B21EA6EEFCF00F0AE
:10483000ECCF01F0ECCF02F0ECCF03F003C0A8F313
:1048400002C0A7F301C0A6F300C0A5F3030EAB6F2F
:104850008D0EAA6F000173DE030E0401096F9F0E17
:10486000086F060E0A6F0C6B1C0E0B6F0001B1EC8B
:1048700010F0030E0401106F8D0E0F6F126B1C0EE3
:10488000116F00018CEC10F011EC13F0010E016EB1
:1048900003010001000C000E58B2010E000A01E0F5
:1048A0002FD0030E0301716F650E706F030E736FCF
:1048B0006F0E726F0001B0D6015201E131D084EC6D
:1048C0000CF003016F531AE1010EEA6E610EE96EFE
:1048D000030EE26E650EE16E060E016EE6CFEEFF90
:1048E000012EFCD76EC36AF16DC369F16CC368F128
:1048F0006BC367F1000114D003D00301588200019B
:10490000030E03018B6F650E8A6F8C6B0001F7DE5F
:10491000015202E0589203D0000E016E03D000D085
:10492000010E016E55EF44F0140E56240301C46FBE
:10493000000E5720C56FBE51C425C26FBF51C5219F
:10494000C36FC3511A0809E2FF0A03E1C251F70815
:1049500004E2F80EC25F1B0EC35B04010E6B100E67
:104960000D6F0001D4EC08F0100E0401106FC2C3EB
:1049700011F40001ADEC08F0110E0401106FC3C377
:1049800011F40001ADEC08F0010E0301C05D006EF2
:10499000000EC159036E0050C2270350C323C351F8
:1049A0001A0809E2FF0A03E1C251F70804E2F80E0F
:1049B000C25F1B0EC35B120E0401106FC2C311F461
:1049C0000001ADEC08F0130E0401106FC3C311F425
:1049D0000001ADEC08F01F0E0401126F300E136FD2
:1049E0000001C7EC08F01F0E04010A6F000191ECF2
:1049F00008F001C0C4F3000E030101BA010E000A61
:104A0000D8B402D00001EFD7160E04010A6F0001DE
:104A100091EC08F001C0C3F3170E04010A6F000106
:104A200091EC08F001C0C2F30301C2C301F0C3C39B
:104A300002F00001000C140E562403019A6F000EC0
:104A400057209B6F96519A25986F97519B21996F8C
:104A500099511A0809E2FF0A03E19851F70804E2A4
:104A6000F80E985F1B0E995B04010E6B0D6B000135
:104A7000D4EC08F00401106B98C311F40001ADEC04
:104A800008F0010E0401106F99C311F40001ADECA0
:104A900008F0020E0401106F98C311F40001ADEC90
:104AA00008F0030E0401106F99C311F40001ADEC7E
:104AB00008F0000C030E0301846F6F0E84C3FAF339
:104AC000F96FFC6B140EFB6F0001DFEC12F00301B9
:104AD0006F51F00B400803E0000E016E5ED06F5185
:104AE0000F0B006E003400018B6F8B37FC0E8B17A1
:104AF0000301BF6BBE6BC16B8BC0C0F3000114DF41
:104B000002C06EF301C06DF30301976B8BC096F387
:104B1000000191DF03016D516E1103E0000E016E83
:104B20003CD0030E0401056F6F0E046F000112EC00
:104B300010F00301655166110CE065C3E9FF66C31F
:104B4000EAFF7FC3EFFF80C3ECFF81C3ECFF82C3AA
:104B5000ECFF060E6725E96E000E6821EA6E7BC346
:104B6000EFFF7CC3ECFF7DC3ECFF7EC3ECFF69C3AA
:104B7000E9FF6AC3EAFF78C3EFFF6BC3E9FF6CC3C9
:104B8000EAFF00018B510301715D006E000E725946
:104B900000C0EFFFEC6E010E016E00016FEF44F0FC
:104BA0008B5103019225946F000E9321956F976F9F
:104BB00094C396F300013FDF000CFF0E0301896FE1
:104BC0008B6B5B0E8A6F886B88510108D8A089D0E7
:104BD0000C0E8A25E96E000E8B21EA6EECCF8DF368
:104BE000ED52EFCF8CF3020E8225E96E000E832189
:104BF000EA6EECCF03F0ED52EF508C5DD8A46BD091
:104C000003508D5D68E10A0E8A25E96E000E8B2146
:104C1000EA6EECCF8DF3ED52EFCF8CF382C3E9FF58
:104C200083C3EAFFECCF03F0ED52EF508C5D51E10E
:104C300003508D5D4EE1100E8A25E96E000E8B212A
:104C4000EA6EECCF8DF3ED52EFCF8CF38C5341E154
:104C50008D533FE1060E8A25E96E000E8B21EA6E28
:104C6000EFCF8CF3ECCF8DF3ECCF8EF3ECCF8FF353
:104C7000060E8425E96E000E8521EA6EEFCF00F066
:104C8000ECCF01F0ECCF02F0ECCF03F000508C5DE4
:104C900009E101508D5D06E102508E5D03E1035094
:104CA0008F5D14E086C3E9FF87C3EAFFEFCF8CF383
:104CB000ECCF8DF3ECCF8EF3ECCF8FF38C3D09D09E
:104CC0008D3D07D08E3D05D08F3D03D088C301F0C8
:104CD00043D088C389F3160E8A27D8B08B2B882B34
:104CE00073D7893D01D036D08951160DF350036A30
:104CF0005B0F016E000E032201C08AF303C08BF329
:104D00008BC303F08AC38CF38BC38DF38BC3EAFF91
:104D10008AC3E9FF85C3E2FF84C3E1FF0A0E016E87
:104D2000E6CFEEFF012EFCD70A0E8A25016E000E9B
:104D30008B2182C3E9FF83C3EAFFECCF03F0ED527E
:104D4000EFCF8EF3EA6E01C0E9FF03C0ECFFED5236
:104D50008EC3EFFF89C301F0000181EF27F0030E3E
:104D60000301FA6F6B0EF96FFC6B080EFB6F00010D
:104D7000DFEC12F06CC30BF46BC30AF46DEC0EF0B5
:104D800002C06CF301C06BF36EC30BF46DC30AF485
:104D90006DEC0EF002C06EF301C06DF370C30BF446
:104DA0006FC30AF46DEC0EF0080E0301015C6F6F27
:104DB000000E0258706F71517211D8B494D072C342
:104DC0000BF471C30AF400016DEC0EF002C072F333
:104DD00001C071F3060E03016525E96E000E662120
:104DE000EA6EEFCF00F0ECCF01F0ECCF02F0ECCFA9
:104DF00003F003C077F302C076F301C075F300C07F
:104E000074F367C3E9FF68C3EAFFEFCF78F3010EDD
:104E10006725E96E000E6821EA6EEFCF79F3020E86
:104E20006725E96E000E6821EA6EEFCF7AF3030E74
:104E30006725E96E000E6821EA6EEFCF7BF37C6B8D
:104E4000110E7D6F6AC37FF369C37EF37FC30BF4DA
:104E50007EC30AF400016DEC0EF002C07FF301C0C6
:104E60007EF3030E0301EE6F740EED6FF06B0C0E0C
:104E7000EF6F000197EC0FF001C080F30301801F7A
:104E800002C081F3811F936B060E926F000188DED2
:104E900080C30EF47FEC10F00301936B070E926F4A
:104EA00000017EDE81C30EF47FEC10F00301936BF2
:104EB000926B000175DE6AC3ECF369C3EBF330EC6F
:104EC00012F002C081F301C080F303017151805DD3
:104ED00003E17251815D07E0000184EC0CF0010EEA
:104EE000016E42D00301030E836F6B0E826F66C3A7
:104EF00085F365C384F368C387F367C386F3000152
:104F00005CD601C073F30301733D05D0000184EC4E
:104F10000CF028D003017351160DF350836B826F90
:104F2000100E8225016E000E8321036E01505B0F6F
:104F3000E96E000E0320EA6E70C3ECFFED526FC302
:104F4000EFFF7351160DF350836B826F150E82279E
:104F5000000E83235B0E8225E96E000E8321EA6E2C
:104F6000EF800001010E016EA7EF44F0FE0E030179
:104F7000986F976B97510408D8A07AD09751240D59
:104F8000F350036A8E0F016E000E032201C095F3E9
:104F900003C096F395C3E9FF96C3EAFFEF500A08F2
:104FA00065E00B0E9525E96E000E9621EA6EECCFBA
:104FB0009AF3ED52EFCF99F3020E9125E96E000EB0
:104FC0009221EA6EECCF03F0ED52EF50995D4EE185
:104FD00003509A5D4BE195C3E9FF96C3EAFFEF5298
:104FE00002E197C398F30D0E9525E96E000E962108
:104FF000EA6EECCF9AF3ED52EFCF99F391C3E9FF4C
:1050000092C3EAFFECCF03F0ED52EF50995D2EE131
:1050100003509A5D2BE1070E9525E96E000E96214F
:10502000EA6EEFCF99F3ECCF9AF3ECCF9BF3ECCF92
:105030009CF3060E9325E96E000E9421EA6EEFCFE5
:1050400000F0ECCF01F0ECCF02F0ECCF03F0005019
:10505000995D0CE101509A5D09E102509B5D06E10A
:1050600003509C5D03E197C301F06CD0972B82D76E
:105070009851FE0803E1FE0E016E64D09851240D94
:10508000F350036A8E0F016E000E032201C095F3E8
:1050900003C096F3010E9525996F000E96219A6F25
:1050A000EA6E99C3E9FF94C3E2FF93C3E1FF0A0EDE
:1050B000016EE6CFEEFF012EFCD70D0E9525016E99
:1050C000000E962191C3E9FF92C3EAFFECCF03F0F3
:1050D000ED52EFCF9BF3EA6E01C0E9FF03C0ECFF96
:1050E000ED529BC3EFFF230E9525E96E000E96212E
:1050F000EA6EEF960F0E9525E96E000E9621EA6E88
:10510000EF3C01D016D00F0E9525E96E000E9621CA
:10511000EA6EEFCF99F399C3B2F3000102EC00F00D
:105120000F0E03019525E96E000E9621EA6EFF0E23
:10513000EF6E230E9525E96E000E9621EA6EEF8242
:1051400098C301F00001D1EF2EF0F29A51C0B2F3F2
:1051500050C0B1F3F28A0301B1C301F0B2C302F04F
:105160000001000C03019151240DF350036A8E0FCE
:10517000016E000E032201C0A8F303C0A9F3AA6BBD
:105180001E0EA825E96E000EA921EA6EEF6A1F0E19
:10519000A825016E000EA921036E01C0AFF3B06F08
:1051A0000001D3DFB0C3EAFFAFC3E9FF02C0ECFFE9
:1051B000ED5201C0EFFF210E0301A825E96E000E9C
:1051C000A921EA6EEC6AED521E0EEF6E0D0E9425CB
:1051D000E96E000E9521EA6EEFA41ED0000184EC6A
:1051E0000CF00301A8C301F0A9C303F0A8C3AFF3F7
:1051F000A9C3B0F3230EA825E96E000EA921EA6E1B
:10520000EFA002D0000E01D0010EB0C3EAFFAFC381
:10521000E9FFEF6E18EF2EF0160EA825E96E000ECE
:10522000A921EA6EEFCF00F0ECCF01F0ECCF02F055
:10523000ECCF03F003C09FF302C09EF301C09DF3C7
:1052400000C09CF30E0E9425E96E000E9521EA6EC7
:10525000ECCF03F0ED52EFCFAFF303C0B0F3B16B7F
:10526000B26B080E9425E96E000E9521EA6EEFCF21
:1052700000F0ECCF01F0ECCF02F0ECCF03F00050E7
:105280009C5D006E01509D59016E02509E59026E48
:1052900003509F59036E0050AF5F0150B05B025046
:1052A000B15B0350B25B100EA825E96E000EA92178
:1052B000EA6EECCF03F0ED52EFCF00F003C001F047
:1052C000026A036A0050AF5DAB6F0150B059AC6F1A
:1052D0000250B159AD6F0350B259AE6FAEBF01D09D
:1052E0000AD0140EA825E96E000EA921EA6EEC6A18
:1052F000ED52EF6A0AD0140EA825E96E000EA9211E
:10530000EA6E98C3EFFF99C3ECFFA8C3E9FFA9C3F6
:10531000EAFFEF2CBED00D0E9425E96E000E95210C
:10532000EA6EEFB212D0000184EC0CF00D0E030116
:105330009425E96E000E9521EA6EEFA804D0040EC4
:10534000AA6FDCEF2DF018EF2EF01A0EA825016ED3
:10535000000EA92101C0AFF3B06F040E9425E96ED1
:10536000000E9521EA6EEFCFB1F3ECCFB2F3ECCFA4
:10537000B3F3ECCFB4F39651B1279751B223000E9B
:10538000B323B423010EB125006E000EB221016ECD
:10539000000EB321026E000EB421B0C3EAFFAFC30A
:1053A000E9FF00C0EFFF01C0ECFF02C0ECFFEC6EB4
:1053B0001A0EA825E96E000EA921EA6EEFCF00F0C3
:1053C000ECCF01F0ECCF02F0ECCF03F003C09BF385
:1053D00002C09AF301C099F300C098F30D0E942512
:1053E000E96E000E9521EA6EEFB80ED0A8C3E9FF72
:1053F000A9C3EAFF020EEF6E000184EC0CF0120E5E
:105400000301AA6FDCEF2DF0A8C3E9FFA9C3EAFFEF
:10541000030EEF6E100EAA6F140EA825016E000E7B
:10542000A921036EB06F0E0E9425E96E000E952132
:10543000EA6EECCF03F0ED52EFCFB1F3B0C3EAFF69
:1054400001C0E9FF03C0ECFFED52B1C3EFFF96517D
:1054500097111AE0230EA825E96E000EA921EA6E25
:10546000EF86120EA825E96E000EA921EA6E97C3F9
:10547000ECFFED5296C3EFFF230EA825E96E000E58
:10548000A921EA6EEF8404D0000184EC0CF0030142
:1054900093D3A8C3E9FFA9C3EAFFEF52D8A4C4D0AD
:1054A000000184EC0CF00D0E03019425E96E000E52
:1054B0009521EA6EEFB203D0040EAA6F7DD31A0EC7
:1054C000A825016E000EA92101C0AFF3B06F040E34
:1054D0009425E96E000E9521EA6EEFCFB1F3ECCF83
:1054E000B2F3ECCFB3F3ECCFB4F39651B1279751AD
:1054F000B223000EB323B423010EB125006E000EBB
:10550000B221016E000EB321026E000EB421B0C3B1
:10551000EAFFAFC3E9FF00C0EFFF01C0ECFF02C02C
:10552000ECFFEC6E140EA825016E000EA921036E8F
:10553000B06F0E0E9425E96E000E9521EA6EECCF49
:1055400003F0ED52EFCFB1F3B0C3EAFF01C0E9FFC2
:1055500003C0ECFFED52B1C3EFFF010EA825AF6F02
:10556000000EA921B06FEA6EAFC3E9FF93C3E2FF5B
:1055700092C3E1FF0A0E016EE6CFEEFF012EFCD7CB
:105580000D0EA825016E000EA92194C3E9FF95C355
:10559000EAFFECCF03F0ED52EFCFB1F3EA6E01C0BA
:1055A000E9FF03C0ECFFED52B1C3EFFFA8C3E9FF71
:1055B000A9C3EAFF020EEF6E160EA825E96E000ED3
:1055C000A921EA6EEE52EE52EE52EDCF03F0EDCF8E
:1055D00002F0EDCF01F0EFCF00F0010EEE26000E4D
:1055E000EE22EE22ED2203C09FF302C09EF301C023
:1055F0009DF300C09CF31A0EA825E96E000EA921A8
:10560000EA6EEFCF00F0ECCF01F0ECCF02F0ECCF80
:1056100003F003C09BF302C09AF301C099F300C0EA
:1056200098F3120EAA6FC8D21A0EA825E96E000EC2
:10563000A921EA6EEFCF00F0ECCF01F0ECCF02F041
:10564000ECCF03F003C0A3F302C0A2F301C0A1F3A7
:1056500000C0A0F3160EA825E96E000EA921EA6E7F
:10566000EFCF00F0ECCF01F0ECCF02F0ECCF03F085
:1056700003C0A7F302C0A6F301C0A5F300C0A4F3C2
:10568000040E9425E96E000E9521EA6EEFCF00F02E
:10569000ECCF01F0ECCF02F0ECCF03F003C09BF3B2
:1056A00002C09AF301C099F300C098F3026A036A3A
:1056B000965198279751992302509A2303509B2380
:1056C000160EA825E96E000EA921EA6EEFCF00F0B4
:1056D000ECCF01F0ECCF02F0ECCF03F003C09FF36E
:1056E00002C09EF301C09DF300C09CF3040E9425FC
:1056F000E96E000E9521EA6EEFCFAFF3ECCFB0F379
:10570000ECCFB1F3ECCFB2F3A051AF5DD8A446D249
:10571000A151B05DD8A442D2A251B15DD8A43ED26D
:10572000A351B25DD8A43AD2A8C3E9FFA9C3EAFF46
:10573000EF50020843E10D0E9425E96E000E95210D
:10574000EA6EEFA836D01A0EA825E96E000EA92140
:10575000EA6E98C3EFFF99C3ECFF9AC3ECFF9BC3BB
:10576000ECFFA8C3E9FFA9C3EAFF030EEF6E965151
:1057700097111AE0230EA825E96E000EA921EA6E02
:10578000EF86120EA825E96E000EA921EA6E97C3D6
:10579000ECFFED5296C3EFFF230EA825E96E000E35
:1057A000A921EA6EEF8404D0000184EC0CF003011F
:1057B00004D0000184EC0CF00301EFD11A0EA825EF
:1057C000E96E000EA921EA6E98C3EFFF99C3ECFFC2
:1057D0009AC3ECFF9BC3ECFFA8C3E9FFA9C3EAFF90
:1057E000EF500308D8A4E2D00D0E9425E96E000E08
:1057F0009521EA6EEFA82ED0230EA825E96E000EA3
:10580000A921EA6EEFB226D00F0EA825E96E000E90
:10581000A921EA6EEF3C01D01DD00F0EA825E96E3C
:10582000000EA921EA6EEFCFAFF3AFC3B2F30001D0
:1058300002EC00F00F0E0301A825E96E000EA9216D
:10584000EA6EFF0EEF6E230EA825E96E000EA92169
:10585000EA6EEF820D0E9425E96E000E9521EA6E38
:10586000EFA058D0110EAA6F160EA825E96E000EF3
:10587000A921EA6EEE52EE52EE52EDCF03F0EDCFDB
:1058800002F0EDCF01F0EFCF00F0010EEE26000E9A
:10589000EE22EE22ED2203C09FF302C09EF301C070
:1058A0009DF300C09CF31A0EA825E96E000EA921F5
:1058B000EA6E010EEF24006E000EEC20016E000E69
:1058C000EC20026E000EEC20ED52ED52ED5200C0C5
:1058D000EFFF01C0ECFF02C0ECFFEC6E1A0EA82532
:1058E000E96E000EA921EA6EEFCF00F0ECCF01F0D7
:1058F000ECCF02F0ECCF03F003C09BF302C09AF3AD
:1059000001C099F300C098F3A8C3E9FFA9C3EAFF57
:10591000090EEF6E9651971144E0230EA825E96E0B
:10592000000EA921EA6EEFB61BD0230EA825E96E62
:10593000000EA921EA6EEF86120EA825E96E000E70
:10594000A921EA6E97C3ECFFED5296C3EFFF230E39
:10595000A825E96E000EA921EA6EEF84AA8920D05D
:10596000160EA825E96E000EA921EA6EA4C3EFFF6A
:10597000A5C3ECFFA6C3ECFFA7C3ECFF1A0EA82536
:10598000E96E000EA921EA6EA0C3EFFFA1C3ECFFF0
:10599000A2C3ECFFA3C3ECFF000184EC0CF00301F5
:1059A00004D0000184EC0CF00301F7D0A8C3E9FF98
:1059B000A9C3EAFFEF50090815E1000184EC0CF0DF
:1059C0000D0E03019425E96E000E9521EA6EEFA8F5
:1059D00008D0A9C3B0F3A8C3AFF30001B9EC0CF031
:1059E0000301DBD0A8C3E9FFA9C3EAFFEF50040815
:1059F0006AE1000184EC0CF00D0E03019425E96EC0
:105A0000000E9521EA6EEFA04DD0100EAA6F1A0E6F
:105A1000A825E96E000EA921EA6E010EEF24006EA2
:105A2000000EEC20016E000EEC20026E000EEC2049
:105A3000ED52ED52ED5200C0EFFF01C0ECFF02C08D
:105A4000ECFFEC6E1A0EA825E96E000EA921EA6E95
:105A5000EFCF00F0ECCF01F0ECCF02F0ECCF03F091
:105A600003C09BF302C09AF301C099F300C098F3FE
:105A70000D0E9425E96E000E9521EA6EEFA809D06F
:105A8000A9C3B0F3A8C3AFF30001B9EC0CF008D080
:105A90000301A8C3E9FFA9C3EAFF060EEF6E0001E8
:105AA00010D003010D0E9425E96E000E9521EA6ECB
:105AB000EFA806D0A8C3E9FFA9C3EAFF050EEF6E61
:105AC00000016AD00301A8C3E9FFA9C3EAFFEF50B0
:105AD000050848E1000184EC0CF00D0E030194254B
